:100000000C941C020C9470210C94A2210C94D42109
:100010000C943B020C943B020C943B020C943B026C
:100020000C943B020C943E210C943B020C943B023A
:100030000C943B020C949D1F0C943B020C949D1F4E
:100040000C943B020C943B020C943B020C943B023C
:100050000C943B020C943B020C943B020C943B022C
:100060000C943B020C9422090C943B020C943B022E
:100070000C943B020C943B020C943B020C943B020C
:100080000C94D01F0C943B020C943B020C943B024A
:100090000C943B020C943B020C943B020C943B02EC
:1000A0000C943B020C943B020C943B020C943B02DC
:1000B0000C943B020C943B020C943B020C943B02CC
:1000C0000C943B020C943B020C943B020C943B02BC
:1000D0000C943B020C943B020C943B020C943B02AC
:1000E0000C943B020C9434070C9425070C94F506F1
:1000F0000C94F3070C94E6060C94D7060C94C506F2
:100100000C94B6060C943B020C943B020C943B02FC
:100110000C943B020C943B020C943B020C943B026B
:10012000010A0E0A1B0A280A350A420A4F0A720AF5
:10013000800A8E0A9C0AAA0AB80AB80ADB0ADD0AF3
:10014000DF0AE10AE30AE50AE70A060B290B4D0B71
:10015000700B930BB60BD90B130C200C2D0C3A0C17
:10016000470C540C610C7A0C870C940CA10CAE0C4F
:10017000BB0CC80C6010661069106C106F10721008
:10018000781075107B107E1081108A108D109010E1
:10019000931087105D1063109610991084105A10F8
:1001A000301133113E1143114A11531156115B1195
:1001B00062116B114E616E6F2D524B20566572733A
:1001C000696F6E20007561727420727820736967A0
:1001D000206661696C65640D0A00554E4B4F574EA1
:1001E0000045787465726E616C20526573657400A9
:1001F00042726F776E204F75742044657465637426
:10020000004661696C656420746F20637265617477
:10021000652053656D6170686F7265004661696C39
:10022000656420746F20637265617465205369672B
:100230006E616C004B65726E656C2066756E6374E2
:10024000696F6E206E6F7420696D706C656D656E80
:1002500074656400446576696365204472697665F7
:1002600072204572726F72005761746368646F67C1
:100270002052657374617274005357205761746320
:1002800068646F6720526573746172740054696D9D
:100290006572204F766572666C6F7700556E686187
:1002A0006E646C656420496E74657272757074203A
:1002B000566563746F72004C6F7720566F6C746173
:1002C0006765004578747261205461736B207374A4
:1002D00061727465642C206973206E726B5F636653
:1002E000672E68206F6B3F0049646C65206F722039
:1002F0004B65726E656C20537461636B204F76653D
:1003000072666C6F7700556E6578706563746564AE
:100310002052657374617274004475706C69636116
:10032000746564205461736B2049440053636865AD
:1003300064756C6572204D69737365642057616BD9
:10034000657570005461736B2052657365727665D4
:100350002056696F6C6174656400526573657276CE
:1003600065204572726F7220696E20536368656400
:10037000756C657200496E76616C696420537461B6
:10038000636B20506F696E746572005461736B20EB
:10039000537461636B204F766572666C6F770053A0
:1003A0007461636B20776173206E6F74206465667F
:1003B000696E6564206173206C6172676520656E8B
:1003C0006F75676821005461736B20706572696F87
:1003D0006420746F6F206C617267652E20506572A7
:1003E000696F64206D757374206265206C6573732A
:1003F000207468616E203631207365636F6E64739C
:100400002E00293A20002A4E524B204552524F527C
:1004100028000D0A535441434B2044554D500D0ABA
:100420000045464765666700202B2D2E303132335C
:10043000343536373839680011241FBECFEFD1E488
:10044000DEBFCDBF13E0A0E0B2E0E0EEFFE400E0ED
:100450000BBF02C007900D92A035B107D9F717E086
:10046000A0E5B3E001C01D92A332B107E1F70E94FD
:10047000E9220C94EE270C94931F40E050E0BA015F
:10048000AA2797FDA095BA2F481759076A077B0737
:1004900070F420E030E000002F5F3F4F2032EEE4A8
:1004A0003E07C9F74F5F5F4F6F4F7F4FEDCF089506
:1004B000CF93DF93CDB7DEB728970FB6F894DEBFA2
:1004C0000FBECDBF07E512E082E090E00E94E20C93
:1004D0008EE190E00E943D02CE0101960E94D91863
:1004E00088858F938F818F938E818F938D818F934A
:1004F0008C818F938B818F938A818F9389818F9346
:100500001F930F930E94B0250E942A170FB6F894EC
:10051000DEBF0FBECDBFD8CFCF93DF93CDB7DEB751
:1005200028970FB6F894DEBF0FBECDBF08E612E0E5
:1005300083E090E00E94E20C8EE190E00E943D0298
:10054000CE0101960E94D91888858F938F818F9351
:100550008E818F938D818F938C818F938B818F93DD
:100560008A818F9389818F931F930F930E94B02567
:100570000E942A170FB6F894DEBF0FBECDBFD8CFAA
:10058000CF9368E572E08DE693E00E94442240E854
:1005900050E06CE174E08DE693E00E944822EDE6C5
:1005A000F3E0C1E0C087C783C187C28781E090E0E4
:1005B000A0E0B0E083879487A587B6871786108A66
:1005C000118A128A838B948BA58BB68B178A108E17
:1005D000118E128E138E148E158E168E178E10A2FB
:1005E00011A212A26CE872E087EB95E00E9444220F
:1005F00040E850E068E973E087EB95E00E9448220C
:10060000E7EBF5E082E08087C783C187C28782E09D
:1006100090E0A0E0B0E083879487A587B68717862F
:10062000108A118A128A838B948BA58BB68B178ABA
:10063000108E118E128E138E148E158E168E178EAE
:1006400010A211A212A28DE693E00E94981687EBE9
:1006500095E0CF910C949816CF92DF92EF92FF9293
:100660000F931F93CF93DF93CDB7DEB72A970FB6C3
:10067000F894DEBF0FBECDBFF82EFE01319690E09C
:1006800091939F5F9A30E1F78E010F5F1F4F83E1D7
:10069000C82E83E0D82E9AE0E92EE00EF801819171
:1006A0008F011F928F93DF92CF920E94B0250F90FF
:1006B0000F900F900F90E012F1CF1F92FF9289E7F9
:1006C00092E09F938F930E94B0250F900F900F9010
:1006D0000F90F1E0FF1520F48FEF8F0D0E942C0397
:1006E00080E02A960FB6F894DEBF0FBECDBFDF9133
:1006F000CF911F910F91FF90EF90DF90CF900895D1
:10070000909141019F719F31D9F3809342010895E7
:1007100081E08093E00508951092E00508958091AE
:1007200041018F718F31D9F3809141018F71E1F0D7
:100730008F30D1F0809141018F71883031F48091F8
:1007400039018260809339010BC088E00E948003E8
:10075000809141018F718830D9F7F1CF8F3021F02E
:10076000809141018F71D1F70895809141018F717E
:100770008F31D9F3809141018F7111F08F3051F495
:10078000809139018D7F80933901809141018F7172
:100790008830D9F70895E5E4F1E09081907F908367
:1007A00090818F70982B90830895E7E5F1E0808128
:1007B0008D7F80830895E7E5F1E08081826080830A
:1007C0000895EEE6F1E080818F7E80830895EEE665
:1007D000F1E080818061808308958093600190932F
:1007E00061019093EA058093E90508959093E405EB
:1007F0008093E305E8E4F1E08081807E808380815E
:10080000682B608308959093530380935203089557
:10081000909351038093500308950F931F93CF93A8
:10082000DF93FC01D90180E28093440180EC809346
:10083000450160626093480185EC8093490187EA35
:1008400080934B0180E880934C0120936001B0932A
:1008500061014093620150936301C6E4D1E00881D5
:10086000888198812881302F32953695377060E4E1
:10087000369F80011124229526952370622F602BCC
:1008800082958695837070E1879F90011124262BB5
:1008900092959695937084E0989FB0011124622BF5
:1008A00060936D0188819881929596959370392F08
:1008B0003064982F92959670932B90936E011092BE
:1008C0006C018FEF80934E01C3EED5E0F983E8838E
:1008D0001A821B825D834C83BF83AE83188681E0BE
:1008E00080930506109224061092F4051092E005FC
:1008F000DF91CF911F910F91089586E10C948003B1
:1009000086E10C94800388E00E9480031092240604
:1009100008953F924F925F926F927F928F929F9233
:10092000AF92BF92CF92DF92EF92FF920F931F93FD
:10093000CF93DF93EC0180910506811102C08FEF08
:1009400026C12E818091E5058F5F8093E50590910A
:100950008101907E916020FB95F99F739064909344
:10096000810188E8809382018091E0058823D1F09D
:100970008FEF809383018AEA9AEA909389018093AA
:1009800088018FEF9FEF90938701809386012091DC
:1009900063018091620190E0922B90938501809396
:1009A00084011EC08091E5058093830180916101DF
:1009B0002091600130E0382B309389012093880129
:1009C000888199819093870180938601809163014A
:1009D0002091620130E0382B30938501209384010F
:1009E0003B014A81552747FD50956B817C818AE800
:1009F00091E00E9424258A81855F80938001809107
:100A00004101982F9F71392E9FEF930D9230B8F3CB
:100A100091E13916A1F392E1391689F39FE1391674
:100A200071F398EF930D923020F08F70863009F0BB
:100A300086CF86E10E9480038D8181110AC089E002
:100A40000E9480038E81882391F089E10E948003B7
:100A50000EC08091480180688093480180914101D7
:100A600087FFFCCF8091410186FF69CFE8CF6114F9
:100A70007104A9F18CEE95E00E94D9188091EC05E3
:100A80009091ED05A091EE05B091EF0580930606DB
:100A900090930706A0930806B0930906D30120E4BB
:100AA00032E44FE050E00E9468240091F00510917C
:100AB000F1052091F2053091F305DC01CB01800FA7
:100AC000911FA21FB31F80930A0690930B06A09359
:100AD0000C06B0930D0686E096E00E94C2191092B3
:100AE000F40582E00E948003412C512C8091F40592
:100AF000811108C08FEF481A580A98EE49169DEFE9
:100B00005906A1F76114710421F48E8181112DC061
:100B100032C08CEE95E00E94D9188090EC05909040
:100B2000ED05A090EE05B090EF05C090F005D090D7
:100B3000F105E090F205F090F305009106061091A2
:100B40000706209108063091090640910A06509147
:100B50000B0660910C0670910D0685E296E00E94EE
:100B600036198F3F09F0BBCFD0CF809142018295DB
:100B70008695877039F488EE48168DEF580611F087
:100B8000C1E001C0CFEF832D0E9480038C2FDF9145
:100B9000CF911F910F91FF90EF90DF90CF90BF907A
:100BA000AF909F908F907F906F905F904F903F900D
:100BB000089560E070E00C948904CF93DF938091F6
:100BC0000506882341F180914101C82FCF719FEF25
:100BD0009C0F9230C0F3C131B1F3C231A1F3CF31D8
:100BE00091F3C83019F08F708630A9F486E10E9425
:100BF0008003809148018068809348018091410181
:100C000087FFFCCFD09141018C2F0E948003D6FB3F
:100C1000882780F901C08FEFDF91CF9108958091EF
:100C20000506882309F4A0C080912406882309F4CE
:100C300099C080917B01E091E305F091E40590E09B
:100C400002972481332727FD3095281739070CF4A4
:100C50008BC0E091E305F091E405809182018083EF
:100C6000E091E305F091E40580918701909188017E
:100C700092838183E091E305F091E40580917B010B
:100C80008B508383A091E305B091E405E091E305E7
:100C9000F091E40513969C91848189173CF0E091D2
:100CA000E305F091E405838187FF0DC010922406CF
:100CB00080914C018F7780934C0180914C0180682A
:100CC00080934C0151C0A091E305B091E405E091FF
:100CD000E305F091E40513964C91552747FD509597
:100CE00069E871E0858196810E942425E091E30501
:100CF000F091E4058091800185FB882780F9878346
:100D0000E091E305F091E405809147018087E0914F
:100D1000E305F091E40580914601869586958695D8
:100D20008187E091E305F091E40580914701828796
:100D3000A091E305B091E405E0917B01F0E0E0587B
:100D4000FE4F80811B968C931092240680914C015B
:100D50008F7780934C0180914C01806880934C0187
:100D600081E0089580E008958FEF08951F920F921B
:100D70000FB60F9211248F9380E880934F018F91CB
:100D80000F900FBE0F901F9018951F920F920FB6E5
:100D90000F9211248F9381E08093F40580E4809377
:100DA0004F018F910F900FBE0F901F9018951F92BB
:100DB0000F920FB60F9211248F9380E280934F0110
:100DC0008F910F900FBE0F901F9018951F920F924A
:100DD0000FB60F9211248F9380E180934F018F9172
:100DE0000F900FBE0F901F9018951F920F920FB685
:100DF0000F9211240BB60F922F933F934F935F9353
:100E00006F937F938F939F93AF93BF93EF93FF93D2
:100E100084E080934F01E0915203F09153033097A7
:100E200009F00995FF91EF91BF91AF919F918F913B
:100E30007F916F915F914F913F912F910F900BBEDA
:100E40000F900FBE0F901F9018951F920F920FB624
:100E50000F9211248F9382E080934F018F910F9016
:100E60000FBE0F901F9018951F920F920FB60F9202
:100E700011248F9381E080934F018F910F900FBECB
:100E80000F901F901895E9E4F1E09081907F908396
:100E900090818F70982B908308958FEF0895089517
:100EA000089508958FEF08958091DE059091DF05F4
:100EB000089580E00895089581E0089581E00895FF
:100EC00081E0089508950895089508950895089576
:100ED00008950895E7E3F1E0808183608083989A24
:100EE000A09A8DB1806E8DB98EB1806E8EB9089545
:100EF000E7E3F1E0808183608083989AA0988DB1C8
:100F0000806E8DB98EB1806E8EB90895CF92DF92CA
:100F1000EF92FF920F931F93CF93DF93CDB7DEB77E
:100F200027970FB6F894DEBF0FBECDBF0E94410ECB
:100F3000E091E305F091E405C080D380E580F68080
:100F400000850E940F0618161CF088E892E006C083
:100F5000F7011081111107C087EA92E00E94CA25AB
:100F60000E94430E31C0153021F48AE090E00E94C7
:100F7000C425C70101969F938F93802F992787FDE2
:100F800090959F930F931F921F931F92CF9289EC7E
:100F900092E09F938F930E94B025FD82EC821150C6
:100FA000F7011083DB821E821F828FEF9FEF9A83EF
:100FB00089830E94430ECE0101960E94D9050FB687
:100FC000F894DEBF0FBECDBF27960FB6F894DEBFF4
:100FD0000FBECDBFDF91CF911F910F91FF90EF908A
:100FE000DF90CF9008951F920F920FB60F921124A9
:100FF0000BB60F922F933F934F935F936F937F9313
:101000008F939F93AF93BF93EF93FF9380E0909163
:101010007B01891710F48F5FFACF8091460187FF1B
:1010200004C081E08093240604C082EF92E00E9415
:10103000CA2588E080934F018091460187FF05C053
:101040008091E00581110E948607E0915003F091A4
:101050005103309709F00995FF91EF91BF91AF913E
:101060009F918F917F916F915F914F913F912F91C0
:101070000F900BBE0F900FBE0F901F901895A5EF0D
:10108000B5E0FC01409620812D93219120933F01F2
:10109000E817F907C1F780E110923E018150E1F7AE
:1010A00080E880933C0180913D0180FFFCCFEEE021
:1010B000F6E080E18E0F90913F0191938E13FBCF6C
:1010C0000895CF93DF93DC01662309F445C0862F92
:1010D0008F7009F041C0E5EFF5E090E19E0F21919E
:1010E00020933F019E13FBCF90E070E0E0E240E1EF
:1010F000949F90011124261737077CF5911103C0A6
:1011000010923C0102C0E0933C0140E050E02A0F05
:101110003B1FE901C40FD51FF881F0933E014F5FDB
:101120005F4F40315105A9F740913C014068409321
:101130003C0140913D0140FFFCCF40E050E0F09188
:101140003E01E901C40FD51FF8834F5F5F4F403167
:101150005105A9F79F5FCBCF81E0DF91CF91089533
:101160000F931F93CF93DF93DC01613009F458C0D4
:10117000862F8F7009F054C0EEE0F6E090E19E0FEC
:10118000219120933F019E13FBCF62956F706150B8
:1011900078E06F3F09F445C070933C01462F552716
:1011A00047FD509520E030E0ED0190E16902C00D6F
:1011B000D11D1124FE01E20FF31F908190933E0197
:1011C0002F5F3F4F20313105A9F790913C01906886
:1011D00090933C0190913D0190FFFCCF415051090B
:1011E00094E0440F551F9A95E1F720E030E090918C
:1011F0003E018E01020F131FF8019083662349F010
:10120000F901E40FF51FEA0FFB1FE0819E27F801AB
:1012100090832F5F3F4F2031310549F76150B9CF9F
:1012200081E0DF91CF911F910F9108959091C000BF
:1012300095FFFCCF9091C0009F7D9093C00080935C
:10124000C60008951F920F920FB60F9211240BB68D
:101250000F922F933F934F935F936F937F938F934F
:101260009F93AF93BF93EF93FF930E94410E8091A2
:10127000C00087FFFCCF8091C0008F778093C000B3
:101280002091C6008091650390916603FC01EB5AA2
:10129000FC4F208301968031910529F090936603DD
:1012A0008093650304C010926603109265038091D9
:1012B00054030E94B5138091C0008F778093C000C3
:1012C0000E94430EFF91EF91BF91AF919F918F913B
:1012D0007F916F915F914F913F912F910F900BBE36
:1012E0000F900FBE0F901F90189581110DC081E0D7
:1012F0004091670350916803209165033091660324
:101300004217530751F408C0813031F48091C8006E
:10131000881F8827881F089580E0089580915403CE
:101320008F3F19F48EE00E94B41080915403089509
:10133000CF93DF93FC012491EC012196222351F0FD
:1013400060911B0770911C07822F90E00E94782506
:10135000CE01F0CFDF91CF910895209167033091B6
:10136000680380916503909166032817390769F433
:10137000809154030E94831360915403772767FD83
:101380007095872F972F0E9426146F3F21F485ECCC
:1013900091E00E9498092091670330916803F90158
:1013A000EB5AFC4F80812F5F3F4F2031310528F4ED
:1013B0003093680320936703089510926803109296
:1013C0006703089586E084B985B988EF8AB980EF0C
:1013D0008BB982E08DB908950C94E2098F3F09F42E
:1013E0006CC0E82FE7704E2F50E04730510508F0F1
:1013F00064C0FA01E057FF4F8695869586950C9458
:10140000042542B121E030E0B90102C0660F771F28
:101410008A95E2F7CB01842B82B94DC045B121E01A
:1014200030E0B90102C0660F771F8A95E2F7CB0161
:10143000842B85B940C048B121E030E0B90102C039
:10144000660F771F8A95E2F7CB01842B88B933C0EA
:101450004BB121E030E0B90102C0660F771F8A95D9
:10146000E2F7CB01842B8BB926C04EB121E030E0EE
:10147000B90102C0660F771F8A95E2F7CB01842B72
:101480008EB919C041B321E030E0B90102C0660F46
:10149000771F8A95E2F7CB01842B81BB0CC044B344
:1014A00021E030E0B90102C0660F771F8A95E2F7AC
:1014B000CB01842B84BB81E008958FEF08958F3F8B
:1014C00009F465C0E82FE7704E2F50E04730510512
:1014D00008F05DC0FA01E956FF4F8695869586951E
:1014E0000C94042542B121E030E0B90102C0660F3E
:1014F000771F8A95E2F7CB018095842382B945C096
:1015000045B121E030E0B90102C0660F771F8A952E
:10151000E2F7CB018095842385B937C048B121E03B
:1015200030E0B90102C0660F771F8A95E2F7CB0160
:101530008095842388B929C04BB121E030E0B901FE
:1015400002C0660F771F8A95E2F7CB01809584234E
:101550008BB91BC04EB121E030E0B90102C0660F6B
:10156000771F8A95E2F7CB01809584238EB90DC051
:1015700041B321E030E0B90102C0660F771F8A95C0
:10158000E2F7CB018095842381BB81E008958FEF42
:1015900008958F3F31F1E82FE7704E2F50E047302C
:1015A0005105F8F4FA01E256FF4F282F26952695AB
:1015B00026950C94042590B10BC093B109C096B147
:1015C00007C099B105C09CB103C09FB101C092B3DF
:1015D000892F90E002C0959587952A95E2F7817052
:1015E00008958FEF08958F3F09F406C1E82FE77043
:1015F0004E2F50E04730510508F0FEC0FA01EB5580
:10160000FF4F8695869586950C94042520B130E091
:10161000082E02C0359527950A94E2F742B120FDC5
:101620000BC021E030E0B90102C0660F771F8A9538
:10163000E2F7CB01842B0BC021E030E0B90102C0FE
:10164000660F771F8A95E2F7CB018095842382B9D4
:1016500016C023B130E0082E02C0359527950A94B4
:10166000E2F745B120FD0DC021E030E0B90102C034
:10167000660F771F8A95E2F7CB01842B85B981E04D
:10168000089521E030E0B90102C0660F771F8A9506
:10169000E2F7CB0180958423F1CF26B130E0082E0C
:1016A00002C0359527950A94E2F748B120FD0BC09A
:1016B00021E030E0B90102C0660F771F8A95E2F79A
:1016C000CB01842B0BC021E030E0B90102C0660FD2
:1016D000771F8A95E2F7CB018095842388B9CFCF15
:1016E00029B130E0082E02C0359527950A94E2F71B
:1016F0004BB120FD0BC021E030E0B90102C0660F04
:10170000771F8A95E2F7CB01842B0BC021E030E0F4
:10171000B90102C0660F771F8A95E2F7CB01809569
:1017200084238BB9ACCF2CB130E0082E02C03595A4
:1017300027950A94E2F74EB120FD0BC021E030E07E
:10174000B90102C0660F771F8A95E2F7CB01842B9F
:101750000BC021E030E0B90102C0660F771F8A9507
:10176000E2F7CB01809584238EB989CF2FB130E089
:10177000082E02C0359527950A94E2F741B320FD63
:101780000BC021E030E0B90102C0660F771F8A95D7
:10179000E2F7CB01842B0BC021E030E0B90102C09D
:1017A000660F771F8A95E2F7CB018095842381BB72
:1017B00066CF22B330E0082E02C0359527950A94F3
:1017C000E2F744B320FD0BC021E030E0B90102C0D4
:1017D000660F771F8A95E2F7CB01842B0BC021E0BF
:1017E00030E0B90102C0660F771F8A95E2F7CB019E
:1017F0008095842384BB43CF8FEF08958F3F09F4F6
:10180000D5C0E82FE7704E2F50E0611167C0473018
:10181000510508F0CBC0FA01E455FF4F8695869537
:1018200086950C94042541B121E030E0B90102C055
:10183000660F771F8A95E2F7CB018095842365C0F8
:1018400044B121E030E0B90102C0660F771F8A95EC
:10185000E2F7CB018095842365C047B121E030E0F9
:10186000B90102C0660F771F8A95E2F7CB01809518
:10187000842365C04AB121E030E0B90102C0660F9F
:10188000771F8A95E2F7CB018095842365C04DB11F
:1018900021E030E0B90102C0660F771F8A95E2F7B8
:1018A000CB018095842365C040B321E030E0B901CD
:1018B00002C0660F771F8A95E2F7CB0180958423DB
:1018C00065C043B321E030E0B90102C0660F771F65
:1018D0008A95E2F7CB018095842365C04730510596
:1018E00008F064C0FA01ED54FF4F86958695869501
:1018F0000C94042541B121E030E0B90102C0660F2B
:10190000771F8A95E2F7CB01842B81B94DC044B192
:1019100021E030E0B90102C0660F771F8A95E2F737
:10192000CB01842B84B940C047B121E030E0B9013C
:1019300002C0660F771F8A95E2F7CB01842B87B927
:1019400033C04AB121E030E0B90102C0660F771F11
:101950008A95E2F7CB01842B8AB926C04DB121E0EC
:1019600030E0B90102C0660F771F8A95E2F7CB011C
:10197000842B8DB919C040B321E030E0B90102C019
:10198000660F771F8A95E2F7CB01842B80BB0CC0D2
:1019900043B321E030E0B90102C0660F771F8A959A
:1019A000E2F7CB01842B83BB81E008958FEF08958C
:1019B000811106C080B18695817091E089270895D4
:1019C0008FEF0895009711F483E20DC081309105E7
:1019D00011F48BE208C08230910511F483E303C057
:1019E000039729F48BE30E94F30A81E008958FEFB7
:1019F0000895009711F483E20DC08130910511F430
:101A00008BE208C08230910511F483E303C0039791
:101A100029F48BE30E94EE0981E008958FEF089589
:101A2000009711F483E20DC08130910511F48BE22F
:101A300008C08230910511F483E303C0039729F4B1
:101A40008BE30E945F0A81E008958FEF0895882359
:101A500019F085B78F7E02C085B7806185BF81E0B0
:101A600008959091C80095FFFCCF8093CE00089513
:101A70009093C5008093C40086E08093C200E1EC9F
:101A8000F0E080818B7F8083A0ECB0E08C9182605D
:101A90008C9380818861808308959093CD0080939A
:101AA000CC0086E08093CA00E9ECF0E080818B7F77
:101AB0008083A8ECB0E08C9182608C9380818861F7
:101AC000808308950E94380D6DEA79E086E199E0FF
:101AD0000E942D2590931C0780931B076DEA79E0E7
:101AE00086E199E00E942D2590931A0780931907AB
:101AF0000E947312809354038F3F19F48EE00E946A
:101B0000B41010926803109267031092660310924B
:101B100065038091C10080688093C1000895809121
:101B2000C80087FFFCCF8091C8008F778093C800E2
:101B30008091CE0008950000000000000000019791
:101B4000D1F708950C9488260E9490260895EF926C
:101B5000FF920F931F93CF93DF937C0180E090E07F
:101B60000E948826182FF701838381E090E00E946D
:101B70008826082FF701828382E090E00E94882661
:101B8000D82FF701818383E090E00E948826C82F38
:101B9000F701808384E090E00E948826100FD10F27
:101BA000CD0F8C1711F08FEF01C081E0DF91CF9145
:101BB0001F910F91FF90EF900895CF93DF93EC0169
:101BC00085E090E00E948826888381E0DF91CF91B4
:101BD0000895FC01608186E090E00E94902681E0FB
:101BE0000895CF93DF93EC0186E090E00E94882671
:101BF000888381E0DF91CF9108950F931F93CF9356
:101C0000DF938C01C0E0D0E0CE0108960E948826C8
:101C1000F80181938F012196C031D105A9F781E0A8
:101C2000DF91CF911F910F9108950F931F93CF9341
:101C3000DF938C01C0E0D0E0F80161918F01CE010B
:101C400008960E9490262196C031D105A9F781E01F
:101C5000DF91CF911F910F910895CF93DF93EC0106
:101C600087E090E00E948826888381E0DF91CF9111
:101C70000895FC01608187E090E00E94902681E059
:101C80000895F8940895789408950E94410EFFCF26
:101C90001F93CF93DF93CDB7DEB7A3970FB6F8941A
:101CA000DEBF0FBECDBF0E9473128093E4068F3F4C
:101CB00021F460E08EE00E94BF100E940C20182FDB
:101CC00080FF04C060E086E00E94BF1011FF04C0E6
:101CD00060E084E10E94BF1012FF04C060E083E175
:101CE0000E94BF101092E7061092F5061092F406BB
:101CF0001092E6061092E5061092F6061092F30690
:101D00008FEF8093DD068093DF068093DE0680935D
:101D1000E0068093E2068093E10693E6909339060D
:101D200080933706909364068093620690938F06A3
:101D300080938D069093BA068093B80687EF96E05D
:101D40002CEF36E03093FB062093FA069093FE06C4
:101D50008093FD0641E057E0509300074093FF0653
:101D6000309303072093020726E037E030930507FE
:101D70002093040750930807409307074BE057E070
:101D800050930A074093090730930D0720930C07DF
:101D90001092F9061092F80610920F0710920E0793
:101DA0001092EA061092E90690932E0680932D0673
:101DB00063E67BE1CE0101960E94442240E850E0B8
:101DC00067E375E0CE0101960E94482285E5809385
:101DD000370519861C861D861E861F86188A198A55
:101DE0001A8A1B8A1C8A1D8A1E8A1F8A188E198EBF
:101DF0001A8E1B8E1C8E1D8E1E8E1F8E18A219A26F
:101E00001AA21BA281E0888792E09A878B87CE0175
:101E100001960E949816A3960FB6F894DEBF0FBEE7
:101E2000CDBFDF91CF911F91089507E316E0C0E089
:101E3000F801D080FFEFDF1222C0CF5F055D1F4F9A
:101E4000C430B1F70E9487152BE28202C001112431
:101E5000FC01E15DF94F82858093F606F093F5066B
:101E6000E093F406F093E606E093E5068093E70638
:101E70000E94BA220E94A4220E94BE2216C087E3BA
:101E8000E82E86E0F82ED0E0CD1741F0F7018081F2
:101E9000D81204C06D2D85E00E94BF10DF5FFBE209
:101EA000EF0EF11CD43081F7C8CFFFCFCF92DF9275
:101EB000EF92FF920F931F93CF93DF93EC018B016F
:101EC0007A018985823021F08091E306888301C000
:101ED00018828091E306843020F060E087E00E9461
:101EE000BF108985823029F08091E3068F5F80934F
:101EF000E3068091E306811103C081E08093E3064D
:101F000038812BE23203F0011124E15DF94F118396
:101F100000838885828738813203F0011124E15DD6
:101F2000F94F83E0818738813203F0011124E15DAC
:101F3000F94F30870881020380011124015D194F98
:101F4000F8011582CE010B960E94F51AF80161A3E3
:101F500072A383A394A38B859C85AD85BE858833AE
:101F60009948A144B10520F0688186E10E94BF1024
:101F7000C880DD24C7FCD094CE014B960E94F51A90
:101F80001BE21C9DF0011D9DF00D1124E15DF94F38
:101F9000658B768B878B908F28812103C00111245C
:101FA0009C01215D394F6901F9014589568967898D
:101FB000708D81A192A1A3A1B4A1840F951FA61F2A
:101FC000B71F818F928FA38FB48FCE0143960E944B
:101FD000F51AF60165A376A387A390A728812103AC
:101FE000F0011124E15DF94F85A196A1A7A1B0A54B
:101FF000858F968FA78FB0A381E090E092A781A7ED
:10200000F382E2828487DF91CF911F910F91FF903D
:10201000EF90DF90CF9008950C94871B85E690E0B9
:102020000895E091F406F091F50684870895E09113
:10203000F406F091F50684850895FC01809136053B
:10204000882331F0DB018C9380916B03808381E0E6
:10205000089580913605882309F484C00E94410EBA
:1020600086E094E00E94980980916B031F928F9301
:102070008BE093E09F938F930E94B02582E094E0E1
:102080000E9498090F900F900F900F908091360545
:10209000883110F010923605E09136058E2F90E0D1
:1020A000FC013197E631F10508F046C0E654FF4FD8
:1020B0000C94042586EC93E041C08FE993E03EC088
:1020C0008BE893E03BC085E793E038C08AE593E076
:1020D00035C084E493E032C08CE293E02FC089E104
:1020E00093E02CC086E093E029C088EE92E026C001
:1020F00083EC92E023C087EB92E020C08CE992E071
:102100001DC08DE892E01AC089E792E017C088E60A
:1021100092E014C084E592E011C084E392E00EC026
:102120008CE192E00BC081E092E008C080EF91E08A
:1021300005C081EE91E002C08AED91E00E9498090D
:1021400060911B0770911C078DE090E00E9478253C
:1021500060911B0770911C078AE090E00E9478252F
:102160001092360580E0089580933605E091F406DC
:10217000F091F506808580936B030C942910809371
:10218000360560936B030C942910CF93DF931F9255
:10219000CDB7DEB719828981843640F480ED97E0AF
:1021A0000E94421E89818F5F8983F5CF0F90DF9156
:1021B000CF91089581E090E00E94100D0E94C5101B
:1021C0000E94C5100E94C51081E090E00E94F90CA9
:1021D0000C94C51081E090E00E94100D0E94C51083
:1021E00081E090E00E94F90C0C94C510FF920F93CF
:1021F0001F93CF93DF9300D01F92CDB7DEB71F920E
:102200008F938BE093E09F938F938E010F5F1F4F0F
:102210001F930F930E94FA250F900F900F900F902D
:102220000F900F90F12CF80101900020E9F7319701
:10223000E01BF10B8F2D90E08E179F0708F05DC01B
:10224000F801E80FF91FE0818E2F90E0FC01F09774
:10225000EA30F10508F049C0E053FF4F0C94042523
:102260000E94DA1002C00E94EA100E94DA100E9456
:10227000DA100E94DA100E94DA1037C00E94EA10C9
:102280000E94EA10F4CF0E94EA100E94EA100E9415
:10229000EA10EFCF0E94EA100E94EA100E94EA10B2
:1022A0000E94EA10E8CF0E94EA1002C00E94DA10F1
:1022B0000E94EA1004C00E94DA100E94DA100E9404
:1022C000EA1006C00E94DA100E94DA100E94DA10AA
:1022D0000E94EA1008C00E94DA100E94DA100E94E0
:1022E000DA100E94DA100E94EA100E94C5100E94C3
:1022F000C5100E94C510F39496CF0F900F900F90C9
:10230000DF91CF911F910F91FF9008956F927F926F
:102310008F929F92AF92BF92CF92DF92EF92FF92F5
:102320000F931F93CF93DF9382E194E00E9498096B
:10233000E091F406F091F5068085282F332727FDDC
:1023400030953F938F938EE093E09F938F930E94FD
:10235000B025E091F406F091F506C281D381DF93B8
:10236000CF9382E493E09F938F930E94B02588815E
:102370001F928F9387E193E09F938F930E94B025E4
:10238000E091F406F091F50681818F9380818F931F
:1023900084E293E09F938F930E94B0258091F5068D
:1023A0008F938091F4068F938EE293E09F938F93A7
:1023B0000E94B025CFE2D6E0EDB7FEB774960FB617
:1023C000F894FEBF0FBEEDBF00E010E08EE3682E74
:1023D00083E0782E97E1892E93E0992E24E2A22EB5
:1023E00023E0B22E3EE2C32E33E0D32EEA80FB8000
:1023F000FF92EF921F930F937F926F920E94B025EE
:10240000F70180811F928F939F928F920E94B02537
:1024100089818F9388818F93BF92AF920E94B0255C
:10242000DF93CF93DF92CF920E94B0250F5F1F4FB3
:10243000AB96EDB7FEB772960FB6F894FEBF0FBE1F
:10244000EDBF0430110591F6DF91CF911F910F91EF
:10245000FF90EF90DF90CF90BF90AF909F908F90C4
:102460007F906F900895CF93DF93E091F406F09101
:10247000F506C281D3818881853539F00E948611A5
:1024800081E00E94B41085E58883E091F406F09124
:10249000F506808191818115924438F00E94861161
:1024A00082E1DF91CF910C94B410DF91CF91089528
:1024B0002BE28202C0011124FC01E15DF94FA281EF
:1024C000B3818C91853519F085E58C9308C08081A6
:1024D00091818115924428F082E10E94B4108FEF1F
:1024E000089581E008950F931F934091180450912F
:1024F000190460911A0470911B0480E090E08A0135
:102500009B01082E04C036952795179507950A94C8
:10251000D2F700FD19C001E010E020E030E0082E05
:1025200004C0000F111F221F331F0A94D2F7402B43
:10253000512B622B732B4093180450931904609312
:102540001A0470931B0405C0019680329105B9F6F8
:102550008FEF1F910F910895E091F406F091F50629
:1025600065857685878590890895CF92DF92EF9271
:10257000FF920F931F93CF93DF93C12CD12C760141
:10258000C394082E04C0CC0CDD1CEE1CFF1C0A9466
:10259000D2F7409118045091190460911A04709177
:1025A0001B044C215D216E217F21452B462B472B9F
:1025B00009F460C0082F0E94410EE8E3F6E0B7017D
:1025C000A601409550956095709513E0DF01119735
:1025D0008C918F3F39F184819581A681B7818C15CB
:1025E0009D05AE05BF0551F410861186128613862F
:1025F0009F0122503109E901188210838423952319
:10260000A623B72384839583A683B783808591858A
:10261000A285B38584239523A623B723808791873A
:10262000A287B387BB96D6E0E43EFD0779F68EEF2E
:102630009FEFAFEFBFEF04C0880F991FAA1FBB1F0A
:102640000A95D2F7409118045091190460911A0428
:1026500070911B0484239523A623B7238093180429
:1026600090931904A0931A04B0931B040E94430E84
:1026700081E001C08FEFDF91CF911F910F91FF900B
:10268000EF90DF90CF9008950F931F9341E050E0BB
:1026900060E070E08A019B0104C0000F111F221F3F
:1026A000331F8A95D2F7D901C801E091F406F09161
:1026B000F5064585568567857089042315232623ED
:1026C0003723012B022B032BD1F080959095A095F9
:1026D000B095482359236A237B234587568767870C
:1026E000708B418952896389748984239523A62339
:1026F000B723818B928BA38BB48B81E001C08FEFCA
:102700001F910F910895282F40911804509119049A
:1027100060911A0470911B04082E04C07695679589
:10272000579547950A94D2F740FF1DC0E091F406F3
:10273000F091F50681E090E0A0E0B0E004C0880FE1
:10274000991FAA1FBB1F2A95D2F745855685678515
:102750007089842B952BA62BB72B85879687A78707
:10276000B08B81E008958FEF0895CF92DF92EF92C2
:10277000FF92CF93C12CD12C7601C39404C0CC0C12
:10278000DD1CEE1CFF1C8A95D2F7809118049091F5
:102790001904A0911A04B0911B048C219D21AE2133
:1027A000BF21892B8A2B8B2B11F481E044C00E941E
:1027B000410EE6E3F6E0A8E3B6E0C0E083E09081F6
:1027C0009130B9F442855385648575854C215D212E
:1027D0006E217F21452B462B472B59F08C93168673
:1027E0001786108A118A1082C286D386E486F586FF
:1027F000C1E090819230A1F442855385648575854E
:102800004C155D056E057F0559F48C931686178669
:10281000108A118A10821286138614861586C1E0EA
:10282000BB969B9696E0E23EF90749F60E94430E5E
:10283000C11105C082E00E9411108FEF01C081E03C
:10284000CF91FF90EF90DF90CF9008950F931F935B
:10285000E091F406F091F506058516852785308907
:1028600006231723282339230115110521053105D6
:1028700011F1DC01CB01818B928BA38BB48B21E016
:1028800027830090E40604C0B695A7959795879591
:102890000A94D2F780FF03C00E94001804C080E0B1
:1028A00090E00E94D117E091F406F091F5060189BD
:1028B000128923893489C901B8011F910F910895A4
:1028C0009091F30691111DC09091DD069F3F31F06C
:1028D0009091E0069F3F21F0E2E003C0E0E001C0FC
:1028E000E1E0F0E09F01220F331FE20FF31FE352FC
:1028F000F94F82838083618381E08093F306CF0167
:10290000089580E090E0089526E08D3D920729F03B
:10291000805E964021F481E0089580E008958FEF75
:1029200008950E9484148F3F11F481E002C0823028
:1029300021F40E9411108FEF0895992787FD90953B
:10294000FC01EE0FFF1F8E0F9F1FFC01E352F94F9A
:1029500082810895EF92FF920F931F93CF93DF939D
:102960001F92CDB7DEB70E9484148F3F11F481E02F
:1029700002C0823021F40E9411108FEF41C0898380
:102980000E94410E8981E82EFF24E7FCF094870124
:10299000000F111FF801EE0DFF1DE352F94F928158
:1029A000911116C0E091F406F091F50697819260BE
:1029B0009783992787FD9095A92FB92F818B928BAB
:1029C000A38BB48B0E94430E80E090E00E94D1174D
:1029D0000E0D1F1DD801A352B94F12968C9112975C
:1029E000815012968C931297E091F406F091F506BF
:1029F00011968C91838781E084830E94430E81E04D
:102A00000F90DF91CF911F910F91FF90EF9008955C
:102A10000F931F93CF93DF931F92CDB7DEB70E9422
:102A200084148F3F11F481E002C0823021F40E94AF
:102A300011108FEF44C0482F552747FD50959A013C
:102A4000220F331F240F351F89010352194FF8013C
:102A500022819081291794F589830E94410EF80103
:102A600092819F5F9283E091F406F091F5061482C3
:102A7000E6E3F6E08981992787FD9095A92FB92F84
:102A800023E03081323099F4428553856485758521
:102A9000481759076A077B0751F422831686178661
:102AA000108A118A10821286138614861586BB96A8
:102AB00036E0E23EF30729F70E94430E81E00F90D3
:102AC000DF91CF911F910F9108950E9484148F3F41
:102AD00011F481E002C0823021F40E9411108FEFC6
:102AE0000895992787FD9095FC01EE0FFF1F8E0F2B
:102AF0009F1FFC01E352F94F8FEF80838283818314
:102B00008091F30681508093F30681E00895E0916F
:102B1000E906F091EA0680810895E091E906F091D6
:102B2000EA06309721F00380F481E02DFACF089572
:102B3000AF92BF92CF92DF92EF92FF920F931F93CB
:102B4000CF93DF93E0912D06F0912E06309709F494
:102B500094C00091E9061091EA060115110509F4E7
:102B60004CC0D8014BE2582F540390011124215D31
:102B7000394F79019AE0E90EF11C6901C4E0CC0EED
:102B8000D11C5901DBE0AD0EB11C2C9130E0429F0D
:102B9000B001439F700D1124615D794FEB019C8161
:102BA000992329F05B85E7019881591740F1E601E7
:102BB0009881992369F0429FB001439F700D1124C1
:102BC000615D794FEB015A85E50198815917B8F09D
:102BD000429FB001439F700D11249B01215D394F2D
:102BE000E9012A85E7019881291748F013960D908D
:102BF000BC91A02D109749F602C0A0E0B0E0808300
:102C0000C381D481D0932E06C0932D06A017B1079F
:102C1000B1F4109749F0B483A38312821182129603
:102C2000FC93EE93119706C01482138212821182D4
:102C3000FA83E983F093EA06E093E9061EC0AC1735
:102C4000BD0779F011968D919C91129792838183A3
:102C5000B483A3831196CD91DC911297FC83EB830F
:102C600008C01482138211968D919C9112979283C1
:102C700081831296FC93EE931197DF91CF911F9170
:102C80000F91FF90EF90DF90CF90BF90AF9008959D
:102C9000CF93DF93E091E906F091EA06309709F4CB
:102CA00044C0992787FD9095208130E02817390787
:102CB00081F4A381B481B093EA06A093E906129649
:102CC0001C921E92119718C00380F481E02D30975A
:102CD00061F1208130E028173907B1F7C181D28135
:102CE000838194819C838B83A381B481109721F08D
:102CF0001296DC93CE931197A0912D06B0912E06DB
:102D0000109739F4F0932E06E0932D061482138267
:102D10000AC0B483A3831296FC93EE931197F093A9
:102D20002E06E0932D0612821182DF91CF91089535
:102D3000EF92FF920F931F93CF93DF93EC014B81A0
:102D40005C8169817A818D819E810E9466222F81BA
:102D5000222371F04B815C81E12CF12C00E010E02A
:102D600020E030E0BC01CE010E94560F1F820CC053
:102D7000E8812BE2E202F0011124E15DF94F2185A7
:102D80002330B9F491838083E8818BE2E802F0017B
:102D90001124E15DF94F85899689A789B08D892B2A
:102DA0008A2B8B2B41F482E0818788810E949815C1
:102DB00002C08FEF01C081E0DF91CF911F910F9191
:102DC000FF90EF9008951F93CF93DF93CDB7DEB7B9
:102DD00028970FB6F894DEBF0FBECDBF29833A8384
:102DE0004B835C836D837E838F8398870E94410E23
:102DF0000E94901F182FCE0101960E94F51A633091
:102E0000710598F0E091F406F091F506212F30E07D
:102E1000620F731FCB01A0E0B0E0858B968BA78B70
:102E2000B08F0E94430E81E001C08FEF28960FB64D
:102E3000F894DEBF0FBECDBFDF91CF911F910895F3
:102E40000E943922E091F406F091F5068581811106
:102E5000F7CF0895CF930E9433120E94410EE09164
:102E6000F406F091F50681E090E092A781A78583B2
:102E70000E94901FC82F883F80F40E942A1F2C2F89
:102E800030E02F5F3F4F90E02817390734F482E09D
:102E90008C0F80939F040E942E1F0E94430E0E945D
:102EA000201781E0CF910895E091F406F091F506A6
:102EB00080850E944816E091F406F091F50684E0C2
:102EC00081870E942A1781E00895CF93DF93EC0158
:102ED0000E943312209711F4C1E0D0E00E94410E0D
:102EE000E091F406F091F50681E08583D2A7C1A7B1
:102EF0000E94901FC82F883F80F40E942A1F2C2F09
:102F000030E02F5F3F4F90E02817390734F482E01C
:102F10008C0F80939F040E942E1F0E94430E0E94DC
:102F2000201781E0DF91CF910895EF92FF920F93E8
:102F30001F93CF938C010E94410EE091F406F09113
:102F4000F50681E085830E94901FC82FE091F4066A
:102F5000F091F506E82EF12CC701800F911FA0E03B
:102F6000B0E0858B968BA78BB08FC83F78F40E941A
:102F70002A1F9FEFE91AF90A90E0E816F90634F4DF
:102F800082E08C0F80939F040E942E1F0E94430EAC
:102F90000E94201781E0CF911F910F91FF90EF9039
:102FA0000895CF93DF93EC010E94410EE091F40667
:102FB000F091F50621E02583CE01A0E0B0E0858BFD
:102FC000968BA78BB08F0E94901FC82F883F80F4EC
:102FD0000E942A1F2C2F30E02F5F3F4F90E02817D0
:102FE000390734F482E08C0F80939F040E942E1FD7
:102FF0000E94430E0E94201781E0DF91CF91089537
:10300000CF930E94410EE091F406F091F50681E025
:10301000858386830E94901FC82F883F80F40E947A
:103020002A1F2C2F30E02F5F3F4F90E028173907E1
:1030300034F482E08C0F80939F040E942E1F0E9424
:10304000430E0E94201781E0CF9108951F93CF93E4
:10305000DF93CDB7DEB728970FB6F894DEBF0FBE6B
:10306000CDBF29833A834B835C836D837E838F83BB
:1030700098870E9433120E94410EE091F406F0916D
:10308000F50681E0858381E090E092A781A70E9408
:10309000901F182FCE0101960E94F51AE091F406B8
:1030A000F091F506DC01CB01810F911DA11DB11D31
:1030B000858B968BA78BB08F183F80F40E942A1FB8
:1030C000212F30E02F5F3F4F90E02817390734F46D
:1030D00082E0810F80939F040E942E1F0E94430E66
:1030E0000E94201781E028960FB6F894DEBF0FBE2D
:1030F000CDBFDF91CF911F9108958F929F92AF9294
:10310000BF92CF92DF92EF92FF920F931F93CF93D4
:10311000DF93CDB7DEB760970FB6F894DEBF0FBE72
:10312000CDBF29873A874B875C876D877E878F87DE
:10313000988BCE0101960E94D91889809A80AB8025
:10314000BC80CD80DE80EF80F88409851A852B85D0
:103150003C854D855E856F857889CE0109960E94F4
:1031600036198F3F61F029853A854B855C856D85E1
:103170007E858F8598890E94261881E001C08FEF97
:1031800060960FB6F894DEBF0FBECDBFDF91CF9132
:103190001F910F91FF90EF90DF90CF90BF90AF9075
:1031A0009F908F900895E091F406F091F506808548
:1031B00008950F931F93CF93DF93EC011C821D8220
:1031C0001E821F828091EB069091EC06A091ED0685
:1031D000B091EE0688839983AA83BB838091EF0622
:1031E0009091F006A091F106B091F2068C839D8338
:1031F000AE83BF830E94901FA82FB0E023EB36EE72
:103200004EE050E00E9468240C811D812E813F8198
:10321000DC01CB01800F911FA21FB31F8C839D8304
:10322000AE83BF838C819D81AE81BF8181152AECE5
:1032300092072AE9A2072BE3B20798F09A5CAA4901
:10324000BB438C839D83AE83BF8388819981AA8190
:10325000BB810196A11DB11D88839983AA83BB837D
:10326000E1CFDF91CF911F910F9108958F929F929F
:10327000AF92BF92CF92DF92EF92FF920F931F9384
:10328000CF93DF93CDB7DEB760970FB6F894DEBF6C
:103290000FBECDBFFC0109831A832B833C834D8372
:1032A0005E836F83788789869A86AB86BC86CD8657
:1032B000DE86EF86F88A09811A812B813C814D8157
:1032C0005E816F817885C984DA84EB84FC848D8586
:1032D0009E85AF85B8890C151D052E053F05F0F1BB
:1032E000C016D106E206F30691F4481759076A079B
:1032F0007B07A0F1481B590B6A0B7B0B448355835A
:1033000066837783108211821282138225C0481748
:1033100059076A077B0780F4015011092109310917
:103320000C191D092E093F09008311832283338361
:1033300056536546744C08C00C191D092E093F09E7
:103340000083118322833383481B590B6A0B7B0B49
:10335000448355836683778381E001C08FEF609655
:103360000FB6F894DEBF0FBECDBFDF91CF911F9196
:103370000F91FF90EF90DF90CF90BF90AF909F9014
:103380008F900895FC0144815581668177814115B4
:103390008AEC58078AE968078BE3780798F05A5C4B
:1033A0006A497B4344835583668377838081918117
:1033B000A281B3810196A11DB11D80839183A28357
:1033C000B383E1CF08958F929F92AF92BF92CF9235
:1033D000DF92EF92FF920F931F93CF93DF93CDB7BE
:1033E000DEB760970FB6F894DEBF0FBECDBF09837E
:1033F0001A832B833C834D835E836F837887898612
:103400009A86AB86BC86CD86DE86EF86F88A0985ED
:103410001A852B853C8549815A816B817C81400FBF
:10342000511F621F731FFC014083518362837383AA
:103430000D851E852F8538894D815E816F81788548
:10344000400F511F621F731F448355836683778328
:103450000E94C21981E060960FB6F894DEBF0FBEDD
:10346000CDBFDF91CF911F910F91FF90EF90DF9033
:10347000CF90BF90AF909F908F900895EBEEF6E0C5
:103480006083718382839383248335834683578348
:1034900008952F923F924F925F926F927F928F92F8
:1034A0009F92AF92BF92CF92DF92EF92FF920F93D3
:1034B0001F93FC01C080D180E280F380C114D1044D
:1034C000E104F104E1F184819581A681B78122E4D0
:1034D000C216D104E104F104F0F51C012D01612CA8
:1034E000712C4301E0E08E2F90E0A0E0B0E08C155D
:1034F0009D05AE05BF0588F49101A201B301C40189
:1035000036534546544C6F4F7F4F8F4F9F4F190195
:103510002A013B014C01EF5FE6CF83EBA82E96EE2C
:10352000B92E2EE0C22ED12CE12CF12C00E010E0BF
:103530009101A201B301C4010E94A7240AC06481C1
:1035400075818681978123EB36EE4EE050E00E9434
:103550008324C90102C080E090E01F910F91FF9089
:10356000EF90DF90CF90BF90AF909F908F907F9023
:103570006F905F904F903F902F900895CF92DF9281
:10358000EF92FF92CF93DF93CDB7DEB728970FB6B8
:10359000F894DEBF0FBECDBF6B017C012AE0F6942C
:1035A000E794D794C7942A95D1F7C982DA82EB823F
:1035B000FC829B01AC0133704427552763EB76EE08
:1035C0008EE090E00E9473242C2D3A814B815C8127
:1035D00028960FB6F894DEBF0FBECDBFDF91CF9116
:1035E000FF90EF90DF90CF9008952F923F924F92EF
:1035F0005F926F927F928F929F92AF92BF92CF9283
:10360000DF92EF92FF920F931F93FC01C080D18055
:10361000E280F380C114D104E104F104B9F18481A2
:103620009581A681B7811C012D01612C712C43016C
:10363000E0E08E2F90E0A0E0B0E08C159D05AE0597
:10364000BF0588F49101A201B301C4013653454678
:10365000544C6F4F7F4F8F4F9F4F19012A013B01F1
:103660004C01EF5FE6CF83EBA82E96EEB92E2EE04D
:10367000C22ED12CE12CF12C00E010E09101A2012E
:10368000B301C4010E94A724CA010BC064817581E3
:103690008681978123EB36EE4EE050E00E94832432
:1036A000CA01B9011F910F91FF90EF90DF90CF9069
:1036B000BF90AF909F908F907F906F905F904F9052
:1036C0003F902F900895C2E0D1E00E9433120E94F3
:1036D0002A1F843028F4D093E8060E94392208C0BB
:1036E0008AE090E00E94421EC093E8060E942D22CC
:1036F00080913705853519F088E00E94B4108091DB
:103700007E41853511F388E00E94B410DECF2F9200
:103710003F924F925F926F927F928F929F92AF9261
:10372000BF92CF92DF92EF92FF920F931F93CF93AE
:10373000DF9300D01F92CDB7DEB70E945E1E0E94BD
:10374000430E0E947C1E0E94841E1C018AEF0E9470
:103750002E1FA0919F04B0E023EB36EE4EE050E028
:103760000E9468240091EF061091F0062091F10666
:103770003091F2066B017C01C00ED11EE21EF31ED9
:10378000C701B60123EB36EE4EE050E00E948324E1
:1037900026013701461A570A680A790AD301C2017D
:1037A0000091EB061091EC062091ED063091EE06AB
:1037B00043EB842E46EE942E4EE0A42EB12C6801ED
:1037C00079014FEFC41AD40AE40AF40A81155AECBD
:1037D00095075AE9A5075BE3B507C8F02C013D0141
:1037E0002AEC521A2AE9620A2BE3720AC301B201D7
:1037F000A50194010E948324A3019201261B370B8B
:10380000480B590BDA01C90197018601D8CF809383
:10381000EF069093F006A093F106B093F2060093A2
:10382000EB061093EC062093ED063093EE06E09144
:10383000F406F091F5068581882339F1818584307D
:1038400021F18781823029F0882341F0868181111E
:1038500002C085E001C083E0818714C083E08187D6
:103860001782168285899689A789B08D892B8A2B24
:103870008B2B41F4818D928DA38DB48D858B968B8E
:10388000A78BB08F80850E944816E091F406F091D6
:10389000F50685A196A1A7A1B0A5892B8A2B8B2B14
:1038A00009F444C02085222309F440C08185843076
:1038B000E9F1858D968DA78DB0A140919F0450E0D0
:1038C00060E070E084179507A607B70768F4622FD9
:1038D00082E00E94BF10E091F406F091F506158E8B
:1038E000168E178E10A208C0841B950BA60BB70B63
:1038F000858F968FA78FB0A3E091F406F091F5061F
:103900001085858D968DA78DB0A1892B8A2B8B2B49
:1039100069F4612F83E00E94BF10E091F406F091FA
:10392000F50683E08187812F0E94481688E396E0A0
:103930009B838A8300E61AEE19822AEFC22ED12CCD
:10394000E12CF12C812C912C54018394EA81FB8190
:10395000319780818F3F09F404C1EA81FB8134975C
:103960001082882309F467C0EA81FB81808184305A
:1039700009F461C0448455846684778460919F040F
:1039800070E080E090E0461657066806790648F039
:10399000461A570A680A790A4486558666867786E3
:1039A00006C0EA81FB811486158616861786EA8191
:1039B000FB814088518862887388461657066806DE
:1039C000790648F0461A570A680A790A408A518AE5
:1039D000628A738A1EC0EA81FB81208D318D428DFF
:1039E000538D621773078407950758F429013A012C
:1039F000461A570A680A790A408A518A628A738A83
:103A000008C00E948324EA81FB81608B718B828BCA
:103A1000938BEA81FB8180899189A289B389892B63
:103A20008A2B8B2B41F4808D918DA28DB38D808B51
:103A3000918BA28BB38BEA81FB818081833009F06B
:103A400090C084859585A685B785892B8A2B8B2B7D
:103A500009F074C0DF0112978C919F012350310946
:103A60008823A9F0F9018081882389F0B501A40198
:103A70000090E40604C0440F551F661F771F0A9488
:103A8000D2F7EA81FB8140875187628773871C9256
:103A9000F9011082EA81FB81A0A1B1A1A130B10599
:103AA00019F5848D958DA68DB78D848B958BA68BFE
:103AB000B78B92E0492E408280899189A289B3898F
:103AC00084879587A687B787808D918DA28DB38DCA
:103AD000892B8A2B8B2B21F4C486D586E686F78624
:103AE00089810E9498152AC0EA81FB81448D558DF9
:103AF000668D778D448B558B668B778B408C518C84
:103B0000628C738C1197A30192010E9468246487D0
:103B1000758786879787608B718B828B938B4528FF
:103B20004628472821F4C486D586E686F7864424AD
:103B30004394512CEA81FB8151A240A2EA81FB818E
:103B400084859585A685B7850097A105B10549F0BF
:103B5000A80160E070E084179507A607B70708F48E
:103B60008C01F981FF5FF9832A813B81255D3F4FFD
:103B70003B832A83F43009F0E9CE0E948715F82EA2
:103B80003BE28302F0011124E15DF94F228520938D
:103B9000F606F093E606E093E5068823F9F085A1A2
:103BA00096A1A7A1B0A5892B8A2B8B2B99F0858D87
:103BB000968DA78DB0A18A3F9105A105B10550F45E
:103BC000A80160E070E084179507A607B707E8F43E
:103BD0008C011BC00B3F1105C0F012C00430110551
:103BE000A0F0C80103978A3F910538F48C01823018
:103BF000910558F402E010E008C00D3F110519F0DE
:103C00000AEF10E002C007EF10E02093E706F09300
:103C1000F506E093F40600939F040E94901F282F5E
:103C200030E02F5F3F4F2017310740F00E94901F78
:103C3000082F10E00E5F1F4F00939F04F1101092A9
:103C4000E806802F0E942E1F6CED75E0C1010E94D6
:103C5000961E0E94B3220F900F900F90DF91CF918C
:103C60001F910F91FF90EF90DF90CF90BF90AF909A
:103C70009F908F907F906F905F904F903F902F908C
:103C80000C94BE22000000000000000000000000B4
:103C9000000000000000000000000000019791F704
:103CA000089510922101089589E0809321018DE803
:103CB0009CE3909329018093280108951092250197
:103CC000109224010895CF93DF9300D0CDB7DEB7D3
:103CD00080912401909125019A83898389819A8119
:103CE0000F900F90DF91CF91089510928100089569
:103CF00081E080938100089583B5816083BD109237
:103D00008500109284000895CF93DF9300D0CDB743
:103D1000DEB780918400909185009A8389838981A0
:103D20009A810F900F90DF91CF910895CF92DF92FB
:103D3000EF92FF92CF93DF93EC01CC0FDD1FC937D9
:103D40008FEFD80710F0C0E0D0E06B01E12CF12C30
:103D5000CC0EDD1EE11CF11C81E0C816D104E80682
:103D6000F10440F081E0E81AF1080E94841EC817AF
:103D7000D907D8F30E94841E8C159D05D8F3DF91D6
:103D8000CF91FF90EF90DF90CF9008951092B10007
:103D9000E0E7F0E080818D7F808380818E7F80836B
:103DA00008958093B2000895E0E7F0E08081836099
:103DB000808383E08093B100089583B5826083BDE2
:103DC0001092B20010926C0310929F040895CF934A
:103DD000DF938EEF80939F0480E28093B600809102
:103DE0009F048093B30083E087BB92E09093B00080
:103DF0008093B10093B5926093BD87BB84BD83B5BA
:103E0000826083BD1092800081E0809381001092D7
:103E100085001092840083B5826083BD83B5816084
:103E200083BD10922001C4E2D1E01982188283B5CB
:103E3000826083BD83B5816083BD0E94DD1E1982CF
:103E400018820E94D41E0E94541E10926C03DF91AF
:103E5000CF9108958091B3008F5F08958150809332
:103E6000B3000895811102C0109271008FEF089580
:103E7000811106C0109295001092940081E008957F
:103E80008FEF0895811105C0809194009091950065
:103E9000089580E090E00895811105C082E080934C
:103EA000710081E008958FEF0895811135C0CB0135
:103EB0000197059710F460939E041092900088E09B
:103EC00080939100509399004093980030936A0337
:103ED0002093690380919E04813021F480919100A8
:103EE000816011C0823021F48091910082600BC00A
:103EF000833021F480919100836005C0843031F4D7
:103F00008091910084608093910008C0853031F4E5
:103F1000809191008560F7CF8FEF089581E008953B
:103F20008091B20008951F920F920FB60F92112444
:103F300060E08AE00E94BF10FFCF0F920FB60F9291
:103F40001F922F923F924F925F926F927F928F9229
:103F50009F92AF92BF92CF92DF92EF92FF920F9318
:103F60001F932F933F934F935F936F937F938F9301
:103F70009F93AF93BF93CF93DF93EF93FF93A09162
:103F8000F406B091F5060DB60D920EB60D921F9285
:103F9000A0919C04B0919D041E90BEBFADBF08953A
:103FA0001F920F920FB60F9211240BB60F922F9300
:103FB0003F934F935F936F937F938F939F93AF93B1
:103FC000BF93EF93FF93E0916903F0916A033097F9
:103FD00011F0099504C060E08AE00E94BF10FF91D3
:103FE000EF91BF91AF919F918F917F916F915F9171
:103FF0004F913F912F910F900BBE0F900FBE0F90DE
:104000001F9018951F920F920FB60F9211240F90C8
:104010000FBE0F901F90189504B603FE02C080E1FA
:1040200001C080E004B602FE06C094B79B7F94BF37
:1040300004B600FE846004B601FE05C094B79D7FFF
:1040400094BF8260089581110CC004B600FE04C0C4
:1040500094B79E7F94BF01C081E09091B000911110
:1040600081E00895811102C0E89A39C0813011F4CD
:10407000E99A0895823011F4EA9A31C0833021F42C
:1040800080916B00816029C0843021F480916B00A5
:10409000826023C0853021F480916B0084601DC054
:1040A000863021F480916B00886017C0873021F43E
:1040B00080916B00806111C0883021F480916B0089
:1040C00080620BC0893021F480916B00806405C050
:1040D0008A3039F480916B00806880936B0081E0B6
:1040E00008958FEF0895811102C0E89839C081309A
:1040F00011F4E9980895823011F4E99831C08330C1
:1041000021F480916B008E7F29C0843021F480914E
:104110006B008D7F23C0853021F480916B008B7FF5
:104120001DC0863021F480916B00877F17C08730D7
:1041300021F480916B008F7E11C0883021F4809132
:104140006B008F7D0BC0893021F480916B008F7BD9
:1041500005C08A3039F480916B008F7780936B00B3
:1041600081E008958FEF0895811126C050931407C0
:1041700040931307611104C0809169008C7F3DC09A
:10418000613049F4809169008D7F8093690080914E
:104190006900816032C0623049F4809169008260B8
:1041A00080936900809169008E7F27C0633039F564
:1041B00080916900836021C0813049F550931207D6
:1041C00040931107611104C080916900837F15C07D
:1041D000613049F480916900877F80936900809104
:1041E000690084600AC0623061F48091690088606F
:1041F00080936900809169008B7F8093690081E0E2
:1042000008956330E1F7809169008C60F6CF8230C9
:1042100031F55093160740931507611104C0809142
:1042200069008F7CEACF613049F4809169008F7D0D
:1042300080936900809169008061DFCF623049F42A
:1042400080916900806280936900809169008F7E0F
:10425000D4CF6330A1F6809169008063CECF8350C4
:10426000883050F48091680081608093680050939A
:10427000180740931707C3CF8FEF08951F920F922F
:104280000FB60F9211240BB60F922F933F934F93BB
:104290005F936F937F938F939F93AF93BF93EF93AE
:1042A000FF93E0911707F0911807309711F00995E7
:1042B00004C060E08AE00E94BF10FF91EF91BF91BF
:1042C000AF919F918F917F916F915F914F913F91AE
:1042D0002F910F900BBE0F900FBE0F901F9018954F
:1042E0001F920F920FB60F9211240BB60F922F93BD
:1042F0003F934F935F936F937F938F939F93AF936E
:10430000BF93EF93FF93E0911307F0911407309759
:1043100011F0099504C060E08AE00E94BF10FF918F
:10432000EF91BF91AF919F918F917F916F915F912D
:104330004F913F912F910F900BBE0F900FBE0F909A
:104340001F9018951F920F920FB60F9211240BB663
:104350000F922F933F934F935F936F937F938F931E
:104360009F93AF93BF93EF93FF93E0911107F09169
:104370001207309711F0099504C060E08AE00E94AE
:10438000BF10FF91EF91BF91AF919F918F917F915E
:104390006F915F914F913F912F910F900BBE0F90B6
:1043A0000FBE0F901F9018951F920F920FB60F928D
:1043B00011240BB60F922F933F934F935F936F93FC
:1043C0007F938F939F93AF93BF93EF93FF93E0916E
:1043D0001507F0911607309711F0099504C060E0B9
:1043E0008AE00E94BF10FF91EF91BF91AF919F9122
:1043F0008F917F916F915F914F913F912F910F908E
:104400000BBE0F900FBE0F901F9018950E94410E8B
:10441000A89584B7877F84BFE0E6F0E0808188615B
:10442000808310820C94430E0E94410EA89584B79D
:10443000877F84BFE0E6F0E08081886180838DE043
:1044400080830C94430E04B603FE02C08FEF0895E0
:1044500081E00895A8950895089583B7817F8660C7
:1044600083BF83B7816083BF889583B78E7F83BF07
:10447000089583B7817F83BF83B7816083BF8895A9
:1044800083B78E7F83BF0895FC017683658308958B
:10449000EF92FF920F931F93CF93DF938C017B01D9
:1044A000EA014032510518F481E10E94B4102197CD
:1044B000CE0DDF1DF801D283C183F482E382DF9148
:1044C000CF911F910F91FF90EF90089525E5FA018C
:1044D0002083FB013297908331968083339711823A
:1044E0001082329711821082329711821082329795
:1044F00011821082329711821082329711821082BB
:104500003297118210823297118210823297118273
:104510001082329711821082329711821082329764
:10452000118210823297118210823297118210828A
:10453000329711821082329711821082CB018497B8
:10454000FC0111821082089585E580937E41EEEF93
:10455000F1E4F0939D04E0939C048CE090E190835F
:104560008093FF4108958CE090E19093FE41809309
:10457000FF4108950E94E71E0C94430EA091E506AA
:10458000B091E606CD91CDBFDD91DEBFFF91EF91F9
:10459000DF91CF91BF91AF919F918F917F916F915B
:1045A0005F914F913F912F911F910F91FF90EF904D
:1045B000DF90CF90BF90AF909F908F907F906F9043
:1045C0005F904F903F902F901F900F900FBE0F90D5
:1045D00018950E94EC0980E190E00E94620D0E9413
:1045E000480E82E090E00E94F90C83E090E00E9487
:1045F000F90C81E090E00E94F90C80E090E00E94CC
:10460000F90C84EB91E00E9498091F9285E68F9344
:1046100083E892E09F938F930E94B02520E030E0E2
:10462000A90160E070E0CB010E943E1A0E94C00226
:104630000E94150F0F900F900F900F9080E090E068
:1046400008956F927F928F929F92AF92BF92CF9276
:10465000DF92EF92FF920F931F93CF93DF93CDB72B
:10466000DEB72C970FB6F894DEBF0FBECDBF6C013E
:104670005B017A01FC0117821682838181FF0EC1E2
:10468000CE0101964C01F6010381F50103FD159160
:1046900003FF11915F01112309F4FCC0153249F4A5
:1046A00003FD159103FF11915F01153211F020E018
:1046B0001BC0B601812F90E00E947825370173015D
:1046C000E2CF112309F4E6C0612F70E088E294E0A4
:1046D0002C870E9419252C85892B49F0F50103FDB3
:1046E000159103FF11915F0127FFEBCF09C0133232
:1046F00029F01C3609F0D5C02068F0CF20E1EECFBC
:10470000022F112309F4C6C0612F70E081E294E00A
:104710002C870E9419252C85892B41F03701F4E064
:104720006F0E711CB6018FE390E011C0133639F0A3
:10473000133781F0133519F5022F01600BC03701D3
:1047400082E0680E711CB601F701808191810E94A0
:104750007825B5CF3701F2E06F0E711CF701E080CC
:10476000F180F70100FD859100FF81917F01882391
:1047700009F4A5CFB60190E00E947825F2CF143657
:1047800011F0193629F5370127FF09C0F4E06F0E43
:10479000711CF70160817181828193810AC0F2E00E
:1047A0006F0E711CF70160817181882777FD8095FC
:1047B000982F022F0F7E97FF08C0909580957095D7
:1047C00061957F4F8F4F9F4F00642AE030E033C0E8
:1047D000103799F040F41835B1F01F3609F05AC07F
:1047E00028E030E014C0153719F0183741F052C0F6
:1047F000022F0F7E2AE030E00AC0022F006104621F
:1048000020E130E004C0022F046020E132E03701F3
:1048100007FF09C0F4E06F0E711CF7016081718120
:104820008281938108C0F2E06F0E711CF7016081F4
:10483000718180E090E0A4010E942A26182F1819A7
:1048400006FF05C0B6018DE290E00E94782504FFC6
:1048500015C0FE01E10FF11D8081803379F0B601B2
:1048600080E390E00E94782502FF08C00072802F4C
:1048700090E0B601885A9F4F0E9478251150F401AC
:10488000E10FF11D8081B60190E00E9478251111A1
:10489000F5CF15CFF6018681978105C08FEF9FEF89
:1048A00002C0022F31CF2C960FB6F894DEBF0FBE98
:1048B000CDBFDF91CF911F910F91FF90EF90DF90CF
:1048C000CF90BF90AF909F908F907F906F90089502
:1048D0000E940A25A59F900DB49F900DA49F800D66
:1048E000911D11240895DB018F939F930E946824EA
:1048F000BF91AF91A29F800D911DA39F900DB29F7C
:10490000900D11240895A1E21A2EAA1BBB1BFD01D4
:104910000DC0AA1FBB1FEE1FFF1FA217B307E4079E
:10492000F50720F0A21BB30BE40BF50B661F771FF6
:10493000881F991F1A9469F76095709580959095D6
:104940009B01AC01BD01CF010895689401C0E894BA
:104950008F929F92CF93DF930E94B324DF91CF91E8
:104960009F908F90089588249924F401E401B0E485
:104970009F93AA279A158B049C04ED05FE05CF058D
:10498000D007A10798F4AD2FDC2FCF2FFE2FE92DF4
:10499000982C892E982F872F762F652F542F432FF1
:1049A000322F2227B85031F7BF9127C01B2EBF915D
:1049B000BB27220F331F441F551F661F771F881FF9
:1049C000991F881C991CEE1FFF1FCC1FDD1FAA1FFB
:1049D000BB1F8A149B04EC05FD05CE05DF05A0076F
:1049E000B10748F08A189B08EC09FD09CE09DF09D8
:1049F000A00BB10B21601A94E1F62EF49401AF01E3
:104A0000BE01CD01000C0895EE0FFF1F0590F4913B
:104A1000E02D0994A29FB001B39FC001A39F700D28
:104A2000811D1124911DB29F700D811D1124911DB6
:104A30000895FC010590061621F00020D9F7C00169
:104A400008953197CF010895FB01DC0102C0019068
:104A50000D9241505040D8F708950F931F93CF9374
:104A6000DF93009731F46115710519F480E090E04F
:104A70003AC08B01EC016EE070E081E090E00E94B2
:104A80009E26FC01009791F380E8838301151105B0
:104A900071F01387028781E88383809119079091D1
:104AA0001A07892B21F4F0931A07E093190720972E
:104AB000C9F0D187C08783818260838380911B077F
:104AC00090911C07892B71F4F0931C07E0931B074E
:104AD00080911D0790911E07892B21F4F0931E07EA
:104AE000E0931D07CF01DF91CF911F910F910895A2
:104AF0000F931F93CF93DF93FB01238121FD03C00D
:104B00008FEF9FEF28C022FF16C046815781248176
:104B100035814217530744F4A081B1819D012F5F75
:104B20003F4F318320838C93268137812F5F3F4F06
:104B30003783268310C0EB01092F182F0084F185DD
:104B4000E02D0995892BE1F68E819F8101969F8347
:104B50008E83812F902FDF91CF911F910F91089518
:104B6000CF93DF93CDB7DEB7AE014B5F5F4FFA0156
:104B700061917191AF0180911B0790911C070E9478
:104B80002123DF91CF91089560911B0770911C073D
:104B90000C9478250F931F93CF93DF93E0911B071D
:104BA000F0911C07238121FF1BC08C01D0E0C0E0E5
:104BB000F80181918F0160911B0770911C07DB0147
:104BC0001896ED91FC911997882331F00995892B5E
:104BD00079F3DFEFCFEFECCF8AE00995892B19F05D
:104BE0008FEF9FEF02C08D2F9C2FDF91CF911F91F0
:104BF0000F9108950F931F93CF93DF93CDB7DEB737
:104C00002E970FB6F894DEBF0FBECDBF0D891E895B
:104C100086E08C831A8309838FEF9FE79E838D83C1
:104C2000AE01475E5F4F6F89788DCE0101960E947D
:104C300021232F813885F801E20FF31F10822E9671
:104C40000FB6F894DEBF0FBECDBFDF91CF911F919D
:104C50000F910895FA01AA27283051F1203181F1EE
:104C6000E8946F936E7F6E5F7F4F8F4F9F4FAF4F74
:104C7000B1E03ED0B4E03CD0670F781F891F9A1F87
:104C8000A11D680F791F8A1F911DA11D6A0F711D3B
:104C9000811D911DA11D20D009F468943F912AE047
:104CA000269F11243019305D3193DEF6CF0108952F
:104CB000462F4770405D4193B3E00FD0C9F7F6CF60
:104CC000462F4F70405D4A3318F0495D31FD405228
:104CD000419302D0A9F7EACFB4E0A69597958795BE
:104CE00077956795BA95C9F700976105710508959D
:104CF0009B01AC010A2E0694579547953795279549
:104D0000BA95C9F7620F731F841F951FA01D0895E0
:104D1000F999FECF92BD81BDF89A992780B5089583
:104D2000262FF999FECF1FBA92BD81BD20BD0FB6C7
:104D3000F894FA9AF99A0FBE019608950F931F936B
:104D4000CF93DF93869F8001879F100D969F100D54
:104D50001124C8010E94BA26EC01009729F0A8018D
:104D600060E070E00E94E727CE01DF91CF911F91B4
:104D70000F910895CF93DF938230910510F482E074
:104D800090E0E0912107F091220720E030E0C0E0C0
:104D9000D0E0309711F14081518148175907C0F098
:104DA0004817590761F482819381209719F09B83FA
:104DB0008A832BC0909322078093210726C0211558
:104DC000310519F04217530718F49A01BE01DF01AB
:104DD000EF010280F381E02DDCCF2115310509F1CF
:104DE000281B390B2430310590F412968D919C913B
:104DF00013976115710521F0FB019383828304C031
:104E00009093220780932107FD01329644C0FD0153
:104E1000E20FF31F81939193225031092D933C931C
:104E20003AC020911F0730912007232B41F4209195
:104E30000202309103023093200720931F07209134
:104E40000002309101022115310541F42DB73EB722
:104E50004091040250910502241B350BE0911F077D
:104E6000F0912007E217F307A0F42E1B3F0B281741
:104E7000390778F0AC014E5F5F4F2417350748F0D3
:104E80004E0F5F1F5093200740931F07819391930C
:104E900002C0E0E0F0E0CF01DF91CF9108950F93E1
:104EA0001F93CF93DF93009709F48CC0FC013297D6
:104EB000138212820091210710912207011511051A
:104EC00081F420813181820F931F20911F0730913F
:104ED00020072817390779F5F0932007E0931F077B
:104EE00071C0D80140E050E0AE17BF0750F41296F1
:104EF0002D913C911397AD012115310509F1D9018F
:104F0000F3CF9D01DA013383228360817181860FA3
:104F1000971F8217930769F4EC0128813981260FC6
:104F2000371F2E5F3F4F318320838A819B8193837C
:104F30008283452B29F4F0932207E093210742C096
:104F40001396FC93EE931297ED01499159919E01AE
:104F5000240F351FE217F30771F480819181840FCC
:104F6000951F029611969C938E938281938113963E
:104F70009C938E931297E0E0F0E0D80112968D9109
:104F80009C911397009719F0F8018C01F6CF8D9141
:104F90009C9198012E5F3F4F820F931F20911F0716
:104FA000309120072817390769F4309729F41092B7
:104FB00022071092210702C0138212821093200749
:104FC00000931F07DF91CF911F910F910895DC018E
:104FD00001C06D9341505040E0F70895F894FFCF21
:104FE0000000230720003D352D251D150D053D35FD
:104FF0002D251D150D052E261E160E06FFFF0C0471
:105000003C342C241C140C043B332B231B130B3B70
:10501000332B231B130B03FFFFFFFFFFFFFFFF39A2
:105020003129211911090119110901FFFFFFFFFFA2
:10503000FFFFFFFFFFFFFF5461736B313A20256CC8
:105040007520256C750D0A005461736B323A20256A
:105050006C7520256C750D0A0044696520537461D8
:10506000636B2025640D0A0072665F72785F706161
:10507000636B65745F6E6F6E626C6F636B206661ED
:10508000696C65645D0D005061636B6574206973C4
:1050900020646F6E6520626F756E63696E67206154
:1050A000726F756E64210D0A005345513A253475AF
:1050B0000954544C3A25326409525353493A253421
:1050C00064095061796C6F61643A205B25735D0DF2
:1050D0000A00525820656E64206661696C65642020
:1050E000636865636B73756D210D002564006375DE
:1050F000723A202564200063616E617279203D2040
:105100002578200073746B203D202578200074637F
:10511000622061646472203D2025780D0A002564B8
:105120003A20626F74746F6D203D20257820000056
:00000001FF
