:100000000C94E0020C94DA2D0C940C2E0C943E2EE1
:100010000C94FF020C94FF020C94FF020C94FF025C
:100020000C94FF020C94A82D0C94FF020C94FF0278
:100030000C94FF020C94072C0C94FF020C94072CD8
:100040000C94FF020C94FF020C94FF020C94FF022C
:100050000C94FF020C94FF020C94FF020C94FF021C
:100060000C94FF020C949E140C94FF020C94FF025B
:100070000C94FF020C94FF020C94FF020C94FF02FC
:100080000C943A2C0C94FF020C94FF020C94FF0287
:100090000C94FF020C94FF020C94FF020C94FF02DC
:1000A0000C94FF020C94FF020C94FF020C94FF02CC
:1000B0000C94FF020C94FF020C94FF020C94FF02BC
:1000C0000C94FF020C94FF020C94FF020C94FF02AC
:1000D0000C94FF020C94FF020C94FF020C94FF029C
:1000E0000C94FF020C94B0120C94A1120C94711297
:1000F0000C946F130C9462120C9453120C944112D2
:100100000C9432120C94FF020C94FF020C94FF0228
:100110000C94FF020C94FF020C94FF020C94FF025B
:100120007D158A159715A415B115BE15CB15EE15BD
:10013000FC150A16181626163416341657165916B4
:100140005B165D165F16611663168216A516C91634
:10015000EC160F17321755178F179C17A917B617DC
:10016000C317D017DD17F617031810181D182A1813
:1001700037184418DC1BE21BE51BE81BEB1BEE1BCE
:10018000F41BF11BF71BFA1BFD1B061C091C0C1CA6
:100190000F1C031CD91BDF1B121C151C001CD61BBB
:1001A000AC1CAF1CBA1CBF1CC61CCF1CD21CD71C5D
:1001B000DE1CE71C4661696C656420746F206C6FFF
:1001C0006164206D792041444320647269766572D0
:1001D0000D0A005478207461736B2028474F542017
:1001E000574841434B4544292073656E7420646130
:1001F0007461210D0A00436F756C64206E6F74206A
:100200005472616E736D6974210D0A005478207404
:1002100061736B2028474F54204D4F4C4529207364
:10022000656E742064617461210D0A00436F756C02
:1002300064206E6F74205472616E736D6974210D49
:100240000A005478207461736B2073656E742064A7
:10025000617461210D0A00436F756C64206E6F74C8
:10026000205472616E736D6974210D0A00466169D4
:100270006C656420746F20726567697374657220A1
:100280007369676E616C0D0A00424D4143205458FA
:100290003A20576F6B65207570206F6E2077726FF4
:1002A0006E67207369676E616C0D0A00424D4143B1
:1002B0002054583A204572726F722063616C6C69E9
:1002C0006E67206576656E7420776169740D0A002B
:1002D000424D4143204552524F523A20637265616C
:1002E00074696E6720656E61626C65207369676E04
:1002F000616C206661696C65640D0A00424D414382
:10030000204552524F523A206372656174696E679C
:10031000207478207369676E616C206661696C6512
:10032000640D0A00424D4143204552524F523A203B
:100330006372656174696E67207278207369676E95
:10034000616C206661696C65640D0A007561727488
:1003500020727820736967206661696C65640D0A94
:1003600000554E4B4F574E0045787465726E616C68
:100370002052657365740042726F776E204F7574FA
:1003800020446574656374004661696C656420741B
:100390006F206372656174652053656D6170686F6D
:1003A0007265004661696C656420746F20637265D4
:1003B000617465205369676E616C004B65726E6590
:1003C0006C2066756E6374696F6E206E6F74206941
:1003D0006D706C656D656E74656400446576696307
:1003E0006520447269766572204572726F7200579B
:1003F00061746368646F672052657374617274001E
:100400005357205761746368646F67205265737433
:100410006172740054696D6572204F766572666C06
:100420006F7700556E68616E646C656420496E7408
:1004300065727275707420566563746F72004C6FCC
:100440007720566F6C74616765004578747261201F
:100450005461736B20737461727465642C206973CA
:10046000206E726B5F6366672E68206F6B3F00497A
:10047000646C65206F72204B65726E656C205374DE
:1004800061636B204F766572666C6F7700556E65A1
:10049000787065637465642052657374617274006A
:1004A0004475706C696361746564205461736B207A
:1004B0004944005363686564756C6572204D6973C7
:1004C0007365642057616B657570005461736B20B0
:1004D000526573657276652056696F6C61746564E8
:1004E0000052657365727665204572726F7220697D
:1004F0006E205363686564756C657200496E766141
:100500006C696420537461636B20506F696E74650D
:1005100072005461736B20537461636B204F766576
:1005200072666C6F7700537461636B207761732020
:100530006E6F7420646566696E6564206173206CFB
:100540006172676520656E6F75676821005461731D
:100550006B20706572696F6420746F6F206C6172BC
:1005600067652E20506572696F64206D7573742005
:100570006265206C657373207468616E203631206B
:100580007365636F6E64732E00293A20002A4E5201
:100590004B204552524F5228000D0A535441434BB1
:1005A0002044554D500D0A004546476566670020BA
:1005B0002B2D2E3031323334353637383968000040
:1005C00011241FBECFEFD1E4DEBFCDBF13E0A0E00A
:1005D000B2E0ECEEF9E600E00BBF02C007900D922E
:1005E000AE3DB107D9F719E0AEEDB3E001C01D9201
:1005F000AB36B107E1F70E94532F0C94F4340C94FE
:10060000FD2BCF93DF9300D000D0CDB7DEB70E9493
:100610004F241F928F938BE592E09F938F930E94BC
:10062000B63265E083E00E94D329382E8CE00E9428
:10063000E30580E20E947D0564E787EE94E00E9476
:10064000D5050F900F900F900F909AE0292E2DE571
:10065000C22E25E0D22E31ECA32E32E0B32E4FEC89
:10066000842E42E0942E5AEA652E52E0752E80E7E1
:1006700092E00E94D03282E090E00E948C180E94AA
:10068000DD06811102C00E94AB05BE016D5F7F4F88
:10069000CE0104960E94C5068C011F938F938B8117
:1006A000282F332727FD30953F938F938C811F92FE
:1006B0008F93A6E8B2E0BF93AF930E94B6329C81BD
:1006C0000FB6F894DEBF0FBECDBF9630D8F1D8017B
:1006D0008C918035F1F511968C9111978F3409F03A
:1006E0008AC112968C9112978C3409F084C11396AA
:1006F0008C9113978C3409F07EC114968C918A33B7
:1007000009F079C1F801369686E0E12CF12C8913C5
:1007100007C0863009F471C144244394512C24C08D
:10072000419120ED240F2A30A0F72E9C90012F9CA0
:10073000300D11247901B0E3EB1AF108E40EF11C3D
:100740008F5FE5CF00E0412C512C10E0E12CF12C23
:1007500042C08D3429F4F80181818F3409F40BC132
:10076000412C512CE12CF12CD8018C91873509F0CA
:100770003FC1D80111968C911197883409F038C186
:1007800012968C911297813409F032C113968C9194
:100790001397833409F02CC114968C9114978B34E1
:1007A00009F026C115968C911597853409F020C162
:1007B00016968C911697843409F01AC117968C916D
:1007C0008A3309F015C1F801399689E0891708F4D0
:1007D000FCC000E011E082E090E00E9475180E94E9
:1007E000E3064A94452809F04FC0F2E0EF16F10401
:1007F00009F03DCF7F926F920E94B63241E061E0F6
:10080000832D0E94722A42E0BE016F5F7F4F832DCD
:100810000E94552A8A818F9389818F931F9282E04B
:100820008F938BEB92E09F938F93DF92CF920E94F6
:10083000003383E090E00E948C18F60101900020C4
:10084000E9F73197ED55F54061E06E0F8DE595E0E4
:100850000E9477060FB6F894DEBF0FBECDBF813081
:1008600021F087E592E00E94141582E492E00E9454
:100870001415DF92CF92BF92AF920E94B63283E0FE
:1008800090E00E94751872C0013091F532E0E316D5
:10089000F10409F0ECCE86EC92E00E94D03280E0C8
:1008A00090E00E948C181F9282E08F939F928F920B
:1008B000DF92CF920E940033F60101900020E9F709
:1008C0003197ED55F54061E06E0F8DE595E00E94A2
:1008D00077060F900F900F900F900F900F90813030
:1008E00021F08CE292E00E9414158CE092E036C078
:1008F000113009F0BCCE52E0E516F10409F0B7CE94
:100900008CED92E00E94D03280E090E00E94751859
:100910001F9282E08F93A6EEB2E0BF93AF93DF9277
:10092000CF920E940033F60101900020E9F7319741
:10093000ED55F54061E06E0F8DE595E00E9477067C
:100940000F900F900F900F900F900F90813021F02B
:1009500086EF91E00E94141583ED91E00E9414153A
:10096000DF92CF92BF92AF920E94B6320F900F905B
:100970000F900F907CCE82818C3409F0F1CE838170
:10098000853409F0EDCE84818A3309F0E9CE3696BC
:1009900086E0E12CF12C891306C0863071F101E06C
:1009A000412C512C26C0419120ED240F2A30A8F76C
:1009B0002E9C90012F9C300D1124790150E3E51AF3
:1009C000F108E40EF11C8F5FE6CF419120ED240F7A
:1009D0002A3008F0FECE2E9C90012F9C300D112461
:1009E0007901B0E3EB1AF108E40EF11C8F5FEECE53
:1009F00000E010E0F0CEE12CF12C412C512CB4CED3
:100A0000CF93DF93C6EBD4E081E093E09E838D83A8
:100A100040E850E063ED76E0CE010E94B22E82E025
:100A2000888781E08F8389878A8781E090E0A0E0D2
:100A3000B0E08B879C87AD87BE871F86188A198A8E
:100A40001A8A1B8A1C8A1D8A1E8A1F8A188E198E72
:100A50001A8E1B8E1C8E1D8E1E8E1F8E18A219A222
:100A60001AA2CE010E94142286EF92E0DF91CF916C
:100A70000C94D03263E081E69DE00E94BE298F3F56
:100A800021F484EB91E00C941415089508956430DA
:100A900021F40E94CB1281E008958FEF08958FEF2B
:100AA000089580E090E008950E94630F81E008952A
:100AB0000E945D0F81E008950E94570F81E0089524
:100AC0000E94510F81E008950E94690F81E008950E
:100AD0009093DC048093DB0481E008950E94C912A6
:100AE0000895603121F40E94CC1281E008958FEFC7
:100AF000089581E0089581E00895803220F40E94F5
:100B0000470F81E008958FEF08958093E7030895DC
:100B1000992787FD90950E94BF1281E00895CF9399
:100B2000DF931F92CDB7DEB78B3180F48093F10352
:100B300089830E94310F20E030E04FEF5FEF698141
:100B400081ED95E00E94890F81E001C08FEF0F9049
:100B5000DF91CF9108958091F403882311F1809162
:100B6000E6040E94FF1E81E090E0A0E0B0E0BC013E
:100B7000CD010090E60404C0660F771F881F991FFF
:100B80000A94D2F70E94A21FDC01CB010090E60478
:100B900004C0B695A795979587950A94D2F780FFDC
:100BA00002C081E008958FEF0895009751F090936F
:100BB000D7058093D6056093D50581E08093F40333
:100BC00008958FEF08951F93CF93DF93182F1092FE
:100BD000F3038FEF8093E603D1E0D093E703109205
:100BE000F6031092F7031092F8031092F903109293
:100BF000E8031092E9031092EA031092EB0380E0FD
:100C000091EEA5EFB5E08093EC039093ED03A093F4
:100C1000EE03B093EF030E94EF1DC82F8093E6040C
:100C20008F3F19F484E293E009C00E94EF1DC82FA2
:100C30008093D2068F3F69F48CEF92E00E941415E6
:100C4000E0913109F091320960858EE00E943B1CF1
:100C50002AC00E94EF1DC82F8093DA048F3F19F439
:100C600080ED92E0EBCF1092F5031092F403109216
:100C7000D7051092D6051092D5050E94310F20E0BD
:100C800030E04FEF5FEF612F81ED95E00E94890F1B
:100C90001093F10380E090E00E94BF12D093F30321
:100CA000D093F003C1E08C2FDF91CF911F91089575
:100CB0002091F503213059F021E02093F503909322
:100CC000DF048093DE046093DD0481E008958FEFFC
:100CD00008958091E6040E94FF1E8091E604089525
:100CE0008091D2060E94FF1E8091D2060895CF9275
:100CF000DF92EF92FF922091F5032130F1F1F62E71
:100D00006C018091D2060E94FF1E81E08093F50362
:100D1000D092DF04C092DE04F092DD0481E090E026
:100D2000A0E0B0E0BC01CD010090D20604C0660F87
:100D3000771F881F991F0A94D2F70E94A21F6B0188
:100D40007C01611571058105910521F48CEA92E021
:100D50000E9414150090D20604C0F694E794D7942C
:100D6000C7940A94D2F7C0FC04C089E892E00E94BC
:100D700014158091F203811102C08FEF01C081E050
:100D8000FF90EF90DF90CF9008952091F4032223FD
:100D900039F0FC011082FB01108280E090E00895A0
:100DA0002091D405FC0120838091D905FB0180832B
:100DB0008091D6059091D705089581E09091F40334
:100DC000911180E0089581E08093F40308951092DA
:100DD000F0030C940B0F81E08093F0030E94310F1D
:100DE0008091DA040C94311FCF93DF93CDB7DEB737
:100DF00028970FB6F894DEBF0FBECDBF29833A8384
:100E00004B835C836D837E838F83988749815A816E
:100E10006B817C818D819E81AF81B88541155105A3
:100E20006105710541F481152DE2920721E3A207C6
:100E300021E0B20790F04093E8035093E9036093F8
:100E4000EA037093EB038093EC039093ED03A0937C
:100E5000EE03B093EF0381E001C08FEF28960FB649
:100E6000F894DEBF0FBECDBFDF91CF910895809182
:100E7000F3030895CF930E94F90F0E945911C82FD0
:100E80000E945911C80F0E945911C80F0E94FF0FEC
:100E90008C2F1C160CF481E0CF9108950E94F90F5D
:100EA0001092DE031092DF031092E0031092E10330
:100EB00080E4682F8093E2038BE48093E3038CE467
:100EC0008093E4031092E50320E03091DF0340912A
:100ED000E0035091E1037BE490E00E94A2230E9492
:100EE0008B118130E9F08091F6039091F703A09186
:100EF000F803B091F9038F3F2FEF9207A105B105D9
:100F000058F40196A11DB11D8093F6039093F70349
:100F1000A093F803B093F9030E94FF0F80E00895B7
:100F20001092F4030E94FF0F81E008958091F60370
:100F30009091F70308951092F6031092F703109220
:100F4000F8031092F90381E00895823058F0883058
:100F500008F086E091E020E0990F2F5F2813FCCF86
:100F6000892F089581E00895EF92FF920F931F93C8
:100F7000CF93DF938091E703882309F443C088EE81
:100F800093E00E94C525EC010E9410326AE070E0F7
:100F90000E94FC30BC016F5F7F4FCE010E94E830A1
:100FA000CB010E944D23C1E00AE010E00E943A0705
:100FB000D82F813039F10E9410327C018C2F0E9491
:100FC000A507682F70E0C7010E94FC3099270E9496
:100FD000E122CF5FC73008F0C6E088EE93E00E94C0
:100FE000C5257C010E941032B8010E94FC30BC0172
:100FF0006F5F7F4FC7010E94E830CB010E944D23F5
:10100000DD23A1F21092E0041092E1042091E803A4
:101010003091E90388EE93E0289FE001299FD00DED
:10102000389FD00D11246091EC037091ED038091F5
:10103000EE039091EF0320E432E44FE050E00E9491
:101040001031C20FD31F0E94F90FBE018BED94E047
:101050000E9405108093F2030E94FF0F1092F50387
:101060008091D2060E94311F81E0DF91CF911F91C4
:101070000F91FF90EF9008958091F303811103C0C9
:101080000E94A622F9CF8091DA040E94FF1E8F3FB2
:1010900021F48DE692E00E941415C12CD12C76012A
:1010A000C3940E94310F8091F003882369F18091ED
:1010B000F403813041F40E943A07811108C00E9474
:1010C0004E07813021F48091E6040E94311F809107
:1010D000F503813011F40E94B4070E94FF0F0E94B3
:1010E0000B0F2091E8033091E9034091EA035091FE
:1010F000EB036091EC037091ED038091EE0390910E
:10110000EF030E94A223CDCF8091DA040E94FF1E3C
:10111000C701B6010090DA0404C0660F771F881F6C
:10112000991F0A94D2F70E94A21FDC01CB01009004
:10113000DA0404C0B695A795979587950A94D2F7D7
:1011400080FFE2CFAECF6CE378E08AE794E00E94C4
:10115000AE2E40E850E06AEF73E08AE794E00E9428
:10116000B22EEAE7F4E084E1808781E0878381871B
:101170008287138614861586168680E09DE2A1E399
:10118000B1E08787908BA18BB28B138A148A158A62
:10119000168A178A108E118E128E138E148E158E4B
:1011A000168E178E10A211A212A2CF010C94142237
:1011B0008091F607813011F48FEF089581E08093DC
:1011C000F60760FF18C0809128020E946A151092ED
:1011D000FB0780917C00807E80937C0080917C0066
:1011E00090917C00807E892B80937C0088EE93E038
:1011F0000E94AC2A05C0862F8670F1F66770E1F276
:1012000081E00895809128020E94DB151092F60774
:101210000E949C0DEAE7F0E080818F77808381E077
:101220000895613019F48091FB0708958FEF0895B8
:10123000613091F52C3081F42093FB0780917C0084
:10124000807E80937C0090917C0020917C00892F8F
:1012500090E0807E836017C02E3020F081E00E94F5
:101260008D1B1AC02093FB0780917C00807E8093A9
:101270007C0090917C0020917C00892F90E0807E02
:101280003091FB07832B822B80937C0088EC90E0CD
:101290000E94AC2A81E008958FEF0895CF93DF93E9
:1012A000CDB7DEB766970FB6F894DEBF0FBECDBFE1
:1012B000AE014F5F5F4F66E170E08AEA90E00E9406
:1012C000A60DFE013196ACECB7E09E01295E3F4FC2
:1012D000808190E0982F88274181842B8D939D9366
:1012E0003296E217F307A1F766960FB6F894DEBFC1
:1012F0000FBECDBFDF91CF910895EAE7F0E083E024
:1013000080838081806880831092FB07ACE7B0E027
:101310008C91807E8C938C919C91807E892B8C9378
:1013200080818F7780830895CF93C091280261E0F8
:101330008C2F0E947A178C2F0E946A15C09113027D
:1013400060E08C2F0E947A178C2F0E94DB15C091D1
:10135000290260E08C2F0E947A178C2F0E94DB15E7
:1013600080E00E94A3180E947D090E948C0D8EEEE1
:101370000E94890D0E944E091092F60781E0CF91DC
:10138000089588EC90E00C94AC2A80917A008064F7
:1013900080937A0080917A0084FFFCCF0E94C1097B
:1013A000809178002091790090E0922B08954F92DF
:1013B0005F926F927F928F929F92AF92BF92CF92E5
:1013C000DF92EF92FF921F93CF93DF93CDB7DEB7FB
:1013D00028970FB6F894DEBF0FBECDBF182FC09070
:1013E000F207D090F307E090F407F090F50720EAB9
:1013F000C21A2FE0D20AE108F108C092E207D092A7
:10140000E307E092E407F092E507A7019601C70120
:10141000B6010E94D8304B015C015CE0B594A79402
:10142000979487945A95D1F74091CC075091CD0766
:10143000662757FD6095762FDB01CA0162E0880FB1
:10144000991FAA1FBB1F6A95D1F789839A83AB8323
:10145000BC83A091DA07B091DB07A50194010E943B
:10146000D030412CE8E05E2E612C712CA30192015A
:101470000E9432312D833E834F835887A091CE073F
:10148000B091CF07A70196010E94D030A30192012D
:101490000E9432318D819E81AF81B885820F931F6A
:1014A000A41FB51F29813A814B815C81820F931F54
:1014B000A41FB51F012E04C0880F991FAA1FBB1FB0
:1014C0000A94D2F7BC01CD016E5F7F4F8F4F9F4FC3
:1014D000F4E04F2E512C612C712CA30192010E943B
:1014E000323129833A834B835C83209311083093F4
:1014F00012084093130850931408A091D007B0919C
:10150000D107A70196010E94D03020E030E240E0F0
:1015100050E00E94323169017A01A091D807B09160
:10152000D907A50194010E94D03020E030E041E0CD
:1015300050E00E943231D701C601820F931FA41FD1
:10154000B51FBC01CD016E5F7F4F8F4F9F4FA30131
:1015500092010E9432312093FC073093FD074093A3
:10156000FE075093FF07A091D207B091D3073058E0
:101570004F4F5F4F0E94C53020E030E840E050E020
:101580000E94323169017A012093000830930108EA
:1015900040930208509303088091090890910A082B
:1015A000A0910B08B0910C089C01AD0189809A8034
:1015B000AB80BC80281939094A095B0980E593ECA6
:1015C000A0E0B0E0BC01CD0104C09595879577956A
:1015D00067951A95D2F70E94D830609305087093EA
:1015E0000608809307089093080897FD11C0660FBE
:1015F000771F881F991FA70196010E941031209321
:101600000D0830930E0840930F085093100812C035
:10161000A70196010E941031DA01C901880F991FB4
:10162000AA1FBB1F80930D0890930E08A0930F086C
:10163000B0931008C0900D08D0900E08E0900F08ED
:10164000F0901008C701B60120E031E040E050E022
:101650000E943231CA01B9010E94D8309B01AC010D
:10166000AEEDBBE00E94C5304C01BB2497FCB094AA
:10167000AB2C8092F7079092F807A092F907B092EE
:10168000FA07A3E4B3EEA70196010E94D33020E04D
:1016900030E041E050E00E9432312093EA0730937D
:1016A000EB074093EC075093ED07D501C401820F7F
:1016B000931FA41FB51FBC01CD016153714F8F4F04
:1016C0009F4F20E130E040E050E00E943231C701FE
:1016D000B601620F731F841F951F60930D087093EE
:1016E0000E0880930F089093100828960FB6F89470
:1016F000DEBF0FBECDBFDF91CF911F91FF90EF9066
:10170000DF90CF90BF90AF909F908F907F906F9021
:101710005F904F900895CF92DF92EF92FF920F93D8
:101720001F93CF93DF93CCECD7E08A859B854091C4
:10173000E6075091E7076091E8077091E9079A0181
:10174000AB01281B390B41095109A885B9850E94B5
:10175000C53020E030E840E050E00E9432316901BD
:101760007A012093F7073093F8074093F9075093D5
:10177000FA076A897B89CB01AA2797FDA095BA2F22
:10178000BC01CD012BE0660F771F881F991F2A959A
:10179000D1F70C891D89222717FD2095322FA90129
:1017A00098012C0D3D1D4E1D5F1D0E94323120936E
:1017B000EA073093EB074093EC075093ED07D7010E
:1017C000C601820F931FA41FB51F8093F207909349
:1017D000F307A093F407B093F507BC01CD01685F50
:1017E0007F4F8F4F9F4F20E130E040E050E00E945C
:1017F00032312093EE073093EF074093F007509378
:10180000F107CA01B901DF91CF911F910F91FF90AC
:10181000EF90DF90CF900895CF93DF9300D01F9289
:10182000CDB7DEB78EE28B83AE014D5F5F4F61E0D7
:1018300070E084EF90E00E94BF0E84E991E10E9485
:10184000AC2AAE014F5F5F4F62E070E086EF90E040
:101850000E94A60D898190E0982F88272A81822BEB
:10186000A0E0B0E08093E6079093E707A093E80735
:10187000B093E9070F900F900F90DF91CF910895EB
:101880000E940C0C0C948B0B1F93CF93DF9300D012
:1018900000D0CDB7DEB7182F8295880F880F807CD7
:1018A0008C5C8C83AE014C5F5F4F61E070E084EF35
:1018B00090E00E94BF0E84E991E10E94AC2AAE0143
:1018C0004F5F5F4F63E070E086EF90E00E94A60DEF
:1018D0002A81898190E0A0E0B0E0DC019927882787
:1018E000922B2B81820F911DA11DB11D28E030E0AC
:1018F000211B310904C0B595A795979587952A9521
:10190000D2F78093090890930A08A0930B08B0932C
:101910000C080F900F900F900F90DF91CF911F91B7
:101920000895CF93C82F0E94440C8C2FCF910C9414
:10193000D709AF92BF92CF92DF92EF92FF921F939F
:10194000CF93DF9380917A00806880937A008FEF45
:10195000820F823018F0243009F0A8C0122FEA015B
:101960008091FB07883078F40E94C509123019F481
:10197000888399831EC0113009F07AC096958795A7
:10198000969587951EC08D30F1F4F090290261E0A4
:101990008F2D0E947A178F2D0E94DB1560E08F2D0E
:1019A0000E947A17123039F48F2D0E9445168883D1
:1019B000198281E074C0113009F05AC08F2D0E9445
:1019C0004516888355C08C30B9F5A12CBB24B3943F
:1019D000E12CF12CCC24C39464E0D62E80917A00C3
:1019E000806480937A0080917A0084FFFCCF80E24B
:1019F00090E00E94AC2A809178002091790090E0DC
:101A0000922B8C159D0508F46C01E816F90608F474
:101A10007C0181E0A81AB10809F7EC18FD08123022
:101A200019F4E882F982C5CF113011F5F694E794E4
:101A3000F694E794E8821CC08B30E1F4109204081D
:101A40007A99FECF7A9BFECF809104088F5F8093B6
:101A500004087A99F9CF88838091040890E019826C
:101A6000330F220B322F2A83990F880B982F8B83E9
:101A700080E015C097EF980F9230D0F72430B1F482
:101A80008A3019F40E94400C05C00E94400C80E08E
:101A90000E94910C688379838A839B8383E0909171
:101AA0007A009F7790937A008F5F01C080E0DF918A
:101AB000CF911F91FF90EF90DF90CF90BF90AF90AC
:101AC0000895823099F038F4882369F08130C9F4A0
:101AD00081E00C94D808843089F058F0853089F47E
:101AE00085E00C94990C80E00C94940982E00C94AD
:101AF0000209613061F48091FB07089584E00C9441
:101B0000180960E08CE00E943B1C80E008958FEF94
:101B1000089580931608089582E08093B80010928B
:101B2000B900E4E6F0E080818F778083ECEBF0E0B1
:101B30008081846080830895E4E6F0E08081808382
:101B4000ECEBF0E080818B7F808308959770990F94
:101B500020911608922B35E6F4EAA4EAE4E8B92FBE
:101B6000B160315009F48EC0A093BC002091BC003C
:101B700027FFFCCF2091B900287F20931508203142
:101B800029F0283389F3283009F07CC09093BB00FA
:101B9000E093BC002091BC0027FFFCCF2091B9004E
:101BA000287F209315082032E1F22833E9F228310A
:101BB00009F061C08093BB00E093BC002091BC00A1
:101BC00027FFFCCF2091B900287F209315082033F0
:101BD00009F44EC0283341F2283209F04CC0F0938A
:101BE000BC002091BC0027FFFCCF2091B900287FCA
:101BF00020931508203129F0283309F4B5CF283077
:101C0000D1F5B093BB00E093BC002091BC0027FF4E
:101C1000FCCF2091B900287F20931508203429F0AB
:101C2000283431F1283339F59FCFFA0194EC9F0124
:101C3000241B350B1616170604F56130710509F4DF
:101C400094E89093BC008091BC0087FFFCCF80910A
:101C5000B900887F80931508803521F0883559F4C4
:101C600060E070E08091BB00819361507109DFCF2B
:101C700020E030E002C02FEF3FEF84E98093BC000A
:101C8000C90108958FEF9FEF08959C01680F791F98
:101C900087606817790718F0BC016F5F7F4F832F4B
:101CA0008770880F90911608892BE5E6A4EAF4E87E
:101CB000E15009F461C0A093BC009091BC0097FF73
:101CC000FCCF9091B900987F90931508903129F03E
:101CD000983389F3983009F04FC08093BB00F0939C
:101CE000BC009091BC0097FFFCCF9091B900987F09
:101CF000909315089032E1F29833E9F29831A9F502
:101D00002093BB00F093BC009091BC0097FFFCCFE8
:101D10009091B900987F90931508903319F19833FA
:101D200051F2983211F5621B730BFA0120E030E09A
:101D300044E8CB01821B930B18161906C4F4819159
:101D40008093BB004093BC008091BC0087FFFCCF18
:101D50008091B900887F80931508883231F42F5F15
:101D60003F4FE7CF20E030E002C02FEF3FEF84E9A4
:101D70008093BC00C90108958FEF9FEF0895CF9223
:101D8000DF92EF92FF920F931F93CF93DF936C013B
:101D90008B017A01C0E0D0E0A701B801C6010E9422
:101DA000450E8F3F2FEF920769F0C80ED91E081B12
:101DB000190BE80EF91EC80FD91F1016110664F38F
:101DC000CE0102C08FEF9FEFDF91CF911F910F9156
:101DD000FF90EF90DF90CF900895809115081F92AB
:101DE0008F9383E093E09F938F930E94B6320F907E
:101DF0000F900F900F900895909141019F719F3126
:101E0000D9F380934201089581E080931D080895DD
:101E100010921D080895809141018F718F31D9F37F
:101E2000809141018F71E1F08F30D1F080914101BB
:101E30008F71883031F4809139018260809339014B
:101E40000BC088E00E94FC0E809141018F718830A8
:101E5000D9F7F1CF8F3021F0809141018F71D1F707
:101E60000895809141018F718F31D9F380914101A3
:101E70008F7111F08F3051F4809139018D7F8093F3
:101E80003901809141018F718830D9F70895E5E4D7
:101E9000F1E09081907F908390818F70982B908358
:101EA0000895E7E5F1E080818D7F80830895E7E57F
:101EB000F1E08081826080830895EEE6F1E0808128
:101EC0008F7E80830895EEE6F1E0808180618083DB
:101ED0000895809360019093610190932708809307
:101EE000260808959093210880932008E8E4F1E003
:101EF0008081807E80838081682B608308959093A9
:101F0000A00480939F04089590939E0480939D0461
:101F100008950F931F93CF93DF93FC01D90180E2C3
:101F20008093440180EC8093450160626093480196
:101F300085EC8093490187EA80934B0180E8809388
:101F40004C0120936001B093610140936201509372
:101F50006301C6E4D1E00881888198812881302F0F
:101F600032953695377060E4369F800111242295B2
:101F700026952370622F602B82958695837070E181
:101F8000879F90011124262B92959695937084E05B
:101F9000989FB0011124622B60936D018881988114
:101FA000929596959370392F3064982F92959670EC
:101FB000932B90936E0110926C018FEF80934E01E2
:101FC000C0E2D8E0F983E8831A821B825D834C83E8
:101FD000BF83AE83188681E0809342081092610827
:101FE0001092310810921D08DF91CF911F910F912F
:101FF000089586E10C94FC0E86E10C94FC0E88E0BA
:102000000E94FC0E1092610808953F924F925F92D9
:102010006F927F928F929F92AF92BF92CF92DF92F8
:10202000EF92FF920F931F93CF93DF93EC01809178
:102030004208811102C08FEF26C12E8180912208B3
:102040008F5F8093220890918101907E916020FBA8
:1020500095F99F7390649093810188E88093820141
:1020600080911D088823D1F08FEF809383018AEA45
:102070009AEA90938901809388018FEF9FEF909364
:10208000870180938601209163018091620190E035
:10209000922B90938501809384011EC08091220829
:1020A00080938301809161012091600130E0382BA1
:1020B00030938901209388018881998190938701C9
:1020C00080938601809163012091620130E0382B7A
:1020D00030938501209384013B014A81552747FDB8
:1020E00050956B817C818AE891E00E942A328A8136
:1020F000855F8093800180914101982F9F71392ED7
:102100009FEF930D9230B8F391E13916A1F392E16C
:10211000391689F39FE1391671F398EF930D9230D8
:1021200020F08F70863009F086CF86E10E94FC0E89
:102130008D8181110AC089E00E94FC0E8E81882366
:1021400091F089E10E94FC0E0EC0809148018068E8
:10215000809348018091410187FFFCCF809141012C
:1021600086FF69CFE8CF61147104A9F189E298E094
:102170000E9455248091290890912A08A0912B084B
:10218000B0912C088093430890934408A09345088D
:10219000B0934608D30120E432E44FE050E00E94BF
:1021A000C53000912D0810912E0820912F083091F4
:1021B0003008DC01CB01800F911FA21FB31F809359
:1021C000470890934808A0934908B0934A0883E4CD
:1021D00098E00E943E251092310882E00E94FC0E99
:1021E000412C512C80913108811108C08FEF481A81
:1021F000580A98EE49169DEF5906A1F7611471042B
:1022000021F48E8181112DC032C089E298E00E94B4
:1022100055248090290890902A08A0902B08B0900F
:102220002C08C0902D08D0902E08E0902F08F09038
:1022300030080091430810914408209145083091DE
:1022400046084091470850914808609149087091AC
:102250004A0882E698E00E94B2248F3F09F0BBCF83
:10226000D0CF8091420182958695877039F488EEAF
:1022700048168DEF580611F0C1E001C0CFEF832D55
:102280000E94FC0E8C2FDF91CF911F910F91FF9038
:10229000EF90DF90CF90BF90AF909F908F907F9006
:1022A0006F905F904F903F90089560E070E00C94C5
:1022B0000510CF93DF9380914208882341F18091EC
:1022C0004101C82FCF719FEF9C0F9230C0F3C131F5
:1022D000B1F3C231A1F3CF3191F3C83019F08F704F
:1022E0008630A9F486E10E94FC0E80914801806846
:1022F000809348018091410187FFFCCFD09141013B
:102300008C2F0E94FC0ED6FB882780F901C08FEF2E
:10231000DF91CF91089580914208882309F4A0C0ED
:1023200080916108882309F499C080917B01E09134
:102330002008F091210890E002972481332727FD9F
:102340003095281739070CF48BC0E0912008F091E4
:102350002108809182018083E0912008F09121087A
:10236000809187019091880192838183E091200878
:10237000F091210880917B018B508383A0912008EC
:10238000B0912108E0912008F091210813969C91CA
:10239000848189173CF0E0912008F0912108838125
:1023A00087FF0DC01092610880914C018F77809358
:1023B0004C0180914C01806880934C0151C0A091E8
:1023C0002008B0912108E0912008F091210813968F
:1023D0004C91552747FD509569E871E085819681BC
:1023E0000E942A32E0912008F0912108809180011A
:1023F00085FB882780F98783E0912008F0912108E8
:10240000809147018087E0912008F0912108809118
:1024100046018695869586958187E0912008F09102
:102420002108809147018287A0912008B09121085E
:10243000E0917B01F0E0E058FE4F80811B968C9389
:102440001092610880914C018F7780934C018091AC
:102450004C01806880934C0181E0089580E00895EC
:102460008FEF08951F920F920FB60F9211248F9342
:1024700080E880934F018F910F900FBE0F901F90B7
:1024800018951F920F920FB60F9211248F9381E02F
:102490008093310880E480934F018F910F900FBE9D
:1024A0000F901F9018951F920F920FB60F92112444
:1024B0008F9380E280934F018F910F900FBE0F900A
:1024C0001F9018951F920F920FB60F9211248F93A1
:1024D00080E180934F018F910F900FBE0F901F905E
:1024E00018951F920F920FB60F9211240BB60F92F0
:1024F0002F933F934F935F936F937F938F939F930C
:10250000AF93BF93EF93FF9384E080934F01E091EB
:102510009F04F091A004309709F00995FF91EF9185
:10252000BF91AF919F918F917F916F915F914F91EB
:102530003F912F910F900BBE0F900FBE0F901F90E9
:1025400018951F920F920FB60F9211248F9382E06D
:1025500080934F018F910F900FBE0F901F90189591
:102560001F920F920FB60F9211248F9381E08093E8
:102570004F018F910F900FBE0F901F901895E9E4B7
:10258000F1E09081907F908390818F70982B908361
:1025900008958FEF08950895089508958FEF089591
:1025A00080911B0890911C08089580E0089508957B
:1025B00081E0089581E0089581E0089508950895E7
:1025C000089508950895089508950895E7E3F1E0C2
:1025D000808183608083989AA09A8DB1806E8DB936
:1025E0008EB1806E8EB90895E7E3F1E0808183605B
:1025F0008083989AA0988DB1806E8DB98EB1806ECF
:102600008EB90895CF92DF92EF92FF920F931F93AE
:10261000CF93DF93CDB7DEB727970FB6F894DEBF21
:102620000FBECDBF0E94BD19E0912008F091210896
:10263000C080D380E580F68000850E948B1118163B
:102640001CF08AE193E006C0F7011081111107C068
:1026500089E393E00E94D0320E94BF1931C0153047
:1026600021F48AE090E00E94CA32C70101969F934C
:102670008F93802F992787FD90959F930F931F929B
:102680001F931F92CF928BE593E09F938F930E94AD
:10269000B632FD82EC821150F7011083DB821E827C
:1026A0001F828FEF9FEF9A8389830E94BF19CE010B
:1026B00001960E9455110FB6F894DEBF0FBECDBF34
:1026C00027960FB6F894DEBF0FBECDBFDF91CF9136
:1026D0001F910F91FF90EF90DF90CF9008951F9280
:1026E0000F920FB60F9211240BB60F922F933F93B8
:1026F0004F935F936F937F938F939F93AF93BF930A
:10270000EF93FF9380E090917B01891710F48F5F26
:10271000FACF8091460187FF04C081E08093610871
:1027200004C084E893E00E94D03288E080934F0197
:102730008091460187FF05C080911D0881110E948C
:102740000213E0919D04F0919E04309709F00995E1
:10275000FF91EF91BF91AF919F918F917F916F9179
:102760005F914F913F912F910F900BBE0F900FBE35
:102770000F901F901895A2E3B8E0FC0140962081CD
:102780002D93219120933F01E817F907C1F780E1CC
:1027900010923E018150E1F780E880933C018091E6
:1027A0003D0180FFFCCFEBE4F8E080E18E0F9091DB
:1027B0003F0191938E13FBCF0895CF93DF93DC01FC
:1027C000662309F445C0862F8F7009F041C0E2E30B
:1027D000F8E090E19E0F219120933F019E13FBCFE3
:1027E00090E070E0E0E240E1949F90011124261710
:1027F00037077CF5911103C010923C0102C0E093B1
:102800003C0140E050E02A0F3B1FE901C40FD51FF7
:10281000F881F0933E014F5F5F4F40315105A9F7BA
:1028200040913C01406840933C0140913D0140FF94
:10283000FCCF40E050E0F0913E01E901C40FD51F0C
:10284000F8834F5F5F4F40315105A9F79F5FCBCFB2
:1028500081E0DF91CF9108950F931F93CF93DF9382
:10286000DC01613009F458C0862F8F7009F054C024
:10287000EBE4F8E090E19E0F219120933F019E133D
:10288000FBCF62956F70615078E06F3F09F445C0EF
:1028900070933C01462F552747FD509520E030E0CE
:1028A000ED0190E16902C00DD11D1124FE01E20F7E
:1028B000F31F908190933E012F5F3F4F20313105F0
:1028C000A9F790913C01906890933C0190913D0153
:1028D00090FFFCCF4150510994E0440F551F9A9549
:1028E000E1F720E030E090913E018E01020F131FCE
:1028F000F8019083662349F0F901E40FF51FEA0F10
:10290000FB1FE0819E27F80190832F5F3F4F20310E
:10291000310549F76150B9CF81E0DF91CF911F9127
:102920000F9108959091C00095FFFCCF9091C00049
:102930009F7D9093C0008093C60008951F920F92D0
:102940000FB60F9211240BB60F922F933F934F9314
:102950005F936F937F938F939F93AF93BF93EF9307
:10296000FF930E94BD198091C00087FFFCCF80912A
:10297000C0008F778093C0002091C6008091B20480
:102980009091B304FC01EE55FB4F208301968031FA
:10299000910529F09093B3048093B20404C010927F
:1029A000B3041092B2048091A1040E94311F80915F
:1029B000C0008F778093C0000E94BF19FF91EF91F4
:1029C000BF91AF919F918F917F916F915F914F9147
:1029D0003F912F910F900BBE0F900FBE0F901F9045
:1029E000189581110DC081E04091B4045091B50457
:1029F0002091B2043091B3044217530751F408C038
:102A0000813031F48091C800881F8827881F08957D
:102A100080E008958091A1048F3F19F48EE00E9418
:102A2000301C8091A1040895CF93DF93FC01249181
:102A3000EC012196222351F06091630970916409A1
:102A4000822F90E00E947E32CE01F0CFDF91CF91B5
:102A500008952091B4043091B5048091B20490910E
:102A6000B3042817390769F48091A1040E94FF1E5E
:102A70006091A104772767FD7095872F972F0E949B
:102A8000A21F6F3F21F48CE493E00E941415209163
:102A9000B4043091B504F901EE55FB4F80812F5FEE
:102AA0003F4F2031310528F43093B5042093B4040E
:102AB00008951092B5041092B404089586E084B984
:102AC00085B988EF8AB980EF8BB982E08DB9089516
:102AD0000C945E158F3F09F46CC0E82FE7704E2F01
:102AE00050E04730510508F064C0FA01E057FF4F4D
:102AF0008695869586950C94B03142B121E030E000
:102B0000B90102C0660F771F8A95E2F7CB01842BCB
:102B100082B94DC045B121E030E0B90102C0660F75
:102B2000771F8A95E2F7CB01842B85B940C048B165
:102B300021E030E0B90102C0660F771F8A95E2F705
:102B4000CB01842B88B933C04BB121E030E0B9010F
:102B500002C0660F771F8A95E2F7CB01842B8BB9F1
:102B600026C04EB121E030E0B90102C0660F771FE8
:102B70008A95E2F7CB01842B8EB919C041B321E0CD
:102B800030E0B90102C0660F771F8A95E2F7CB01EA
:102B9000842B81BB0CC044B321E030E0B90102C0FA
:102BA000660F771F8A95E2F7CB01842B84BB81E007
:102BB00008958FEF08958F3F09F465C0E82FE770FF
:102BC0004E2F50E04730510508F05DC0FA01E9563C
:102BD000FF4F8695869586950C94B03142B121E0E1
:102BE00030E0B90102C0660F771F8A95E2F7CB018A
:102BF0008095842382B945C045B121E030E0B90118
:102C000002C0660F771F8A95E2F7CB018095842377
:102C100085B937C048B121E030E0B90102C0660F84
:102C2000771F8A95E2F7CB018095842388B929C064
:102C30004BB121E030E0B90102C0660F771F8A95E1
:102C4000E2F7CB01809584238BB91BC04EB121E004
:102C500030E0B90102C0660F771F8A95E2F7CB0119
:102C6000809584238EB90DC041B321E030E0B901D5
:102C700002C0660F771F8A95E2F7CB018095842307
:102C800081BB81E008958FEF08958F3F31F1E82FE8
:102C9000E7704E2F50E047305105F8F4FA01E25644
:102CA000FF4F282F2695269526950C94B03190B18C
:102CB0000BC093B109C096B107C099B105C09CB1D2
:102CC00003C09FB101C092B3892F90E002C09595D7
:102CD00087952A95E2F7817008958FEF08958F3FC9
:102CE00009F406C1E82FE7704E2F50E04730510538
:102CF00008F0FEC0FA01EB55FF4F86958695869544
:102D00000C94B03120B130E0082E02C035952795E3
:102D10000A94E2F742B120FD0BC021E030E0B90196
:102D200002C0660F771F8A95E2F7CB01842B0BC098
:102D300021E030E0B90102C0660F771F8A95E2F703
:102D4000CB018095842382B916C023B130E0082ED0
:102D500002C0359527950A94E2F745B120FD0DC0D4
:102D600021E030E0B90102C0660F771F8A95E2F7D3
:102D7000CB01842B85B981E0089521E030E0B901D1
:102D800002C0660F771F8A95E2F7CB0180958423F6
:102D9000F1CF26B130E0082E02C0359527950A9470
:102DA000E2F748B120FD0BC021E030E0B90102C0DC
:102DB000660F771F8A95E2F7CB01842B0BC021E0C9
:102DC00030E0B90102C0660F771F8A95E2F7CB01A8
:102DD0008095842388B9CFCF29B130E0082E02C076
:102DE000359527950A94E2F74BB120FD0BC021E001
:102DF00030E0B90102C0660F771F8A95E2F7CB0178
:102E0000842B0BC021E030E0B90102C0660F771FB0
:102E10008A95E2F7CB01809584238BB9ACCF2CB196
:102E200030E0082E02C0359527950A94E2F74EB19E
:102E300020FD0BC021E030E0B90102C0660F771F12
:102E40008A95E2F7CB01842B0BC021E030E0B90179
:102E500002C0660F771F8A95E2F7CB018095842325
:102E60008EB989CF2FB130E0082E02C03595279555
:102E70000A94E2F741B320FD0BC021E030E0B90134
:102E800002C0660F771F8A95E2F7CB01842B0BC037
:102E900021E030E0B90102C0660F771F8A95E2F7A2
:102EA000CB018095842381BB66CF22B330E0082E0E
:102EB00002C0359527950A94E2F744B320FD0BC074
:102EC00021E030E0B90102C0660F771F8A95E2F772
:102ED000CB01842B0BC021E030E0B90102C0660FAA
:102EE000771F8A95E2F7CB018095842384BB43CF7B
:102EF0008FEF08958F3F09F4D5C0E82FE7704E2F6C
:102F000050E0611167C04730510508F0CBC0FA01AD
:102F1000E455FF4F8695869586950C94B03141B166
:102F200021E030E0B90102C0660F771F8A95E2F711
:102F3000CB018095842365C044B121E030E0B90124
:102F400002C0660F771F8A95E2F7CB018095842334
:102F500065C047B121E030E0B90102C0660F771FBC
:102F60008A95E2F7CB018095842365C04AB121E0C0
:102F700030E0B90102C0660F771F8A95E2F7CB01F6
:102F80008095842365C04DB121E030E0B90102C0D5
:102F9000660F771F8A95E2F7CB018095842365C081
:102FA00040B321E030E0B90102C0660F771F8A9577
:102FB000E2F7CB018095842365C043B321E030E084
:102FC000B90102C0660F771F8A95E2F7CB018095A1
:102FD000842365C04730510508F064C0FA01ED5400
:102FE000FF4F8695869586950C94B03141B121E0CE
:102FF00030E0B90102C0660F771F8A95E2F7CB0176
:10300000842B81B94DC044B121E030E0B90102C048
:10301000660F771F8A95E2F7CB01842B84B940C0F5
:1030200047B121E030E0B90102C0660F771F8A95F1
:10303000E2F7CB01842B87B933C04AB121E030E0FD
:10304000B90102C0660F771F8A95E2F7CB01842B86
:103050008AB926C04DB121E030E0B90102C0660F47
:10306000771F8A95E2F7CB01842B8DB919C040B345
:1030700021E030E0B90102C0660F771F8A95E2F7C0
:10308000CB01842B80BB0CC043B321E030E0B901FD
:1030900002C0660F771F8A95E2F7CB01842B83BBB2
:1030A00081E008958FEF0895811106C080B1869563
:1030B000817091E0892708958FEF0895009711F4AA
:1030C00083E20DC08130910511F48BE208C082309B
:1030D000910511F483E303C0039729F48BE30E9465
:1030E0006F1681E008958FEF0895009711F483E241
:1030F0000DC08130910511F48BE208C0823091053A
:1031000011F483E303C0039729F48BE30E946A154B
:1031100081E008958FEF0895009711F483E20DC0C8
:103120008130910511F48BE208C08230910511F4D1
:1031300083E303C0039729F48BE30E94DB1581E04E
:1031400008958FEF0895882319F085B78F7E02C008
:1031500085B7806185BF81E008959091C80095FF93
:10316000FCCF8093CE0008959093C5008093C40057
:1031700086E08093C200E1ECF0E080818B7F808369
:10318000A0ECB0E08C9182608C9380818861808318
:1031900008959093CD008093CC0086E08093CA0080
:1031A000E9ECF0E080818B7F8083A8ECB0E08C912B
:1031B00082608C9380818861808308950E94B41816
:1031C00069E275E182E994E10E94333290936409E7
:1031D0008093630969E275E182E994E10E943332E8
:1031E00090936209809361090E94EF1D8093A1046E
:1031F0008F3F19F48EE00E94301C1092B50410929B
:10320000B4041092B3041092B2048091C10080689B
:103210008093C10008958091C80087FFFCCF809102
:10322000C8008F778093C8008091CE000895000079
:103230000000000000000197D1F708950C948E3330
:103240000E9496330895EF92FF920F931F93CF93AE
:10325000DF937C0180E090E00E948E33182FF7010D
:10326000838381E090E00E948E33082FF7018283F0
:1032700082E090E00E948E33D82FF701818383E0B3
:1032800090E00E948E33C82FF701808384E090E0A5
:103290000E948E33100FD10FCD0F8C1711F08FEFCE
:1032A00001C081E0DF91CF911F910F91FF90EF90CE
:1032B0000895CF93DF93EC0185E090E00E948E3378
:1032C000888381E0DF91CF910895FC01608186E0E1
:1032D00090E00E94963381E00895CF93DF93EC0154
:1032E00086E090E00E948E33888381E0DF91CF9169
:1032F00008950F931F93CF93DF938C01C0E0D0E02C
:10330000CE0108960E948E33F80181938F01219699
:10331000C031D105A9F781E0DF91CF911F910F91C5
:1033200008950F931F93CF93DF938C01C0E0D0E0FB
:10333000F80161918F01CE0108960E949633219683
:10334000C031D105A9F781E0DF91CF911F910F9195
:103350000895CF93DF93EC0187E090E00E948E33D5
:10336000888381E0DF91CF910895FC01608187E03F
:1033700090E00E94963381E00895F894089578943F
:1033800008950E94BD19FFCF1F93CF93DF93CDB750
:10339000DEB7A3970FB6F894DEBF0FBECDBF0E9475
:1033A000EF1D809321098F3F21F460E08EE00E94A1
:1033B0003B1C0E94762C182F80FF04C060E086E042
:1033C0000E943B1C11FF04C060E084E10E943B1C92
:1033D00012FF04C060E083E10E943B1C10922409AC
:1033E0001092320910923109109223091092220989
:1033F00010923309109230098FEF80931A0980934D
:103400001C0980931B0980931D0980931F098093D9
:103410001E0993E690937608809374089093A10810
:1034200080939F089093CC088093CA089093F708E4
:103430008093F50884E399E029E339E03093380973
:103440002093370990933B0980933A094EE359E062
:1034500050933D0940933C093093400920933F0924
:1034600023E439E030934209209341095093450900
:103470004093440948E459E0509347094093460972
:1034800030934A0920934909109236091092350960
:1034900010924C0910924B0910922709109226099C
:1034A00090936B0880936A086FED76E2CE010196E7
:1034B0000E94AE2E40E850E062E576E0CE01019633
:1034C0000E94B22E85E58093520619861C861D86C1
:1034D0001E861F86188A198A1A8A1B8A1C8A1D8AC8
:1034E0001E8A1F8A188E198E1A8E1B8E1C8E1D8E98
:1034F0001E8E1F8E18A219A21AA21BA281E0888715
:1035000092E09A878B87CE0101960E941422A3969F
:103510000FB6F894DEBF0FBECDBFDF91CF911F91E4
:10352000089504E718E0C0E0F801D080FFEFDF1253
:1035300022C0CF5F055D1F4FC430B1F70E94032149
:103540002BE28202C0011124FC01E459F74F82856D
:1035500080933309F0933209E0933109F093230902
:10356000E0932209809324090E94242F0E940E2FA9
:103570000E94282F16C084E7E82E88E0F82ED0E0BD
:10358000CD1741F0F7018081D81204C06D2D85E080
:103590000E943B1CDF5FFBE2EF0EF11CD43081F791
:1035A000C8CFFFCFCF92DF92EF92FF920F931F937E
:1035B000CF93DF93EC018B017A018985823021F072
:1035C00080912009888301C018828091200984306D
:1035D00020F060E087E00E943B1C8985823029F062
:1035E000809120098F5F80932009809120098111AB
:1035F00003C081E08093200938812BE23203F0017F
:103600001124E459F74F118300838885828738811C
:103610003203F0011124E459F74F83E081873881A8
:103620003203F0011124E459F74F30870881020377
:10363000800111240459174FF8011582CE010B9611
:103640000E947126F80161A372A383A394A38B85C2
:103650009C85AD85BE8588339948A144B10520F08D
:10366000688186E10E943B1CC880DD24C7FCD094A1
:10367000CE014B960E9471261BE21C9DF0011D9D00
:10368000F00D1124E459F74F658B768B878B908F63
:1036900028812103C00111249C012459374F69015D
:1036A000F901458956896789708D81A192A1A3A1ED
:1036B000B4A1840F951FA61FB71F818F928FA38F70
:1036C000B48FCE0143960E947126F60165A376A3BE
:1036D00087A390A728812103F0011124E459F74F13
:1036E00085A196A1A7A1B0A5858F968FA78FB0A31E
:1036F00081E090E092A781A7F382E2828487DF9144
:10370000CF911F910F91FF90EF90DF90CF90089590
:103710000C94032785E690E00895E0913109F0913B
:10372000320984870895E0913109F0913209848546
:103730000895FC018091DD05882331F0DB018C9335
:103740008091D904808381E008958091DD058823EC
:1037500009F484C00E94BD198DE895E00E941415FB
:103760008091D9041F928F9383EF92E09F938F9360
:103770000E94B63289E895E00E9414150F900F90D0
:103780000F900F908091DD05883110F01092DD05CB
:10379000E091DD058E2F90E0FC013197E631F105D7
:1037A00008F046C0E654FF4F0C94B0318DE495E02C
:1037B00041C086E295E03EC082E195E03BC08CEFDF
:1037C00094E038C081EE94E035C08BEC94E032C0D8
:1037D00083EB94E02FC080EA94E02CC08DE894E065
:1037E00029C08FE694E026C08AE494E023C08EE3EB
:1037F00094E020C083E294E01DC084E194E01AC00C
:1038000080E094E017C08FEE93E014C08BED93E05E
:1038100011C08BEB93E00EC083EA93E00BC088E805
:1038200093E008C087E793E005C088E693E002C014
:1038300081E693E00E941415609163097091640918
:103840008DE090E00E947E3260916309709164097E
:103850008AE090E00E947E321092DD0580E00895BB
:103860008093DD05E0913109F091320980858093E4
:10387000D9040C94A51B8093DD056093D9040C94A6
:10388000A51BCF93DF931F92CDB7DEB71982898135
:10389000843640F480ED97E00E94AC2A89818F5FE6
:1038A0008983F5CF0F90DF91CF91089581E090E06B
:1038B0000E948C180E94411C0E94411C0E94411CC5
:1038C00081E090E00E9475180C94411C81E090E02A
:1038D0000E948C180E94411C81E090E00E947518A3
:1038E0000C94411CFF920F931F93CF93DF9300D052
:1038F0001F92CDB7DEB71F928F9383EF92E09F9315
:103900008F938E010F5F1F4F1F930F930E94003301
:103910000F900F900F900F900F900F90F12CF801D7
:1039200001900020E9F73197E01BF10B8F2D90E01B
:103930008E179F0708F05DC0F801E80FF91FE081BE
:103940008E2F90E0FC01F097EA30F10508F049C0B5
:10395000E053FF4F0C94B0310E94561C02C00E94ED
:10396000661C0E94561C0E94561C0E94561C0E94F7
:10397000561C37C00E94661C0E94661CF4CF0E9431
:10398000661C0E94661C0E94661CEFCF0E94661C8B
:103990000E94661C0E94661C0E94661CE8CF0E9462
:1039A000661C02C00E94561C0E94661C04C00E9435
:1039B000561C0E94561C0E94661C06C00E94561C83
:1039C0000E94561C0E94561C0E94661C08C00E9441
:1039D000561C0E94561C0E94561C0E94561C0E9497
:1039E000661C0E94411C0E94411C0E94411CF394D1
:1039F00096CF0F900F900F90DF91CF911F910F9165
:103A0000FF9008956F927F928F929F92AF92BF9294
:103A1000CF92DF92EF92FF920F931F93CF93DF939A
:103A200089E995E00E941415E0913109F09132097D
:103A30008085282F332727FD30953F938F938DE97D
:103A400093E09F938F930E94B632E0913109F091F9
:103A50003209C281D381DF93CF9381ED93E09F93AD
:103A60008F930E94B63288811F928F9386EA93E0EB
:103A70009F938F930E94B632E0913109F091320901
:103A800081818F9380818F9383EB93E09F938F93BA
:103A90000E94B632809132098F93809131098F93C1
:103AA0008DEB93E09F938F930E94B632CCE6D8E0E3
:103AB000EDB7FEB774960FB6F894FEBF0FBEEDBF1C
:103AC00000E010E08DEC682E83E0782E96EA892ED7
:103AD00093E0992E23EBA22E23E0B22E3DEBC32ED2
:103AE00033E0D32EEA80FB80FF92EF921F930F9377
:103AF0007F926F920E94B632F70180811F928F935E
:103B00009F928F920E94B63289818F9388818F9382
:103B1000BF92AF920E94B632DF93CF93DF92CF92E3
:103B20000E94B6320F5F1F4FAB96EDB7FEB772968D
:103B30000FB6F894FEBF0FBEEDBF0430110591F62D
:103B4000DF91CF911F910F91FF90EF90DF90CF9079
:103B5000BF90AF909F908F907F906F900895CF937C
:103B6000DF93E0913109F0913209C281D3818881DC
:103B7000853539F00E94021D81E00E94301C85E5E8
:103B80008883E0913109F09132098081918181151A
:103B9000924438F00E94021D82E1DF91CF910C9493
:103BA000301CDF91CF9108952BE28202C0011124D5
:103BB000FC01E459F74FA281B3818C91853519F04E
:103BC00085E58C9308C0808191818115924428F00D
:103BD00082E10E94301C8FEF089581E008950F93D9
:103BE0001F934091E2045091E3046091E4047091CA
:103BF000E50480E090E08A019B01082E04C0369520
:103C00002795179507950A94D2F700FD19C001E092
:103C100010E020E030E0082E04C0000F111F221F2A
:103C2000331F0A94D2F7402B512B622B732B4093F6
:103C3000E2045093E3046093E4047093E50405C048
:103C4000019680329105B9F68FEF1F910F9108957B
:103C5000E0913109F09132096585768587859089F3
:103C60000895CF92DF92EF92FF920F931F93CF931D
:103C7000DF93C12CD12C7601C394082E04C0CC0C48
:103C8000DD1CEE1CFF1C0A94D2F74091E204509117
:103C9000E3046091E4047091E5044C215D216E2100
:103CA0007F21452B462B472B09F460C0082F0E942B
:103CB000BD19E5E7F8E0B701A6014095509560957C
:103CC000709513E0DF0111978C918F3F39F184815A
:103CD0009581A681B7818C159D05AE05BF0551F470
:103CE00010861186128613869F0122503109E90140
:103CF0001882108384239523A623B7238483958376
:103D0000A683B78380859185A285B3858423952377
:103D1000A623B72380879187A287B387BB96D9E074
:103D2000E132FD0779F68EEF9FEFAFEFBFEF04C0F2
:103D3000880F991FAA1FBB1F0A95D2F74091E20472
:103D40005091E3046091E4047091E5048423952389
:103D5000A623B7238093E2049093E304A093E404A2
:103D6000B093E5040E94BF1981E001C08FEFDF919D
:103D7000CF911F910F91FF90EF90DF90CF9008951A
:103D80000F931F9341E050E060E070E08A019B01D7
:103D900004C0000F111F221F331F8A95D2F7D901CB
:103DA000C801E0913109F091320945855685678552
:103DB00070890423152326233723012B022B032B81
:103DC000D1F080959095A095B095482359236A230A
:103DD0007B23458756876787708B41895289638922
:103DE000748984239523A623B723818B928BA38B7D
:103DF000B48B81E001C08FEF1F910F910895282FA0
:103E00004091E2045091E3046091E4047091E50470
:103E1000082E04C076956795579547950A94D2F772
:103E200040FF1DC0E0913109F091320981E090E03E
:103E3000A0E0B0E004C0880F991FAA1FBB1F2A95FD
:103E4000D2F74585568567857089842B952BA62BDF
:103E5000B72B85879687A787B08B81E008958FEF72
:103E60000895CF92DF92EF92FF92CF93C12CD12C85
:103E70007601C39404C0CC0CDD1CEE1CFF1C8A959B
:103E8000D2F78091E2049091E304A091E404B09110
:103E9000E5048C219D21AE21BF21892B8A2B8B2B00
:103EA00011F481E044C00E94BD19E3E7F8E0A5E702
:103EB000B8E0C0E083E090819130B9F44285538549
:103EC000648575854C215D216E217F21452B462B14
:103ED000472B59F08C9316861786108A118A108208
:103EE000C286D386E486F586C1E090819230A1F443
:103EF00042855385648575854C155D056E057F0586
:103F000059F48C9316861786108A118A10821286AD
:103F1000138614861586C1E0BB969B9699E0EF3117
:103F2000F90749F60E94BF19C11105C082E00E943D
:103F30008D1B8FEF01C081E0CF91FF90EF90DF905C
:103F4000CF9008950F931F93E0913109F0913209BA
:103F500005851685278530890623172328233923CD
:103F6000011511052105310511F1DC01CB01818B12
:103F7000928BA38BB48B21E027830090210904C08E
:103F8000B695A795979587950A94D2F780FF03C0B9
:103F90000E947C2304C080E090E00E944D23E091C9
:103FA0003109F09132090189128923893489C901C3
:103FB000B8011F910F9108959091300991111DC082
:103FC00090911A099F3F31F090911D099F3F21F078
:103FD000E2E003C0E0E001C0E1E0F0E09F01220F79
:103FE000331FE20FF31FE65EF64F82838083618307
:103FF00081E080933009CF01089580E090E008953A
:1040000029E08A31920729F08D51994021F481E00D
:10401000089580E008958FEF08950E9400208F3F5B
:1040200011F481E002C0823021F40E948D1B8FEFD9
:104030000895992787FD9095FC01EE0FFF1F8E0FC5
:104040009F1FFC01E65EF64F82810895EF92FF927A
:104050000F931F93CF93DF931F92CDB7DEB70E94CC
:1040600000208F3F11F481E002C0823021F40E94D1
:104070008D1B8FEF41C089830E94BD198981E82E75
:10408000FF24E7FCF0948701000F111FF801EE0DEB
:10409000FF1DE65EF64F9281911116C0E091310945
:1040A000F0913209978192609783992787FD9095C7
:1040B000A92FB92F818B928BA38BB48B0E94BF1930
:1040C00080E090E00E944D230E0D1F1DD801A65EDA
:1040D000B64F12968C911297815012968C9312972C
:1040E000E0913109F091320911968C91838781E03A
:1040F00084830E94BF1981E00F90DF91CF911F91BF
:104100000F91FF90EF9008950F931F93CF93DF933C
:104110001F92CDB7DEB70E9400208F3F11F481E0DF
:1041200002C0823021F40E948D1B8FEF44C0482FC3
:10413000552747FD50959A01220F331F240F351F35
:104140008901065E164FF80122819081291794F5A6
:1041500089830E94BD19F80192819F5F9283E0914B
:104160003109F09132091482E3E7F8E08981992757
:1041700087FD9095A92FB92F23E03081323099F433
:104180004285538564857585481759076A077B07FB
:1041900051F4228316861786108A118A108212869D
:1041A000138614861586BB9639E0EF31F30729F79D
:1041B0000E94BF1981E00F90DF91CF911F910F9165
:1041C00008950E9400208F3F11F481E002C08230E8
:1041D00021F40E948D1B8FEF0895992787FD9095FC
:1041E000FC01EE0FFF1F8E0F9F1FFC01E65EF64FD6
:1041F0008FEF808382838183809130098150809307
:10420000300981E00895E0912609F0912709808125
:104210000895E0912609F0912709309721F0038055
:10422000F481E02DFACF0895AF92BF92CF92DF9242
:10423000EF92FF920F931F93CF93DF93E0916A0861
:10424000F0916B08309709F494C000912609109101
:1042500027090115110509F44CC0D8014BE2582F6C
:104260005403900111242459374F79019AE0E90E43
:10427000F11C6901C4E0CC0ED11C5901DBE0AD0E8C
:10428000B11C2C9130E0429FB001439F700D11246E
:104290006459774FEB019C81992329F05B85E701F5
:1042A0009881591740F1E6019881992369F0429F5E
:1042B000B001439F700D11246459774FEB015A856B
:1042C000E50198815917B8F0429FB001439F700DE6
:1042D00011249B012459374FE9012A85E701988170
:1042E000291748F013960D90BC91A02D109749F610
:1042F00002C0A0E0B0E08083C381D481D0936B087A
:10430000C0936A08A017B107B1F4109749F0B483BD
:10431000A383128211821296FC93EE93119706C02A
:104320001482138212821182FA83E983F09327099F
:10433000E09326091EC0AC17BD0779F011968D9148
:104340009C91129792838183B483A3831196CD911C
:10435000DC911297FC83EB8308C0148213821196C0
:104360008D919C911297928381831296FC93EE9388
:104370001197DF91CF911F910F91FF90EF90DF90F8
:10438000CF90BF90AF900895CF93DF93E09126092F
:10439000F0912709309709F444C0992787FD90953B
:1043A000208130E02817390781F4A381B481B093CC
:1043B0002709A093260912961C921E92119718C0E5
:1043C0000380F481E02D309761F1208130E02817DF
:1043D0003907B1F7C181D281838194819C838B831A
:1043E000A381B481109721F01296DC93CE9311979C
:1043F000A0916A08B0916B08109739F4F0936B089C
:10440000E0936A08148213820AC0B483A3831296CD
:10441000FC93EE931197F0936B08E0936A08128275
:104420001182DF91CF910895EF92FF920F931F9326
:10443000CF93DF93EC014B815C8169817A818D811F
:104440009E810E94D02E2F81222371F04B815C81AE
:10445000E12CF12C00E010E020E030E0BC01CE01C6
:104460000E94D21A1F820CC0E8812BE2E202F00106
:104470001124E459F74F21852330B9F491838083C7
:10448000E8818BE2E802F0011124E459F74F8589B5
:104490009689A789B08D892B8A2B8B2B41F482E0DA
:1044A000818788810E94142102C08FEF01C081E0C2
:1044B000DF91CF911F910F91FF90EF9008951F937F
:1044C000CF93DF93CDB7DEB728970FB6F894DEBF52
:1044D0000FBECDBF29833A834B835C836D837E837C
:1044E0008F8398870E94BD190E94FA2B182FCE0146
:1044F00001960E9471266330710598F0E0913109B0
:10450000F0913209212F30E0620F731FCB01A0E040
:10451000B0E0858B968BA78BB08F0E94BF1981E08E
:1045200001C08FEF28960FB6F894DEBF0FBECDBF47
:10453000DF91CF911F9108950E94A32EE091310940
:10454000F091320985818111F7CF0895CF930E94B0
:10455000AF1D0E94BD19E0913109F091320981E04F
:1045600090E092A781A785830E94FA2BC82F883FED
:1045700080F40E94942B2C2F30E02F5F3F4F90E06F
:104580002817390734F482E08C0F8093CB070E9400
:10459000982B0E94BF190E949C2281E0CF91089520
:1045A000E0913109F091320980850E94C421E091A7
:1045B0003109F091320984E081870E94A62281E0CE
:1045C0000895CF93DF93EC010E94AF1D209711F463
:1045D000C1E0D0E00E94BD19E0913109F0913209AB
:1045E00081E08583D2A7C1A70E94FA2BC82F883FFC
:1045F00080F40E94942B2C2F30E02F5F3F4F90E0EF
:104600002817390734F482E08C0F8093CB070E947F
:10461000982B0E94BF190E949C2281E0DF91CF91CC
:104620000895EF92FF920F931F93CF938C010E94F6
:10463000BD19E0913109F091320981E085830E9432
:10464000FA2BC82FE0913109F0913209E82EF12CB4
:10465000C701800F911FA0E0B0E0858B968BA78BE0
:10466000B08FC83F78F40E94942B9FEFE91AF90AA3
:1046700090E0E816F90634F482E08C0F8093CB07C3
:104680000E94982B0E94BF190E949C2281E0CF912A
:104690001F910F91FF90EF900895CF93DF93EC015E
:1046A0000E94BD19E0913109F091320921E0258382
:1046B000CE01A0E0B0E0858B968BA78BB08F0E94D7
:1046C000FA2BC82F883F80F40E94942B2C2F30E0C7
:1046D0002F5F3F4F90E02817390734F482E08C0FAA
:1046E0008093CB070E94982B0E94BF190E949C22A6
:1046F00081E0DF91CF910895CF930E94BD19E091A1
:104700003109F091320981E0858386830E94FA2B7A
:10471000C82F883F80F40E94942B2C2F30E02F5F0D
:104720003F4F90E02817390734F482E08C0F8093D4
:10473000CB070E94982B0E94BF190E949C2281E007
:10474000CF9108951F93CF93DF93CDB7DEB728970E
:104750000FB6F894DEBF0FBECDBF29833A834B83DB
:104760005C836D837E838F8398870E94AF1D0E9438
:10477000BD19E0913109F091320981E0858381E032
:1047800090E092A781A70E94FA2B182FCE010196E4
:104790000E947126E0913109F0913209DC01CB01D0
:1047A000810F911DA11DB11D858B968BA78BB08F9D
:1047B000183F80F40E94942B212F30E02F5F3F4F51
:1047C00090E02817390734F482E0810F8093CB07FB
:1047D0000E94982B0E94BF190E949C2281E028967B
:1047E0000FB6F894DEBF0FBECDBFDF91CF911F9102
:1047F00008958F929F92AF92BF92CF92DF92EF92E5
:10480000FF920F931F93CF93DF93CDB7DEB76097DF
:104810000FB6F894DEBF0FBECDBF29873A874B870E
:104820005C876D877E878F87988BCE0101960E946B
:10483000552489809A80AB80BC80CD80DE80EF805B
:10484000F88409851A852B853C854D855E856F85A5
:104850007889CE0109960E94B2248F3F61F02985A4
:104860003A854B855C856D857E858F8598890E940C
:10487000A22381E001C08FEF60960FB6F894DEBFEF
:104880000FBECDBFDF91CF911F910F91FF90EF90A1
:10489000DF90CF90BF90AF909F908F900895E09160
:1048A0003109F0913209808508950F931F93CF93BA
:1048B000DF93EC011C821D821E821F8280912809D9
:1048C00090912909A0912A09B0912B098883998395
:1048D000AA83BB8380912C0990912D09A0912E0968
:1048E000B0912F098C839D83AE83BF830E94FA2BE6
:1048F000A82FB0E023EB36EE4EE050E00E94C5302A
:104900000C811D812E813F81DC01CB01800F911F25
:10491000A21FB31F8C839D83AE83BF838C819D8137
:10492000AE81BF8181152AEC92072AE9A2072BE309
:10493000B20798F09A5CAA49BB438C839D83AE83EF
:10494000BF8388819981AA81BB810196A11DB11D78
:1049500088839983AA83BB83E1CFDF91CF911F9195
:104960000F9108958F929F92AF92BF92CF92DF9254
:10497000EF92FF920F931F93CF93DF93CDB7DEB7E4
:1049800060970FB6F894DEBF0FBECDBFFC01098360
:104990001A832B833C834D835E836F83788789865C
:1049A0009A86AB86BC86CD86DE86EF86F88A09813C
:1049B0001A812B813C814D815E816F817885C9840C
:1049C000DA84EB84FC848D859E85AF85B8890C15CF
:1049D0001D052E053F05F0F1C016D106E206F306CF
:1049E00091F4481759076A077B07A0F1481B590B38
:1049F0006A0B7B0B44835583668377831082118215
:104A00001282138225C0481759076A077B0780F472
:104A100001501109210931090C191D092E093F09FD
:104A2000008311832283338356536546744C08C038
:104A30000C191D092E093F0900831183228333833A
:104A4000481B590B6A0B7B0B448355836683778322
:104A500081E001C08FEF60960FB6F894DEBF0FBE05
:104A6000CDBFDF91CF911F910F91FF90EF90DF901D
:104A7000CF90BF90AF909F908F900895FC0144819C
:104A800055816681778141158AEC58078AE9680764
:104A90008BE3780798F05A5C6A497B4344835583DB
:104AA0006683778380819181A281B3810196A11D64
:104AB000B11D80839183A283B383E1CF08958F9248
:104AC0009F92AF92BF92CF92DF92EF92FF920F939D
:104AD0001F93CF93DF93CDB7DEB760970FB6F894EF
:104AE000DEBF0FBECDBF09831A832B833C834D836A
:104AF0005E836F83788789869A86AB86BC86CD86EF
:104B0000DE86EF86F88A09851A852B853C854981E2
:104B10005A816B817C81400F511F621F731FFC0102
:104B200040835183628373830D851E852F85388969
:104B30004D815E816F817885400F511F621F731F09
:104B400044835583668377830E943E2581E0609687
:104B50000FB6F894DEBF0FBECDBFDF91CF911F918E
:104B60000F91FF90EF90DF90CF90BF90AF909F900C
:104B70008F900895E8E2F9E06083718382839383E4
:104B8000248335834683578308952F923F924F9213
:104B90005F926F927F928F929F92AF92BF92CF92CD
:104BA000DF92EF92FF920F931F93FC01C080D180A0
:104BB000E280F380C114D104E104F104E1F18481C5
:104BC0009581A681B78122E4C216D104E104F104E3
:104BD000F0F51C012D01612C712C4301E0E08E2FBA
:104BE00090E0A0E0B0E08C159D05AE05BF0588F40F
:104BF0009101A201B301C40136534546544C6F4F95
:104C00007F4F8F4F9F4F19012A013B014C01EF5FEE
:104C1000E6CF83EBA82E96EEB92E2EE0C22ED12C35
:104C2000E12CF12C00E010E09101A201B301C401DC
:104C30000E944B310AC0648175818681978123EB84
:104C400036EE4EE050E00E941031C90102C080E013
:104C500090E01F910F91FF90EF90DF90CF90BF9069
:104C6000AF909F908F907F906F905F904F903F900C
:104C70002F900895CF92DF92EF92FF92CF93DF9320
:104C8000CDB7DEB728970FB6F894DEBF0FBECDBF05
:104C90006B017C012AE0F694E794D794C7942A9597
:104CA000D1F7C982DA82EB82FC829B01AC013370BE
:104CB0004427552763EB76EE8EE090E00E94D830D3
:104CC0002C2D3A814B815C8128960FB6F894DEBF7B
:104CD0000FBECDBFDF91CF91FF90EF90DF90CF90CF
:104CE00008952F923F924F925F926F927F928F9290
:104CF0009F92AF92BF92CF92DF92EF92FF920F936B
:104D00001F93FC01C080D180E280F380C114D104E4
:104D1000E104F104B9F184819581A681B7811C0178
:104D20002D01612C712C4301E0E08E2F90E0A0E07A
:104D3000B0E08C159D05AE05BF0588F49101A20178
:104D4000B301C40136534546544C6F4F7F4F8F4FCC
:104D50009F4F19012A013B014C01EF5FE6CF83EB26
:104D6000A82E96EEB92E2EE0C22ED12CE12CF12CDD
:104D700000E010E09101A201B301C4010E944B3197
:104D8000CA010BC0648175818681978123EB36EE61
:104D90004EE050E00E941031CA01B9011F910F91FD
:104DA000FF90EF90DF90CF90BF90AF909F908F904B
:104DB0007F906F905F904F903F902F900895C2E04A
:104DC000D1E00E94AF1D0E94942B843028F4D09330
:104DD00025090E94A32E08C08AE090E00E94AC2A18
:104DE000C09325090E94972E80915206853519F0AF
:104DF00088E00E94301C80917E41853511F388E067
:104E00000E94301CDECF2F923F924F925F926F92A2
:104E10007F928F929F92AF92BF92CF92DF92EF924A
:104E2000FF920F931F93CF93DF9300D01F92CDB7C4
:104E3000DEB70E94C82A0E94BF190E94E62A0E947B
:104E4000EE2A1C018AEF0E94982BA091CB07B0E0BC
:104E500023EB36EE4EE050E00E94C53000912C0965
:104E600010912D0920912E0930912F096B017C01A1
:104E7000C00ED11EE21EF31EC701B60123EB36EEB3
:104E80004EE050E00E94103126013701461A570AC1
:104E9000680A790AD301C2010091280910912909F1
:104EA00020912A0930912B0943EB842E46EE942E53
:104EB0004EE0A42EB12C680179014FEFC41AD40A38
:104EC000E40AF40A81155AEC95075AE9A5075BE351
:104ED000B507C8F02C013D012AEC521A2AE9620AF2
:104EE0002BE3720AC301B201A50194010E941031A3
:104EF000A3019201261B370B480B590BDA01C9019C
:104F000097018601D8CF80932C0990932D09A09307
:104F10002E09B0932F090093280910932909209393
:104F20002A0930932B09E0913109F09132098581EA
:104F3000882339F18185843021F18781823029F0FD
:104F4000882341F08681811102C085E001C083E0A1
:104F5000818714C083E081871782168285899689AC
:104F6000A789B08D892B8A2B8B2B41F4818D928D53
:104F7000A38DB48D858B968BA78BB08F80850E9477
:104F8000C421E0913109F091320985A196A1A7A130
:104F9000B0A5892B8A2B8B2B09F444C020852223B2
:104FA00009F440C081858430E9F1858D968DA78D07
:104FB000B0A14091CB0750E060E070E08417950706
:104FC000A607B70768F4622F82E00E943B1CE091BD
:104FD0003109F0913209158E168E178E10A208C075
:104FE000841B950BA60BB70B858F968FA78FB0A34D
:104FF000E0913109F09132091085858D968DA78D4C
:10500000B0A1892B8A2B8B2B69F4612F83E00E943E
:105010003B1CE0913109F091320983E08187812FB7
:105020000E94C42185E798E09B838A8300E61AEEFC
:1050300019822AEFC22ED12CE12CF12C812C912C3B
:1050400054018394EA81FB81319780818F3F09F479
:1050500004C1EA81FB8134971082882309F467C078
:10506000EA81FB818081843009F461C044845584E5
:10507000668477846091CB0770E080E090E046160C
:1050800057066806790648F0461A570A680A790AE8
:10509000448655866686778606C0EA81FB8114863B
:1050A000158616861786EA81FB81408851886288BA
:1050B0007388461657066806790648F0461A570A56
:1050C000680A790A408A518A628A738A1EC0EA8114
:1050D000FB81208D318D428D538D621773078407BC
:1050E000950758F429013A01461A570A680A790ABD
:1050F000408A518A628A738A08C00E941031EA810C
:10510000FB81608B718B828B938BEA81FB81808921
:105110009189A289B389892B8A2B8B2B41F4808DAD
:10512000918DA28DB38D808B918BA28BB38BEA81F5
:10513000FB818081833009F090C084859585A685A8
:10514000B785892B8A2B8B2B09F074C0DF0112974E
:105150008C919F01235031098823A9F0F9018081A6
:10516000882389F0B501A4010090210904C0440FEF
:10517000551F661F771F0A94D2F7EA81FB8140878B
:105180005187628773871C92F9011082EA81FB8143
:10519000A0A1B1A1A130B10519F5848D958DA68D81
:1051A000B78D848B958BA68BB78B92E0492E40826E
:1051B00080899189A289B38984879587A687B787D3
:1051C000808D918DA28DB38D892B8A2B8B2B21F411
:1051D000C486D586E686F78689810E9414212AC076
:1051E000EA81FB81448D558D668D778D448B558B7F
:1051F000668B778B408C518C628C738C1197A301DA
:1052000092010E94C5306487758786879787608B77
:10521000718B828B938B45284628472821F4C486BE
:10522000D586E686F78644244394512CEA81FB8197
:1052300051A240A2EA81FB8184859585A685B78528
:105240000097A105B10549F0A80160E070E084175E
:105250009507A607B70708F48C01F981FF5FF9836A
:105260002A813B81255D3F4F3B832A83F43009F03F
:10527000E9CE0E940321F82E3BE28302F0011124C3
:10528000E459F74F228520933309F0932309E093E3
:1052900022098823F9F085A196A1A7A1B0A5892BA1
:1052A0008A2B8B2B99F0858D968DA78DB0A18A3F87
:1052B0009105A105B10550F4A80160E070E08417E4
:1052C0009507A607B707E8F48C011BC00B3F110533
:1052D000C0F012C004301105A0F0C80103978A3F46
:1052E000910538F48C018230910558F402E010E009
:1052F00008C00D3F110519F00AEF10E002C007EFDA
:1053000010E020932409F0933209E09331090093CF
:10531000CB070E94FA2B282F30E02F5F3F4F20173A
:10532000310740F00E94FA2B082F10E00E5F1F4F4C
:105330000093CB07F11010922509802F0E94982B23
:105340006CED75E0C1010E94002B0E941D2F0F9093
:105350000F900F90DF91CF911F910F91FF90EF90E1
:10536000DF90CF90BF90AF909F908F907F906F9085
:105370005F904F903F902F900C94282F9C0190911C
:105380004E09923074F484E09802F0011124E15B3C
:10539000F64F6083338322839F5F90934E0981E0B1
:1053A00008958FEF08950F931F93CF93DF9340914C
:1053B0004E09552747FD5095C0E090E02C2F30E076
:1053C000241735078CF58901000F111F000F111FDD
:1053D000D801A15BB64FEC91FF27E7FDF095E817E8
:1053E000F90701F5D62FF901E95AF64F80818111AD
:1053F0000BC081E080831296ED91FC91139720E021
:1054000040E050E080E00995F801E15BF64F028052
:10541000F381E02D20E040E050E06D2F81E0099520
:105420008C2F03C0CF5FCACF8FEFDF91CF911F9139
:105430000F91089590E020914E09332727FD309574
:105440002817390784F0880F991F880F991FFC01CE
:10545000E15BF64F0280F381E02D20E040E050E078
:1054600060E082E0099481E00E948D1B8FEF089537
:10547000242F90E0E0914E09FF27E7FDF095E81713
:10548000F90774F0880F991F880F991FFC01E15BE1
:10549000F64F0280F381E02DAB0160E086E00994D5
:1054A00081E00E948D1B8FEF0895242F90E0E09102
:1054B0004E09FF27E7FDF095E817F90774F0880F0C
:1054C000991F880F991FFC01E15BF64F0280F38161
:1054D000E02DAB0160E085E0099481E00E948D1B26
:1054E0008FEF0895242F90E0E0914E09FF27E7FD0C
:1054F000F095E817F90774F0880F991F880F991F26
:10550000FC01E15BF64F0280F381E02D40E050E0CA
:1055100084E0099481E00E948D1B8FEF089590E054
:1055200020914E09332727FD3095281739077CF045
:10553000880F991F880F991FFC01E15BF64F0280CD
:10554000F381E02D20E040E050E083E0099481E029
:105550000E948D1B8FEF08950000000000000000E6
:10556000000000000000000000000000000000003B
:10557000019791F7089510922101089589E0809391
:1055800021018DE89CE390932901809328010895DF
:1055900010922501109224010895CF93DF9300D03B
:1055A000CDB7DEB780912401909125019A8389833C
:1055B00089819A810F900F90DF91CF910895109279
:1055C0008100089581E080938100089583B5816012
:1055D00083BD10928500109284000895CF93DF93CD
:1055E00000D0CDB7DEB780918400909185009A837A
:1055F000898389819A810F900F90DF91CF910895CF
:10560000CF92DF92EF92FF92CF93DF93EC01CC0F1A
:10561000DD1FC9378FEFD80710F0C0E0D0E06B0175
:10562000E12CF12CCC0EDD1EE11CF11C81E0C81632
:10563000D104E806F10440F081E0E81AF1080E9484
:10564000EE2AC817D907D8F30E94EE2A8C159D05BB
:10565000D8F3DF91CF91FF90EF90DF90CF90089536
:105660001092B100E0E7F0E080818D7F808380813F
:105670008E7F808308958093B2000895E0E7F0E084
:1056800080818360808383E08093B100089583B537
:10569000826083BD1092B2001092C9071092CB07AE
:1056A0000895CF93DF938EEF8093CB0780E28093B2
:1056B000B6008091CB078093B30083E087BB92E074
:1056C0009093B0008093B10093B5926093BD87BB77
:1056D00084BD83B5826083BD1092800081E0809399
:1056E0008100109285001092840083B5826083BD92
:1056F00083B5816083BD10922001C4E2D1E019829C
:10570000188283B5826083BD83B5816083BD0E94AA
:10571000472B198218820E943E2B0E94BE2A1092AB
:10572000C907DF91CF9108958091B3008F5F0895ED
:1057300081508093B3000895811102C010927100CE
:105740008FEF0895811106C0109295001092940079
:1057500081E008958FEF0895811105C08091940034
:1057600090919500089580E090E00895811105C022
:1057700082E08093710081E008958FEF0895811198
:1057800035C0CB010197059710F46093CA071092BA
:10579000900088E080939100509399004093980086
:1057A0003093C8072093C7078091CA07813021F43E
:1057B00080919100816011C0823021F4809191002C
:1057C00082600BC0833021F480919100836005C01A
:1057D000843031F48091910084608093910008C0FE
:1057E000853031F4809191008560F7CF8FEF089577
:1057F00081E008958091B20008951F920F920FB634
:105800000F92112460E08AE00E943B1CFFCF0F92B0
:105810000FB60F921F922F923F924F925F926F920C
:105820007F928F929F92AF92BF92CF92DF92EF9230
:10583000FF920F931F932F933F934F935F936F9319
:105840007F938F939F93AF93BF93CF93DF93EF9308
:10585000FF93A0913109B09132090DB60D920EB6A9
:105860000D921F92A0915B05B0915C051E90BEBF8A
:10587000ADBF08951F920F920FB60F9211240BB671
:105880000F922F933F934F935F936F937F938F93D9
:105890009F93AF93BF93EF93FF93E091C707F0916E
:1058A000C807309711F0099504C060E08AE00E94B3
:1058B0003B1CFF91EF91BF91AF919F918F917F9191
:1058C0006F915F914F913F912F910F900BBE0F9071
:1058D0000FBE0F901F9018951F920F920FB60F9248
:1058E00011240F900FBE0F901F90189504B603FE61
:1058F00002C080E101C080E004B602FE06C094B799
:105900009B7F94BF04B600FE846004B601FE05C010
:1059100094B79D7F94BF8260089581110CC004B636
:1059200000FE04C094B79E7F94BF01C081E09091B7
:10593000B000911181E00895811102C0E89A39C048
:10594000813011F4E99A0895823011F4EA9A31C055
:10595000833021F480916B00816029C0843021F470
:1059600080916B00826023C0853021F480916B00B0
:1059700084601DC0863021F480916B00886017C060
:10598000873021F480916B00806111C0883021F450
:1059900080916B0080620BC0893021F480916B0094
:1059A000806405C08A3039F480916B0080688093F0
:1059B0006B0081E008958FEF0895811102C0E8988F
:1059C00039C0813011F4E9980895823011F4E998D2
:1059D00031C0833021F480916B008E7F29C08430E8
:1059E00021F480916B008D7F23C0853021F480915C
:1059F0006B008B7F1DC0863021F480916B00877F08
:105A000017C0873021F480916B008F7E11C08830E1
:105A100021F480916B008F7D0BC0893021F480913F
:105A20006B008F7B05C08A3039F480916B008F77D3
:105A300080936B0081E008958FEF0895811126C057
:105A400050935C0940935B09611104C08091690027
:105A50008C7F3DC0613049F4809169008D7F8093D7
:105A6000690080916900816032C0623049F48091A0
:105A70006900826080936900809169008E7F27C0F1
:105A8000633039F580916900836021C0813049F528
:105A900050935A0940935909611104C080916900DB
:105AA000837F15C0613049F480916900877F8093BE
:105AB00069008091690084600AC0623061F480915D
:105AC0006900886080936900809169008B7F809372
:105AD000690081E008956330E1F7809169008C608E
