:100000000C9402030C9488280C94BA280C94EC28C5
:100010000C9421030C9421030C9421030C942103D0
:100020000C9421030C9456280C9421030C94210366
:100030000C9421030C94B5260C9421030C94B52642
:100040000C9421030C9421030C9421030C942103A0
:100050000C9421030C9421030C9421030C94210390
:100060000C9421030C94740F0C9421030C94210321
:100070000C9421030C9421030C9421030C94210370
:100080000C94E8260C9421030C9421030C94210376
:100090000C9421030C9421030C9421030C94210350
:1000A0000C9421030C9421030C9421030C94210340
:1000B0000C9421030C9421030C9421030C94210330
:1000C0000C9421030C9421030C9421030C94210320
:1000D0000C9421030C9421030C9421030C94210310
:1000E0000C9421030C94860D0C94770D0C94470D01
:1000F0000C94450E0C94380D0C94290D0C94170D8E
:100100000C94080D0C9421030C9421030C942103EE
:100110000C9421030C9421030C9421030C942103CF
:10012000531060106D107A1087109410A110C41035
:10013000D210E010EE10FC100A110A112D112F112F
:100140003111331135113711391158117B119F11AC
:10015000C211E51108122B12651272127F128C1255
:100160009912A612B312CC12D912E612F31200138E
:100170000D131A13AC16B216B516B816BB16BE166A
:10018000C416C116C716CA16CD16D616D916DC1651
:10019000DF16D316A916AF16E216E516D016A61668
:1001A0007C177F178A178F1796179F17A217A71705
:1001B000AE17B7175468652047616D6520697320D5
:1001C0004F7665722E0D0A0021204D6F6C652077E9
:1001D0006861636B656420210D0A0021204D6F6CFE
:1001E000652074696D6564206F757420210D0A00A7
:1001F00021204D61782074696D656F757420636F7F
:10020000756E74207265616368656420210D0A0053
:1002100052782054696D6564204F7574210D0A0071
:100220002D3E20574841434B45442052657175652A
:1002300073742E0D0A00436F756C64206E6F74200A
:100240005472616E736D6974210D0A002D3E204D4C
:100250004F4C4520726571756573740D0A00436FCC
:10026000756C64206E6F74205472616E736D697466
:10027000210D0A002D3E20504F4C4C2072657175A7
:100280006573740D0A00436F756C64206E6F742083
:100290005472616E736D6974210D0A00507265733A
:1002A000732027732720746F2073746172740D0A92
:1002B000004661696C656420746F207265676973BC
:1002C000746572207369676E616C0D0A00424D415E
:1002D000432054583A20576F6B65207570206F6E1D
:1002E0002077726F6E67207369676E616C0D0A000C
:1002F000424D41432054583A204572726F72206338
:10030000616C6C696E67206576656E7420776169D3
:10031000740D0A00424D4143204552524F523A203B
:100320006372656174696E6720656E61626C6520D9
:100330007369676E616C206661696C65640D0A00A3
:10034000424D4143204552524F523A2063726561FB
:1003500074696E67207478207369676E616C2066BB
:1003600061696C65640D0A00424D4143204552525B
:100370004F523A206372656174696E67207278200B
:100380007369676E616C206661696C65640D0A0053
:100390007561727420727820736967206661696C78
:1003A00065640D0A00554E4B4F574E0045787465F5
:1003B000726E616C2052657365740042726F776E65
:1003C000204F757420446574656374004661696CE0
:1003D000656420746F206372656174652053656D78
:1003E0006170686F7265004661696C656420746F46
:1003F00020637265617465205369676E616C004BA0
:1004000065726E656C2066756E6374696F6E206EC2
:100410006F7420696D706C656D656E746564004401
:1004200065766963652044726976657220457272EB
:100430006F72005761746368646F672052657374EC
:10044000617274005357205761746368646F67204A
:10045000526573746172740054696D6572204F76D1
:100460006572666C6F7700556E68616E646C65646A
:1004700020496E7465727275707420566563746F6E
:1004800072004C6F7720566F6C7461676500457819
:10049000747261205461736B20737461727465644B
:1004A0002C206973206E726B5F6366672E68206F05
:1004B0006B3F0049646C65206F72204B65726E65FE
:1004C0006C20537461636B204F766572666C6F7736
:1004D00000556E6578706563746564205265737449
:1004E000617274004475706C696361746564205452
:1004F00061736B204944005363686564756C657271
:10050000204D69737365642057616B657570005485
:1005100061736B20526573657276652056696F6CE6
:100520006174656400526573657276652045727208
:100530006F7220696E205363686564756C65720024
:10054000496E76616C696420537461636B20506FEF
:10055000696E746572005461736B20537461636BD0
:10056000204F766572666C6F7700537461636B2001
:10057000776173206E6F7420646566696E656420B0
:100580006173206C6172676520656E6F75676821A5
:10059000005461736B20706572696F6420746F6FB3
:1005A000206C617267652E20506572696F64206DE2
:1005B000757374206265206C657373207468616E56
:1005C000203631207365636F6E64732E00293A20E4
:1005D000002A4E524B204552524F5228000D0A53CA
:1005E0005441434B2044554D500D0A004546476544
:1005F000666700202B2D2E303132333435363738B4
:100600003968000011241FBECFEFD1E4DEBFCDBF9B
:1006100013E0A0E0B2E0EAE9F0E600E00BBF02C0C0
:1006200007900D92AA3DB107D9F719E0AAEDB3E002
:1006300001C01D92A234B107E1F70E94142A0C9464
:100640004B300C94AB26CF93DF93CDB7DEB7E79753
:100650000FB6F894DEBF0FBECDBF80E090E00E94E1
:10066000012A0E94AC2C8CE992E00E94EA0F0E94C1
:10067000E00F182F0E94CF19C12CD12C7601C39402
:1006800004C0CC0CDD1CEE1CFF1C1A95D2F780E0D8
:100690000E94C70F882341F1809134099091350958
:1006A0000E94702D833799F78CE00E94DD0680E26E
:1006B0000E94770664E78FEF94E00E94CF060E94C5
:1006C000A82C62E070E00E94B32B182F00E01BAA58
:1006D00051E7252E52E0352E60E4462E62E4562E78
:1006E0006FE0662E712C96C0C701B6010E94721A87
:1006F000CECFCE0181960E94031FCE0109960E94A3
:10070000031F8C858F938B858F938A858F93898523
:100710008F933F922F920E94E62D88898F938F8529
:100720008F938E858F938D858F933F922F920E940A
:10073000E62D8DA09EA0AFA0B8A4CDA4DEA4EFA40A
:10074000F8A80FB6F894DEBF0FBECDBF49A15AA1DD
:100750006BA17CA189A59AA5ABA5BCA59A01AB010B
:10076000281B390B4A0B5B0BA8EEB3E00E94842BCD
:100770006CAB7DAB8EAB9FABC814D904EA04FB0411
:1007800008F024C1C501B4016C197D098E099F09C7
:10079000A30192010E94C72B8CA99DA9AEA9BFA954
:1007A000820F931FA41FB51F893E9340A105B10579
:1007B00008F4EDC080E192E00E94EA0F0F5F05307F
:1007C00048F180EF91E00E94EA0F1092DA03812F46
:1007D00090E0FC01EB58FA4F21E020839093B9049C
:1007E0008093B80402E010E00E94A82CB8010E9497
:1007F000B32B9C013327F901EB58FA4F408141118B
:10080000F3CF4091B8045091B9042417350761F330
:10081000182F00E08091DA03823069F51F921F9350
:100820008BE592E09F938F9347E7E42E45E0F42E0B
:10083000FF92EF920E94302E83E090E00E946213BC
:10084000F70101900020E9F73197E757F54061E0A3
:100850006E0FC7010E9471070F900F900F900F90BD
:100860000F900F90813021F086E892E00E94EA0F0D
:1008700084E792E07EC081114EC01F921F9386E8EC
:1008800092E09F938F9327E7E22E25E0F22EFF92CE
:10089000EF920E94302E83E090E00E946213F701F5
:1008A00001900020E9F73197E757F54061E06E0FBE
:1008B000C7010E947107D82ECE0101960E94031F26
:1008C0008C818F938B818F938A818F9389818F9372
:1008D00034E6E32E32E0F32EFF92EF920E94E62DF3
:1008E00088858F938F818F938E818F938D818F9346
:1008F000FF92EF920E94E62D0FB6F894DEBF0FBE76
:10090000CDBF91E0D91621F08EE592E00E94EA0F6A
:100910008CE492E02EC0813091F51F921F9383E901
:1009200092E09F938F9397E7E92E95E0F92EFF923F
:10093000EF920E94302E83E090E00E946213F70154
:1009400001900020E9F73197E757F54061E06E0F1D
:10095000C7010E9471070F900F900F900F900F909A
:100960000F90813021F086E392E00E94EA0F80E24E
:1009700092E00E94EA0F83E090E00E944B1382E035
:1009800090E00E946213CE0189960E94031F0E948C
:10099000D707882309F4ADCEBE016F5C7F4FCE012F
:1009A000C2960E94BF077C019AA980E0891711F0C6
:1009B0008F5FFCCF82E090E00E944B130E94DD0726
:1009C0008091DA03823009F04EC013C0C701B6012E
:1009D000681979098A099B09A30192010E94C72B12
:1009E0008CA99DA9AEA9BFA9821B930BA40BB50B23
:1009F000DBCE60E872E0C7010E94E02C0E94B72CB9
:100A00007C0161E573E080E090E00E94E02C0E94B0
:100A1000B72C6C01CE0141960E94031F89899A89E7
:100A2000298D3A8D821B930B0B9748F08BED91E04B
:100A30000E94EA0F81E08093DA038BABB9C098E59E
:100A4000C91692E0D90608F0B3C0812F90E0E816ED
:100A5000F90609F0ADC088EC91E00E94EA0F81E050
:100A60008093DA03A5C0811127C01F921F9382E8EB
:100A700092E09F938F938AEE94E09F938F930E94CE
:100A8000302EB7018AEE94E00E94ED2C0F900F906B
:100A90000F900F900F900F90892B09F089C08091D3
:100AA000DD038F5F8093DD0382E08093DA03CE0164
:100AB00049960E94031F7CC0813009F079C0C12E85
:100AC000D12C1F921F938FE892E09F938F938AEE11
:100AD00094E09F938F930E94302EB7018AEE94E0AA
:100AE0000E94ED2C0F900F900F900F900F900F9091
:100AF000892B09F05DC0D092B904C092B804CE0130
:100B000041960E94031F82E0E82EF12C0E94A82C3F
:100B1000B7010E94B32B6C019927FC01EB58FA4FE7
:100B200020812111F3CF2091B8043091B9048217AC
:100B3000930761F3E988FA88898D9A8DE81AF90A92
:100B4000FF92EF928FE992E09F938F930E94E62DA0
:100B50000F900F900F900F908091DB039091DC032A
:100B60002BA9211103C08E0D9F1D01C044969093A7
:100B7000DC038093DB031C2D1092DA03FF92EF92CB
:100B800081EB92E09F938F930E94E62D8091DC038E
:100B90008F938091DB038F938EEC92E09F938F93E2
:100BA0000E94E62D0FB6F894DEBF0FBECDBF1BAA84
:100BB0008091DD038A3008F42DCE84EB91E00E9411
:100BC000EA0F83E090E00E94621382E090E00E94CE
:100BD000621380E090E00E94621381E090E00E9446
:100BE00062138091DC038F938091DB038F9383EFFB
:100BF00092E09F938F930E94E62D0F900F900F909D
:100C00000F90FFCFCF93DF93CAEBD4E083E293E062
:100C10009E838D8340E051E06DEE76E0CE010E9430
:100C2000602982E0888781E08F8389878A8781E0D5
:100C300090E0A0E0B0E08B879C87AD87BE871F86E1
:100C4000188A198A1A8A82E090E0A0E0B0E08B8BC3
:100C50009C8BAD8BBE8B1F8A188E198E1A8E1B8EA5
:100C60001C8E1D8E1E8E1F8E18A219A21AA2CE01D6
:100C70000E94C21C84E093E0DF91CF910C94EA0FB4
:100C80000895643021F40E94A10D81E008958FEF52
:100C900008958FEF089580E090E008950E94390A4A
:100CA00081E008950E94330A81E008950E942D0A90
:100CB00081E008950E94270A81E008950E943F0A7A
:100CC00081E008959093E0048093DF0481E008952B
:100CD0000E949F0D0895603121F40E94A20D81E0D1
:100CE00008958FEF089581E0089581E0089580329E
:100CF00020F40E941D0A81E008958FEF08958093EB
:100D0000E7030895992787FD90950E94950D81E04E
:100D10000895CF93DF931F92CDB7DEB78B3180F468
:100D20008093F10389830E94070A20E030E04FEFAF
:100D30005FEF69818BEE95E00E945F0A81E001C060
:100D40008FEF0F90DF91CF9108958091F403882366
:100D500011F18091FE040E94CF1981E090E0A0E0A3
:100D6000B0E0BC01CD010090FE0404C0660F771F07
:100D7000881F991F0A94D2F70E94721ADC01CB01D6
:100D80000090FE0404C0B695A795979587950A94A0
:100D9000D2F780FF02C081E008958FEF0895009799
:100DA00051F09093F1058093F0056093EF0581E099
:100DB0008093F40308958FEF08951F93CF93DF93EB
:100DC000182F1092F3038FEF8093E603D1E0D093B6
:100DD000E7031092F6031092F7031092F8031092B3
:100DE000F9031092E8031092E9031092EA031092BB
:100DF000EB0380E091EEA5EFB5E08093EC039093D8
:100E0000ED03A093EE03B093EF030E94BF18C82F29
:100E10008093FE048F3F19F488E693E009C00E9496
:100E2000BF18C82F8093EC068F3F69F480E493E0ED
:100E30000E94EA0FE0910909F0910A0960858EE0AD
:100E40000E940B172AC00E94BF18C82F8093DE048F
:100E50008F3F19F484E193E0EBCF1092F5031092E9
:100E6000F4031092F1051092F0051092EF050E9424
:100E7000070A20E030E04FEF5FEF612F8BEE95E047
:100E80000E945F0A1093F10380E090E00E94950DAC
:100E9000D093F303D093F003C1E08C2FDF91CF9177
:100EA0001F9108952091F503213059F021E02093FE
:100EB000F5039093E3048093E2046093E10481E0FE
:100EC00008958FEF08958091FE040E94CF198091BC
:100ED000FE0408958091EC060E94CF198091EC06E3
:100EE0000895CF92DF92EF92FF922091F503213087
:100EF000F1F1F62E6C018091EC060E94CF1981E091
:100F00008093F503D092E304C092E204F092E104EE
:100F100081E090E0A0E0B0E0BC01CD010090EC06E3
:100F200004C0660F771F881F991F0A94D2F70E948A
:100F3000721A6B017C01611571058105910521F41F
:100F400080EF92E00E94EA0F0090EC0604C0F69455
:100F5000E794D794C7940A94D2F7C0FC04C08DECF0
:100F600092E00E94EA0F8091F203811102C08FEF9C
:100F700001C081E0FF90EF90DF90CF900895209125
:100F8000F403222339F0FC011082FB01108280E07F
:100F900090E008952091EE05FC0120838091F305F7
:100FA000FB0180838091F0059091F105089581E027
:100FB0009091F403911180E0089581E08093F4030F
:100FC00008951092F0030C94E10981E08093F003FE
:100FD0000E94070A8091DE040C94011ACF93DF93DC
:100FE000CDB7DEB728970FB6F894DEBF0FBECDBFE2
:100FF00029833A834B835C836D837E838F839887B9
:1010000049815A816B817C818D819E81AF81B885B8
:10101000411551056105710541F481152DE29207D5
:1010200021E3A20721E0B20790F04093E803509338
:10103000E9036093EA037093EB038093EC039093CE
:10104000ED03A093EE03B093EF0381E001C08FEFB7
:1010500028960FB6F894DEBF0FBECDBFDF91CF91BB
:1010600008958091F3030895CF930E94CF0A0E94C0
:101070002F0CC82F0E942F0CC80F0E942F0CC80FD6
:101080000E94D50A8C2F1C160CF481E0CF91089594
:101090000E94CF0A1092DE031092DF031092E00349
:1010A0001092E10380E4682F8093E2038BE4809345
:1010B000E3038CE48093E4031092E50320E0309195
:1010C000DF034091E0035091E1037BE490E00E9454
:1010D000501E0E94610C8130E9F08091F6039091DE
:1010E000F703A091F803B091F9038F3F2FEF920718
:1010F000A105B10558F40196A11DB11D8093F60319
:101100009093F703A093F803B093F9030E94D50AD4
:1011100080E008951092F4030E94D50A81E00895BA
:101120008091F6039091F70308951092F6031092C0
:10113000F7031092F8031092F90381E008958230CA
:1011400058F0883008F086E091E020E0990F2F5F9A
:101150002813FCCF892F089581E00895EF92FF9224
:101160000F931F93CF93DF938091E703882309F4B4
:1011700043C088EE93E00E947320EC010E94A82CEB
:101180006AE070E00E94B32BBC016F5F7F4FCE011D
:101190000E949F2BCB010E94FB1DC1E00AE010E0E2
:1011A0000E943408D82F813039F10E94A82C7C018C
:1011B0008C2F0E949F08682F70E0C7010E94B32BFC
:1011C00099270E948F1DCF5FC73008F0C6E088EED8
:1011D00093E00E9473207C010E94A82CB8010E9419
:1011E000B32BBC016F5F7F4FC7010E949F2BCB01C8
:1011F0000E94FB1DDD23A1F21092E4041092E5048D
:101200002091E8033091E90388EE93E0289FE00104
:10121000299FD00D389FD00D11246091EC0370915F
:10122000ED038091EE039091EF0320E432E44FE070
:1012300050E00E94C72BC20FD31F0E94CF0ABE01ED
:101240008FED94E00E94DB0A8093F2030E94D50A9E
:101250001092F5038091EC060E94011A81E0DF9163
:10126000CF911F910F91FF90EF9008958091F3031C
:10127000811103C00E94541DF9CF8091DE040E94A9
:10128000CF198F3F21F481EB92E00E94EA0FC12C2D
:10129000D12C7601C3940E94070A8091F003882321
:1012A00069F18091F403813041F40E943408811186
:1012B00008C00E944808813021F48091FE040E94F9
:1012C000011A8091F503813011F40E94AE080E944A
:1012D000D50A0E94E1092091E8033091E903409189
:1012E000EA035091EB036091EC037091ED03809160
:1012F000EE039091EF030E94501ECDCF8091DE044B
:101300000E94CF19C701B6010090DE0404C0660F29
:10131000771F881F991F0A94D2F70E94721ADC0166
:10132000CB010090DE0404C0B695A79597958795EC
:101330000A94D2F780FFE2CFAECF66E379E08AE786
:1013400094E00E945C2940E850E06AEF73E08AE78D
:1013500094E00E946029EAE7F4E084E1808781E07C
:10136000878381878287138614861586168680E098
:101370009DE2A1E3B1E08787908BA18BB28B138AAA
:10138000148A158A168A178A108E118E128E138E61
:10139000148E158E168E178E10A211A212A2CF01D6
:1013A0000C94C21C909141019F719F31D9F380939D
:1013B0004201089581E08093F80708951092F8079C
:1013C0000895809141018F718F31D9F3809141014E
:1013D0008F71E1F08F30D1F0809141018F718830B1
:1013E00031F4809139018260809339010BC088E02B
:1013F0000E94D209809141018F718830D9F7F1CFD5
:101400008F3021F0809141018F71D1F70895809143
:1014100041018F718F31D9F3809141018F7111F0AA
:101420008F3051F4809139018D7F80933901809103
:1014300041018F718830D9F70895E5E4F1E090819A
:10144000907F908390818F70982B90830895E7E52B
:10145000F1E080818D7F80830895E7E5F1E0808170
:10146000826080830895EEE6F1E080818F7E808344
:101470000895EEE6F1E08081806180830895809395
:101480006001909361019093020880930108089590
:101490009093FC078093FB07E8E4F1E08081807E75
:1014A00080838081682B608308959093A00480934B
:1014B0009F04089590939E0480939D0408950F9334
:1014C0001F93CF93DF93FC01D90180E28093440105
:1014D00080EC8093450160626093480185EC8093C5
:1014E000490187EA80934B0180E880934C01209367
:1014F0006001B09361014093620150936301C6E4BF
:10150000D1E00881888198812881302F32953695E5
:10151000377060E4369F8001112422952695237050
:10152000622F602B82958695837070E1879F900172
:101530001124262B92959695937084E0989FB00184
:101540001124622B60936D01888198819295969504
:101550009370392F3064982F92959670932B9093B7
:101560006E0110926C018FEF80934E01CBEFD7E0AC
:10157000F983E8831A821B825D834C83BF83AE8329
:10158000188681E080931D0810923C0810920C0888
:101590001092F807DF91CF911F910F91089586E186
:1015A0000C94D20986E10C94D20988E00E94D209F9
:1015B00010923C0808953F924F925F926F927F92F3
:1015C0008F929F92AF92BF92CF92DF92EF92FF9253
:1015D0000F931F93CF93DF93EC0180911D0881112E
:1015E00002C08FEF26C12E818091FD078F5F80930F
:1015F000FD0790918101907E916020FB95F99F738A
:1016000090649093810188E8809382018091F8072B
:101610008823D1F08FEF809383018AEA9AEA90932E
:101620008901809388018FEF9FEF909387018093CA
:101630008601209163018091620190E0922B90934A
:101640008501809384011EC08091FD0780938301F2
:10165000809161012091600130E0382B3093890145
:1016600020938801888199819093870180938601D6
:10167000809163012091620130E0382B3093850125
:10168000209384013B014A81552747FD50956B818A
:101690007C818AE891E00E94E42C8A81855F8093B6
:1016A000800180914101982F9F71392E9FEF930DFA
:1016B0009230B8F391E13916A1F392E1391689F32A
:1016C0009FE1391671F398EF930D923020F08F70EF
:1016D000863009F086CF86E10E94D2098D81811182
:1016E0000AC089E00E94D2098E81882391F089E1A5
:1016F0000E94D2090EC08091480180688093480101
:101700008091410187FFFCCF8091410186FF69CF25
:10171000E8CF61147104A9F184E098E00E94031FEE
:101720008091040890910508A0910608B0910708DF
:1017300080931E0890931F08A0932008B09321085F
:10174000D30120E432E44FE050E00E94842B00916A
:1017500008081091090820910A0830910B08DC0153
:10176000CB01800F911FA21FB31F8093220890937B
:101770002308A0932408B09325088EE198E00E94E6
:10178000EC1F10920C0882E00E94D209412C512CCF
:1017900080910C08811108C08FEF481A580A98EE02
:1017A00049169DEF5906A1F76114710421F48E8149
:1017B00081112DC032C084E098E00E94031F809008
:1017C000040890900508A0900608B0900708C09003
:1017D0000808D0900908E0900A08F0900B080091E2
:1017E0001E0810911F082091200830912108409177
:1017F00022085091230860912408709125088DE3F8
:1018000098E00E94601F8F3F09F0BBCFD0CF80913E
:10181000420182958695877039F488EE48168DEFDF
:10182000580611F0C1E001C0CFEF832D0E94D2090C
:101830008C2FDF91CF911F910F91FF90EF90DF9050
:10184000CF90BF90AF909F908F907F906F905F9060
:101850004F903F90089560E070E00C94DB0ACF93C6
:10186000DF9380911D08882341F180914101C82FA9
:10187000CF719FEF9C0F9230C0F3C131B1F3C231F1
:10188000A1F3CF3191F3C83019F08F708630A9F4ED
:1018900086E10E94D20980914801806880934801C6
:1018A0008091410187FFFCCFD09141018C2F0E9494
:1018B000D209D6FB882780F901C08FEFDF91CF9145
:1018C000089580911D08882309F4A0C080913C08E8
:1018D000882309F499C080917B01E091FB07F09186
:1018E000FC0790E002972481332727FD30952817C5
:1018F00039070CF48BC0E091FB07F091FC07809155
:1019000082018083E091FB07F091FC0780918701C1
:101910009091880192838183E091FB07F091FC070D
:1019200080917B018B508383A091FB07B091FC07D2
:10193000E091FB07F091FC0713969C918481891735
:101940003CF0E091FB07F091FC07838187FF0DC01D
:1019500010923C0880914C018F7780934C018091CC
:101960004C01806880934C0151C0A091FB07B0915D
:10197000FC07E091FB07F091FC0713964C9155276B
:1019800047FD509569E871E0858196810E94E42CBD
:10199000E091FB07F091FC078091800185FB88278F
:1019A00080F98783E091FB07F091FC078091470164
:1019B0008087E091FB07F091FC07809146018695B6
:1019C000869586958187E091FB07F091FC078091D1
:1019D00047018287A091FB07B091FC07E0917B0152
:1019E000F0E0E058FE4F80811B968C9310923C08EB
:1019F00080914C018F7780934C0180914C018068DD
:101A000080934C0181E0089580E008958FEF089560
:101A10001F920F920FB60F9211248F9380E880933C
:101A20004F018F910F900FBE0F901F9018951F922E
:101A30000F920FB60F9211248F9381E080930C08C0
:101A400080E480934F018F910F900FBE0F901F90F5
:101A500018951F920F920FB60F9211248F9380E268
:101A600080934F018F910F900FBE0F901F9018958C
:101A70001F920F920FB60F9211248F9380E18093E3
:101A80004F018F910F900FBE0F901F9018951F92CE
:101A90000F920FB60F9211240BB60F922F933F9314
:101AA0004F935F936F937F938F939F93AF93BF9366
:101AB000EF93FF9384E080934F01E0919F04F091B6
:101AC000A004309709F00995FF91EF91BF91AF9174
:101AD0009F918F917F916F915F914F913F912F9146
:101AE0000F900BBE0F900FBE0F901F9018951F9276
:101AF0000F920FB60F9211248F9382E080934F01C3
:101B00008F910F900FBE0F901F9018951F920F92FC
:101B10000FB60F9211248F9381E080934F018F9124
:101B20000F900FBE0F901F901895E9E4F1E090819F
:101B3000907F908390818F70982B908308958FEF82
:101B400008950895089508958FEF08958091F607F8
:101B50009091F707089580E00895089581E0089531
:101B600081E0089581E00895089508950895089505
:101B70000895089508950895E7E3F1E08081836072
:101B80008083989AA09A8DB1806E8DB98EB1806E47
:101B90008EB90895E7E3F1E0808183608083989AAD
:101BA000A0988DB1806E8DB98EB1806E8EB908957A
:101BB000CF92DF92EF92FF920F931F93CF93DF9319
:101BC000CDB7DEB727970FB6F894DEBF0FBECDBFF7
:101BD0000E949314E091FB07F091FC07C080D38032
:101BE000E580F68000850E94610C18161CF082E1E9
:101BF00093E006C0F7011081111107C081E393E063
:101C00000E94002E0E94951431C0153021F48AE004
:101C100090E00E94FA2DC70101969F938F93802F29
:101C2000992787FD90959F930F931F921F931F9263
:101C3000CF9283E593E09F938F930E94E62DFD82E0
:101C4000EC821150F7011083DB821E821F828FEF1E
:101C50009FEF9A8389830E949514CE0101960E947A
:101C60002B0C0FB6F894DEBF0FBECDBF27960FB674
:101C7000F894DEBF0FBECDBFDF91CF911F910F91C2
:101C8000FF90EF90DF90CF9008951F920F920FB6C4
:101C90000F9211240BB60F922F933F934F935F93A4
:101CA0006F937F938F939F93AF93BF93EF93FF9324
:101CB00080E090917B01891710F48F5FFACF8091BB
:101CC000460187FF04C081E080933C0804C08CE794
:101CD00093E00E94002E88E080934F01809146019E
:101CE00087FF05C08091F80781110E94D80DE0910F
:101CF0009D04F0919E04309709F00995FF91EF91B2
:101D0000BF91AF919F918F917F916F915F914F9113
:101D10003F912F910F900BBE0F900FBE0F901F9011
:101D20001895ADE0B8E0FC01409620812D932191FB
:101D300020933F01E817F907C1F780E110923E01B7
:101D40008150E1F780E880933C0180913D0180FF64
:101D5000FCCFE6E2F8E080E18E0F90913F01919395
:101D60008E13FBCF0895CF93DF93DC01662309F434
:101D700045C0862F8F7009F041C0EDE0F8E090E19A
:101D80009E0F219120933F019E13FBCF90E070E0C6
:101D9000E0E240E1949F90011124261737077CF57B
:101DA000911103C010923C0102C0E0933C0140E05D
:101DB00050E02A0F3B1FE901C40FD51FF881F093B3
:101DC0003E014F5F5F4F40315105A9F740913C0103
:101DD000406840933C0140913D0140FFFCCF40E012
:101DE00050E0F0913E01E901C40FD51FF8834F5F29
:101DF0005F4F40315105A9F79F5FCBCF81E0DF9165
:101E0000CF9108950F931F93CF93DF93DC0161303F
:101E100009F458C0862F8F7009F054C0E6E2F8E04C
:101E200090E19E0F219120933F019E13FBCF62957D
:101E30006F70615078E06F3F09F445C070933C01CA
:101E4000462F552747FD509520E030E0ED0190E109
:101E50006902C00DD11D1124FE01E20FF31F908114
:101E600090933E012F5F3F4F20313105A9F79091AC
:101E70003C01906890933C0190913D0190FFFCCF14
:101E80004150510994E0440F551F9A95E1F720E025
:101E900030E090913E018E01020F131FF8019083F4
:101EA000662349F0F901E40FF51FEA0FFB1FE081FB
:101EB0009E27F80190832F5F3F4F2031310549F76E
:101EC0006150B9CF81E0DF91CF911F910F910895BB
:101ED0009091C00095FFFCCF9091C0009F7D9093A2
:101EE000C0008093C60008951F920F920FB60F9204
:101EF00011240BB60F922F933F934F935F936F93E1
:101F00007F938F939F93AF93BF93EF93FF930E9421
:101F100093148091C00087FFFCCF8091C0008F7721
:101F20008093C0002091C6008091B2049091B304C8
:101F3000FC01EE55FB4F208301968031910529F07D
:101F40009093B3048093B20404C01092B30410922F
:101F5000B2048091A1040E94011A8091C0008F7781
:101F60008093C0000E949514FF91EF91BF91AF91B3
:101F70009F918F917F916F915F914F913F912F91A1
:101F80000F900BBE0F900FBE0F901F9018958111F0
:101F90000DC081E04091B4045091B5042091B20489
:101FA0003091B3044217530751F408C0813031F423
:101FB0008091C800881F8827881F089580E00895B1
:101FC0008091A1048F3F19F48EE00E940017809148
:101FD000A1040895CF93DF93FC012491EC01219695
:101FE000222351F06091360970913709822F90E0D9
:101FF0000E94AE2DCE01F0CFDF91CF9108952091B8
:10200000B4043091B5048091B2049091B3042817C0
:10201000390769F48091A1040E94CF196091A1044D
:10202000772767FD7095872F972F0E94721A6F3F51
:1020300021F480E993E00E94EA0F2091B4043091EA
:10204000B504F901EE55FB4F80812F5F3F4F2031E2
:10205000310528F43093B5042093B4040895109208
:10206000B5041092B404089586E084B985B988EF68
:102070008AB980EF8BB982E08DB908950C94341041
:102080008F3F09F46CC0E82FE7704E2F50E04730C7
:10209000510508F064C0FA01E057FF4F8695869518
:1020A00086950C94482C42B121E030E0B90102C081
:1020B000660F771F8A95E2F7CB01842B82B94DC05A
:1020C00045B121E030E0B90102C0660F771F8A9563
:1020D000E2F7CB01842B85B940C048B121E030E064
:1020E000B90102C0660F771F8A95E2F7CB01842BF6
:1020F00088B933C04BB121E030E0B90102C0660FAE
:10210000771F8A95E2F7CB01842B8BB926C04EB19D
:1021100021E030E0B90102C0660F771F8A95E2F72F
:10212000CB01842B8EB919C041B321E030E0B90155
:1021300002C0660F771F8A95E2F7CB01842B81BB23
:102140000CC044B321E030E0B90102C0660F771F34
:102150008A95E2F7CB01842B84BB81E008958FEF51
:1021600008958F3F09F465C0E82FE7704E2F50E0C7
:102170004730510508F05DC0FA01E956FF4F8695DA
:10218000869586950C94482C42B121E030E0B90147
:1021900002C0660F771F8A95E2F7CB0180958423F2
:1021A00082B945C045B121E030E0B90102C0660FF7
:1021B000771F8A95E2F7CB018095842385B937C0D4
:1021C00048B121E030E0B90102C0660F771F8A955F
:1021D000E2F7CB018095842388B929C04BB121E077
:1021E00030E0B90102C0660F771F8A95E2F7CB0194
:1021F000809584238BB91BC04EB121E030E0B9013A
:1022000002C0660F771F8A95E2F7CB018095842381
:102210008EB90DC041B321E030E0B90102C0660FB4
:10222000771F8A95E2F7CB018095842381BB81E0FB
:1022300008958FEF08958F3F31F1E82FE7704E2F0B
:1022400050E047305105F8F4FA01E256FF4F282FCD
:102250002695269526950C94482C90B10BC093B1E9
:1022600009C096B107C099B105C09CB103C09FB128
:1022700001C092B3892F90E002C0959587952A9569
:10228000E2F7817008958FEF08958F3F09F406C13A
:10229000E82FE7704E2F50E04730510508F0FEC0A0
:1022A000FA01EB55FF4F8695869586950C94482C40
:1022B00020B130E0082E02C0359527950A94E2F748
:1022C00042B120FD0BC021E030E0B90102C0660F31
:1022D000771F8A95E2F7CB01842B0BC021E030E019
:1022E000B90102C0660F771F8A95E2F7CB0180958E
:1022F000842382B916C023B130E0082E02C0359580
:1023000027950A94E2F745B120FD0DC021E030E0A9
:10231000B90102C0660F771F8A95E2F7CB01842BC3
:1023200085B981E0089521E030E0B90102C0660F6F
:10233000771F8A95E2F7CB0180958423F1CF26B1F0
:1023400030E0082E02C0359527950A94E2F748B18F
:1023500020FD0BC021E030E0B90102C0660F771FFD
:102360008A95E2F7CB01842B0BC021E030E0B90164
:1023700002C0660F771F8A95E2F7CB018095842310
:1023800088B9CFCF29B130E0082E02C03595279506
:102390000A94E2F74BB120FD0BC021E030E0B90117
:1023A00002C0660F771F8A95E2F7CB01842B0BC022
:1023B00021E030E0B90102C0660F771F8A95E2F78D
:1023C000CB01809584238BB9ACCF2CB130E0082EA3
:1023D00002C0359527950A94E2F74EB120FD0BC057
:1023E00021E030E0B90102C0660F771F8A95E2F75D
:1023F000CB01842B0BC021E030E0B90102C0660F95
:10240000771F8A95E2F7CB01809584238EB989CF17
:102410002FB130E0082E02C0359527950A94E2F7D7
:1024200041B320FD0BC021E030E0B90102C0660FCE
:10243000771F8A95E2F7CB01842B0BC021E030E0B7
:10244000B90102C0660F771F8A95E2F7CB0180952C
:10245000842381BB66CF22B330E0082E02C03595BD
:1024600027950A94E2F744B320FD0BC021E030E049
:10247000B90102C0660F771F8A95E2F7CB01842B62
:102480000BC021E030E0B90102C0660F771F8A95CA
:10249000E2F7CB018095842384BB43CF8FEF08956F
:1024A0008F3F09F4D5C0E82FE7704E2F50E061113F
:1024B00067C04730510508F0CBC0FA01E455FF4F23
:1024C0008695869586950C94482C41B121E030E0A4
:1024D000B90102C0660F771F8A95E2F7CB0180959C
:1024E000842365C044B121E030E0B90102C0660F29
:1024F000771F8A95E2F7CB018095842365C047B1A9
:1025000021E030E0B90102C0660F771F8A95E2F73B
:10251000CB018095842365C04AB121E030E0B90148
:1025200002C0660F771F8A95E2F7CB01809584235E
:1025300065C04DB121E030E0B90102C0660F771FE0
:102540008A95E2F7CB018095842365C040B321E0F2
:1025500030E0B90102C0660F771F8A95E2F7CB0120
:102560008095842365C043B321E030E0B90102C007
:10257000660F771F8A95E2F7CB018095842365C0AB
:102580004730510508F064C0FA01ED54FF4F8695BD
:10259000869586950C94482C41B121E030E0B90134
:1025A00002C0660F771F8A95E2F7CB01842B81B9B1
:1025B0004DC044B121E030E0B90102C0660F771F81
:1025C0008A95E2F7CB01842B84B940C047B121E062
:1025D00030E0B90102C0660F771F8A95E2F7CB01A0
:1025E000842B87B933C04AB121E030E0B90102C081
:1025F000660F771F8A95E2F7CB01842B8AB926C034
:102600004DB121E030E0B90102C0660F771F8A9515
:10261000E2F7CB01842B8DB919C040B321E030E043
:10262000B90102C0660F771F8A95E2F7CB01842BB0
:1026300080BB0CC043B321E030E0B90102C0660F9B
:10264000771F8A95E2F7CB01842B83BB81E0089545
:102650008FEF0895811106C080B18695817091E059
:10266000892708958FEF0895009711F483E20DC034
:102670008130910511F48BE208C08230910511F48C
:1026800083E303C0039729F48BE30E94451181E0A3
:1026900008958FEF0895009711F483E20DC0813003
:1026A000910511F48BE208C08230910511F483E3A7
:1026B00003C0039729F48BE30E94401081E0089542
:1026C0008FEF0895009711F483E20DC081309105DA
:1026D00011F48BE208C08230910511F483E303C04A
:1026E000039729F48BE30E94B11081E008958FEFE6
:1026F0000895882319F085B78F7E02C085B7806161
:1027000085BF81E008959091C80095FFFCCF80932C
:10271000CE0008959093C5008093C40086E0809316
:10272000C200E1ECF0E080818B7F8083A0ECB0E020
:102730008C9182608C9380818861808308959093CE
:10274000CD008093CC0086E08093CA00E9ECF0E0F5
:1027500080818B7F8083A8ECB0E08C9182608C9329
:1027600080818861808308950E948A136FEF7FE0E3
:1027700088E69FE00E94252D9093370980933609C3
:102780006FEF7FE088E69FE00E94252D909335094A
:10279000809334090E94BF188093A1048F3F19F4DD
:1027A0008EE00E9400171092B5041092B4041092AB
:1027B000B3041092B2048091C10080688093C1007C
:1027C00008958091C80087FFFCCF8091C8008F7763
:1027D0008093C8008091CE000895000000000000A2
:1027E00000000197D1F708950C94BE2E0E94C62ECA
:1027F0000895EF92FF920F931F93CF93DF937C0185
:1028000080E090E00E94BE2E182FF701838381E0C4
:1028100090E00E94BE2E082FF701828382E090E0B4
:102820000E94BE2ED82FF701818383E090E00E94A2
:10283000BE2EC82FF701808384E090E00E94BE2E58
:10284000100FD10FCD0F8C1711F08FEF01C081E069
:10285000DF91CF911F910F91FF90EF900895CF934B
:10286000DF93EC0185E090E00E94BE2E888381E03A
:10287000DF91CF910895FC01608186E090E00E9495
:10288000C62E81E00895CF93DF93EC0186E090E0BF
:102890000E94BE2E888381E0DF91CF9108950F932F
:1028A0001F93CF93DF938C01C0E0D0E0CE01089658
:1028B0000E94BE2EF80181938F012196C031D1056F
:1028C000A9F781E0DF91CF911F910F9108950F93A8
:1028D0001F93CF93DF938C01C0E0D0E0F8016191AA
:1028E0008F01CE0108960E94C62E2196C031D105D7
:1028F000A9F781E0DF91CF911F910F910895CF93B8
:10290000DF93EC0187E090E00E94BE2E888381E097
:10291000DF91CF910895FC01608187E090E00E94F3
:10292000C62E81E00895F8940895789408950E9441
:102930009314FFCF1F93CF93DF93CDB7DEB7A39749
:102940000FB6F894DEBF0FBECDBF0E94BF188093B4
:10295000F9088F3F21F460E08EE00E940B170E947F
:102960002427182F80FF04C060E086E00E940B1728
:1029700011FF04C060E084E10E940B1712FF04C045
:1029800060E083E10E940B171092FC0810920A0984
:10299000109209091092FB081092FA0810920B0984
:1029A000109208098FEF8093F5088093F7088093C1
:1029B000F60893E69093510880934F0890937C0813
:1029C00080937A089093A7088093A5089093D208E3
:1029D0008093D0088CE099E021E139E03093100930
:1029E00020930F09909313098093120946E159E04F
:1029F000509315094093140930931809209317092F
:102A00002BE139E030931A092093190950931D09DD
:102A100040931C0940E259E050931F0940931E095E
:102A2000309322092093210910920E0910920D096A
:102A300010922409109223091092FF081092FE08A8
:102A400090934608809345086DE871E2CE010196A7
:102A50000E945C2940E850E06CE676E0CE010196E9
:102A60000E94602985E580936C0619861C861D8668
:102A70001E861F86188A198A1A8A1B8A1C8A1D8A32
:102A80001E8A1F8A188E198E1A8E1B8E1C8E1D8E02
:102A90001E8E1F8E18A219A21AA21BA281E088877F
:102AA00092E09A878B87CE0101960E94C21CA39662
:102AB0000FB6F894DEBF0FBECDBFDF91CF911F914F
:102AC00008950FE418E0C0E0F801D080FFEFDF12B6
:102AD00022C0CF5F055D1F4FC430B1F70E94B11B0C
:102AE0002BE28202C0011124FC01E95BF74F8285D1
:102AF00080930B09F0930A09E0930909F093FB080E
:102B0000E093FA088093FC080E94D2290E94BC2915
:102B10000E94D62916C08FE4E82E88E0F82ED0E077
:102B2000CD1741F0F7018081D81204C06D2D85E0EA
:102B30000E940B17DF5FFBE2EF0EF11CD43081F730
:102B4000C8CFFFCFCF92DF92EF92FF920F931F93E8
:102B5000CF93DF93EC018B017A018985823021F0DC
:102B60008091F808888301C018828091F808843029
:102B700020F060E087E00E940B178985823029F001
:102B80008091F8088F5F8093F8088091F808811190
:102B900003C081E08093F80838812BE23203F00112
:102BA0001124E95BF74F1183008388858287388180
:102BB0003203F0011124E95BF74F83E0818738810C
:102BC0003203F0011124E95BF74F308708810203DB
:102BD00080011124095B174FF8011582CE010B9675
:102BE0000E941F21F80161A372A383A394A38B8584
:102BF0009C85AD85BE8588339948A144B10520F0F8
:102C0000688186E10E940B17C880DD24C7FCD09440
:102C1000CE014B960E941F211BE21C9DF0011D9DC1
:102C2000F00D1124E95BF74F658B768B878B908FC6
:102C300028812103C00111249C01295B374F6901C0
:102C4000F901458956896789708D81A192A1A3A157
:102C5000B4A1840F951FA61FB71F818F928FA38FDA
:102C6000B48FCE0143960E941F21F60165A376A37F
:102C700087A390A728812103F0011124E95BF74F76
:102C800085A196A1A7A1B0A5858F968FA78FB0A388
:102C900081E090E092A781A7F382E2828487DF91AE
:102CA000CF911F910F91FF90EF90DF90CF900895FB
:102CB0000C94B12185E690E00895E0910909F09126
:102CC0000A0984870895E0910909F0910A09848529
:102CD0000895FC018091F705882331F0DB018C9386
:102CE0008091DD04808381E008958091F705882339
:102CF00009F484C00E94931481ED95E00E94EA0FCC
:102D00008091DD041F928F9385E993E09F938F93C9
:102D10000E94E62D8DEC95E00E94EA0F0F900F9037
:102D20000F900F908091F705883110F01092F70501
:102D3000E091F7058E2F90E0FC013197E631F10527
:102D400008F046C0E654FF4F0C94482C81E995E00A
:102D500041C08AE695E03EC086E595E03BC080E450
:102D600095E038C085E295E035C08FE095E032C04F
:102D700087EF94E02FC084EE94E02CC081ED94E0C6
:102D800029C083EB94E026C08EE894E023C082E85B
:102D900094E020C087E694E01DC088E594E01AC066
:102DA00084E494E017C083E394E014C08FE194E0DE
:102DB00011C08FEF93E00EC087EE93E00BC08CEC58
:102DC00093E008C08BEB93E005C08CEA93E002C06F
:102DD00085EA93E00E94EA0F609136097091370905
:102DE0008DE090E00E94AE2D609136097091370918
:102DF0008AE090E00E94AE2D1092F70580E00895E1
:102E00008093F705E0910909F0910A098085809384
:102E1000DD040C9475168093F7056093DD040C9423
:102E20007516CF93DF931F92CDB7DEB719828981D4
:102E3000843640F480ED97E00E945A2589818F5FA7
:102E40008983F5CF0F90DF91CF91089581E090E0D5
:102E50000E9462130E9411170E9411170E941117FD
:102E600081E090E00E944B130C94111781E090E0F8
:102E70000E9462130E94111781E090E00E944B13A0
:102E80000C941117FF920F931F93CF93DF9300D0F1
:102E90001F92CDB7DEB71F928F9385E993E09F9382
:102EA0008F938E010F5F1F4F1F930F930E94302E41
:102EB0000F900F900F900F900F900F90F12CF80142
:102EC00001900020E9F73197E01BF10B8F2D90E086
:102ED0008E179F0708F05DC0F801E80FF91FE08129
:102EE0008E2F90E0FC01F097EA30F10508F049C020
:102EF000E053FF4F0C94482C0E94261702C00E94FA
:102F000036170E9426170E9426170E9426170E9435
:102F1000261737C00E9436170E943617F4CF0E943A
:102F200036170E9436170E943617EFCF0E943617C9
:102F30000E9436170E9436170E943617E8CF0E946B
:102F4000361702C00E9426170E94361704C00E943E
:102F500026170E9426170E94361706C00E942617C1
:102F60000E9426170E9426170E94361708C00E944A
:102F700026170E9426170E9426170E9426170E94D5
:102F800036170E9411170E9411170E941117F3940F
:102F900096CF0F900F900F90DF91CF911F910F91CF
:102FA000FF9008956F927F928F929F92AF92BF92FF
:102FB000CF92DF92EF92FF920F931F93CF93DF9305
:102FC0008DED95E00E94EA0FE0910909F0910A0960
:102FD0008085282F332727FD30953F938F9388E9ED
:102FE00093E09F938F930E94E62DE0910909F09161
:102FF0000A09C281D381DF93CF938CEC93E09F9336
:103000008F930E94E62D88811F928F9381EA93E02F
:103010009F938F930E94E62DE0910909F0910A0990
:1030200081818F9380818F938EEA93E09F938F931A
:103030000E94E62D80910A098F93809109098F9350
:1030400088EB93E09F938F930E94E62DC7E4D8E02E
:10305000EDB7FEB774960FB6F894FEBF0FBEEDBF86
:1030600000E010E088EC682E83E0782E91EA892E4B
:1030700093E0992E2EEAA22E23E0B22E38EBC32E37
:1030800033E0D32EEA80FB80FF92EF921F930F93E1
:103090007F926F920E94E62DF70180811F928F939D
:1030A0009F928F920E94E62D89818F9388818F93C2
:1030B000BF92AF920E94E62DDF93CF93DF92CF9223
:1030C0000E94E62D0F5F1F4FAB96EDB7FEB77296CD
:1030D0000FB6F894FEBF0FBEEDBF0430110591F698
:1030E000DF91CF911F910F91FF90EF90DF90CF90E4
:1030F000BF90AF909F908F907F906F900895CF93E7
:10310000DF93E0910909F0910A09C281D381888196
:10311000853539F00E94D21781E00E94001785E5BD
:103120008883E0910909F0910A09808191818115D4
:10313000924438F00E94D21782E1DF91CF910C9433
:103140000017DF91CF9108952BE28202C001112474
:10315000FC01E95BF74FA281B3818C91853519F0B1
:1031600085E58C9308C0808191818115924428F077
:1031700082E10E9400178FEF089581E008950F9378
:103180001F934091E6045091E7046091E804709128
:10319000E90480E090E08A019B01082E04C0369586
:1031A0002795179507950A94D2F700FD19C001E0FD
:1031B00010E020E030E0082E04C0000F111F221F95
:1031C000331F0A94D2F7402B512B622B732B409361
:1031D000E6045093E7046093E8047093E90405C0A3
:1031E000019680329105B9F68FEF1F910F910895E6
:1031F000E0910909F0910A096585768587859089AE
:103200000895CF92DF92EF92FF920F931F93CF9387
:10321000DF93C12CD12C7601C394082E04C0CC0CB2
:10322000DD1CEE1CFF1C0A94D2F74091E60450917D
:10323000E7046091E8047091E9044C215D216E215E
:103240007F21452B462B472B09F460C0082F0E9495
:103250009314E0E5F8E0B701A6014095509560951C
:10326000709513E0DF0111978C918F3F39F18481C4
:103270009581A681B7818C159D05AE05BF0551F4DA
:1032800010861186128613869F0122503109E901AA
:103290001882108384239523A623B72384839583E0
:1032A000A683B78380859185A285B38584239523E2
:1032B000A623B72380879187A287B387BB96D8E0E0
:1032C000EC3FFD0779F68EEF9FEFAFEFBFEF04C045
:1032D000880F991FAA1FBB1F0A95D2F74091E604D9
:1032E0005091E7046091E8047091E90484239523E8
:1032F000A623B7238093E6049093E704A093E80401
:10330000B093E9040E94951481E001C08FEFDF9132
:10331000CF911F910F91FF90EF90DF90CF90089584
:103320000F931F9341E050E060E070E08A019B0141
:1033300004C0000F111F221F331F8A95D2F7D90135
:10334000C801E0910909F0910A094585568567850C
:1033500070890423152326233723012B022B032BEB
:10336000D1F080959095A095B095482359236A2374
:103370007B23458756876787708B4189528963898C
:10338000748984239523A623B723818B928BA38BE7
:10339000B48B81E001C08FEF1F910F910895282F0A
:1033A0004091E6045091E7046091E8047091E904CB
:1033B000082E04C076956795579547950A94D2F7DD
:1033C00040FF1DC0E0910909F0910A0981E090E0F9
:1033D000A0E0B0E004C0880F991FAA1FBB1F2A9568
:1033E000D2F74585568567857089842B952BA62B4A
:1033F000B72B85879687A787B08B81E008958FEFDD
:103400000895CF92DF92EF92FF92CF93C12CD12CEF
:103410007601C39404C0CC0CDD1CEE1CFF1C8A9505
:10342000D2F78091E6049091E704A091E804B0916E
:10343000E9048C219D21AE21BF21892B8A2B8B2B66
:1034400011F481E044C00E949314EEE4F8E0A0E59A
:10345000B8E0C0E083E090819130B9F442855385B3
:10346000648575854C215D216E217F21452B462B7E
:10347000472B59F08C9316861786108A118A108272
:10348000C286D386E486F586C1E090819230A1F4AD
:1034900042855385648575854C155D056E057F05F0
:1034A00059F48C9316861786108A118A1082128618
:1034B000138614861586C1E0BB969B9698E0EA3F7A
:1034C000F90749F60E949514C11105C082E00E94D7
:1034D0005D168FEF01C081E0CF91FF90EF90DF90FC
:1034E000CF9008950F931F93E0910909F0910A0975
:1034F0000585168527853089062317232823392338
:10350000011511052105310511F1DC01CB01818B7C
:10351000928BA38BB48B21E027830090F90804C021
:10352000B695A795979587950A94D2F780FF03C023
:103530000E942A1E04C080E090E00E94FB1DE091E2
:103540000909F0910A090189128923893489C9017D
:10355000B8011F910F91089580E090E0089521E057
:10356000855F984009F420E0822F819508950E949C
:10357000AF1A8F3F11F481E003C0813029F482E05B
:103580000E945D168FEF0895992787FD9095FC01A5
:10359000EE0FFF1F8E0F9F1FFC01EB50F74F828134
:1035A0000895EF92FF920F931F93CF93DF931F9293
:1035B000CDB7DEB70E94AF1A8F3F11F481E003C090
:1035C000813029F482E00E945D168FEF41C089832B
:1035D0000E9493148981E82EFF24E7FCF094870170
:1035E000000F111FF801EE0DFF1DEB50F74F9281F8
:1035F000911116C0E0910909F0910A099781926032
:103600009783992787FD9095A92FB92F818B928B4E
:10361000A38BB48B0E94951480E090E00E94FB1D68
:103620000E0D1F1DD801AB50B74F12968C911297FB
:10363000815012968C931297E0910909F0910A0932
:1036400011968C91838781E084830E94951481E098
:103650000F90DF91CF911F910F91FF90EF90089500
:103660000F931F93CF93DF931F92CDB7DEB70E94C6
:10367000AF1A8F3F11F481E003C0813029F482E05A
:103680000E945D168FEF44C0482F552747FD509587
:103690009A01220F331F240F351F89010B50174F3A
:1036A000F80122819081291794F589830E9493144F
:1036B000F80192819F5F9283E0910909F0910A09D4
:1036C0001482EEE4F8E08981992787FD9095A92F6F
:1036D000B92F23E03081323099F4428553856485D7
:1036E0007585481759076A077B0751F422831686A8
:1036F0001786108A118A1082128613861486158600
:10370000BB9638E0EA3FF30729F70E94951481E061
:103710000F90DF91CF911F910F9108950E94AF1AE2
:103720008F3F11F481E003C0813029F482E00E94D0
:103730005D168FEF0895992787FD9095FC01EE0F98
:10374000FF1F8E0F9F1FFC01EB50F74F8FEF808301
:10375000828381838091080981508093080981E0E8
:103760000895E091FE08F091FF0880810895E091AE
:10377000FE08F091FF08309721F00380F481E02DDE
:10378000FACF0895AF92BF92CF92DF92EF92FF925D
:103790000F931F93CF93DF93E0914508F091460874
:1037A000309709F494C00091FE081091FF080115AC
:1037B000110509F44CC0D8014BE2582F5403900175
:1037C0001124295B374F79019AE0E90EF11C690158
:1037D000C4E0CC0ED11C5901DBE0AD0EB11C2C9124
:1037E00030E0429FB001439F700D1124695B774F19
:1037F000EB019C81992329F05B85E701988159179A
:1038000040F1E6019881992369F0429FB001439FFE
:10381000700D1124695B774FEB015A85E5019881A2
:103820005917B8F0429FB001439F700D11249B01BE
:10383000295B374FE9012A85E7019881291748F06C
:1038400013960D90BC91A02D109749F602C0A0E0F0
:10385000B0E08083C381D481D0934608C0934508EB
:10386000A017B107B1F4109749F0B483A383128273
:1038700011821296FC93EE93119706C01482138264
:1038800012821182FA83E983F093FF08E093FE0825
:103890001EC0AC17BD0779F011968D919C911297BF
:1038A00092838183B483A3831196CD91DC91129787
:1038B000FC83EB8308C01482138211968D919C9136
:1038C0001297928381831296FC93EE931197DF9166
:1038D000CF911F910F91FF90EF90DF90CF90BF900D
:1038E000AF900895CF93DF93E091FE08F091FF0829
:1038F000309709F444C0992787FD9095208130E0E6
:103900002817390781F4A381B481B093FF08A093ED
:10391000FE0812961C921E92119718C00380F48123
:10392000E02D309761F1208130E028173907B1F799
:10393000C181D281838194819C838B83A381B48153
:10394000109721F01296DC93CE931197A091450821
:10395000B0914608109739F4F0934608E093450873
:10396000148213820AC0B483A3831296FC93EE934D
:103970001197F0934608E093450812821182DF9177
:10398000CF910895EF92FF920F931F93CF93DF9300
:10399000EC014B815C8169817A818D819E810E94DD
:1039A0007E292F81222371F04B815C81E12CF12C47
:1039B00000E010E020E030E0BC01CE010E94A21542
:1039C0001F820CC0E8812BE2E202F0011124E95BC6
:1039D000F74F21852330B9F491838083E8818BE20E
:1039E000E802F0011124E95BF74F85899689A789E0
:1039F000B08D892B8A2B8B2B41F482E081878881C3
:103A00000E94C21B02C08FEF01C081E0DF91CF9105
:103A10001F910F91FF90EF9008951F93CF93DF9325
:103A2000CDB7DEB728970FB6F894DEBF0FBECDBF77
:103A300029833A834B835C836D837E838F8398874E
:103A40000E9493140E94A826182FCE0101960E946E
:103A50001F216330710598F0E0910909F0910A097E
:103A6000212F30E0620F731FCB01A0E0B0E0858B07
:103A7000968BA78BB08F0E94951481E001C08FEFC9
:103A800028960FB6F894DEBF0FBECDBFDF91CF9161
:103A90001F9108950E945129E0910909F0910A09A6
:103AA00085818111F7CF0895CF930E947F180E94DE
:103AB0009314E0910909F0910A0981E090E092A73E
:103AC00081A785830E94A826C82F883F80F40E9482
:103AD00042262C2F30E02F5F3F4F90E02817390708
:103AE00034F482E08C0F8093F1070E9446260E94F6
:103AF00095140E944A1D81E0CF910895E091090933
:103B0000F0910A0980850E94721CE0910909F091E8
:103B10000A0984E081870E94541D81E00895CF93B3
:103B2000DF93EC010E947F18209711F4C1E0D0E0F0
:103B30000E949314E0910909F0910A0981E08583BC
:103B4000D2A7C1A70E94A826C82F883F80F40E9450
:103B500042262C2F30E02F5F3F4F90E02817390787
:103B600034F482E08C0F8093F1070E9446260E9475
:103B700095140E944A1D81E0DF91CF910895EF9244
:103B8000FF920F931F93CF938C010E949314E091A7
:103B90000909F0910A0981E085830E94A826C82FAF
:103BA000E0910909F0910A09E82EF12CC701800F74
:103BB000911FA0E0B0E0858B968BA78BB08FC83F9C
:103BC00078F40E9442269FEFE91AF90A90E0E8167D
:103BD000F90634F482E08C0F8093F1070E944626A8
:103BE0000E9495140E944A1D81E0CF911F910F9170
:103BF000FF90EF900895CF93DF93EC010E94931410
:103C0000E0910909F0910A0921E02583CE01A0E0A5
:103C1000B0E0858B968BA78BB08F0E94A826C82F0B
:103C2000883F80F40E9442262C2F30E02F5F3F4FC8
:103C300090E02817390734F482E08C0F8093F10765
:103C40000E9446260E9495140E944A1D81E0DF9141
:103C5000CF910895CF930E949314E0910909F091B8
:103C60000A0981E0858386830E94A826C82F883FA1
:103C700080F40E9442262C2F30E02F5F3F4F90E0CF
:103C80002817390734F482E08C0F8093F1070E94E3
:103C900046260E9495140E944A1D81E0CF91089506
:103CA0001F93CF93DF93CDB7DEB728970FB6F89465
:103CB000DEBF0FBECDBF29833A834B835C836D8308
:103CC0007E838F8398870E947F180E949314E091CF
:103CD0000909F0910A0981E0858381E090E092A7CB
:103CE00081A70E94A826182FCE0101960E941F21AD
:103CF000E0910909F0910A09DC01CB01810F911DC6
:103D0000A11DB11D858B968BA78BB08F183F80F4BA
:103D10000E944226212F30E02F5F3F4F90E028176E
:103D2000390734F482E0810F8093F1070E94462620
:103D30000E9495140E944A1D81E028960FB6F894BF
:103D4000DEBF0FBECDBFDF91CF911F9108958F923F
:103D50009F92AF92BF92CF92DF92EF92FF920F931A
:103D60001F93CF93DF93CDB7DEB760970FB6F8946C
:103D7000DEBF0FBECDBF29873A874B875C876D8733
:103D80007E878F87988BCE0101960E94031F8980C2
:103D90009A80AB80BC80CD80DE80EF80F88409857E
:103DA0001A852B853C854D855E856F857889CE018A
:103DB00009960E94601F8F3F61F029853A854B85E7
:103DC0005C856D857E858F8598890E94501E81E077
:103DD00001C08FEF60960FB6F894DEBF0FBECDBF67
:103DE000DF91CF911F910F91FF90EF90DF90CF90D7
:103DF000BF90AF909F908F900895E0910909F09146
:103E00000A09808508950F931F93CF93DF93EC01E8
:103E10001C821D821E821F828091000990910109DF
:103E2000A0910209B091030988839983AA83BB8377
:103E30008091040990910509A0910609B0910709A4
:103E40008C839D83AE83BF830E94A826A82FB0E0F9
:103E500023EB36EE4EE050E00E94842B0C811D8156
:103E60002E813F81DC01CB01800F911FA21FB31F68
:103E70008C839D83AE83BF838C819D81AE81BF8106
:103E800081152AEC92072AE9A2072BE3B20798F0E2
:103E90009A5CAA49BB438C839D83AE83BF83888190
:103EA0009981AA81BB810196A11DB11D8883998347
:103EB000AA83BB83E1CFDF91CF911F910F9108952A
:103EC0008F929F92AF92BF92CF92DF92EF92FF922A
:103ED0000F931F93CF93DF93CDB7DEB760970FB6E5
:103EE000F894DEBF0FBECDBFFC0109831A832B837C
:103EF0003C834D835E836F83788789869A86AB8601
:103F0000BC86CD86DE86EF86F88A09811A812B81F0
:103F10003C814D815E816F817885C984DA84EB8430
:103F2000FC848D859E85AF85B8890C151D052E05F1
:103F30003F05F0F1C016D106E206F30691F44817EA
:103F400059076A077B07A0F1481B590B6A0B7B0BCB
:103F50004483558366837783108211821282138291
:103F600025C0481759076A077B0780F401501109DB
:103F7000210931090C191D092E093F0900831183FC
:103F80002283338356536546744C08C00C191D09AF
:103F90002E093F090083118322833383481B590B69
:103FA0006A0B7B0B448355836683778381E001C072
:103FB0008FEF60960FB6F894DEBF0FBECDBFDF91D6
:103FC000CF911F910F91FF90EF90DF90CF90BF9016
:103FD000AF909F908F900895FC0144815581668138
:103FE000778141158AEC58078AE968078BE37807DF
:103FF00098F05A5C6A497B43448355836683778390
:1040000080819181A281B3810196A11DB11D808320
:104010009183A283B383E1CF08958F929F92AF9251
:10402000BF92CF92DF92EF92FF920F931F93CF93A5
:10403000DF93CDB7DEB760970FB6F894DEBF0FBE43
:10404000CDBF09831A832B833C834D835E836F83AB
:10405000788789869A86AB86BC86CD86DE86EF8693
:10406000F88A09851A852B853C8549815A816B819F
:104070007C81400F511F621F731FFC0140835183DD
:10408000628373830D851E852F8538894D815E81FE
:104090006F817885400F511F621F731F44835583C2
:1040A000668377830E94EC1F81E060960FB6F894D8
:1040B000DEBF0FBECDBFDF91CF911F910F91FF905B
:1040C000EF90DF90CF90BF90AF909F908F9008952A
:1040D000E0E0F9E0608371838283938324833583F6
:1040E0004683578308952F923F924F925F926F922B
:1040F0007F928F929F92AF92BF92CF92DF92EF9278
:10410000FF920F931F93FC01C080D180E280F38067
:10411000C114D104E104F104E1F184819581A68107
:10412000B78122E4C216D104E104F104F0F51C01C8
:104130002D01612C712C4301E0E08E2F90E0A0E076
:10414000B0E08C159D05AE05BF0588F49101A20174
:10415000B301C40136534546544C6F4F7F4F8F4FC8
:104160009F4F19012A013B014C01EF5FE6CF83EB22
:10417000A82E96EEB92E2EE0C22ED12CE12CF12CD9
:1041800000E010E09101A201B301C4010E94EB2BF9
:104190000AC0648175818681978123EB36EE4EE0FB
:1041A00050E00E94C72BC90102C080E090E01F913F
:1041B0000F91FF90EF90DF90CF90BF90AF909F90C6
:1041C0008F907F906F905F904F903F902F900895C9
:1041D000CF92DF92EF92FF92CF93DF93CDB7DEB70E
:1041E00028970FB6F894DEBF0FBECDBF6B017C01E0
:1041F0002AE0F694E794D794C7942A95D1F7C98218
:10420000DA82EB82FC829B01AC0133704427552794
:1042100063EB76EE8EE090E00E948F2B2C2D3A819E
:104220004B815C8128960FB6F894DEBF0FBECDBFE0
:10423000DF91CF91FF90EF90DF90CF9008952F9274
:104240003F924F925F926F927F928F929F92AF9226
:10425000BF92CF92DF92EF92FF920F931F93FC01D8
:10426000C080D180E280F380C114D104E104F10464
:10427000B9F184819581A681B7811C012D01612C42
:10428000712C4301E0E08E2F90E0A0E0B0E08C15AF
:104290009D05AE05BF0588F49101A201B301C401DB
:1042A00036534546544C6F4F7F4F8F4F9F4F1901E8
:1042B0002A013B014C01EF5FE6CF83EBA82E96EE7F
:1042C000B92E2EE0C22ED12CE12CF12C00E010E012
:1042D0009101A201B301C4010E94EB2BCA010BC0E2
:1042E000648175818681978123EB36EE4EE050E044
:1042F0000E94C72BCA01B9011F910F91FF90EF9047
:10430000DF90CF90BF90AF909F908F907F906F90F5
:104310005F904F903F902F900895C2E0D1E00E94AF
:104320007F180E944226843028F4D093FD080E9412
:10433000512908C08AE090E00E945A25C093FD08E8
:104340000E94452980916C06853519F088E00E940D
:10435000001780917E41853511F388E00E94001797
:10436000DECF2F923F924F925F926F927F928F9209
:104370009F92AF92BF92CF92DF92EF92FF920F93F4
:104380001F93CF93DF9300D01F92CDB7DEB70E946B
:1043900076250E9495140E9494250E949C251C015C
:1043A0008AEF0E944626A091F107B0E023EB36EE9B
:1043B0004EE050E00E94842B009104091091050901
:1043C00020910609309107096B017C01C00ED11EB6
:1043D000E21EF31EC701B60123EB36EE4EE050E0BD
:1043E0000E94C72B26013701461A570A680A790A24
:1043F000D301C20100910009109101092091020925
:104400003091030943EB842E46EE942E4EE0A42E09
:10441000B12C680179014FEFC41AD40AE40AF40AF6
:1044200081155AEC95075AE9A5075BE3B507C8F073
:104430002C013D012AEC521A2AE9620A2BE3720A86
:10444000C301B201A50194010E94C72BA3019201EF
:10445000261B370B480B590BDA01C901970186015E
:10446000D8CF8093040990930509A0930609B093CF
:104470000709009300091093010920930209309362
:104480000309E0910909F0910A098581882339F12E
:104490008185843021F18781823029F0882341F0A1
:1044A0008681811102C085E001C083E0818714C04C
:1044B00083E081871782168285899689A789B08DC6
:1044C000892B8A2B8B2B41F4818D928DA38DB48DFA
:1044D000858B968BA78BB08F80850E94721CE09194
:1044E0000909F0910A0985A196A1A7A1B0A5892B78
:1044F0008A2B8B2B09F444C02085222309F440C069
:1045000081858430E9F1858D968DA78DB0A140918C
:10451000F10750E060E070E084179507A607B70741
:1045200068F4622F82E00E940B17E0910909F09174
:104530000A09158E168E178E10A208C0841B950BC3
:10454000A60BB70B858F968FA78FB0A3E0910909B3
:10455000F0910A091085858D968DA78DB0A1892BC4
:104560008A2B8B2B69F4612F83E00E940B17E0915B
:104570000909F0910A0983E08187812F0E94721C4A
:1045800080E598E09B838A8300E61AEE19822AEF81
:10459000C22ED12CE12CF12C812C912C540183942E
:1045A000EA81FB81319780818F3F09F404C1EA8160
:1045B000FB8134971082882309F467C0EA81FB816C
:1045C0008081843009F461C0448455846684778492
:1045D0006091F10770E080E090E0461657066806AB
:1045E000790648F0461A570A680A790A44865586B9
:1045F0006686778606C0EA81FB8114861586168654
:104600001786EA81FB814088518862887388461644
:1046100057066806790648F0461A570A680A790A62
:10462000408A518A628A738A1EC0EA81FB81208D8A
:10463000318D428D538D621773078407950758F4A7
:1046400029013A01461A570A680A790A408A518AAA
:10465000628A738A08C00E94C72BEA81FB81608B43
:10466000718B828B938BEA81FB8180899189A289EE
:10467000B389892B8A2B8B2B41F4808D918DA28D50
:10468000B38D808B918BA28BB38BEA81FB81808170
:10469000833009F090C084859585A685B785892BE0
:1046A0008A2B8B2B09F074C0DF0112978C919F012C
:1046B000235031098823A9F0F9018081882389F0EA
:1046C000B501A4010090F90804C0440F551F661FEE
:1046D000771F0A94D2F7EA81FB814087518762876E
:1046E00073871C92F9011082EA81FB81A0A1B1A11C
:1046F000A130B10519F5848D958DA68DB78D848B6C
:10470000958BA68BB78B92E0492E40828089918948
:10471000A289B38984879587A687B787808D918D75
:10472000A28DB38D892B8A2B8B2B21F4C486D58641
:10473000E686F78689810E94C21B2AC0EA81FB8136
:10474000448D558D668D778D448B558B668B778B1D
:10475000408C518C628C738C1197A30192010E9442
:10476000842B6487758786879787608B718B828B94
:10477000938B45284628472821F4C486D586E686AB
:10478000F78644244394512CEA81FB8151A240A234
:10479000EA81FB8184859585A685B7850097A1056B
:1047A000B10549F0A80160E070E084179507A607FD
:1047B000B70708F48C01F981FF5FF9832A813B81F7
:1047C000255D3F4F3B832A83F43009F0E9CE0E94F8
:1047D000B11BF82E3BE28302F0011124E95BF74F95
:1047E000228520930B09F093FB08E093FA088823B5
:1047F000F9F085A196A1A7A1B0A5892B8A2B8B2BB7
:1048000099F0858D968DA78DB0A18A3F9105A10560
:10481000B10550F4A80160E070E084179507A60781
:10482000B707E8F48C011BC00B3F1105C0F012C0A4
:1048300004301105A0F0C80103978A3F910538F4B0
:104840008C018230910558F402E010E008C00D3F61
:10485000110519F00AEF10E002C007EF10E02093F5
:10486000FC08F0930A09E09309090093F1070E94FC
:10487000A826282F30E02F5F3F4F2017310740F048
:104880000E94A826082F10E00E5F1F4F0093F1072B
:10489000F1101092FD08802F0E9446266CED75E005
:1048A000C1010E94AE250E94CB290F900F900F905E
:1048B000DF91CF911F910F91FF90EF90DF90CF90FC
:1048C000BF90AF909F908F907F906F905F904F9030
:1048D0003F902F900C94D6299C019091260919168F
:1048E00074F084E09802F0011124E95DF64F6083D2
:1048F000338322839F5F9093260981E008958FEF91
:1049000008950F931F93CF93DF9340912609552766
:1049100047FD5095C0E090E02C2F30E0241735077C
:104920008CF58901000F111F000F111FD801A95D1F
:10493000B64FEC91FF27E7FDF095E817F90701F571
:10494000D62FF901E55DF64F808181110BC081E022
:1049500080831296ED91FC91139720E040E050E0A7
:1049600080E00995F801E95DF64F0280F381E02DC2
:1049700020E040E050E06D2F81E009958C2F03C0CE
:10498000CF5FCACF8FEFDF91CF911F910F91089525
:1049900090E020912609332727FD30952817390705
:1049A00084F0880F991F880F991FFC01E95DF64F6D
:1049B0000280F381E02D20E040E050E060E082E002
:1049C000099481E00E945D168FEF0895242F90E0F6
:1049D000E0912609FF27E7FDF095E817F90774F045
:1049E000880F991F880F991FFC01E95DF64F02801F
:1049F000F381E02DAB0160E086E0099481E00E9444
:104A00005D168FEF0895242F90E0E0912609FF278F
:104A1000E7FDF095E817F90774F0880F991F880FE4
:104A2000991FFC01E95DF64F0280F381E02DAB0197
:104A300060E085E0099481E00E945D168FEF0895A3
:104A4000242F90E0E0912609FF27E7FDF095E81775
:104A5000F90774F0880F991F880F991FFC01E95D11
:104A6000F64F0280F381E02D40E050E084E00994AD
:104A700081E00E945D168FEF089590E02091260955
:104A8000332727FD3095281739077CF0880F991FA9
:104A9000880F991FFC01E95DF64F0280F381E02D3C
:104AA00020E040E050E083E0099481E00E945D1640
:104AB0008FEF0895000000000000000000000000DB
:104AC000000000000000000000000000019791F7C6
:104AD000089510922101089589E0809321018DE8C5
:104AE0009CE3909329018093280108951092250159
:104AF000109224010895CF93DF9300D0CDB7DEB795
:104B000080912401909125019A83898389819A81DA
:104B10000F900F90DF91CF9108951092810008952A
:104B200081E080938100089583B5816083BD1092F8
:104B30008500109284000895CF93DF9300D0CDB705
:104B4000DEB780918400909185009A838983898162
:104B50009A810F900F90DF91CF910895CF92DF92BD
:104B6000EF92FF92CF93DF93EC01CC0FDD1FC9379B
:104B70008FEFD80710F0C0E0D0E06B01E12CF12CF2
:104B8000CC0EDD1EE11CF11C81E0C816D104E80644
:104B9000F10440F081E0E81AF1080E949C25C81752
:104BA000D907D8F30E949C258C159D05D8F3DF9179
:104BB000CF91FF90EF90DF90CF9008951092B100C9
:104BC000E0E7F0E080818D7F808380818E7F80832D
:104BD00008958093B2000895E0E7F0E0808183605B
:104BE000808383E08093B100089583B5826083BDA4
:104BF0001092B2001092EF071092F1070895CF9330
:104C0000DF938EEF8093F10780E28093B60080916E
:104C1000F1078093B30083E087BB92E09093B000EC
:104C20008093B10093B5926093BD87BB84BD83B57B
:104C3000826083BD1092800081E080938100109299
:104C400085001092840083B5826083BD83B5816046
:104C500083BD10922001C4E2D1E01982188283B58D
:104C6000826083BD83B5816083BD0E94F525198272
:104C700018820E94EC250E946C251092EF07DF91AC
:104C8000CF9108958091B3008F5F089581508093F4
:104C9000B3000895811102C0109271008FEF089542
:104CA000811106C0109295001092940081E0089541
:104CB0008FEF0895811105C0809194009091950027
:104CC000089580E090E00895811105C082E080930E
:104CD000710081E008958FEF0895811135C0CB01F7
:104CE0000197059710F46093F0071092900088E008
:104CF0008093910050939900409398003093EE0771
:104D00002093ED078091F007813021F4809191008C
:104D1000816011C0823021F48091910082600BC0CB
:104D2000833021F480919100836005C0843031F498
:104D30008091910084608093910008C0853031F4A7
:104D4000809191008560F7CF8FEF089581E00895FD
:104D50008091B20008951F920F920FB60F92112406
:104D600060E08AE00E940B17FFCF0F920FB60F9200
:104D70001F922F923F924F925F926F927F928F92EB
:104D80009F92AF92BF92CF92DF92EF92FF920F93DA
:104D90001F932F933F934F935F936F937F938F93C3
:104DA0009F93AF93BF93CF93DF93EF93FF93A09124
:104DB0000909B0910A090DB60D920EB60D921F9217
:104DC000A0917305B09174051E90BEBFADBF08954C
:104DD0001F920F920FB60F9211240BB60F922F93C2
:104DE0003F934F935F936F937F938F939F93AF9373
:104DF000BF93EF93FF93E091ED07F091EE073097AB
:104E000011F0099504C060E08AE00E940B17FF9141
:104E1000EF91BF91AF919F918F917F916F915F9132
:104E20004F913F912F910F900BBE0F900FBE0F909F
:104E30001F9018951F920F920FB60F9211240F908A
:104E40000FBE0F901F90189504B603FE02C080E1BC
:104E500001C080E004B602FE06C094B79B7F94BFF9
:104E600004B600FE846004B601FE05C094B79D7FC1
:104E700094BF8260089581110CC004B600FE04C086
:104E800094B79E7F94BF01C081E09091B0009111D2
:104E900081E00895811102C0E89A39C0813011F48F
:104EA000E99A0895823011F4EA9A31C0833021F4EE
:104EB00080916B00816029C0843021F480916B0067
:104EC000826023C0853021F480916B0084601DC016
:104ED000863021F480916B00886017C0873021F400
:104EE00080916B00806111C0883021F480916B004B
:104EF00080620BC0893021F480916B00806405C012
:104F00008A3039F480916B00806880936B0081E077
:104F100008958FEF0895811102C0E89839C081305B
:104F200011F4E9980895823011F4E99831C0833082
:104F300021F480916B008E7F29C0843021F4809110
:104F40006B008D7F23C0853021F480916B008B7FB7
:104F50001DC0863021F480916B00877F17C0873099
:104F600021F480916B008F7E11C0883021F48091F4
:104F70006B008F7D0BC0893021F480916B008F7B9B
:104F800005C08A3039F480916B008F7780936B0075
:104F900081E008958FEF0895811126C050932F0965
:104FA00040932E09611104C0809169008C7F3DC03F
:104FB000613049F4809169008D7F80936900809110
:104FC0006900816032C0623049F48091690082607A
:104FD00080936900809169008E7F27C0633039F526
:104FE00080916900836021C0813049F550932D097B
:104FF00040932C09611104C080916900837F15C022
:10500000613049F480916900877F809369008091C5
:10501000690084600AC0623061F480916900886030
:1050200080936900809169008B7F8093690081E0A3
:1050300008956330E1F7809169008C60F6CF82308B
:1050400031F55093310940933009611104C08091CA
:1050500069008F7CEACF613049F4809169008F7DCF
:1050600080936900809169008061DFCF623049F4EC
:1050700080916900806280936900809169008F7ED1
:10508000D4CF6330A1F6809169008063CECF835086
:10509000883050F48091680081608093680050935C
:1050A000330940933209C3CF8FEF08951F920F92B7
:1050B0000FB60F9211240BB60F922F933F934F937D
:1050C0005F936F937F938F939F93AF93BF93EF9370
:1050D000FF93E0913209F0913309309711F009956F
:1050E00004C060E08AE00E940B17FF91EF91BF912E
:1050F000AF919F918F917F916F915F914F913F9170
:105100002F910F900BBE0F900FBE0F901F90189510
:105110001F920F920FB60F9211240BB60F922F937E
:105120003F934F935F936F937F938F939F93AF932F
:10513000BF93EF93FF93E0912E09F0912F093097E1
:1051400011F0099504C060E08AE00E940B17FF91FE
:10515000EF91BF91AF919F918F917F916F915F91EF
:105160004F913F912F910F900BBE0F900FBE0F905C
:105170001F9018951F920F920FB60F9211240BB625
:105180000F922F933F934F935F936F937F938F93E0
:105190009F93AF93BF93EF93FF93E0912C09F0910E
:1051A0002D09309711F0099504C060E08AE00E9453
:1051B0000B17FF91EF91BF91AF919F918F917F91CD
:1051C0006F915F914F913F912F910F900BBE0F9078
:1051D0000FBE0F901F9018951F920F920FB60F924F
:1051E00011240BB60F922F933F934F935F936F93BE
:1051F0007F938F939F93AF93BF93EF93FF93E09130
:105200003009F0913109309711F0099504C060E040
:105210008AE00E940B17FF91EF91BF91AF919F9190
:105220008F917F916F915F914F913F912F910F904F
:105230000BBE0F900FBE0F901F9018950E949314F5
:10524000A89584B7877F84BFE0E6F0E0808188611D
:10525000808310820C9495140E949314A89584B7AF
:10526000877F84BFE0E6F0E08081886180838DE005
:1052700080830C94951404B603FE02C08FEF08954A
:1052800081E00895A8950895089583B7817F866089
:1052900083BF83B7816083BF889583B78E7F83BFC9
:1052A000089583B7817F83BF83B7816083BF88956B
:1052B00083B78E7F83BF0895FC017683658308954D
:1052C000EF92FF920F931F93CF93DF938C017B019B
:1052D000EA014032510518F481E10E94001721973C
:1052E000CE0DDF1DF801D283C183F482E382DF910A
:1052F000CF911F910F91FF90EF90089525E5FA014E
:105300002083FB01329790833196808333971182FB
:105310001082329711821082329711821082329756
:10532000118210823297118210823297118210827C
:105330003297118210823297118210823297118235
:105340001082329711821082329711821082329726
:10535000118210823297118210823297118210824C
:10536000329711821082329711821082CB0184977A
:10537000FC0111821082089585E580937E41EEEF55
:10538000F1E4F0937405E093730588E596E190836A
:105390008093FF41089588E596E19093FE418093C4
:1053A000FF4108950E94FF250C949514A091FA08DE
:1053B000B091FB08CD91CDBFDD91DEBFFF91EF91A4
:1053C000DF91CF91BF91AF919F918F917F916F911D
:1053D0005F914F913F912F911F910F91FF90EF900F
:1053E000DF90CF90BF90AF909F908F907F906F9005
:1053F0005F904F903F902F901F900F900FBE0F9097
:105400001895FC010FB6F89460913E0970913F0920
:1054100080914009909141090FBE309721F060833F
:1054200071838283938308950E943E1080E190E00F
:105430000E94B4130E949A1480E090E00E944B13E3
:1054400081E090E00E944B1382E090E00E944B13B9
:1054500083E090E00E944B1320E030E0A90160E07F
:1054600070E0CB010E9468200E949D090E94020604
:105470000E94611580E090E008956F927F928F9274
:105480009F92AF92BF92CF92DF92EF92FF920F93D3
:105490001F93CF93DF93CDB7DEB72C970FB6F89459
:1054A000DEBF0FBECDBF6C015B017A01FC0117822C
:1054B0001682838181FF0EC1CE0101964C01F60157
:1054C0000381F50103FD159103FF11915F01112384
:1054D00009F4FCC0153249F403FD159103FF119145
:1054E0005F01153211F020E01BC0B601812F90E062
:1054F0000E94AE2D37017301E2CF112309F4E6C0FB
:10550000612F70E083EF95E02C870E94D52C2C85CD
:10551000892B49F0F50103FD159103FF11915F01FE
:1055200027FFEBCF09C0133229F01C3609F0D5C094
:105530002068F0CF20E1EECF022F112309F4C6C07E
:10554000612F70E08CEE95E02C870E94D52C2C8585
:10555000892B41F03701F4E06F0E711CB6018FE327
:1055600090E011C0133639F0133781F0133519F577
:10557000022F01600BC0370182E0680E711CB6017A
:10558000F701808191810E94AE2DB5CF3701F2E005
:105590006F0E711CF701E080F180F70100FD85912D
:1055A00000FF81917F01882309F4A5CFB60190E027
:1055B0000E94AE2DF2CF143611F0193629F53701BD
:1055C00027FF09C0F4E06F0E711CF7016081718143
:1055D000828193810AC0F2E06F0E711CF701608135
:1055E0007181882777FD8095982F022F0F7E97FF76
:1055F00008C090958095709561957F4F8F4F9F4F14
:1056000000642AE030E033C0103799F040F41835D8
:10561000B1F01F3609F05AC028E030E014C0153749
:1056200019F0183741F052C0022F0F7E2AE030E007
:105630000AC0022F0061046220E130E004C0022FA2
:10564000046020E132E0370107FF09C0F4E06F0E8B
:10565000711CF701608171818281938108C0F2E041
:105660006F0E711CF7016081718180E090E0A401F0
:105670000E94602E182F181906FF05C0B6018DE292
:1056800090E00E94AE2D04FF15C0FE01E10FF11D58
:105690008081803379F0B60180E390E00E94AE2DE6
:1056A00002FF08C00072802F90E0B601885A9F4F19
:1056B0000E94AE2D1150F401E10FF11D8081B60161
:1056C00090E00E94AE2D1111F5CF15CFF601868125
:1056D000978105C08FEF9FEF02C0022F31CF2C962C
:1056E0000FB6F894DEBF0FBECDBFDF91CF911F91F3
:1056F0000F91FF90EF90DF90CF90BF90AF909F9071
:105700008F907F906F9008950E944E2CA59F900DD2
:10571000B49F900DA49F800D911D11240895DB016D
:105720008F939F930E94842BBF91AF91A29F800D76
:10573000911DA39F900DB29F900D11240895AA1B57
:10574000BB1B51E107C0AA1FBB1FA617B70710F06C
:10575000A61BB70B881F991F5A95A9F7809590959E
:10576000BC01CD01089597FB072E16F4009407D0D5
:1057700077FD09D00E949F2B07FC05D03EF4909541
:1057800081959F4F0895709561957F4F0895A1E28F
:105790001A2EAA1BBB1BFD010DC0AA1FBB1FEE1FAB
:1057A000FF1FA217B307E407F50720F0A21BB30BF6
:1057B000E40BF50B661F771F881F991F1A9469F772
:1057C00060957095809590959B01AC01BD01CF01CE
:1057D0000895689401C0E8948F929F92CF93DF93CD
:1057E0000E94F72BDF91CF919F908F90089588248E
:1057F0009924F401E401B0E49F93AA279A158B043D
:105800009C04ED05FE05CF05D007A10798F4AD2F48
:10581000DC2FCF2FFE2FE92D982C892E982F872F44
:10582000762F652F542F432F322F2227B85031F770
:10583000BF9127C01B2EBF91BB27220F331F441FD0
:10584000551F661F771F881F991F881C991CEE1F04
:10585000FF1FCC1FDD1FAA1FBB1F8A149B04EC0572
:10586000FD05CE05DF05A007B10748F08A189B08A3
:10587000EC09FD09CE09DF09A00BB10B21601A94D8
:10588000E1F62EF49401AF01BE01CD01000C0895A4
:10589000EE0FFF1F0590F491E02D0994A29FB00137
:1058A000B39FC001A39F700D811D1124911DB29F54
:1058B000700D811D1124911D08958F929F92AF92BA
:1058C000BF92CF92DF92EF92FF92CF93DF93EC01E2
:1058D000688179818A819B816115710581059105B6
:1058E00021F464E279ED8BE597E02DE133EF41E0BF
:1058F00050E00E942C3049015A019B01AC01A7EAFB
:10590000B1E40E94842B6B017C01ACEEB4EFA501E5
:1059100094010E942730DC01CB018C0D9D1DAE1D32
:10592000BF1DB7FF03C00197A109B04888839983C1
:10593000AA83BB839F77DF91CF91FF90EF90DF9099
:10594000CF90BF90AF909F908F9008950C945D2C56
:1059500080E092E00C945D2CA0E0B0E08093000227
:1059600090930102A0930202B09303020895FC01F8
:1059700088279927E89421912032E9F3293010F003
:105980002E30C8F32B3241F02D3239F4689404C024
:105990000E941D2D820F911D219120532A30C0F3AA
:1059A0001EF4909581959F4F0895FC010590061671
:1059B00021F00020D9F7C00108953197CF01089553
:1059C00046EB54E00C94F62CFB01DC0102C0019084
:1059D0000D9241505040D8F70895FB01DC018D91A4
:1059E000019080190110D9F3990B0895FA01A19142
:1059F000B081009719F41097E1F0CD01DC01CD01E1
:105A00000D90002011F4C00113C0FB01219122234D
:105A100019F02015D9F7F3CFFB012191201519F4C6
:105A20001E92119606C02223C1F70D900020A1F707
:105A3000D001FA01A193B08308957AE0979F902D49
:105A4000879F802D910D112408950F931F93CF935D
:105A5000DF93009731F46115710519F480E090E04F
:105A60003AC08B01EC016EE070E081E090E00E94B2
:105A7000D42EFC01009791F380E883830115110572
:105A800071F01387028781E88383809134099091B4
:105A90003509892B21F4F0933509E09334092097D7
:105AA000C9F0D187C0878381826083838091360962
:105AB00090913709892B71F4F0933709E0933609F7
:105AC0008091380990913909892B21F4F093390993
:105AD000E0933809CF01DF91CF911F910F91089585
