:100000000C94AD030C947B2A0C94AD2A0C94DF2A3B
:100010000C94CC030C94CC030C94CC030C94CC0324
:100020000C94CC030C94492A0C94CC030C94CC0370
:100030000C94CC030C94A8280C94CC030C94A82802
:100040000C94CC030C94CC030C94CC030C94CC03F4
:100050000C94CC030C94CC030C94CC030C94CC03E4
:100060000C94CC030C9467110C94CC030C94CC032B
:100070000C94CC030C94CC030C94CC030C94CC03C4
:100080000C94DB280C94CC030C94CC030C94CC0380
:100090000C94CC030C94CC030C94CC030C94CC03A4
:1000A0000C94CC030C94CC030C94CC030C94CC0394
:1000B0000C94CC030C94CC030C94CC030C94CC0384
:1000C0000C94CC030C94CC030C94CC030C94CC0374
:1000D0000C94CC030C94CC030C94CC030C94CC0364
:1000E0000C94CC030C94790F0C946A0F0C943A0F77
:1000F0000C9438100C942B0F0C941C0F0C940A0FBA
:100100000C94FB0E0C94CC030C94CC030C94CC03F9
:100110000C94CC030C94CC030C94CC030C94CC0323
:10012000740578058205880594059F05A405C60514
:10013000CE05E9057B06B70613075207A40746124A
:10014000531260126D127A1287129412B712C512EE
:10015000D312E112EF12FD12FD1220132213241309
:10016000261328132A132C134B136E139213B51353
:10017000D813FB131E145814651472147F148C14B6
:100180009914A614BF14CC14D914E614F314001552
:100190000D159F18A518A818AB18AE18B118B718E8
:1001A000B418BA18BD18C018C918CC18CF18D2186E
:1001B000C6189C18A218D518D818C31899186F1902
:1001C00072197D1982198919921995199A19A1190B
:1001D000AA1950656572205461736B207374617243
:1001E0007465640D0A002D2D3E2057616974696E97
:1001F0006720746F20666F727761726420616E7918
:10020000206E65696768626F7220696E666F726DD5
:100210006174696F6E2066726F6D206F74686572AD
:10022000206E6F6465730D0A002D2D3E20446F6EA5
:100230006520726563656976696E672041434B206E
:100240006D657373616765732066726F6D206E658F
:10025000617262792070656572732C2073656E64BB
:10026000696E6720726573756C747320746F2047B4
:1002700054570D0A002D2D3E205265636569766541
:10028000642061205345454E20636F6D6D616E643F
:100290002066726F6D206E6561726279207065658F
:1002A000722C2077616974696E6720666F722043D3
:1002B00054532066726F6D204754570D0A002D2D40
:1002C0003E205361772061207465737420636F6DE5
:1002D0006D616E642C20617474656D7074696E67F5
:1002E00020746F2073656E642061636B6E6F6C6544
:1002F0006467656D656E740D0A002D2D3E204C6996
:100300007374656E696E6720666F7220544553542E
:1003100020636F6D6D616E64732066726F6D206116
:10032000206E6561726279206E6F6465200D0A002F
:100330002D2D3E20526563656976656420435453D4
:1003400020636F6D6D616E642066726F6D2047541F
:10035000572E2054657374696E6720746F2073651F
:1003600065206966206E6F6465732061726520691F
:100370006E20766963696E6974792E0D0A002D2DE1
:100380003E20526563656976656420726F75746995
:100390006E6720636F6D6D616E642C207374617283
:1003A00074696E6720746F2073656E6420525453B5
:1003B000206D657373616765730D0A002D2D3E20F6
:1003C0004E6F6465206A757374207475726E65640F
:1003D000206F6E2C2077616974696E6720666F727A
:1003E00020726F75746520636F6D6D616E640D0AA8
:1003F00000436F756C64206E6F74205472616E736D
:100400006D6974210D0A004661696C656420746F22
:10041000207265676973746572207369676E616CB9
:100420000D0A00424D41432054583A20576F6B65E6
:10043000207570206F6E2077726F6E67207369670A
:100440006E616C0D0A00424D41432054583A2045DC
:1004500072726F722063616C6C696E67206576657D
:100460006E7420776169740D0A00424D4143204546
:1004700052524F523A206372656174696E6720650B
:100480006E61626C65207369676E616C206661697C
:100490006C65640D0A00424D4143204552524F5253
:1004A0003A206372656174696E672074782073699D
:1004B000676E616C206661696C65640D0A00424D6F
:1004C0004143204552524F523A206372656174692C
:1004D0006E67207278207369676E616C206661694F
:1004E0006C65640D0A0075617274207278207369FE
:1004F00067206661696C65640D0A00554E4B4F5765
:100500004E0045787465726E616C20526573657437
:100510000042726F776E204F757420446574656376
:1005200074004661696C656420746F206372656154
:1005300074652053656D6170686F7265004661690E
:100540006C656420746F2063726561746520536903
:10055000676E616C004B65726E656C2066756E63CC
:1005600074696F6E206E6F7420696D706C656D6557
:100570006E746564004465766963652044726976CB
:100580006572204572726F72005761746368646FA0
:1005900067205265737461727400535720576174F9
:1005A0006368646F67205265737461727400546984
:1005B0006D6572204F766572666C6F7700556E6858
:1005C000616E646C656420496E74657272757074D6
:1005D00020566563746F72004C6F7720566F6C7491
:1005E000616765004578747261205461736B207394
:1005F0007461727465642C206973206E726B5F6322
:1006000066672E68206F6B3F0049646C65206F72CF
:10061000204B65726E656C20537461636B204F765E
:100620006572666C6F7700556E657870656374658A
:10063000642052657374617274004475706C6963F0
:1006400061746564205461736B204944005363688E
:100650006564756C6572204D6973736564205761BC
:100660006B657570005461736B20526573657276AB
:10067000652056696F6C61746564005265736572BC
:100680007665204572726F7220696E2053636865CB
:1006900064756C657200496E76616C696420537490
:1006A00061636B20506F696E746572005461736B87
:1006B00020537461636B204F766572666C6F7700B0
:1006C000537461636B20776173206E6F742064656F
:1006D00066696E6564206173206C61726765206570
:1006E0006E6F75676821005461736B207065726965
:1006F0006F6420746F6F206C617267652E20506587
:1007000072696F64206D757374206265206C657307
:1007100073207468616E203631207365636F6E6478
:10072000732E00293A20002A4E524B204552524F38
:100730005228000D0A535441434B2044554D500D4F
:100740000A0045464765666700202B2D2E30313262
:100750003334353637383968000011241FBECFEFE7
:10076000D1E4DEBFCDBF13E0A0E0B2E0EEE9F3E6F6
:1007700000E00BBF02C007900D92A037B107D9F778
:100780001AE0A0E7B3E001C01D92A93EB107E1F76E
:100790000E94F42B0C94CD310C949E284F925F92C2
:1007A0006F927F928F929F92AF92BF92CF92DF9281
:1007B000EF92FF920E94CA09882371F06DEF77E0F3
:1007C0008CEF97E00E94B209909387078093860789
:1007D0000E94D00981E067C084E998E00E94F62079
:1007E0008090980890909908A0909A08B0909B08E3
:1007F000C0905006D0905106E0905206F0905306FB
:1008000040919408509195086091960870919708CE
:1008100080914C0690914D06A0914E06B0914F06E6
:100820009A01AB01281B390B4A0B5B0BA8EEB3E016
:100830000E94642D2B013C01C814D904EA04FB0476
:10084000C8F4C501B4016C197D098E099F0920E423
:1008500032E44FE050E00E94A72DD301C201820F85
:10086000931FA41FB51F893E9340A105B10508F44D
:10087000A1CF18C0C701B601681979098A099B0977
:1008800020E432E44FE050E00E94A72D421A530AC0
:10089000640A750A89EE481683E0580661047104FB
:1008A00008F488CF80E0FF90EF90DF90CF90BF906A
:1008B000AF909F908F907F906F905F904F90089532
:1008C000CF93E8E8F7E001900020E9F7BF0169580D
:1008D00077406F5F88E897E00E946409813051F0AB
:1008E00081EF93E00E94DD1180E090E00E945515B9
:1008F000C0E005C080E090E00E943E15C1E08CE4BD
:1009000096E00E94F6208C2FCF91089580916C077D
:10091000882359F060918607709187078BE592E0F4
:100920000E94D42E21E0892B09F020E0822F089527
:1009300080916C078823D9F0E0918607F0918707B2
:100940008091FC07853098F08081833481F4818127
:10095000843569F48281833551F483818A3339F493
:10096000CF0104960E94972E21E0892B09F020E008
:10097000822F089580916C078823D9F0E091860733
:10098000F09187078091FC07853098F0808183344F
:1009900081F48181843569F48281833551F48381C6
:1009A0008A3339F4CF0104960E94972E21E0892BD7
:1009B00009F420E0822F08958EEF97E00E94F62040
:1009C0004091FE075091FF07609100087091010867
:1009D00080910E0890910F08A0911008B091110815
:1009E000481B590B6A0B7B0B81E0443051056105B4
:1009F000710508F480E0089580911608882321F09D
:100A00001092160881E0089580E008958EEF97E037
:100A10000E94F6208091170881111CC04091FE07AA
:100A20005091FF07609100087091010880910608BD
:100A300090910708A0910808B0910908481B590B2C
:100A40006A0B7B0B81E0463051056105710518F496
:100A500080E0089581E008958091180808958091BC
:100A60001908089580916C07882359F060918607D2
:100A7000709187078BE592E00E94D42E21E0892BAC
:100A800009F020E0822F089580916C078823C1F03F
:100A90008091FC078630A0F0E0918607F0918707EF
:100AA0008081873469F48181843551F4828187356E
:100AB00039F483818A3321F481E09481923509F0FD
:100AC00080E008950E94CE0380936C070895CF9331
:100AD000C0917F078C2F90E087309105E0F5FC01F5
:100AE000E057FF4F0C94282E0E948604C82F33C075
:100AF0000E94980481112EC00E94BA04882359F1E3
:100B0000C3E029C00E94DC04882321F1C6E023C091
:100B10000E94FC04882311F0C4E01DC00E9432052D
:100B20008823C9F0C1E017C00E940605882311F090
:100B3000C5E011C00E9444058111F4CFEDCF0E94A1
:100B40002C05811107C0F4CF0E942F05882319F0CE
:100B5000C7E001C0C2E0C0937F07CF910895CF9254
:100B6000DF92EF92FF920F931F93CF93DF93F0905A
:100B70007F078F2D90E08830910508F0FBC1FC01C4
:100B8000E956FF4F809181070C94282E882309F4A1
:100B9000F1C18CEB93E00E94DD11ECC18823A1F040
:100BA0008EE793E00E94DD1180E090E00E943E1508
:100BB00081E090E00E943E1582E090E00E943E15A8
:100BC00083E090E00E9455151F921F9285E692E007
:100BD00081C08823C1F083E090E00E943E1581E04F
:100BE00090E00E943E1582E090E00E943E1580E079
:100BF00090E00E94551580E393E00E94DD118EE0A5
:100C000098E00E94F62080916C078823C1F1E09162
:100C10008607F09187078091FC07853080F18081FD
:100C2000813469F58181833451F582818B3439F5C2
:100C300083818A3321F58F010C5F1F4FC8010E9409
:100C4000972EEC01EE24E394E0921A088057974F18
:100C50006C01FC018081811114C08EE098E00E943B
:100C6000F620B8018CE198E00E94C92E6AEE72E08D
:100C70008CE198E00E94C92EF601E08202C0C0E03B
:100C8000D0E080911A08882309F1DF93CF938CE696
:100C900092E09F938F9388E897E09F938F930E94B1
:100CA000B22F0E94600480911B088F5F0F900F90FD
:100CB0000F900F900F900F90833018F480931B08C3
:100CC00059C110921B0810921A0854C11F921F920A
:100CD00084E792E09F938F9388E897E09F938F93A8
:100CE0000E94B22F0E9460040F900F900F900F90FF
:100CF0000F900F903FC1882321F08AEF92E00E946D
:100D0000DD1183E090E00E943E1581E090E00E94BA
:100D1000551582E090E00E943E1580E090E00E9430
:100D20003E15E0918607F091870780916C07882334
:100D300009F420C18091FC07863008F41BC1808132
:100D4000843509F017C18181853409F013C182818E
:100D5000833509F00FC18381843509F00BC184818B
:100D60008A3309F007C181E08093160803C1882304
:100D700041F08EEB92E00E94DD1186E098E00E9447
:100D8000F62083E090E00E94551581E090E00E94FB
:100D9000551582E090E00E943E1580E090E00E94B0
:100DA0003E151F921F928CE792E09F938F9388E8E5
:100DB00097E09F938F930E94B22F0E9460040F9040
:100DC0000F900F900F900F900F9080916C078823D9
:100DD00009F4D0C08091FC07863008F4CBC0809124
:100DE0000000833509F0C6C080910100853409F008
:100DF000C1C080910200853409F0BCC0809103001D
:100E00008E3409F0B7C0809104008A3309F0B2C073
:100E100085E090E00E94972E892B09F0ABC081E01D
:100E200080931708A7C0882321F085E792E00E94ED
:100E3000DD1183E090E00E94551581E090E00E9472
:100E40003E1582E090E00E943E1580E090E00E9416
:100E5000551580916C07882309F48CC08091FC079C
:100E6000853008F487C080910000833409F082C087
:100E700080910100843509F07DC0809102008335A6
:100E800009F078C0809103008A3309F073C084E0D0
:100E900090E00E94972E892B09F06CC081E080932E
:100EA000180868C08823A1F089E292E00E94DD1151
:100EB00080E090E00E943E1583E090E00E943E15A5
:100EC00081E090E00E94551582E090E00E94551567
:100ED0001F921F9283E892E09F938F9388E897E098
:100EE0009F938F930E94B22F6CE178E088E897E09F
:100EF0000E94C92E0E9460040F900F900F900F90D7
:100F00000F900F9080916C078823A1F1E0918607E4
:100F1000F09187078091FC07853060F180818134F2
:100F200049F58181833431F582818B3419F58381D0
:100F30008A3301F5CF0104960E94972E892BD1F4B4
:100F400081E08093190816C08823A1F086EE91E015
:100F50000E94DD1183E090E00E94551580E090E052
:100F60000E94551581E090E00E94551582E090E0C6
:100F70000E945515F0928007DF91CF911F910F913C
:100F8000FF90EF90DF90CF900895EFE7F7E01082A9
:100F900011821282089582ED91E00E94DD110E947B
:100FA000C5070E94D31180936F070E94C21B8CE07B
:100FB0000E94D00885E00E946A0864E788EF96E006
:100FC0000E94C2080E9462050E94670581E020918C
:100FD000800790917F07291301C080E080938107EB
:100FE0000E94AF050E94471FEDCFCF93DF93C4E56A
:100FF000D6E08BEC97E09E838D8340E052E06AE47C
:1010000074E0CE010E94532B82E0888781E08F83B9
:1010100089878A871B861C861D861E8680E095E64A
:10102000ADECBDE18F87988BA98BBA8B81E090E006
:10103000A0E0B0E08B8B9C8BAD8BBE8B1F8A188E93
:10104000198E1A8E1B8E1C8E1D8E1E8E1F8E18A240
:1010500019A21AA2CE010E94B51E8DE992E0DF917D
:10106000CF910C94DD110895643021F40E94940F07
:1010700081E008958FEF08958FEF089580E090E06C
:1010800008950E942C0C81E008950E94260C81E0B6
:1010900008950E94200C81E008950E941A0C81E0BE
:1010A00008950E94320C81E0089590937906809310
:1010B000780681E008950E94920F0895603121F42E
:1010C0000E94950F81E008958FEF089581E00895C3
:1010D00081E00895803220F40E94100C81E0089590
:1010E0008FEF0895809379030895992787FD909550
:1010F0000E94880F81E00895CF93DF931F92CDB7B0
:10110000DEB78B3180F48093830389830E94FA0BCE
:1011100020E030E04FEF5FEF698182E797E00E94C7
:10112000520C81E001C08FEF0F90DF91CF910895B5
:1011300080918603882311F18091F7060E94C21BDB
:1011400081E090E0A0E0B0E0BC01CD010090F706A6
:1011500004C0660F771F881F991F0A94D2F70E9458
:10116000651CDC01CB010090F70604C0B695A7957D
:10117000979587950A94D2F780FF02C081E0089581
:101180008FEF0895009751F0909378078093770739
:101190006093760781E08093860308958FEF08952A
:1011A0001F93CF93DF93182F109285038FEF8093B7
:1011B0007803D1E0D09379031092880310928903C9
:1011C00010928A0310928B0310927A0310927B0381
:1011D00010927C0310927D0380E091EEA5EFB5E0C4
:1011E00080937E0390937F03A0938003B093810349
:1011F0000E94B21AC82F8093F7068F3F19F48EEB26
:1012000094E009C00E94B21AC82F80939C098F3FB6
:1012100069F486E994E00E94DD11E091B40AF0914E
:10122000B50A60858EE00E94FE182AC00E94B21A9C
:10123000C82F809377068F3F19F48AE694E0EBCFAE
:101240001092870310928603109278071092770706
:10125000109276070E94FA0B20E030E04FEF5FEF2C
:10126000612F82E797E00E94520C1093830380E085
:1012700090E00E94880FD0938503D0938203C1E051
:101280008C2FDF91CF911F910895209187032130FA
:1012900059F021E02093870390937C0680937B068E
:1012A00060937A0681E008958FEF08958091F706A4
:1012B0000E94C21B8091F706089580919C090E94AC
:1012C000C21B80919C090895CF92DF92EF92FF920A
:1012D000209187032130F1F1F62E6C0180919C0959
:1012E0000E94C21B81E080938703D0927C06C0924B
:1012F0007B06F0927A0681E090E0A0E0B0E0BC01CD
:10130000CD0100909C0904C0660F771F881F991FAC
:101310000A94D2F70E94651C6B017C01611571056E
:101320008105910521F486E494E00E94DD1100908E
:101330009C0904C0F694E794D794C7940A94D2F712
:10134000C0FC04C083E294E00E94DD11809184031C
:10135000811102C08FEF01C081E0FF90EF90DF901C
:10136000CF90089520918603222339F0FC0110824A
:10137000FB01108280E090E0089520917507FC0148
:10138000208380917A07FB01808380917707909179
:101390007807089581E090918603911180E0089587
:1013A00081E0809386030895109282030C94D40BFD
:1013B00081E0809382030E94FA0B809177060C945F
:1013C000F41BCF93DF93CDB7DEB728970FB6F89411
:1013D000DEBF0FBECDBF29833A834B835C836D8311
:1013E0007E838F83988749815A816B817C818D812F
:1013F0009E81AF81B885411551056105710541F4A4
:1014000081152DE2920721E3A20721E0B20790F0B7
:1014100040937A0350937B0360937C0370937D0326
:1014200080937E0390937F03A0938003B093810306
:1014300081E001C08FEF28960FB6F894DEBF0FBE93
:10144000CDBFDF91CF910895809185030895CF930B
:101450000E94C20C0E94220EC82F0E94220EC80FAA
:101460000E94220EC80F0E94C80C8C2F1C160CF470
:1014700081E0CF9108950E94C20C109270031092E7
:101480007103109272031092730380E4682F8093AB
:1014900074038BE4809375038CE48093760310923D
:1014A000770320E0309171034091720350917303F0
:1014B0007BE490E00E9443200E94540E8130E9F0CA
:1014C0008091880390918903A0918A03B0918B0346
:1014D0008F3F2FEF9207A105B10558F40196A11D8A
:1014E000B11D8093880390938903A0938A03B093DE
:1014F0008B030E94C80C80E00895109286030E941E
:10150000C80C81E008958091880390918903089523
:10151000109288031092890310928A0310928B0311
:1015200081E00895823058F0883008F086E091E03C
:1015300020E0990F2F5F2813FCCF892F089581E0B9
:101540000895EF92FF920F931F93CF93DF938091B3
:101550007903882309F443C08AE793E00E94662256
:10156000EC010E94882E6AE070E00E94932DBC017D
:101570006F5F7F4FCE010E947F2DCB010E94EE1F37
:10158000C1E00AE010E00E94270AD82F813039F12B
:101590000E94882E7C018C2F0E94920A682F70E096
:1015A000C7010E94932D99270E94821FCF5FC730E9
:1015B00008F0C6E08AE793E00E9466227C010E9460
:1015C000882EB8010E94932DBC016F5F7F4FC70129
:1015D0000E947F2DCB010E94EE1FDD23A1F210920D
:1015E0007D0610927E0620917A0330917B0388EE6F
:1015F00093E0289FE001299FD00D389FD00D112442
:1016000060917E0370917F038091800390918103AC
:1016100020E432E44FE050E00E94A72DC20FD31F18
:101620000E94C20CBE0188E796E00E94CE0C809317
:1016300084030E94C80C1092870380919C090E9429
:10164000F41B81E0DF91CF911F910F91FF90EF90FC
:10165000089580918503811103C00E94471FF9CF2F
:10166000809177060E94C21B8F3F21F487E094E0AF
:101670000E94DD11C12CD12C7601C3940E94FA0B7B
:1016800080918203882369F180918603813041F43F
:101690000E94270A811108C00E943B0A813021F470
:1016A0008091F7060E94F41B80918703813011F42A
:1016B0000E94A10A0E94C80C0E94D40B20917A03B8
:1016C00030917B0340917C0350917D0360917E03B8
:1016D00070917F0380918003909181030E94432049
:1016E000CDCF809177060E94C21BC701B601009042
:1016F000770604C0660F771F881F991F0A94D2F7D8
:101700000E94651CDC01CB010090770604C0B695F1
:10171000A795979587950A94D2F780FFE2CFAECF31
:1017200069E27BE08CE094E00E944F2B40E850E0BF
:101730006CE873E08CE094E00E94532BECE0F4E062
:1017400084E1808781E0878381878287138614867E
:101750001586168680E09DE2A1E3B1E08787908B35
:10176000A18BB28B138A148A158A168A178A108E57
:10177000118E128E138E148E158E168E178E10A249
:1017800011A212A2CF010C94B51E909141019F713C
:101790009F31D9F380934201089581E08093A3099A
:1017A00008951092A3090895809141018F718F319E
:1017B000D9F3809141018F71E1F08F30D1F08091A8
:1017C00041018F71883031F48091390182608093BA
:1017D00039010BC088E00E94C50B809141018F71D7
:1017E0008830D9F7F1CF8F3021F0809141018F718E
:1017F000D1F70895809141018F718F31D9F3809194
:1018000041018F7111F08F3051F4809139018D7F3A
:1018100080933901809141018F718830D9F7089503
:10182000E5E4F1E09081907F908390818F70982B18
:1018300090830895E7E5F1E080818D7F80830895AE
:10184000E7E5F1E08081826080830895EEE6F1E0D3
:1018500080818F7E80830895EEE6F1E08081806153
:101860008083089580936001909361019093AD0906
:101870008093AC0908959093A7098093A609E8E4A2
:10188000F1E08081807E80838081682B6083089571
:1018900090933204809331040895909330048093A0
:1018A0002F0408950F931F93CF93DF93FC01D90169
:1018B00080E28093440180EC8093450160626093F4
:1018C000480185EC8093490187EA80934B0180E8C9
:1018D00080934C0120936001B093610140936201B9
:1018E00050936301C6E4D1E0088188819881288102
:1018F000302F32953695377060E4369F8001112481
:10190000229526952370622F602B82958695837091
:1019100070E1879F90011124262B929596959370E4
:1019200084E0989FB0011124622B60936D0188813F
:101930009881929596959370392F3064982F92954F
:101940009670932B90936E0110926C018FEF8093A1
:101950004E01C6EAD9E0F983E8831A821B825D83CF
:101960004C83BF83AE83188681E08093C8091092B0
:10197000E7091092B7091092A309DF91CF911F9147
:101980000F91089586E10C94C50B86E10C94C50B6C
:1019900088E00E94C50B1092E70908953F924F928C
:1019A0005F926F927F928F929F92AF92BF92CF92EF
:1019B000DF92EF92FF920F931F93CF93DF93EC018F
:1019C0008091C809811102C08FEF26C12E818091BC
:1019D000A8098F5F8093A80990918101907E916002
:1019E00020FB95F99F7390649093810188E8809320
:1019F00082018091A3098823D1F08FEF8093830126
:101A00008AEA9AEA90938901809388018FEF9FEF89
:101A100090938701809386012091630180916201F8
:101A200090E0922B90938501809384011EC0809159
:101A3000A80980938301809161012091600130E0C9
:101A4000382B309389012093880188819981909364
:101A5000870180938601809163012091620130E0CB
:101A6000382B30938501209384013B014A8155270F
:101A700047FD50956B817C818AE891E00E94C02EE1
:101A80008A81855F8093800180914101982F9F71A9
:101A9000392E9FEF930D9230B8F391E13916A1F3EF
:101AA00092E1391689F39FE1391671F398EF930D9E
:101AB000923020F08F70863009F086CF86E10E9448
:101AC000C50B8D8181110AC089E00E94C50B8E81F2
:101AD000882391F089E10E94C50B0EC080914801D6
:101AE0008068809348018091410187FFFCCF8091FD
:101AF000410186FF69CFE8CF61147104A9F18FEA33
:101B000099E00E94F6208091AF099091B009A091D0
:101B1000B109B091B2098093C9099093CA09A09301
:101B2000CB09B093CC09D30120E432E44FE050E07C
:101B30000E94642D0091B3091091B4092091B50958
:101B40003091B609DC01CB01800F911FA21FB31F9A
:101B50008093CD099093CE09A093CF09B093D0097B
:101B600089EC99E00E94DF211092B70982E00E947F
:101B7000C50B412C512C8091B709811108C08FEF02
:101B8000481A580A98EE49169DEF5906A1F76114B4
:101B9000710421F48E8181112DC032C08FEA99E049
:101BA0000E94F6208090AF099090B009A090B109F2
:101BB000B090B209C090B309D090B409E090B509D3
:101BC000F090B6090091C9091091CA092091CB097A
:101BD0003091CC094091CD095091CE096091CF0947
:101BE0007091D00988EE99E00E9453218F3F09F04F
:101BF000BBCFD0CF8091420182958695877039F412
:101C000088EE48168DEF580611F0C1E001C0CFEF05
:101C1000832D0E94C50B8C2FDF91CF911F910F91C7
:101C2000FF90EF90DF90CF90BF90AF909F908F90FC
:101C30007F906F905F904F903F90089560E070E0CC
:101C40000C94CE0CCF93DF938091C809882341F187
:101C500080914101C82FCF719FEF9C0F9230C0F34C
:101C6000C131B1F3C231A1F3CF3191F3C83019F0D2
:101C70008F708630A9F486E10E94C50B80914801DF
:101C80008068809348018091410187FFFCCFD0910B
:101C900041018C2F0E94C50BD6FB882780F901C01B
:101CA0008FEFDF91CF9108958091C809882309F4BF
:101CB000A0C08091E709882309F499C080917B0135
:101CC000E091A609F091A70990E0029724813327BB
:101CD00027FD3095281739070CF48BC0E091A60931
:101CE000F091A709809182018083E091A609F0918B
:101CF000A709809187019091880192838183E09167
:101D0000A609F091A70980917B018B508383A09154
:101D1000A609B091A709E091A609F091A709139629
:101D20009C91848189173CF0E091A609F091A70964
:101D3000838187FF0DC01092E70980914C018F7756
:101D400080934C0180914C01806880934C0151C07C
:101D5000A091A609B091A709E091A609F091A70961
:101D600013964C91552747FD509569E871E08581A0
:101D700096810E94C02EE091A609F091A70980915A
:101D8000800185FB882780F98783E091A609F0917F
:101D9000A709809147018087E091A609F091A709E2
:101DA000809146018695869586958187E091A60962
:101DB000F091A709809147018287A091A609B0916F
:101DC000A709E0917B01F0E0E058FE4F80811B966F
:101DD0008C931092E70980914C018F7780934C018E
:101DE00080914C01806880934C0181E0089580E0EF
:101DF00008958FEF08951F920F920FB60F9211243E
:101E00008F9380E880934F018F910F900FBE0F90BA
:101E10001F9018951F920F920FB60F9211248F9357
:101E200081E08093B70980E480934F018F910F90F8
:101E30000FBE0F901F9018951F920F920FB60F9222
:101E400011248F9380E280934F018F910F900FBEEA
:101E50000F901F9018951F920F920FB60F9211249A
:101E60008F9380E180934F018F910F900FBE0F9061
:101E70001F9018951F920F920FB60F9211240BB658
:101E80000F922F933F934F935F936F937F938F9313
:101E90009F93AF93BF93EF93FF9384E080934F01A1
:101EA000E0913104F0913204309709F00995FF91E7
:101EB000EF91BF91AF919F918F917F916F915F91C2
:101EC0004F913F912F910F900BBE0F900FBE0F902F
:101ED0001F9018951F920F920FB60F9211248F9397
:101EE00082E080934F018F910F900FBE0F901F9053
:101EF00018951F920F920FB60F9211248F9381E0C5
:101F000080934F018F910F900FBE0F901F901895E7
:101F1000E9E4F1E09081907F908390818F70982B1D
:101F2000908308958FEF08950895089508958FEF91
:101F300008958091A1099091A209089580E00895E3
:101F4000089581E0089581E0089581E0089508955D
:101F50000895089508950895089508950895E7E36C
:101F6000F1E0808183608083989AA09A8DB1806E21
:101F70008DB98EB1806E8EB90895E7E3F1E080816E
:101F800083608083989AA0988DB1806E8DB98EB150
:101F9000806E8EB90895CF92DF92EF92FF920F93E9
:101FA0001F93CF93DF93CDB7DEB727970FB6F89483
:101FB000DEBF0FBECDBF0E948616E091A609F0914C
:101FC000A709C080D380E580F68000850E94540E6A
:101FD00018161CF08BEA92E006C0F701108111116F
:101FE00007C08AEC92E00E94822F0E94881631C0BE
:101FF000153021F48AE090E00E947C2FC701019601
:102000009F938F93802F992787FD90959F930F9390
:102010001F921F931F92CF928CEE92E09F938F930B
:102020000E94682FFD82EC821150F7011083DB8241
:102030001E821F828FEF9FEF9A8389830E948816EA
:10204000CE0101960E941E0E0FB6F894DEBF0FBEA1
:10205000CDBF27960FB6F894DEBF0FBECDBFDF9180
:10206000CF911F910F91FF90EF90DF90CF90089547
:102070001F920F920FB60F9211240BB60F922F934F
:102080003F934F935F936F937F938F939F93AF9300
:10209000BF93EF93FF9380E090917B01891710F439
:1020A0008F5FFACF8091460187FF04C081E0809363
:1020B000E70904C085E193E00E94822F88E08093C5
:1020C0004F018091460187FF05C08091A3098111CE
:1020D0000E94CB0FE0912F04F0913004309709F06B
:1020E0000995FF91EF91BF91AF919F918F917F9152
:1020F0006F915F914F913F912F910F900BBE0F9079
:102100000FBE0F901F901895A8EBB9E0FC01409608
:1021100020812D93219120933F01E817F907C1F702
:1021200080E110923E018150E1F780E880933C010C
:1021300080913D0180FFFCCFE1EDF9E080E18E0F61
:1021400090913F0191938E13FBCF0895CF93DF932E
:10215000DC01662309F445C0862F8F7009F041C069
:10216000E8EBF9E090E19E0F219120933F019E134F
:10217000FBCF90E070E0E0E240E1949F90011124F9
:10218000261737077CF5911103C010923C0102C05D
:10219000E0933C0140E050E02A0F3B1FE901C40FEF
:1021A000D51FF881F0933E014F5F5F4F40315105DD
:1021B000A9F740913C01406840933C0140913D01AA
:1021C00040FFFCCF40E050E0F0913E01E901C40F38
:1021D000D51FF8834F5F5F4F40315105A9F79F5FCF
:1021E000CBCF81E0DF91CF9108950F931F93CF93D1
:1021F000DF93DC01613009F458C0862F8F7009F03D
:1022000054C0E1EDF9E090E19E0F219120933F0150
:102210009E13FBCF62956F70615078E06F3F09F4B9
:1022200045C070933C01462F552747FD509520E04F
:1022300030E0ED0190E16902C00DD11D1124FE01D5
:10224000E20FF31F908190933E012F5F3F4F2031AB
:102250003105A9F790913C01906890933C019091D1
:102260003D0190FFFCCF4150510994E0440F551FB0
:102270009A95E1F720E030E090913E018E01020F47
:10228000131FF8019083662349F0F901E40FF51F4D
:10229000EA0FFB1FE0819E27F80190832F5F3F4FDD
:1022A0002031310549F76150B9CF81E0DF91CF91FD
:1022B0001F910F9108959091C00095FFFCCF9091D0
:1022C000C0009F7D9093C0008093C60008951F9228
:1022D0000F920FB60F9211240BB60F922F933F93CC
:1022E0004F935F936F937F938F939F93AF93BF931E
:1022F000EF93FF930E9486168091C00087FFFCCF6A
:102300008091C0008F778093C0002091C60080919B
:10231000440490914504FC01EC5CFB4F2083019642
:102320008031910529F0909345048093440404C0C2
:102330001092450410924404809133040E94F41BCF
:102340008091C0008F778093C0000E948816FF9113
:10235000EF91BF91AF919F918F917F916F915F911D
:102360004F913F912F910F900BBE0F900FBE0F908A
:102370001F90189581110DC081E040914604509145
:10238000470420914404309145044217530751F407
:1023900008C0813031F48091C800881F8827881FC9
:1023A000089580E00895809133048F3F19F48EE002
:1023B0000E94F318809133040895CF93DF93FC01BA
:1023C0002491EC012196222351F06091E10A709151
:1023D000E20A822F90E00E94302FCE01F0CFDF91F1
:1023E000CF91089520914604309147048091440490
:1023F000909145042817390769F4809133040E94AD
:10240000C21B60913304772767FD7095872F972F44
:102410000E94651C6F3F21F486EE94E00E94DD115E
:102420002091460430914704F901EC5CFB4F808118
:102430002F5F3F4F2031310528F43093470420931C
:10244000460408951092470410924604089586E0C9
:1024500084B985B988EF8AB980EF8BB982E08DB9EC
:1024600008950C9427128F3F09F46CC0E82FE77091
:102470004E2F50E04730510508F064C0FA01E15694
:10248000FF4F8695869586950C94282E42B121E0C3
:1024900030E0B90102C0660F771F8A95E2F7CB01E1
:1024A000842B82B94DC045B121E030E0B90102C0B2
:1024B000660F771F8A95E2F7CB01842B85B940C060
:1024C00048B121E030E0B90102C0660F771F8A955C
:1024D000E2F7CB01842B88B933C04BB121E030E067
:1024E000B90102C0660F771F8A95E2F7CB01842BF2
:1024F0008BB926C04EB121E030E0B90102C0660FB1
:10250000771F8A95E2F7CB01842B8EB919C041B3AE
:1025100021E030E0B90102C0660F771F8A95E2F72B
:10252000CB01842B81BB0CC044B321E030E0B90166
:1025300002C0660F771F8A95E2F7CB01842B84BB1C
:1025400081E008958FEF08958F3F09F465C0E82F6B
:10255000E7704E2F50E04730510508F05DC0FA019A
:10256000EA55FF4F8695869586950C94282E42B1A4
:1025700021E030E0B90102C0660F771F8A95E2F7CB
:10258000CB018095842382B945C045B121E030E07C
:10259000B90102C0660F771F8A95E2F7CB018095DB
:1025A000842385B937C048B121E030E0B90102C0C9
:1025B000660F771F8A95E2F7CB018095842388B94F
:1025C00029C04BB121E030E0B90102C0660F771F8E
:1025D0008A95E2F7CB01809584238BB91BC04EB15D
:1025E00021E030E0B90102C0660F771F8A95E2F75B
:1025F000CB01809584238EB90DC041B321E030E03A
:10260000B90102C0660F771F8A95E2F7CB0180956A
:10261000842381BB81E008958FEF08958F3F31F1CE
:10262000E82FE7704E2F50E047305105F8F4FA01DB
:10263000E355FF4F282F2695269526950C94282E96
:1026400090B10BC093B109C096B107C099B105C054
:102650009CB103C09FB101C092B3892F90E002C02A
:10266000959587952A95E2F7817008958FEF0895E3
:102670008F3F09F406C1E82FE7704E2F50E0473036
:10268000510508F0FEC0FA01EC54FF4F869586957F
:1026900086950C94282E20B130E0082E02C0359586
:1026A00027950A94E2F742B120FD0BC021E030E00B
:1026B000B90102C0660F771F8A95E2F7CB01842B20
:1026C0000BC021E030E0B90102C0660F771F8A9588
:1026D000E2F7CB018095842382B916C023B130E0A4
:1026E000082E02C0359527950A94E2F745B120FDE2
:1026F0000DC021E030E0B90102C0660F771F8A9556
:10270000E2F7CB01842B85B981E0089521E030E028
:10271000B90102C0660F771F8A95E2F7CB01809559
:102720008423F1CF26B130E0082E02C035952795DD
:102730000A94E2F748B120FD0BC021E030E0B90176
:1027400002C0660F771F8A95E2F7CB01842B0BC07E
:1027500021E030E0B90102C0660F771F8A95E2F7E9
:10276000CB018095842388B9CFCF29B130E0082EE2
:1027700002C0359527950A94E2F74BB120FD0BC0B6
:1027800021E030E0B90102C0660F771F8A95E2F7B9
:10279000CB01842B0BC021E030E0B90102C0660FF1
:1027A000771F8A95E2F7CB01809584238BB9ACCF54
:1027B0002CB130E0082E02C0359527950A94E2F737
:1027C0004EB120FD0BC021E030E0B90102C0660F20
:1027D000771F8A95E2F7CB01842B0BC021E030E014
:1027E000B90102C0660F771F8A95E2F7CB01809589
:1027F00084238EB989CF2FB130E0082E02C03595E1
:1028000027950A94E2F741B320FD0BC021E030E0A8
:10281000B90102C0660F771F8A95E2F7CB01842BBE
:102820000BC021E030E0B90102C0660F771F8A9526
:10283000E2F7CB018095842381BB66CF22B330E0E1
:10284000082E02C0359527950A94E2F744B320FD7F
:102850000BC021E030E0B90102C0660F771F8A95F6
:10286000E2F7CB01842B0BC021E030E0B90102C0BC
:10287000660F771F8A95E2F7CB018095842384BB8E
:1028800043CF8FEF08958F3F09F4D5C0E82FE7704D
:102890004E2F50E0611167C04730510508F0CBC0A2
:1028A000FA01E554FF4F8695869586950C94282E5F
:1028B00041B121E030E0B90102C0660F771F8A956F
:1028C000E2F7CB018095842365C044B121E030E07C
:1028D000B90102C0660F771F8A95E2F7CB01809598
:1028E000842365C047B121E030E0B90102C0660F22
:1028F000771F8A95E2F7CB018095842365C04AB1A2
:1029000021E030E0B90102C0660F771F8A95E2F737
:10291000CB018095842365C04DB121E030E0B90141
:1029200002C0660F771F8A95E2F7CB01809584235A
:1029300065C040B321E030E0B90102C0660F771FE7
:102940008A95E2F7CB018095842365C043B321E0EB
:1029500030E0B90102C0660F771F8A95E2F7CB011C
:102960008095842365C04730510508F064C0FA01A2
:10297000EE53FF4F8695869586950C94282E41B18F
:1029800021E030E0B90102C0660F771F8A95E2F7B7
:10299000CB01842B81B94DC044B121E030E0B901B5
:1029A00002C0660F771F8A95E2F7CB01842B84B9AA
:1029B00040C047B121E030E0B90102C0660F771F87
:1029C0008A95E2F7CB01842B87B933C04AB121E065
:1029D00030E0B90102C0660F771F8A95E2F7CB019C
:1029E000842B8AB926C04DB121E030E0B90102C084
:1029F000660F771F8A95E2F7CB01842B8DB919C03A
:102A000040B321E030E0B90102C0660F771F8A951C
:102A1000E2F7CB01842B80BB0CC043B321E030E054
:102A2000B90102C0660F771F8A95E2F7CB01842BAC
:102A300083BB81E008958FEF0895811106C080B1B6
:102A40008695817091E0892708958FEF089500970A
:102A500011F483E20DC08130910511F48BE208C0BE
:102A60008230910511F483E303C0039729F48BE3CB
:102A70000E94381381E008958FEF0895009711F4B4
:102A800083E20DC08130910511F48BE208C08230E1
:102A9000910511F483E303C0039729F48BE30E94AB
:102AA000331281E008958FEF0895009711F483E2C7
:102AB0000DC08130910511F48BE208C08230910580
:102AC00011F483E303C0039729F48BE30E94A4125B
:102AD00081E008958FEF0895882319F085B78F7EE0
:102AE00002C085B7806185BF81E008959091C800DC
:102AF00095FFFCCF8093CE0008959093C5008093FE
:102B0000C40086E08093C200E1ECF0E080818B7F1E
:102B10008083A0ECB0E08C9182608C93808188618E
:102B2000808308959093CD008093CC0086E08093BD
:102B3000CA00E9ECF0E080818B7F8083A8ECB0E0F4
:102B40008C9182608C9380818861808308950E943B
:102B50007D1562EF71E18BE591E10E94E52E909386
:102B6000E20A8093E10A62EF71E18BE591E10E9454
:102B7000E52E9093E00A8093DF0A0E94B21A8093B8
:102B800033048F3F19F48EE00E94F318109247042B
:102B90001092460410924504109244048091C100A2
:102BA00080688093C10008958091C80087FFFCCFA2
:102BB0008091C8008F778093C8008091CE000895DF
:102BC00000000000000000000197D1F708950C9468
:102BD00040300E9448300895EF92FF920F931F9368
:102BE000CF93DF937C0180E090E00E944030182F6B
:102BF000F701838381E090E00E944030082FF701C5
:102C0000828382E090E00E944030D82FF7018183D8
:102C100083E090E00E944030C82FF701808384E079
:102C200090E00E944030100FD10FCD0F8C1711F0A3
:102C30008FEF01C081E0DF91CF911F910F91FF9045
:102C4000EF900895CF93DF93EC0185E090E00E9430
:102C50004030888381E0DF91CF910895FC0160814D
:102C600086E090E00E94483081E00895CF93DF93A2
:102C7000EC0186E090E00E944030888381E0DF91A3
:102C8000CF9108950F931F93CF93DF938C01C0E0F2
:102C9000D0E0CE0108960E944030F80181938F0168
:102CA0002196C031D105A9F781E0DF91CF911F9125
:102CB0000F9108950F931F93CF93DF938C01C0E082
:102CC000D0E0F80161918F01CE0108960E94483052
:102CD0002196C031D105A9F781E0DF91CF911F91F5
:102CE0000F910895CF93DF93EC0187E090E00E946D
:102CF0004030888381E0DF91CF910895FC016081AD
:102D000087E090E00E94483081E00895F8940895AB
:102D1000789408950E948616FFCF1F93CF93DF9378
:102D2000CDB7DEB7A3970FB6F894DEBF0FBECDBF09
:102D30000E94B21A8093A40A8F3F21F460E08EE0D3
:102D40000E94FE180E941729182F80FF04C060E01F
:102D500086E00E94FE1811FF04C060E084E10E943A
:102D6000FE1812FF04C060E083E10E94FE1810927A
:102D7000A70A1092B50A1092B40A1092A60A1092ED
:102D8000A50A1092B60A1092B30A8FEF8093A00A98
:102D90008093A20A8093A10A93E69093FC09809302
:102DA000FA099093270A8093250A9093520A8093F8
:102DB000500A90937D0A80937B0A87EB9AE02CEB74
:102DC0003AE03093BB0A2093BA0A9093BE0A8093EC
:102DD000BD0A41EC5AE05093C00A4093BF0A3093B9
:102DE000C30A2093C20A26EC3AE03093C50A209326
:102DF000C40A5093C80A4093C70A4BEC5AE0509358
:102E0000CA0A4093C90A3093CD0A2093CC0A109283
:102E1000B90A1092B80A1092CF0A1092CE0A1092F4
:102E2000AA0A1092A90A9093F1098093F00960E828
:102E300073E2CE0101960E944F2B40E051E06CE915
:102E400078E0CE0101960E94532B85E580939C0883
:102E500019861C861D861E861F86188A198A1A8A5C
:102E60001B8A1C8A1D8A1E8A1F8A188E198E1A8E2A
:102E70001B8E1C8E1D8E1E8E1F8E18A219A21AA2CA
:102E80001BA281E0888792E09A878B87CE0101960A
:102E90000E94B51EA3960FB6F894DEBF0FBECDBF3D
:102EA000DF91CF911F9108950AEF19E0C0E0F8017A
:102EB000D080FFEFDF1222C0CF5F055D1F4FC4300F
:102EC000B1F70E94A41D2BE28202C0011124FC0173
:102ED000EE50F64F82858093B60AF093B50AE093E0
:102EE000B40AF093A60AE093A50A8093A70A0E9469
:102EF000C52B0E94AF2B0E94C92B16C08AEFE82E6B
:102F000089E0F82ED0E0CD1741F0F7018081D8128A
:102F100004C06D2D85E00E94FE18DF5FFBE2EF0E1E
:102F2000F11CD43081F7C8CFFFCFCF92DF92EF9260
:102F3000FF920F931F93CF93DF93EC018B017A01E4
:102F40008985823021F08091A30A888301C018828C
:102F50008091A30A843020F060E087E00E94FE1890
:102F60008985823029F08091A30A8F5F8093A30A1C
:102F70008091A30A811103C081E08093A30A388164
:102F80002BE23203F0011124EE50F64F118300833F
:102F90008885828738813203F0011124EE50F64F84
:102FA00083E0818738813203F0011124EE50F64F1F
:102FB000308708810203800111240E50164FF8015A
:102FC0001582CE010B960E941223F80161A372A311
:102FD00083A394A38B859C85AD85BE858833994852
:102FE000A144B10520F0688186E10E94FE18C880E6
:102FF000DD24C7FCD094CE014B960E9412231BE225
:103000001C9DF0011D9DF00D1124EE50F64F658BB7
:10301000768B878B908F28812103C00111249C011E
:103020002E50364F6901F901458956896789708D9F
:1030300081A192A1A3A1B4A1840F951FA61FB71FC0
:10304000818F928FA38FB48FCE0143960E9412235B
:10305000F60165A376A387A390A728812103F00139
:103060001124EE50F64F85A196A1A7A1B0A5858F9A
:10307000968FA78FB0A381E090E092A781A7F382FB
:10308000E2828487DF91CF911F910F91FF90EF90A3
:10309000DF90CF9008950C94A42385E690E00895E6
:1030A000E091B40AF091B50A84870895E091B40ADA
:1030B000F091B50A84850895FC0180917E078823EC
:1030C00031F0DB018C9380914A06808381E0089582
:1030D00080917E07882309F484C00E94861687E2C7
:1030E00097E00E94DD1180914A061F928F9380E83D
:1030F00092E09F938F930E94682F83E297E00E9453
:10310000DD110F900F900F900F9080917E07883106
:1031100010F010927E07E0917E078E2F90E0FC0168
:103120003197E631F10508F046C0E753FF4F0C94A4
:10313000282E87EE96E041C080EC96E03EC08CEAF7
:1031400096E03BC086E996E038C08BE796E035C054
:1031500085E696E032C08DE496E02FC08AE396E0E3
:103160002CC087E296E029C089E096E026C084EE74
:1031700095E023C088ED95E020C08DEB95E01DC063
:103180008EEA95E01AC08AE995E017C089E895E0D3
:1031900014C085E795E011C085E595E00EC08DE38C
:1031A00095E00BC082E295E008C081E195E005C0A2
:1031B00082E095E002C08BEF94E00E94DD11609107
:1031C000E10A7091E20A8DE090E00E94302F609158
:1031D000E10A7091E20A8AE090E00E94302F10929A
:1031E0007E0780E0089580937E07E091B40AF09115
:1031F000B50A808580934A060C94681880937E07F0
:1032000060934A060C946818CF93DF931F92CDB752
:10321000DEB719828981843640F480ED97E00E9400
:103220004D2789818F5F8983F5CF0F90DF91CF91F3
:10323000089581E090E00E9455150E9404190E94B3
:1032400004190E94041981E090E00E943E150C943C
:10325000041981E090E00E9455150E94041981E054
:1032600090E00E943E150C940419FF920F931F9357
:10327000CF93DF9300D01F92CDB7DEB71F928F930D
:1032800080E892E09F938F938E010F5F1F4F1F93F3
:103290000F930E94B22F0F900F900F900F900F90EE
:1032A0000F90F12CF80101900020E9F73197E01B15
:1032B000F10B8F2D90E08E179F0708F05DC0F8018D
:1032C000E80FF91FE0818E2F90E0FC01F097EA30C3
:1032D000F10508F049C0E152FF4F0C94282E0E94DE
:1032E000191902C00E9429190E9419190E9419195E
:1032F0000E9419190E94191937C00E9429190E94A9
:103300002919F4CF0E9429190E9429190E9429190C
:10331000EFCF0E9429190E9429190E9429190E94A1
:103320002919E8CF0E94291902C00E9419190E9488
:10333000291904C00E9419190E9419190E942919FB
:1033400006C00E9419190E9419190E9419190E9499
:10335000291908C00E9419190E9419190E941919E7
:103360000E9419190E9429190E9404190E94041927
:103370000E940419F39496CF0F900F900F90DF9155
:10338000CF911F910F91FF9008956F927F928F922E
:103390009F92AF92BF92CF92DF92EF92FF920F93E4
:1033A0001F93CF93DF9383E397E00E94DD11E091B9
:1033B000B40AF091B50A8085282F332727FD309570
:1033C0003F938F938EE293E09F938F930E94682F99
:1033D000E091B40AF091B50AC281D381DF93CF9313
:1033E00082E693E09F938F930E94682F88811F92BB
:1033F0008F9387E393E09F938F930E94682FE091D0
:10340000B40AF091B50A81818F9380818F9384E40F
:1034100093E09F938F930E94682F8091B50A8F93BA
:103420008091B40A8F938EE493E09F938F930E94D0
:10343000682FC2EFD9E0EDB7FEB774960FB6F894D7
:10344000FEBF0FBEEDBF00E010E08EE5682E83E00A
:10345000782E97E3892E93E0992E24E4A22E23E080
:10346000B22E3EE4C32E33E0D32EEA80FB80FF92DF
:10347000EF921F930F937F926F920E94682FF70134
:1034800080811F928F939F928F920E94682F8981D3
:103490008F9388818F93BF92AF920E94682FDF93A2
:1034A000CF93DF92CF920E94682F0F5F1F4FAB9692
:1034B000EDB7FEB772960FB6F894FEBF0FBEEDBF24
:1034C0000430110591F6DF91CF911F910F91FF907C
:1034D000EF90DF90CF90BF90AF909F908F907F90B4
:1034E0006F900895CF93DF93E091B40AF091B50AFD
:1034F000C281D3818881853539F00E94C51981E068
:103500000E94F31885E58883E091B40AF091B50A2A
:10351000808191818115924438F00E94C51982E121
:10352000DF91CF910C94F318DF91CF9108952BE2A6
:103530008202C0011124FC01EE50F64FA281B3813A
:103540008C91853519F085E58C9308C08081918137
:103550008115924428F082E10E94F3188FEF0895BC
:1035600081E008950F931F9340917F06509180064C
:10357000609181067091820680E090E08A019B0153
:10358000082E04C036952795179507950A94D2F70B
:1035900000FD19C001E010E020E030E0082E04C07A
:1035A000000F111F221F331F0A94D2F7402B512BFB
:1035B000622B732B40937F065093800660938106A5
:1035C0007093820605C0019680329105B9F68FEF9F
:1035D0001F910F910895E091B40AF091B50A6585A5
:1035E0007685878590890895CF92DF92EF92FF923A
:1035F0000F931F93CF93DF93C12CD12C7601C394EB
:10360000082E04C0CC0CDD1CEE1CFF1C0A94D2F763
:1036100040917F06509180066091810670918206EC
:103620004C215D216E217F21452B462B472B09F430
:1036300060C0082F0E948616EBEFF9E0B701A601E3
:10364000409550956095709513E0DF0111978C912E
:103650008F3F39F184819581A681B7818C159D05B5
:10366000AE05BF0551F410861186128613869F01A0
:1036700022503109E9011882108384239523A6235F
:10368000B72384839583A683B78380859185A2859C
:10369000B38584239523A623B72380879187A287A8
:1036A000B387BB96DAE0E73AFD0779F68EEF9FEF36
:1036B000AFEFBFEF04C0880F991FAA1FBB1F0A9569
:1036C000D2F740917F0650918006609181067091FB
:1036D000820684239523A623B72380937F069093A5
:1036E0008006A0938106B09382060E94881681E02E
:1036F00001C08FEFDF91CF911F910F91FF90EF905D
:10370000DF90CF9008950F931F9341E050E060E069
:1037100070E08A019B0104C0000F111F221F331F9C
:103720008A95D2F7D901C801E091B40AF091B50A9F
:1037300045855685678570890423152326233723FD
:10374000012B022B032BD1F080959095A095B0957D
:10375000482359236A237B23458756876787708BC5
:10376000418952896389748984239523A623B723C9
:10377000818B928BA38BB48B81E001C08FEF1F9163
:103780000F910895282F40917F06509180066091F7
:10379000810670918206082E04C07695679557952C
:1037A00047950A94D2F740FF1DC0E091B40AF0910A
:1037B000B50A81E090E0A0E0B0E004C0880F991F56
:1037C000AA1FBB1F2A95D2F7458556856785708944
:1037D000842B952BA62BB72B85879687A787B08B35
:1037E00081E008958FEF0895CF92DF92EF92FF92DC
:1037F000CF93C12CD12C7601C39404C0CC0CDD1C1A
:10380000EE1CFF1C8A95D2F780917F06909180066E
:10381000A0918106B09182068C219D21AE21BF210D
:10382000892B8A2B8B2B11F481E044C00E948616D1
:10383000E9EFF9E0ABEFB9E0C0E083E090819130CF
:10384000B9F442855385648575854C215D216E21CF
:103850007F21452B462B472B59F08C9316861786D4
:10386000108A118A1082C286D386E486F586C1E06A
:1038700090819230A1F442855385648575854C15FD
:103880005D056E057F0559F48C9316861786108AA0
:10389000118A10821286138614861586C1E0BB96A3
:1038A0009B969AE0E53AF90749F60E948816C111FD
:1038B00005C082E00E9450188FEF01C081E0CF91D7
:1038C000FF90EF90DF90CF9008950F931F93E091BA
:1038D000B40AF091B50A0585168527853089062337
:1038E000172328233923011511052105310511F16D
:1038F000DC01CB01818B928BA38BB48B21E02783DE
:103900000090A40A04C0B695A795979587950A9448
:10391000D2F780FF03C00E941D2004C080E090E029
:103920000E94EE1FE091B40AF091B50A0189128954
:1039300023893489C901B8011F910F91089580E04E
:1039400090E0089521E0805A9A4009F420E0822F07
:10395000819508950E94A21C8F3F11F481E003C05D
:10396000813029F482E00E9450188FEF0895992742
:1039700087FD9095FC01EE0FFF1F8E0F9F1FFC012E
:10398000E056F54F82810895EF92FF920F931F93B7
:10399000CF93DF931F92CDB7DEB70E94A21C8F3F5B
:1039A00011F481E003C0813029F482E00E945018B4
:1039B0008FEF41C089830E9486168981E82EFF24FB
:1039C000E7FCF0948701000F111FF801EE0DFF1DB9
:1039D000E056F54F9281911116C0E091B40AF09132
:1039E000B50A978192609783992787FD9095A92FB3
:1039F000B92F818B928BA38BB48B0E94881680E0A9
:103A000090E00E94EE1F0E0D1F1DD801A056B54F6D
:103A100012968C911297815012968C931297E09186
:103A2000B40AF091B50A11968C91838781E0848362
:103A30000E94881681E00F90DF91CF911F910F9126
:103A4000FF90EF9008950F931F93CF93DF931F92F2
:103A5000CDB7DEB70E94A21C8F3F11F481E003C0F6
:103A6000813029F482E00E9450188FEF44C0482F23
:103A7000552747FD50959A01220F331F240F351FFC
:103A800089010056154FF80122819081291794F57C
:103A900089830E948616F80192819F5F9283E0914C
:103AA000B40AF091B50A1482E9EFF9E08981992707
:103AB00087FD9095A92FB92F23E03081323099F4FA
:103AC0004285538564857585481759076A077B07C2
:103AD00051F4228316861786108A118A1082128664
:103AE000138614861586BB963AE0E53AF30729F764
:103AF0000E94881681E00F90DF91CF911F910F9166
:103B000008950E94A21C8F3F11F481E003C0813010
:103B100029F482E00E9450188FEF0895992787FDBD
:103B20009095FC01EE0FFF1F8E0F9F1FFC01E056CA
:103B3000F54F8FEF8083828381838091B30A815018
:103B40008093B30A81E00895E091A90AF091AA0A4E
:103B500080810895E091A90AF091AA0A309721F096
:103B60000380F481E02DFACF0895AF92BF92CF92F7
:103B7000DF92EF92FF920F931F93CF93DF93E09129
:103B8000F009F091F109309709F494C00091A90A65
:103B90001091AA0A0115110509F44CC0D8014BE295
:103BA000582F5403900111242E50364F79019AE07A
:103BB000E90EF11C6901C4E0CC0ED11C5901DBE017
:103BC000AD0EB11C2C9130E0429FB001439F700DAF
:103BD00011246E50764FEB019C81992329F05B856F
:103BE000E7019881591740F1E6019881992369F01E
:103BF000429FB001439F700D11246E50764FEB0130
:103C00005A85E50198815917B8F0429FB001439F4A
:103C1000700D11249B012E50364FE9012A85E701D2
:103C20009881291748F013960D90BC91A02D1097FC
:103C300049F602C0A0E0B0E08083C381D481D09374
:103C4000F109C093F009A017B107B1F4109749F03A
:103C5000B483A383128211821296FC93EE93119780
:103C600006C01482138212821182FA83E983F093D0
:103C7000AA0AE093A90A1EC0AC17BD0779F01196F5
:103C80008D919C91129792838183B483A383119623
:103C9000CD91DC911297FC83EB8308C014821382D0
:103CA00011968D919C911297928381831296FC9329
:103CB000EE931197DF91CF911F910F91FF90EF90AD
:103CC000DF90CF90BF90AF900895CF93DF93E091B6
:103CD000A90AF091AA0A309709F444C0992787FDF0
:103CE0009095208130E02817390781F4A381B481B1
:103CF000B093AA0AA093A90A12961C921E92119739
:103D000018C00380F481E02D309761F1208130E00C
:103D100028173907B1F7C181D281838194819C83AF
:103D20008B83A381B481109721F01296DC93CE93FC
:103D30001197A091F009B091F109109739F4F0931F
:103D4000F109E093F009148213820AC0B483A383BB
:103D50001296FC93EE931197F093F109E093F0091A
:103D600012821182DF91CF910895EF92FF920F930B
:103D70001F93CF93DF93EC014B815C8169817A8142
:103D80008D819E810E94712B2F81222371F04B81A6
:103D90005C81E12CF12C00E010E020E030E0BC017F
:103DA000CE010E9495171F820CC0E8812BE2E2022F
:103DB000F0011124EE50F64F21852330B9F49183A0
:103DC0008083E8818BE2E802F0011124EE50F64F87
:103DD00085899689A789B08D892B8A2B8B2B41F4F5
:103DE00082E0818788810E94B51D02C08FEF01C0EB
:103DF00081E0DF91CF911F910F91FF90EF90089597
:103E00001F93CF93DF93CDB7DEB728970FB6F89403
:103E1000DEBF0FBECDBF29833A834B835C836D83A6
:103E20007E838F8398870E9486160E949B28182F76
:103E3000CE0101960E9412236330710598F0E09143
:103E4000B40AF091B50A212F30E0620F731FCB0145
:103E5000A0E0B0E0858B968BA78BB08F0E94881670
:103E600081E001C08FEF28960FB6F894DEBF0FBE39
:103E7000CDBFDF91CF911F9108950E94442BE09117
:103E8000B40AF091B50A85818111F7CF0895CF93D7
:103E90000E94721A0E948616E091B40AF091B50A47
:103EA00081E090E092A781A785830E949B28C82F7C
:103EB000883F80F40E9435282C2F30E02F5F3F4F41
:103EC00090E02817390734F482E08C0F8093710753
:103ED0000E9439280E9488160E943D1F81E0CF91E0
:103EE0000895E091B40AF091B50A80850E94651E9C
:103EF000E091B40AF091B50A84E081870E94471FDF
:103F000081E00895CF93DF93EC010E94721A20970D
:103F100011F4C1E0D0E00E948616E091B40AF0915D
:103F2000B50A81E08583D2A7C1A70E949B28C82F2C
:103F3000883F80F40E9435282C2F30E02F5F3F4FC0
:103F400090E02817390734F482E08C0F80937107D2
:103F50000E9439280E9488160E943D1F81E0DF914F
:103F6000CF910895EF92FF920F931F93CF938C01FF
:103F70000E948616E091B40AF091B50A81E085832B
:103F80000E949B28C82FE091B40AF091B50AE82E50
:103F9000F12CC701800F911FA0E0B0E0858B968BBC
:103FA000A78BB08FC83F78F40E9435289FEFE91A9D
:103FB000F90A90E0E816F90634F482E08C0F809359
:103FC00071070E9439280E9488160E943D1F81E0D7
:103FD000CF911F910F91FF90EF900895CF93DF93B2
:103FE000EC010E948616E091B40AF091B50A21E036
:103FF0002583CE01A0E0B0E0858B968BA78BB08F98
:104000000E949B28C82F883F80F40E9435282C2FBF
:1040100030E02F5F3F4F90E02817390734F482E0FB
:104020008C0F809371070E9439280E9488160E9485
:104030003D1F81E0DF91CF910895CF930E948616B6
:10404000E091B40AF091B50A81E0858386830E94ED
:104050009B28C82F883F80F40E9435282C2F30E001
:104060002F5F3F4F90E02817390734F482E08C0F20
:10407000809371070E9439280E9488160E943D1F74
:1040800081E0CF9108951F93CF93DF93CDB7DEB733
:1040900028970FB6F894DEBF0FBECDBF29833A83B1
:1040A0004B835C836D837E838F8398870E94721A13
:1040B0000E948616E091B40AF091B50A81E08583EA
:1040C00081E090E092A781A70E949B28182FCE0143
:1040D00001960E941223E091B40AF091B50ADC0126
:1040E000CB01810F911DA11DB11D858B968BA78BD7
:1040F000B08F183F80F40E943528212F30E02F5FC9
:104100003F4F90E02817390734F482E0810F809305
:1041100071070E9439280E9488160E943D1F81E085
:1041200028960FB6F894DEBF0FBECDBFDF91CF91BA
:104130001F9108958F929F92AF92BF92CF92DF927C
:10414000EF92FF920F931F93CF93DF93CDB7DEB71C
:1041500060970FB6F894DEBF0FBECDBF29873A87B0
:104160004B875C876D877E878F87988BCE01019602
:104170000E94F62089809A80AB80BC80CD80DE8052
:10418000EF80F88409851A852B853C854D855E85F1
:104190006F857889CE0109960E9453218F3F61F087
:1041A00029853A854B855C856D857E858F859889C7
:1041B0000E94432081E001C08FEF60960FB6F89413
:1041C000DEBF0FBECDBFDF91CF911F910F91FF904A
:1041D000EF90DF90CF90BF90AF909F908F90089519
:1041E000E091B40AF091B50A808508950F931F936A
:1041F000CF93DF93EC011C821D821E821F8280916F
:10420000AB0A9091AC0AA091AD0AB091AE0A888336
:104210009983AA83BB838091AF0A9091B00AA09141
:10422000B10AB091B20A8C839D83AE83BF830E9492
:104230009B28A82FB0E023EB36EE4EE050E00E9422
:10424000642D0C811D812E813F81DC01CB01800F0B
:10425000911FA21FB31F8C839D83AE83BF838C816C
:104260009D81AE81BF8181152AEC92072AE9A207C0
:104270002BE3B20798F09A5CAA49BB438C839D83D9
:10428000AE83BF8388819981AA81BB810196A11DDC
:10429000B11D88839983AA83BB83E1CFDF91CF913E
:1042A0001F910F9108958F929F92AF92BF92CF92DC
:1042B000DF92EF92FF920F931F93CF93DF93CDB7CF
:1042C000DEB760970FB6F894DEBF0FBECDBFFC011E
:1042D00009831A832B833C834D835E836F837887A6
:1042E00089869A86AB86BC86CD86DE86EF86F88A7E
:1042F00009811A812B813C814D815E816F81788596
:10430000C984DA84EB84FC848D859E85AF85B88969
:104310000C151D052E053F05F0F1C016D106E2066D
:10432000F30691F4481759076A077B07A0F1481B69
:10433000590B6A0B7B0B448355836683778310820A
:1043400011821282138225C0481759076A077B071A
:1043500080F401501109210931090C191D092E0998
:104360003F09008311832283338356536546744C7F
:1043700008C00C191D092E093F09008311832283EF
:104380003383481B590B6A0B7B0B4483558366832D
:10439000778381E001C08FEF60960FB6F894DEBF9F
:1043A0000FBECDBFDF91CF911F910F91FF90EF9086
:1043B000DF90CF90BF90AF909F908F900895FC01B9
:1043C000448155816681778141158AEC58078AE9D5
:1043D00068078BE3780798F05A5C6A497B4344830B
:1043E00055836683778380819181A281B381019611
:1043F000A11DB11D80839183A283B383E1CF089572
:104400008F929F92AF92BF92CF92DF92EF92FF92E4
:104410000F931F93CF93DF93CDB7DEB760970FB69F
:10442000F894DEBF0FBECDBF09831A832B833C8374
:104430004D835E836F83788789869A86AB86BC8638
:10444000CD86DE86EF86F88A09851A852B853C8520
:1044500049815A816B817C81400F511F621F731FFC
:10446000FC0140835183628373830D851E852F85F4
:1044700038894D815E816F817885400F511F621FA1
:10448000731F44835583668377830E94DF2181E015
:1044900060960FB6F894DEBF0FBECDBFDF91CF910F
:1044A0001F910F91FF90EF90DF90CF90BF90AF9052
:1044B0009F908F900895EBEAFAE060837183828386
:1044C0009383248335834683578308952F923F92A5
:1044D0004F925F926F927F928F929F92AF92BF9214
:1044E000CF92DF92EF92FF920F931F93FC01C08057
:1044F000D180E280F380C114D104E104F104E1F140
:1045000084819581A681B78122E4C216D104E10499
:10451000F104F0F51C012D01612C712C4301E0E048
:104520008E2F90E0A0E0B0E08C159D05AE05BF0594
:1045300088F49101A201B301C40136534546544C9D
:104540006F4F7F4F8F4F9F4F19012A013B014C0145
:10455000EF5FE6CF83EBA82E96EEB92E2EE0C22EAB
:10456000D12CE12CF12C00E010E09101A201B3016B
:10457000C4010E94CB2D0AC0648175818681978118
:1045800023EB36EE4EE050E00E94A72DC90102C099
:1045900080E090E01F910F91FF90EF90DF90CF901F
:1045A000BF90AF909F908F907F906F905F904F9053
:1045B0003F902F900895CF92DF92EF92FF92CF938A
:1045C000DF93CDB7DEB728970FB6F894DEBF0FBEE6
:1045D000CDBF6B017C012AE0F694E794D794C79491
:1045E0002A95D1F7C982DA82EB82FC829B01AC0169
:1045F00033704427552763EB76EE8EE090E00E94FF
:104600006F2D2C2D3A814B815C8128960FB6F89442
:10461000DEBF0FBECDBFDF91CF91FF90EF90DF9057
:10462000CF9008952F923F924F925F926F927F9218
:104630008F929F92AF92BF92CF92DF92EF92FF92B2
:104640000F931F93FC01C080D180E280F380C114DE
:10465000D104E104F104B9F184819581A681B78187
:104660001C012D01612C712C4301E0E08E2F90E0A4
:10467000A0E0B0E08C159D05AE05BF0588F4910162
:10468000A201B301C40136534546544C6F4F7F4FCE
:104690008F4F9F4F19012A013B014C01EF5FE6CF7D
:1046A00083EBA82E96EEB92E2EE0C22ED12CE12C53
:1046B000F12C00E010E09101A201B301C4010E94BD
:1046C000CB2DCA010BC0648175818681978123EB54
:1046D00036EE4EE050E00E94A72DCA01B9011F91AD
:1046E0000F91FF90EF90DF90CF90BF90AF909F9091
:1046F0008F907F906F905F904F903F902F90089594
:10470000C2E0D1E00E94721A0E943528843028F459
:10471000D093A80A0E94442B08C08AE090E00E942F
:104720004D27C093A80A0E94382B80919C0885359C
:1047300019F088E00E94F31880917E41853511F3CD
:1047400088E00E94F318DECF2F923F924F925F9243
:104750006F927F928F929F92AF92BF92CF92DF9291
:10476000EF92FF920F931F93CF93DF9300D01F928E
:10477000CDB7DEB70E9469270E9488160E9487275E
:104780000E948F271C018AEF0E943928A09171078F
:10479000B0E023EB36EE4EE050E00E94642D009135
:1047A000AF0A1091B00A2091B10A3091B20A6B01A0
:1047B0007C01C00ED11EE21EF31EC701B60123EB21
:1047C00036EE4EE050E00E94A72D26013701461A32
:1047D000570A680A790AD301C2010091AB0A109105
:1047E000AC0A2091AD0A3091AE0A43EB842E46EE1E
:1047F000942E4EE0A42EB12C680179014FEFC41A1B
:10480000D40AE40AF40A81155AEC95075AE9A50777
:104810005BE3B507C8F02C013D012AEC521A2AE9E6
:10482000620A2BE3720AC301B201A50194010E943E
:10483000A72DA3019201261B370B480B590BDA0158
:10484000C90197018601D8CF8093AF0A9093B00A2F
:10485000A093B10AB093B20A0093AB0A1093AC0ACA
:104860002093AD0A3093AE0AE091B40AF091B50AF4
:104870008581882339F18185843021F187818230D7
:1048800029F0882341F08681811102C085E001C0B2
:1048900083E0818714C083E081871782168285892F
:1048A0009689A789B08D892B8A2B8B2B41F4818D1A
:1048B000928DA38DB48D858B968BA78BB08F8085C1
:1048C0000E94651EE091B40AF091B50A85A196A1F7
:1048D000A7A1B0A5892B8A2B8B2B09F444C0208576
:1048E000222309F440C081858430E9F1858D968DBD
:1048F000A78DB0A14091710750E060E070E084178F
:104900009507A607B70768F4622F82E00E94FE1899
:10491000E091B40AF091B50A158E168E178E10A28A
:1049200008C0841B950BA60BB70B858F968FA78F9E
:10493000B0A3E091B40AF091B50A1085858D968DEB
:10494000A78DB0A1892B8A2B8B2B69F4612F83E073
:104950000E94FE18E091B40AF091B50A83E08187C5
:10496000812F0E94651E8BEF99E09B838A8300E66E
:104970001AEE19822AEFC22ED12CE12CF12C812CB7
:10498000912C54018394EA81FB81319780818F3F80
:1049900009F404C1EA81FB8134971082882309F469
:1049A00067C0EA81FB818081843009F461C044845E
:1049B0005584668477846091710770E080E090E0B0
:1049C000461657066806790648F0461A570A680AD6
:1049D000790A448655866686778606C0EA81FB8119
:1049E0001486158616861786EA81FB8140885188D1
:1049F00062887388461657066806790648F0461A94
:104A0000570A680A790A408A518A628A738A1EC0E4
:104A1000EA81FB81208D318D428D538D62177307A2
:104A20008407950758F429013A01461A570A680A7B
:104A3000790A408A518A628A738A08C00E94A72D27
:104A4000EA81FB81608B718B828B938BEA81FB8186
:104A500080899189A289B389892B8A2B8B2B41F478
:104A6000808D918DA28DB38D808B918BA28BB38B1A
:104A7000EA81FB818081833009F090C0848595852F
:104A8000A685B785892B8A2B8B2B09F074C0DF0193
:104A900012978C919F01235031098823A9F0F901C5
:104AA0008081882389F0B501A4010090A40A04C084
:104AB000440F551F661F771F0A94D2F7EA81FB81C6
:104AC00040875187628773871C92F9011082EA81BF
:104AD000FB81A0A1B1A1A130B10519F5848D958DFF
:104AE000A68DB78D848B958BA68BB78B92E0492EC4
:104AF000408280899189A289B38984879587A68716
:104B0000B787808D918DA28DB38D892B8A2B8B2BAE
:104B100021F4C486D586E686F78689810E94B51D74
:104B20002AC0EA81FB81448D558D668D778D448B3B
:104B3000558B668B778B408C518C628C738C119764
:104B4000A30192010E94642D6487758786879787E9
:104B5000608B718B828B938B45284628472821F4E4
:104B6000C486D586E686F78644244394512CEA8190
:104B7000FB8151A240A2EA81FB8184859585A685AF
:104B8000B7850097A105B10549F0A80160E070E084
:104B900084179507A607B70708F48C01F981FF5F12
:104BA000F9832A813B81255D3F4F3B832A83F43083
:104BB00009F0E9CE0E94A41DF82E3BE28302F00129
:104BC0001124EE50F64F22852093B60AF093A60AE0
:104BD000E093A50A8823F9F085A196A1A7A1B0A525
:104BE000892B8A2B8B2B99F0858D968DA78DB0A163
:104BF0008A3F9105A105B10550F4A80160E070E07D
:104C000084179507A607B707E8F48C011BC00B3F74
:104C10001105C0F012C004301105A0F0C8010397BF
:104C20008A3F910538F48C018230910558F402E0F6
:104C300010E008C00D3F110519F00AEF10E002C0A6
:104C400007EF10E02093A70AF093B50AE093B40AA7
:104C5000009371070E949B28282F30E02F5F3F4F61
:104C60002017310740F00E949B28082F10E00E5FAC
:104C70001F4F00937107F1101092A80A802F0E9415
:104C800039286CED75E0C1010E94A1270E94BE2B5E
:104C90000F900F900F90DF91CF911F910F91FF9088
:104CA000EF90DF90CF90BF90AF909F908F907F90CC
:104CB0006F905F904F903F902F900C94C92B9C0168
:104CC0009091D10A191674F084E09802F001112431
:104CD000EE52F54F6083338322839F5F9093D10A16
:104CE00081E008958FEF08950F931F93CF93DF9383
:104CF0004091D10A552747FD5095C0E090E02C2FF8
:104D000030E0241735078CF58901000F111F000FC3
:104D1000111FD801AE52B54FEC91FF27E7FDF0957A
:104D2000E817F90701F5D62FF901EA52F54F80810E
:104D300081110BC081E080831296ED91FC91139755
:104D400020E040E050E080E00995F801EE52F54F98
:104D50000280F381E02D20E040E050E06D2F81E003
:104D600009958C2F03C0CF5FCACF8FEFDF91CF9112
:104D70001F910F91089590E02091D10A332727FDCC
:104D800030952817390784F0880F991F880F991FCD
:104D9000FC01EE52F54F0280F381E02D20E040E06F
:104DA00050E060E082E0099481E00E9450188FEFAB
:104DB0000895242F90E0E091D10AFF27E7FDF095B8
:104DC000E817F90774F0880F991F880F991FFC01E5
:104DD000EE52F54F0280F381E02DAB0160E086E0FA
:104DE000099481E00E9450188FEF0895242F90E0DD
:104DF000E091D10AFF27E7FDF095E817F90774F075
:104E0000880F991F880F991FFC01EE52F54F028001
:104E1000F381E02DAB0160E085E0099481E00E9420
:104E200050188FEF0895242F90E0E091D10AFF27CA
:104E3000E7FDF095E817F90774F0880F991F880FC0
:104E4000991FFC01EE52F54F0280F381E02D40E006
:104E500050E084E0099481E00E9450188FEF08959B
:104E600090E02091D10A332727FD30952817390784
:104E70007CF0880F991F880F991FFC01EE52F54FA7
:104E80000280F381E02D20E040E050E083E00994CF
:104E900081E00E9450188FEF08950000000000008C
:104EA0000000000000000000000000000000000002
:104EB0000000019791F7089510922101089589E06B
:104EC000809321018DE89CE3909329018093280130
:104ED000089510922501109224010895CF93DF9335
:104EE00000D0CDB7DEB780912401909125019A833F
:104EF000898389819A810F900F90DF91CF910895D6
:104F000010928100089581E080938100089583B517
:104F1000816083BD10928500109284000895CF9324
:104F2000DF9300D0CDB7DEB78091840090918500EB
:104F30009A83898389819A810F900F90DF91CF9115
:104F40000895CF92DF92EF92FF92CF93DF93EC011F
:104F5000CC0FDD1FC9378FEFD80710F0C0E0D0E0CD
:104F60006B01E12CF12CCC0EDD1EE11CF11C81E06B
:104F7000C816D104E806F10440F081E0E81AF1080F
:104F80000E948F27C817D907D8F30E948F278C1546
:104F90009D05D8F3DF91CF91FF90EF90DF90CF90F8
:104FA00008951092B100E0E7F0E080818D7F80836A
:104FB00080818E7F808308958093B2000895E0E71A
:104FC000F0E080818360808383E08093B100089566
:104FD00083B5826083BD1092B20010924B0610928E
:104FE00071070895CF93DF938EEF8093710780E26E
:104FF0008093B600809171078093B30083E087BBF4
:1050000092E09093B0008093B10093B5926093BD0D
:1050100087BB84BD83B5826083BD1092800081E030
:1050200080938100109285001092840083B5826085
:1050300083BD83B5816083BD10922001C4E2D1E0BD
:105040001982188283B5826083BD83B5816083BD78
:105050000E94E827198218820E94DF270E945F279A
:1050600010924B06DF91CF9108958091B3008F5F2E
:10507000089581508093B3000895811102C0109269
:1050800071008FEF0895811106C010929500109263
:10509000940081E008958FEF0895811105C08091FB
:1050A000940090919500089580E090E0089581111A
:1050B00005C082E08093710081E008958FEF08952C
:1050C000811135C0CB010197059710F460937007EB
:1050D0001092900088E08093910050939900409343
:1050E00098003093490420934804809170078130E0
:1050F00021F480919100816011C0823021F480916F
:10510000910082600BC0833021F480919100836014
:1051100005C0843031F480919100846080939100C7
:1051200008C0853031F4809191008560F7CF8FEF12
:10513000089581E008958091B20008951F920F9222
:105140000FB60F92112460E08AE00E94FE18FFCF94
:105150000F920FB60F921F922F923F924F925F9233
:105160006F927F928F929F92AF92BF92CF92DF9277
:10517000EF92FF920F931F932F933F934F935F9361
:105180006F937F938F939F93AF93BF93CF93DF934F
:10519000EF93FF93A091B40AB091B50A0DB60D92AA
:1051A0000EB60D921F92A0916D07B0916E071E90E2
:1051B000BEBFADBF08951F920F920FB60F9211247C
:1051C0000BB60F922F933F934F935F936F937F9301
:1051D0008F939F93AF93BF93EF93FF93E091480416
:1051E000F0914904309711F0099504C060E08AE01D
:1051F0000E94FE18FF91EF91BF91AF919F918F9107
:105200007F916F915F914F913F912F910F900BBEC6
:105210000F900FBE0F901F9018951F920F920FB610
:105220000F9211240F900FBE0F901F90189504B687
:1052300003FE02C080E101C080E004B602FE06C0A9
:1052400094B79B7F94BF04B600FE846004B601FE51
:1052500005C094B79D7F94BF8260089581110CC0F2
:1052600004B600FE04C094B79E7F94BF01C081E0E5
:105270009091B000911181E00895811102C0E89AE7
:1052800039C0813011F4E99A0895823011F4EA9A14
:1052900031C0833021F480916B00816029C084305B
:1052A00021F480916B00826023C0853021F48091CD
:1052B0006B0084601DC0863021F480916B00886093
:1052C00017C0873021F480916B00806111C0883055
:1052D00021F480916B0080620BC0893021F48091B1
:1052E0006B00806405C08A3039F480916B0080685F
:1052F00080936B0081E008958FEF0895811102C0C3
:10530000E89839C0813011F4E9980895823011F499
:10531000E99831C0833021F480916B008E7F29C0E1
:10532000843021F480916B008D7F23C0853021F47F
:1053300080916B008B7F1DC0863021F480916B00C3
:10534000877F17C0873021F480916B008F7E11C05A
:10535000883021F480916B008F7D0BC0893021F45F
:1053600080916B008F7B05C08A3039F480916B008F
:105370008F7780936B0081E008958FEF08958111FE
:1053800026C05093DA0A4093D90A611104C0809173
:1053900069008C7F3DC0613049F4809169008D7F48
:1053A0008093690080916900816032C0623049F465
:1053B00080916900826080936900809169008E7F8E
:1053C00027C0633039F580916900836021C0813046
:1053D00049F55093D80A4093D70A611104C08091CF
:1053E0006900837F15C0613049F480916900877F2F
:1053F000809369008091690084600AC0623061F422
:1054000080916900886080936900809169008B7F3A
:105410008093690081E008956330E1F7809169002D
:105420008C60F6CF823031F55093DC0A4093DB0A72
:10543000611104C0809169008F7CEACF613049F42A
:10544000809169008F7D80936900809169008061FF
:10545000DFCF623049F480916900806280936900F7
:10546000809169008F7ED4CF6330A1F6809169006E
:105470008063CECF8350883050F480916800816083
:10548000809368005093DE0A4093DD0AC3CF8FEF0C
:1054900008951F920F920FB60F9211240BB60F9220
:1054A0002F933F934F935F936F937F938F939F932C
:1054B000AF93BF93EF93FF93E091DD0AF091DE0A83
:1054C000309711F0099504C060E08AE00E94FE1850
:1054D000FF91EF91BF91AF919F918F917F916F91CC
:1054E0005F914F913F912F910F900BBE0F900FBE88
:1054F0000F901F9018951F920F920FB60F921124C4
:105500000BB60F922F933F934F935F936F937F93BD
:105510008F939F93AF93BF93EF93FF93E091D90A3B
:10552000F091DA0A309711F0099504C060E08AE042
:105530000E94FE18FF91EF91BF91AF919F918F91C3
:105540007F916F915F914F913F912F910F900BBE83
:105550000F900FBE0F901F9018951F920F920FB6CD
:105560000F9211240BB60F922F933F934F935F939B
:105570006F937F938F939F93AF93BF93EF93FF931B
:10558000E091D70AF091D80A309711F0099504C03C
:1055900060E08AE00E94FE18FF91EF91BF91AF9109
:1055A0009F918F917F916F915F914F913F912F913B
:1055B0000F900BBE0F900FBE0F901F9018951F926B
:1055C0000F920FB60F9211240BB60F922F933F93A9
:1055D0004F935F936F937F938F939F93AF93BF93FB
:1055E000EF93FF93E091DB0AF091DC0A309711F022
:1055F000099504C060E08AE00E94FE18FF91EF91D7
:10560000BF91AF919F918F917F916F915F914F91DA
:105610003F912F910F900BBE0F900FBE0F901F90D8
:1056200018950E948616A89584B7877F84BFE0E608
:10563000F0E080818861808310820C9488160E943B
:105640008616A89584B7877F84BFE0E6F0E0808166
:10565000886180838DE080830C94881604B603FEF5
:1056600002C08FEF089581E00895A89508950895E8
:1056700083B7817F866083BF83B7816083BF88954E
:1056800083B78E7F83BF089583B7817F83BF83B73E
:10569000816083BF889583B78E7F83BF0895FC01A7
:1056A000768365830895EF92FF920F931F93CF93B4
:1056B000DF938C017B01EA014032510518F481E14E
:1056C0000E94F3182197CE0DDF1DF801D283C1830C
:1056D000F482E382DF91CF911F910F91FF90EF90C1
:1056E000089525E5FA012083FB01329790833196D6
:1056F0008083339711821082329711821082329701
:105700001182108232971182108232971182108298
:105710003297118210823297118210823297118251
:105720001082329711821082329711821082329742
:105730001182108232971182108232971182108268
:105740003297118210823297118210823297118221
:105750001082CB018497FC0111821082089585E5A7
:1057600080937E41EEEFF1E4F0936E07E0936D07D6
:105770008BE498E190838093FF4108958BE498E156
:105780009093FE418093FF4108950E94F2270C946C
:105790008816A091A50AB091A60ACD91CDBFDD9142
:1057A000DEBFFF91EF91DF91CF91BF91AF919F91BC
:1057B0008F917F916F915F914F913F912F911F91A9
:1057C0000F91FF90EF90DF90CF90BF90AF909F90A0
:1057D0008F907F906F905F904F903F902F901F9091
:1057E0000F900FBE0F9018950E94311280E190E04B
:1057F0000E94A7150E948D1680E090E00E943E1541
:1058000081E090E00E943E1582E090E00E943E150B
:1058100083E090E00E943E1520E030E0A90160E0C6
:1058200070E0CB010E945B220E94900B0E94F50762
:105830000E94541780E090E008956F927F928F92BB
:105840009F92AF92BF92CF92DF92EF92FF920F930F
:105850001F93CF93DF93CDB7DEB72C970FB6F89495
:10586000DEBF0FBECDBF6C015B017A01FC01178268
:105870001682838181FF0EC1CE0101964C01F60193
:105880000381F50103FD159103FF11915F011123C0
:1058900009F4FCC0153249F403FD159103FF119181
:1058A0005F01153211F020E01BC0B601812F90E09E
:1058B0000E94302F37017301E2CF112309F4E6C0B3
:1058C000612F70E089E497E02C870E94B52E2C852B
:1058D000892B49F0F50103FD159103FF11915F013B
:1058E00027FFEBCF09C0133229F01C3609F0D5C0D1
:1058F0002068F0CF20E1EECF022F112309F4C6C0BB
:10590000612F70E082E497E02C870E94B52E2C85F1
:10591000892B41F03701F4E06F0E711CB6018FE363
:1059200090E011C0133639F0133781F0133519F5B3
:10593000022F01600BC0370182E0680E711CB601B6
:10594000F701808191810E94302FB5CF3701F2E0BD
:105950006F0E711CF701E080F180F70100FD859169
:1059600000FF81917F01882309F4A5CFB60190E063
:105970000E94302FF2CF143611F0193629F5370175
:1059800027FF09C0F4E06F0E711CF701608171817F
:10599000828193810AC0F2E06F0E711CF701608171
:1059A0007181882777FD8095982F022F0F7E97FFB2
:1059B00008C090958095709561957F4F8F4F9F4F50
:1059C00000642AE030E033C0103799F040F4183515
:1059D000B1F01F3609F05AC028E030E014C0153786
:1059E00019F0183741F052C0022F0F7E2AE030E044
:1059F0000AC0022F0061046220E130E004C0022FDF
:105A0000046020E132E0370107FF09C0F4E06F0EC7
:105A1000711CF701608171818281938108C0F2E07D
:105A20006F0E711CF7016081718180E090E0A4012C
:105A30000E94E22F182F181906FF05C0B6018DE24B
:105A400090E00E94302F04FF15C0FE01E10FF11D10
:105A50008081803379F0B60180E390E00E94302F9E
:105A600002FF08C00072802F90E0B601885A9F4F55
:105A70000E94302F1150F401E10FF11D8081B60119
:105A800090E00E94302F1111F5CF15CFF6018681DD
:105A9000978105C08FEF9FEF02C0022F31CF2C9668
:105AA0000FB6F894DEBF0FBECDBFDF91CF911F912F
:105AB0000F91FF90EF90DF90CF90BF90AF909F90AD
:105AC0008F907F906F9008950E942E2EA59F900D2D
:105AD000B49F900DA49F800D911D11240895DB01AA
