:100000000C94B1020C94DC250C940E260C94402622
:100010000C94D0020C94D0020C94D0020C94D00218
:100020000C94D0020C94AA250C94D0020C94D0020B
:100030000C94D0020C9409240C94D0020C94092442
:100040000C94D0020C94D0020C94D0020C94D002E8
:100050000C94D0020C94D0020C94D0020C94D002D8
:100060000C94D0020C948E0D0C94D0020C94D002FF
:100070000C94D0020C94D0020C94D0020C94D002B8
:100080000C943C240C94D0020C94D0020C94D0021A
:100090000C94D0020C94D0020C94D0020C94D00298
:1000A0000C94D0020C94D0020C94D0020C94D00288
:1000B0000C94D0020C94D0020C94D0020C94D00278
:1000C0000C94D0020C94D0020C94D0020C94D00268
:1000D0000C94D0020C94D0020C94D0020C94D00258
:1000E0000C94D0020C94A00B0C94910B0C94610B0B
:1000F0000C945F0C0C94520B0C94430B0C94310B2E
:100100000C94220B0C94D0020C94D0020C94D002CC
:100110000C94D0020C94D0020C94D0020C94D00217
:100120006D0E7A0E870E940EA10EAE0EBB0EDE0E75
:10013000EC0EFA0E080F160F240F240F470F490F6D
:100140004B0F4D0F4F0F510F530F720F950FB90FEC
:10015000DC0FFF0F221045107F108C109910A61095
:10016000B310C010CD10E610F31000110D111A11CC
:1001700027113411CC14D214D514D814DB14DE1486
:10018000E414E114E714EA14ED14F614F914FC1461
:10019000FF14F314C914CF1402150515F014C61476
:1001A0009C159F15AA15AF15B615BF15C215C71515
:1001B000CE15D7155478207461736B2073656E74F7
:1001C0002064617461210D0A00545820646F6E65CB
:1001D000207369676E616C206572726F720D0A0020
:1001E0005478207061636B657420656E71756575F8
:1001F00065640D0A004552524F522073657474694C
:100200006E6720626D616320726174650D0A00463D
:1002100061696C656420746F2072656769737465C9
:1002200072207369676E616C0D0A00424D41432074
:1002300054583A20576F6B65207570206F6E207789
:10024000726F6E67207369676E616C0D0A00424DB4
:1002500041432054583A204572726F722063616C9A
:100260006C696E67206576656E7420776169740DC0
:100270000A00424D4143204552524F523A20637288
:10028000656174696E6720656E61626C6520736973
:10029000676E616C206661696C65640D0A00424D91
:1002A0004143204552524F523A206372656174694E
:1002B0006E67207478207369676E616C206661696F
:1002C0006C65640D0A00424D4143204552524F5225
:1002D0003A206372656174696E6720727820736971
:1002E000676E616C206661696C65640D0A007561FA
:1002F000727420727820736967206661696C656426
:100300000D0A00554E4B4F574E0045787465726E7E
:10031000616C2052657365740042726F776E204F76
:10032000757420446574656374004661696C656426
:1003300020746F206372656174652053656D617010
:10034000686F7265004661696C656420746F206334
:100350007265617465205369676E616C004B6572EC
:100360006E656C2066756E6374696F6E206E6F7457
:1003700020696D706C656D656E74656400446576AA
:1003800069636520447269766572204572726F7286
:10039000005761746368646F67205265737461729B
:1003A00074005357205761746368646F6720526507
:1003B00073746172740054696D6572204F76657252
:1003C000666C6F7700556E68616E646C6564204979
:1003D0006E7465727275707420566563746F720006
:1003E0004C6F7720566F6C74616765004578747246
:1003F00061205461736B20737461727465642C2086
:100400006973206E726B5F6366672E68206F6B3F47
:100410000049646C65206F72204B65726E656C20BC
:10042000537461636B204F766572666C6F7700550D
:100430006E6578706563746564205265737461726B
:1004400074004475706C69636174656420546173F1
:100450006B204944005363686564756C6572204D78
:1004600069737365642057616B65757000546173BF
:100470006B20526573657276652056696F6C617486
:1004800065640052657365727665204572726F729D
:1004900020696E205363686564756C657200496EEF
:1004A00076616C696420537461636B20506F696E70
:1004B000746572005461736B20537461636B204FD9
:1004C000766572666C6F7700537461636B20776139
:1004D00073206E6F7420646566696E656420617355
:1004E000206C6172676520656E6F756768210054C6
:1004F00061736B20706572696F6420746F6F206C1C
:10050000617267652E20506572696F64206D757326
:1005100074206265206C657373207468616E203688
:1005200031207365636F6E64732E00293A20002AB0
:100530004E524B204552524F5228000D0A535441FF
:10054000434B2044554D500D0A00454647656667AC
:1005500000202B2D2E303132333435363738396880
:10056000000011241FBECFEFD1E4DEBFCDBF13E0EA
:10057000A0E0B2E0EAE3FCE500E00BBF02C00790B8
:100580000D92A039B107D9F718E0A0E9B3E001C096
:100590001D92A238B107E1F70E9455270C941B2E3B
:1005A0000C94FF230E943F1D1F928F938BE592E0D6
:1005B0009F938F930E94B62B0F900F900F900F90E8
:1005C0000E944B06811103C00E94961BF9CF0E9426
:1005D0008405C82F0E94EF17C12CD12C7601C3943B
:1005E00004C0CC0CDD1CEE1CFF1CCA95D2F7812C7C
:1005F000912C54018394C114D104E104F10419F045
:10060000812C912C5401712C0CE612E0CCEED5E03B
:100610001F927F921F930F93DF93CF930E94002C22
:100620007394FE0101900020E9F73197BF016C5EE1
:1006300075408CEE95E00E946C0580EE91E00E9482
:10064000040EC701B6010E949218DC01CB0188217B
:100650009921AA21BB210F900F900F900F900F901E
:100660000F90892B8A2B8B2B21F089EC91E00E9433
:10067000040E84EB91E00E94040E0E94961BC8CFEA
:10068000CF93682F772767FD7095872F972F0E944C
:10069000602920E030E048EC50E40E94C5280E9428
:1006A0002D29C62F8C2F992787FD90959F93CF9347
:1006B0008EE792E09F938F930E94B62B0F900F903E
:1006C0000F900F9083E090E0C0FF03C00E947C1168
:1006D00002C00E94651182E090E0C1FF03C00E9449
:1006E0007C1102C00E94651181E090E0C2FF03C04E
:1006F0000E947C1102C00E94651180E090E0C3FF5F
:1007000003C0CF910C947C11CF910C946511CF93C1
:10071000DF9300D0CDB7DEB70E943F1D1F928F93AD
:100720008EE892E09F938F930E94B62B8CE00E94FC
:10073000F7040F900F900F900F9064E786E795E015
:100740000E94E9048FE9E82E82E0F82E0E94BF049F
:10075000BE016F5F7F4FCE0102960E94D90589814D
:10076000282F332727FD30953F938F938A811F923F
:100770008F93FF92EF920E94B62B89810E944003D3
:100780000F900F900F900F900F900F9010E08A81B4
:10079000181750F4E12FF0E0EA58FA4F808190E00A
:1007A0000E94CA2B1F5FF3CF87EE92E00E94D02BEE
:1007B0000E94F705CBCF8F929F92AF92BF92CF92BC
:1007C000DF92EF92FF92CF93DF93E0E6F6E087E8C7
:1007D00093E09683858389E695E0928381838AEE10
:1007E00094E094838383D2E0D087C1E0C783C1873C
:1007F000C287C12CD12C7601C394C386D486E586EA
:10080000F6861786108A118A128AC38AD48AE58AE4
:10081000F68A812C95E6992E9DECA92E9DE1B92EA4
:10082000878A908EA18EB28E138E148E158E168EA0
:10083000178E10A211A212A2CF010E94041BE3E89E
:10084000F6E082ED92E09683858387EE94E09283D2
:10085000818388E694E094838383D087C783C187AC
:10086000C287C386D486E586F6861786108A118AE3
:10087000128AC38AD48AE58AF68A878A908EA18EE4
:10088000B28E138E148E158E168E178E10A211A294
:1008900012A2CF010E94041B8EEB92E0DF91CF9158
:1008A000FF90EF90DF90CF90BF90AF909F908F9090
:1008B0000C94D02B0895643021F40E94BB0B81E08E
:1008C00008958FEF08958FEF089580E090E00895E8
:1008D0000E94530881E008950E944D0881E0089528
:1008E0000E94470881E008950E94410881E0089530
:1008F0000E94590881E0089590936B0580936A05E2
:1009000081E008950E94B90B0895603121F40E949E
:10091000BC0B81E008958FEF089581E0089581E098
:100920000895803220F40E94370881E008958FEF07
:100930000895809399030895992787FD90950E94C3
:10094000AF0B81E00895CF93DF931F92CDB7DEB751
:100950008B3180F48093A30389830E94210820E0D7
:1009600030E04FEF5FEF698186EA96E00E947908F8
:1009700081E001C08FEF0F90DF91CF9108958091BA
:10098000A603882311F1809175050E94EF1781E07D
:1009900090E0A0E0B0E0BC01CD010090750504C07E
:1009A000660F771F881F991F0A94D2F70E9492182A
:1009B000DC01CB010090750504C0B695A79597950D
:1009C00087950A94D2F780FF02C081E008958FEFE7
:1009D0000895009751F09093AC068093AB06609316
:1009E000AA0681E08093A60308958FEF08951F93D0
:1009F000CF93DF93182F1092A5038FEF8093980366
:100A0000D1E0D09399031092A8031092A9031092F9
:100A1000AA031092AB0310929A0310929B031092B8
:100A20009C0310929D0380E091EEA5EFB5E08093CA
:100A30009E0390939F03A093A003B093A1030E94F1
:100A4000DF16C82F809375058F3F19F486EC92E06E
:100A500009C00E94DF16C82F809333078F3F69F4C7
:100A60008EE992E00E94040EE0915308F091540840
:100A700060858EE00E942B152AC00E94DF16C82FC9
:100A80008093E9048F3F19F482E792E0EBCF109254
:100A9000A7031092A6031092AC061092AB06109218
:100AA000AA060E94210820E030E04FEF5FEF612F9F
:100AB00086EA96E00E9479081093A30380E090E014
:100AC0000E94AF0BD093A503D093A203C1E08C2F5B
:100AD000DF91CF911F9108952091A703213059F004
:100AE00021E02093A70390936E0580936D0560939A
:100AF0006C0581E008958FEF0895809175050E943F
:100B0000EF17809175050895809133070E94EF17C4
:100B1000809133070895CF92DF92EF92FF92209158
:100B2000A7032130F1F1F62E6C01809133070E946A
:100B3000EF1781E08093A703D0926E05C0926D05F8
:100B4000F0926C0581E090E0A0E0B0E0BC01CD0146
:100B50000090330704C0660F771F881F991F0A94FF
:100B6000D2F70E9492186B017C0161157105810515
:100B7000910521F48EE492E00E94040E0090330768
:100B800004C0F694E794D794C7940A94D2F7C0FCB3
:100B900004C08BE292E00E94040E8091A4038111B4
:100BA00002C08FEF01C081E0FF90EF90DF90CF9007
:100BB00008952091A603222339F0FC011082FB0145
:100BC000108280E090E008952091A906FC01208326
:100BD0008091AE06FB0180838091AB069091AC06BC
:100BE000089581E09091A603911180E0089581E03D
:100BF0008093A60308951092A2030C94FB0781E052
:100C00008093A2030E9421088091E9040C9421188A
:100C1000CF93DF93CDB7DEB728970FB6F894DEBF3A
:100C20000FBECDBF29833A834B835C836D837E8364
:100C30008F83988749815A816B817C818D819E81C8
:100C4000AF81B885411551056105710541F48115E4
:100C50002DE2920721E3A20721E0B20790F0409332
:100C60009A0350939B0360939C0370939D0380931E
:100C70009E0390939F03A093A003B093A10381E0F0
:100C800001C08FEF28960FB6F894DEBF0FBECDBF20
:100C9000DF91CF9108958091A5030895CF930E948D
:100CA000E9080E94490AC82F0E94490AC80F0E94F9
:100CB000490AC80F0E94EF088C2F1C160CF481E023
:100CC000CF9108950E94E908109290031092910329
:100CD000109292031092930380E4682F8093940300
:100CE0008BE4809395038CE4809396031092970392
:100CF00020E03091910340919203509193037BE463
:100D000090E00E94921C0E947B0A8130E9F0809161
:100D1000A8039091A903A091AA03B091AB038F3FC0
:100D20002FEF9207A105B10558F40196A11DB11D41
:100D30008093A8039093A903A093AA03B093AB0355
:100D40000E94EF0880E008951092A6030E94EF0829
:100D500081E008958091A8039091A90308951092CD
:100D6000A8031092A9031092AA031092AB0381E08A
:100D70000895823058F0883008F086E091E020E055
:100D8000990F2F5F2813FCCF892F089581E00895D4
:100D9000EF92FF920F931F93CF93DF93809199036C
:100DA000882309F443C08AE993E00E94B51EEC0150
:100DB0000E94102B6AE070E00E941B2ABC016F5F4A
:100DC0007F4FCE010E94072ACB010E943D1CC1E04B
:100DD0000AE010E00E944E06D82F813039F10E94BF
:100DE000102B7C018C2F0E94B906682F70E0C70180
:100DF0000E941B2A99270E94D11BCF5FC73008F0A1
:100E0000C6E08AE993E00E94B51E7C010E94102B87
:100E1000B8010E941B2ABC016F5F7F4FC7010E946F
:100E2000072ACB010E943D1CDD23A1F210926F0521
:100E30001092700520919A0330919B0388EE93E005
:100E4000289FE001299FD00D389FD00D112460917B
:100E50009E0370919F038091A0039091A10320E4D1
:100E600032E44FE050E00E942F2AC20FD31F0E94AD
:100E7000E908BE018AE695E00E94F5088093A40384
:100E80000E94EF081092A703809133070E94211857
:100E900081E0DF91CF911F910F91FF90EF90089526
:100EA0008091A503811103C00E94961BF9CF809108
:100EB000E9040E94EF178F3F21F48FE092E00E9437
:100EC000040EC12CD12C7601C3940E94210880917C
:100ED000A203882369F18091A603813041F40E9426
:100EE0004E06811108C00E946206813021F4809173
:100EF00075050E9421188091A703813011F40E948A
:100F0000C8060E94EF080E94FB0720919A033091C7
:100F10009B0340919C0350919D0360919E037091AF
:100F20009F038091A0039091A1030E94921CCDCFBA
:100F30008091E9040E94EF17C701B6010090E9040F
:100F400004C0660F771F881F991F0A94D2F70E946A
:100F50009218DC01CB010090E90404C0B695A79576
:100F6000979587950A94D2F780FFE2CFAECF60E5E0
:100F700077E08CE294E00E94B02640E850E06CEA12
:100F800073E08CE294E00E94B426ECE2F4E084E1A9
:100F9000808781E087838187828713861486158600
:100FA000168680E09DE2A1E3B1E08787908BA18B5C
:100FB000B28B138A148A158A168A178A108E118E9C
:100FC000128E138E148E158E168E178E10A211A2ED
:100FD00012A2CF010C94041B909141019F719F318B
:100FE000D9F380934201089581E080933F070895EB
:100FF00010923F070895809141018F718F31D9F38D
:10100000809141018F71E1F08F30D1F080914101E9
:101010008F71883031F48091390182608093390179
:101020000BC088E00E94EC07809141018F718830ED
:10103000D9F7F1CF8F3021F0809141018F71D1F735
:101040000895809141018F718F31D9F380914101D1
:101050008F7111F08F3051F4809139018D7F809321
:101060003901809141018F718830D9F70895E5E405
:10107000F1E09081907F908390818F70982B908386
:101080000895E7E5F1E080818D7F80830895E7E5AD
:10109000F1E08081826080830895EEE6F1E0808156
:1010A0008F7E80830895EEE6F1E080818061808309
:1010B0000895809360019093610190934907809314
:1010C000480708959093430780934207E8E4F1E0CE
:1010D0008081807E80838081682B608308959093D7
:1010E00052048093510408959093500480934F04C8
:1010F00008950F931F93CF93DF93FC01D90180E2F2
:101100008093440180EC80934501606260934801C4
:1011100085EC8093490187EA80934B0180E88093B6
:101120004C0120936001B0936101409362015093A0
:101130006301C6E4D1E00881888198812881302F3D
:1011400032953695377060E4369F800111242295E0
:1011500026952370622F602B82958695837070E1AF
:10116000879F90011124262B92959695937084E089
:10117000989FB0011124622B60936D018881988142
:10118000929596959370392F3064982F929596701A
:10119000932B90936E0110926C018FEF80934E0110
:1011A000C2E4D7E0F983E8831A821B825D834C8313
:1011B000BF83AE83188681E0809364071092830713
:1011C0001092530710923F07DF91CF911F910F911B
:1011D000089586E10C94EC0786E10C94EC0788E016
:1011E0000E94EC071092830708953F924F925F92FE
:1011F0006F927F928F929F92AF92BF92CF92DF9227
:10120000EF92FF920F931F93CF93DF93EC018091A6
:101210006407811102C08FEF26C12E81809144079F
:101220008F5F8093440790918101907E916020FBB5
:1012300095F99F7390649093810188E8809382016F
:1012400080913F078823D1F08FEF809383018AEA52
:101250009AEA90938901809388018FEF9FEF909392
:10126000870180938601209163018091620190E063
:10127000922B90938501809384011EC08091440736
:1012800080938301809161012091600130E0382BCF
:1012900030938901209388018881998190938701F7
:1012A00080938601809163012091620130E0382BA8
:1012B00030938501209384013B014A81552747FDE6
:1012C00050956B817C818AE891E00E942A2B8A816B
:1012D000855F8093800180914101982F9F71392E05
:1012E0009FEF930D9230B8F391E13916A1F392E19B
:1012F000391689F39FE1391671F398EF930D923007
:1013000020F08F70863009F086CF86E10E94EC07CE
:101310008D8181110AC089E00E94EC078E818823AB
:1013200091F089E10E94EC070EC08091480180682D
:10133000809348018091410187FFFCCF809141015A
:1013400086FF69CFE8CF61147104A9F18BE497E0BF
:101350000E94451D80914B0790914C07A0914D072D
:10136000B0914E078093650790936607A093670737
:10137000B0936807D30120E432E44FE050E00E94CC
:10138000EC2900914F07109150072091510730919F
:101390005207DC01CB01800F911FA21FB31F809366
:1013A000690790936A07A0936B07B0936C0785E673
:1013B00097E00E942E1E1092530782E00E94EC07D5
:1013C000412C512C80915307811108C08FEF481A8E
:1013D000580A98EE49169DEF5906A1F76114710459
:1013E00021F48E8181112DC032C08BE497E00E94E0
:1013F000451D80904B0790904C07A0904D07B090F2
:101400004E07C0904F07D0905007E0905107F090E2
:101410005207009165071091660720916707309188
:1014200068074091690750916A0760916B07709156
:101430006C0784E897E00E94A21D8F3F09F0BBCFA4
:10144000D0CF8091420182958695877039F488EEDD
:1014500048168DEF580611F0C1E001C0CFEF832D83
:101460000E94EC078C2FDF91CF911F910F91FF907D
:10147000EF90DF90CF90BF90AF909F908F907F9034
:101480006F905F904F903F90089560E070E00C94F3
:10149000F508CF93DF9380916407882341F1809111
:1014A0004101C82FCF719FEF9C0F9230C0F3C13123
:1014B000B1F3C231A1F3CF3191F3C83019F08F707D
:1014C0008630A9F486E10E94EC078091480180688B
:1014D000809348018091410187FFFCCFD091410169
:1014E0008C2F0E94EC07D6FB882780F901C08FEF74
:1014F000DF91CF91089580916407882309F4A0C0FB
:1015000080918307882309F499C080917B01E09141
:101510004207F091430790E002972481332727FD8B
:101520003095281739070CF48BC0E0914207F091F1
:101530004307809182018083E0914207F091430745
:10154000809187019091880192838183E091420785
:10155000F091430780917B018B508383A0914207D8
:10156000B0914307E0914207F091430713969C9195
:10157000848189173CF0E0914207F0914307838111
:1015800087FF0DC01092830780914C018F77809365
:101590004C0180914C01806880934C0151C0A09116
:1015A0004207B0914307E0914207F0914307139639
:1015B0004C91552747FD509569E871E085819681EA
:1015C0000E942A2BE0914207F0914307809180010D
:1015D00085FB882780F98783E0914207F0914307D4
:1015E000809147018087E0914207F0914307809105
:1015F00046018695869586958187E0914207F09110
:101600004307809147018287A0914207B091430729
:10161000E0917B01F0E0E058FE4F80811B968C93B7
:101620001092830780914C018F7780934C018091B9
:101630004C01806880934C0181E0089580E008951A
:101640008FEF08951F920F920FB60F9211248F9370
:1016500080E880934F018F910F900FBE0F901F90E5
:1016600018951F920F920FB60F9211248F9381E05D
:101670008093530780E480934F018F910F900FBEAA
:101680000F901F9018951F920F920FB60F92112472
:101690008F9380E280934F018F910F900FBE0F9038
:1016A0001F9018951F920F920FB60F9211248F93CF
:1016B00080E180934F018F910F900FBE0F901F908C
:1016C00018951F920F920FB60F9211240BB60F921E
:1016D0002F933F934F935F936F937F938F939F933A
:1016E000AF93BF93EF93FF9384E080934F01E0911A
:1016F0005104F0915204309709F00995FF91EF9150
:10170000BF91AF919F918F917F916F915F914F9119
:101710003F912F910F900BBE0F900FBE0F901F9017
:1017200018951F920F920FB60F9211248F9382E09B
:1017300080934F018F910F900FBE0F901F901895BF
:101740001F920F920FB60F9211248F9381E0809316
:101750004F018F910F900FBE0F901F901895E9E4E5
:10176000F1E09081907F908390818F70982B90838F
:1017700008958FEF08950895089508958FEF0895BF
:1017800080913D0790913E07089580E00895089567
:1017900081E0089581E0089581E008950895089515
:1017A000089508950895089508950895E7E3F1E0F0
:1017B000808183608083989AA09A8DB1806E8DB964
:1017C0008EB1806E8EB90895E7E3F1E08081836089
:1017D0008083989AA0988DB1806E8DB98EB1806EFD
:1017E0008EB90895CF92DF92EF92FF920F931F93DD
:1017F000CF93DF93CDB7DEB727970FB6F894DEBF50
:101800000FBECDBF0E94AD12E0914207F091430799
:10181000C080D380E580F68000850E947B0A181680
:101820001CF08BEC92E006C0F7011081111107C08B
:101830008AEE92E00E94D02B0E94AF1231C0153088
:1018400021F48AE090E00E94CA2BC70101969F9381
:101850008F93802F992787FD90959F930F931F92C9
:101860001F931F92CF928CE093E09F938F930E94DF
:10187000B62BFD82EC821150F7011083DB821E82B1
:101880001F828FEF9FEF9A8389830E94AF12CE0150
:1018900001960E94450A0FB6F894DEBF0FBECDBF79
:1018A00027960FB6F894DEBF0FBECDBFDF91CF9164
:1018B0001F910F91FF90EF90DF90CF9008951F92AE
:1018C0000F920FB60F9211240BB60F922F933F93E6
:1018D0004F935F936F937F938F939F93AF93BF9338
:1018E000EF93FF9380E090917B01891710F48F5F55
:1018F000FACF8091460187FF04C081E0809383077F
:1019000004C085E393E00E94D02B88E080934F01D0
:101910008091460187FF05C080913F0781110E9499
:10192000F20BE0914F04F0915004309709F00995C3
:10193000FF91EF91BF91AF919F918F917F916F91A7
:101940005F914F913F912F910F900BBE0F900FBE63
:101950000F901F901895A4E5B7E0FC0140962081F8
:101960002D93219120933F01E817F907C1F780E1FA
:1019700010923E018150E1F780E880933C01809114
:101980003D0180FFFCCFEDE6F7E080E18E0F909106
:101990003F0191938E13FBCF0895CF93DF93DC012A
:1019A000662309F445C0862F8F7009F041C0E4E535
:1019B000F7E090E19E0F219120933F019E13FBCF12
:1019C00090E070E0E0E240E1949F9001112426173E
:1019D00037077CF5911103C010923C0102C0E093DF
:1019E0003C0140E050E02A0F3B1FE901C40FD51F26
:1019F000F881F0933E014F5F5F4F40315105A9F7E9
:101A000040913C01406840933C0140913D0140FFC2
:101A1000FCCF40E050E0F0913E01E901C40FD51F3A
:101A2000F8834F5F5F4F40315105A9F79F5FCBCFE0
:101A300081E0DF91CF9108950F931F93CF93DF93B0
:101A4000DC01613009F458C0862F8F7009F054C052
:101A5000EDE6F7E090E19E0F219120933F019E1368
:101A6000FBCF62956F70615078E06F3F09F445C01D
:101A700070933C01462F552747FD509520E030E0FC
:101A8000ED0190E16902C00DD11D1124FE01E20FAC
:101A9000F31F908190933E012F5F3F4F203131051E
:101AA000A9F790913C01906890933C0190913D0181
:101AB00090FFFCCF4150510994E0440F551F9A9577
:101AC000E1F720E030E090913E018E01020F131FFC
:101AD000F8019083662349F0F901E40FF51FEA0F3E
:101AE000FB1FE0819E27F80190832F5F3F4F20313D
:101AF000310549F76150B9CF81E0DF91CF911F9156
:101B00000F9108959091C00095FFFCCF9091C00077
:101B10009F7D9093C0008093C60008951F920F92FE
:101B20000FB60F9211240BB60F922F933F934F9342
:101B30005F936F937F938F939F93AF93BF93EF9335
:101B4000FF930E94AD128091C00087FFFCCF80916F
:101B5000C0008F778093C0002091C60080916404FC
:101B600090916504FC01EC5AFB4F20830196803173
:101B7000910529F0909365048093640404C0109249
:101B8000650410926404809153040E94211880918E
:101B9000C0008F778093C0000E94AF12FF91EF9139
:101BA000BF91AF919F918F917F916F915F914F9175
:101BB0003F912F910F900BBE0F900FBE0F901F9073
:101BC000189581110DC081E0409166045091670421
:101BD00020916404309165044217530751F408C002
:101BE000813031F48091C800881F8827881F0895AC
:101BF00080E00895809153048F3F19F48EE00E9495
:101C00002015809153040895CF93DF93FC01249114
:101C1000EC012196222351F060917A0870917B08A3
:101C2000822F90E00E947E2BCE01F0CFDF91CF91EA
:101C30000895209166043091670480916404909126
:101C400065042817390769F4809153040E94EF173F
:101C500060915304772767FD7095872F972F0E9417
:101C600092186F3F21F48EEE92E00E94040E2091B4
:101C7000660430916704F901EC5AFB4F80812F5FB5
:101C80003F4F2031310528F43093670420936604D8
:101C900008951092670410926604089586E084B94E
:101CA00085B988EF8AB980EF8BB982E08DB9089544
:101CB0000C944E0E8F3F09F46CC0E82FE7704E2F46
:101CC00050E04730510508F064C0FA01E057FF4F7B
:101CD0008695869586950C94B02A42B121E030E035
:101CE000B90102C0660F771F8A95E2F7CB01842BFA
:101CF00082B94DC045B121E030E0B90102C0660FA4
:101D0000771F8A95E2F7CB01842B85B940C048B193
:101D100021E030E0B90102C0660F771F8A95E2F733
:101D2000CB01842B88B933C04BB121E030E0B9013D
:101D300002C0660F771F8A95E2F7CB01842B8BB91F
:101D400026C04EB121E030E0B90102C0660F771F16
:101D50008A95E2F7CB01842B8EB919C041B321E0FB
:101D600030E0B90102C0660F771F8A95E2F7CB0118
:101D7000842B81BB0CC044B321E030E0B90102C028
:101D8000660F771F8A95E2F7CB01842B84BB81E035
:101D900008958FEF08958F3F09F465C0E82FE7702D
:101DA0004E2F50E04730510508F05DC0FA01E9566A
:101DB000FF4F8695869586950C94B02A42B121E016
:101DC00030E0B90102C0660F771F8A95E2F7CB01B8
:101DD0008095842382B945C045B121E030E0B90146
:101DE00002C0660F771F8A95E2F7CB0180958423A6
:101DF00085B937C048B121E030E0B90102C0660FB3
:101E0000771F8A95E2F7CB018095842388B929C092
:101E10004BB121E030E0B90102C0660F771F8A950F
:101E2000E2F7CB01809584238BB91BC04EB121E032
:101E300030E0B90102C0660F771F8A95E2F7CB0147
:101E4000809584238EB90DC041B321E030E0B90103
:101E500002C0660F771F8A95E2F7CB018095842335
:101E600081BB81E008958FEF08958F3F31F1E82F16
:101E7000E7704E2F50E047305105F8F4FA01E25672
:101E8000FF4F282F2695269526950C94B02A90B1C1
:101E90000BC093B109C096B107C099B105C09CB100
:101EA00003C09FB101C092B3892F90E002C0959505
:101EB00087952A95E2F7817008958FEF08958F3FF7
:101EC00009F406C1E82FE7704E2F50E04730510566
:101ED00008F0FEC0FA01EB55FF4F86958695869572
:101EE0000C94B02A20B130E0082E02C03595279519
:101EF0000A94E2F742B120FD0BC021E030E0B901C5
:101F000002C0660F771F8A95E2F7CB01842B0BC0C6
:101F100021E030E0B90102C0660F771F8A95E2F731
:101F2000CB018095842382B916C023B130E0082EFE
:101F300002C0359527950A94E2F745B120FD0DC002
:101F400021E030E0B90102C0660F771F8A95E2F701
:101F5000CB01842B85B981E0089521E030E0B901FF
:101F600002C0660F771F8A95E2F7CB018095842324
:101F7000F1CF26B130E0082E02C0359527950A949E
:101F8000E2F748B120FD0BC021E030E0B90102C00A
:101F9000660F771F8A95E2F7CB01842B0BC021E0F7
:101FA00030E0B90102C0660F771F8A95E2F7CB01D6
:101FB0008095842388B9CFCF29B130E0082E02C0A4
:101FC000359527950A94E2F74BB120FD0BC021E02F
:101FD00030E0B90102C0660F771F8A95E2F7CB01A6
:101FE000842B0BC021E030E0B90102C0660F771FDF
:101FF0008A95E2F7CB01809584238BB9ACCF2CB1C5
:1020000030E0082E02C0359527950A94E2F74EB1CC
:1020100020FD0BC021E030E0B90102C0660F771F40
:102020008A95E2F7CB01842B0BC021E030E0B901A7
:1020300002C0660F771F8A95E2F7CB018095842353
:102040008EB989CF2FB130E0082E02C03595279583
:102050000A94E2F741B320FD0BC021E030E0B90162
:1020600002C0660F771F8A95E2F7CB01842B0BC065
:1020700021E030E0B90102C0660F771F8A95E2F7D0
:10208000CB018095842381BB66CF22B330E0082E3C
:1020900002C0359527950A94E2F744B320FD0BC0A2
:1020A00021E030E0B90102C0660F771F8A95E2F7A0
:1020B000CB01842B0BC021E030E0B90102C0660FD8
:1020C000771F8A95E2F7CB018095842384BB43CFA9
:1020D0008FEF08958F3F09F4D5C0E82FE7704E2F9A
:1020E00050E0611167C04730510508F0CBC0FA01DC
:1020F000E455FF4F8695869586950C94B02A41B19C
:1021000021E030E0B90102C0660F771F8A95E2F73F
:10211000CB018095842365C044B121E030E0B90152
:1021200002C0660F771F8A95E2F7CB018095842362
:1021300065C047B121E030E0B90102C0660F771FEA
:102140008A95E2F7CB018095842365C04AB121E0EE
:1021500030E0B90102C0660F771F8A95E2F7CB0124
:102160008095842365C04DB121E030E0B90102C003
:10217000660F771F8A95E2F7CB018095842365C0AF
:1021800040B321E030E0B90102C0660F771F8A95A5
:10219000E2F7CB018095842365C043B321E030E0B2
:1021A000B90102C0660F771F8A95E2F7CB018095CF
:1021B000842365C04730510508F064C0FA01ED542E
:1021C000FF4F8695869586950C94B02A41B121E003
:1021D00030E0B90102C0660F771F8A95E2F7CB01A4
:1021E000842B81B94DC044B121E030E0B90102C077
:1021F000660F771F8A95E2F7CB01842B84B940C024
:1022000047B121E030E0B90102C0660F771F8A951F
:10221000E2F7CB01842B87B933C04AB121E030E02B
:10222000B90102C0660F771F8A95E2F7CB01842BB4
:102230008AB926C04DB121E030E0B90102C0660F75
:10224000771F8A95E2F7CB01842B8DB919C040B373
:1022500021E030E0B90102C0660F771F8A95E2F7EE
:10226000CB01842B80BB0CC043B321E030E0B9012B
:1022700002C0660F771F8A95E2F7CB01842B83BBE0
:1022800081E008958FEF0895811106C080B1869591
:10229000817091E0892708958FEF0895009711F4D8
:1022A00083E20DC08130910511F48BE208C08230C9
:1022B000910511F483E303C0039729F48BE30E9493
:1022C0005F0F81E008958FEF0895009711F483E286
:1022D0000DC08130910511F48BE208C08230910568
:1022E00011F483E303C0039729F48BE30E945A0E91
:1022F00081E008958FEF0895009711F483E20DC0F7
:102300008130910511F48BE208C08230910511F4FF
:1023100083E303C0039729F48BE30E94CB0E81E093
:1023200008958FEF0895882319F085B78F7E02C036
:1023300085B7806185BF81E008959091C80095FFC1
:10234000FCCF8093CE0008959093C5008093C40085
:1023500086E08093C200E1ECF0E080818B7F808397
:10236000A0ECB0E08C9182608C9380818861808346
:1023700008959093CD008093CC0086E08093CA00AE
:10238000E9ECF0E080818B7F8083A8ECB0E08C9159
:1023900082608C9380818861808308950E94A4115B
:1023A00069E17EE082E89DE00E94332B90937B08F8
:1023B00080937A0869E17EE082E89DE00E94332BF9
:1023C00090937908809378080E94DF1680935304D5
:1023D0008F3F19F48EE00E9420151092670410922E
:1023E000660410926504109264048091C1008068B4
:1023F0008093C10008958091C80087FFFCCF809131
:10240000C8008F778093C8008091CE0008950000A7
:102410000000000000000197D1F708950C948E2C65
:102420000E94962C0895EF92FF920F931F93CF93E3
:10243000DF937C0180E090E00E948E2C182FF70142
:10244000838381E090E00E948E2C082FF701828325
:1024500082E090E00E948E2CD82FF701818383E0E8
:1024600090E00E948E2CC82FF701808384E090E0DA
:102470000E948E2C100FD10FCD0F8C1711F08FEF03
:1024800001C081E0DF91CF911F910F91FF90EF90FC
:102490000895CF93DF93EC0185E090E00E948E2CAD
:1024A000888381E0DF91CF910895FC01608186E00F
:1024B00090E00E94962C81E00895CF93DF93EC0189
:1024C00086E090E00E948E2C888381E0DF91CF919E
:1024D00008950F931F93CF93DF938C01C0E0D0E05A
:1024E000CE0108960E948E2CF80181938F012196CF
:1024F000C031D105A9F781E0DF91CF911F910F91F4
:1025000008950F931F93CF93DF938C01C0E0D0E029
:10251000F80161918F01CE0108960E94962C2196B8
:10252000C031D105A9F781E0DF91CF911F910F91C3
:102530000895CF93DF93EC0187E090E00E948E2C0A
:10254000888381E0DF91CF910895FC01608187E06D
:1025500090E00E94962C81E00895F8940895789474
:1025600008950E94AD12FFCF1F93CF93DF93CDB795
:10257000DEB7A3970FB6F894DEBF0FBECDBF0E94A3
:10258000DF16809343088F3F21F460E08EE00E94C5
:102590002B150E947824182F80FF04C060E086E08D
:1025A0000E942B1511FF04C060E084E10E942B15EE
:1025B00012FF04C060E083E10E942B1510924608D0
:1025C0001092540810925308109245081092440833
:1025D00010925508109252088FEF80933C08809318
:1025E0003E0880933D0880933F0880934108809384
:1025F000400893E690939807809396079093C307BB
:102600008093C1079093EE078093EC07909319088D
:102610008093170886E598E02BE538E030935A0858
:102620002093590890935D0880935C0840E658E039
:1026300050935F0840935E083093620820936108CE
:1026400025E638E0309364082093630850936708C8
:10265000409366084AE658E050936908409368083A
:1026600030936C0820936B0810925808109257080A
:1026700010926E0810926D08109249081092480846
:1026800090938D0780938C076FEC7FE1CE010196CC
:102690000E94B02640E850E063EB76E0CE01019660
:1026A0000E94B42685E58093B30619861C861D8694
:1026B0001E861F86188A198A1A8A1B8A1C8A1D8AF6
:1026C0001E8A1F8A188E198E1A8E1B8E1C8E1D8EC6
:1026D0001E8E1F8E18A219A21AA21BA281E0888743
:1026E00092E09A878B87CE0101960E94041BA396E5
:1026F0000FB6F894DEBF0FBECDBFDF91CF911F9113
:10270000089506E917E0C0E0F801D080FFEFDF127E
:1027100022C0CF5F055D1F4FC430B1F70E94F3198F
:102720002BE28202C0011124FC01E257F84F82859E
:1027300080935508F0935408E0935308F0934508AC
:10274000E0934408809346080E9426270E941027A1
:102750000E942A2716C086E9E82E87E0F82ED0E0EE
:10276000CD1741F0F7018081D81204C06D2D85E0AE
:102770000E942B15DF5FFBE2EF0EF11CD43081F7D6
:10278000C8CFFFCFCF92DF92EF92FF920F931F93AC
:10279000CF93DF93EC018B017A018985823021F0A0
:1027A00080914208888301C0188280914208843059
:1027B00020F060E087E00E942B158985823029F0A7
:1027C000809142088F5F8093420880914208811176
:1027D00003C081E08093420838812BE23203F0018C
:1027E0001124E257F84F118300838885828738814E
:1027F0003203F0011124E257F84F83E081873881DA
:102800003203F0011124E257F84F308708810203A8
:10281000800111240257184FF8011582CE010B9642
:102820000E94611FF80161A372A383A394A38B8507
:102830009C85AD85BE8588339948A144B10520F0BB
:10284000688186E10E942B15C880DD24C7FCD094E6
:10285000CE014B960E94611F1BE21C9DF0011D9D45
:10286000F00D1124E257F84F658B768B878B908F94
:1028700028812103C00111249C012257384F69018E
:10288000F901458956896789708D81A192A1A3A11B
:10289000B4A1840F951FA61FB71F818F928FA38F9E
:1028A000B48FCE0143960E94611FF60165A376A303
:1028B00087A390A728812103F0011124E257F84F44
:1028C00085A196A1A7A1B0A5858F968FA78FB0A34C
:1028D00081E090E092A781A7F382E2828487DF9172
:1028E000CF911F910F91FF90EF90DF90CF900895BF
:1028F0000C94F31F85E690E00895E0915308F09161
:10290000540884870895E0915308F0915408848511
:102910000895FC018091B206882331F0DB018C938D
:102920008091E804808381E008958091B206882335
:1029300009F484C00E94AD128FE295E00E94040E5B
:102940008091E8041F928F938BE792E09F938F937F
:102950000E94B62B8BE295E00E94040E0F900F9020
:102960000F900F908091B206883110F01092B2064D
:10297000E091B2068E2F90E0FC013197E631F1052F
:1029800008F046C0E654FF4F0C94B02A8FEE94E056
:1029900041C088EC94E03EC084EB94E03BC08EE9FB
:1029A00094E038C083E894E035C08DE694E032C00E
:1029B00085E594E02FC082E494E02CC08FE294E09F
:1029C00029C081E194E026C08CEE93E023C080EE24
:1029D00093E020C085EC93E01DC086EB93E01AC025
:1029E00082EA93E017C081E993E014C08DE793E099
:1029F00011C08DE593E00EC085E493E00BC08AE240
:102A000093E008C089E193E005C08AE093E002C04A
:102A100083E093E00E94040E60917A0870917B0835
:102A20008DE090E00E947E2B60917A0870917B0887
:102A30008AE090E00E947E2B1092B20680E008951A
:102A40008093B206E0915308F091540880858093FA
:102A5000E8040C9495148093B2066093E8040C94F7
:102A60009514CF93DF931F92CDB7DEB7198289817A
:102A7000843640F480ED97E00E94AE2289818F5F1A
:102A80008983F5CF0F90DF91CF91089581E090E099
:102A90000E947C110E9431150E9431150E9431154F
:102AA00081E090E00E9465110C94311581E090E086
:102AB0000E947C110E94311581E090E00E94651116
:102AC0000C943115FF920F931F93CF93DF9300D097
:102AD0001F92CDB7DEB71F928F938BE792E09F9343
:102AE0008F938E010F5F1F4F1F930F930E94002C37
:102AF0000F900F900F900F900F900F90F12CF80106
:102B000001900020E9F73197E01BF10B8F2D90E049
:102B10008E179F0708F05DC0F801E80FF91FE081EC
:102B20008E2F90E0FC01F097EA30F10508F049C0E3
:102B3000E053FF4F0C94B02A0E94461502C00E9439
:102B400056150E9446150E9446150E9446150E9481
:102B5000461537C00E9456150E945615F4CF0E94A4
:102B600056150E9456150E945615EFCF0E94561515
:102B70000E9456150E9456150E945615E8CF0E94D5
:102B8000561502C00E9446150E94561504C00E94A8
:102B900046150E9446150E94561506C00E9446150D
:102BA0000E9446150E9446150E94561508C00E94B4
:102BB00046150E9446150E9446150E9446150E9421
:102BC00056150E9431150E9431150E943115F3945B
:102BD00096CF0F900F900F90DF91CF911F910F9193
:102BE000FF9008956F927F928F929F92AF92BF92C3
:102BF000CF92DF92EF92FF920F931F93CF93DF93C9
:102C00008BE395E00E94040EE0915308F091540884
:102C10008085282F332727FD30953F938F938EE4AF
:102C200093E09F938F930E94B62BE0915308F0910D
:102C30005408C281D381DF93CF9382E893E09F93BE
:102C40008F930E94B62B88811F928F9387E593E024
:102C50009F938F930E94B62BE0915308F0915408F4
:102C600081818F9380818F9384E693E09F938F93EC
:102C70000E94B62B809154088F93809153088F93B4
:102C80008EE693E09F938F930E94B62BCEE8D7E019
:102C9000EDB7FEB774960FB6F894FEBF0FBEEDBF4A
:102CA00000E010E08EE7682E83E0782E97E5892E0D
:102CB00093E0992E24E6A22E23E0B22E3EE6C32E08
:102CC00033E0D32EEA80FB80FF92EF921F930F93A5
:102CD0007F926F920E94B62BF70180811F928F9393
:102CE0009F928F920E94B62B89818F9388818F93B8
:102CF000BF92AF920E94B62BDF93CF93DF92CF9219
:102D00000E94B62B0F5F1F4FAB96EDB7FEB77296C2
:102D10000FB6F894FEBF0FBEEDBF0430110591F65B
:102D2000DF91CF911F910F91FF90EF90DF90CF90A7
:102D3000BF90AF909F908F907F906F900895CF93AA
:102D4000DF93E0915308F0915408C281D3818881C8
:102D5000853539F00E94F21581E00E94201585E545
:102D60008883E0915308F091540880819181811506
:102D7000924438F00E94F21582E1DF91CF910C94D9
:102D80002015DF91CF9108952BE28202C00111241A
:102D9000FC01E257F84FA281B3818C91853519F07F
:102DA00085E58C9308C0808191818115924428F03B
:102DB00082E10E9420158FEF089581E008950F931E
:102DC0001F93409171055091720560917305709148
:102DD000740580E090E08A019B01082E04C03695BE
:102DE0002795179507950A94D2F700FD19C001E0C1
:102DF00010E020E030E0082E04C0000F111F221F59
:102E0000331F0A94D2F7402B512B622B732B409324
:102E1000710550937205609373057093740505C036
:102E2000019680329105B9F68FEF1F910F910895A9
:102E3000E0915308F09154086585768587859089DF
:102E40000895CF92DF92EF92FF920F931F93CF934B
:102E5000DF93C12CD12C7601C394082E04C0CC0C76
:102E6000DD1CEE1CFF1C0A94D2F7409171055091B5
:102E7000720560917305709174054C215D216E217E
:102E80007F21452B462B472B09F460C0082F0E9459
:102E9000AD12E7E9F7E0B701A601409550956095BE
:102EA000709513E0DF0111978C918F3F39F1848188
:102EB0009581A681B7818C159D05AE05BF0551F49E
:102EC00010861186128613869F0122503109E9016E
:102ED0001882108384239523A623B72384839583A4
:102EE000A683B78380859185A285B38584239523A6
:102EF000A623B72380879187A287B387BB96D8E0A4
:102F0000E334FD0779F68EEF9FEFAFEFBFEF04C01C
:102F1000880F991FAA1FBB1F0A95D2F74091710510
:102F20005091720560917305709174058423952307
:102F3000A623B7238093710590937205A093730520
:102F4000B09374050E94AF1281E001C08FEFDF9152
:102F5000CF911F910F91FF90EF90DF90CF90089548
:102F60000F931F9341E050E060E070E08A019B0105
:102F700004C0000F111F221F331F8A95D2F7D901F9
:102F8000C801E0915308F09154084585568567853E
:102F900070890423152326233723012B022B032BAF
:102FA000D1F080959095A095B095482359236A2338
:102FB0007B23458756876787708B41895289638950
:102FC000748984239523A623B723818B928BA38BAB
:102FD000B48B81E001C08FEF1F910F910895282FCE
:102FE000409171055091720560917305709174055F
:102FF000082E04C076956795579547950A94D2F7A1
:1030000040FF1DC0E0915308F091540881E090E02A
:10301000A0E0B0E004C0880F991FAA1FBB1F2A952B
:10302000D2F74585568567857089842B952BA62B0D
:10303000B72B85879687A787B08B81E008958FEFA0
:103040000895CF92DF92EF92FF92CF93C12CD12CB3
:103050007601C39404C0CC0CDD1CEE1CFF1C8A95C9
:10306000D2F78091710590917205A0917305B0918E
:1030700074058C219D21AE21BF21892B8A2B8B2B9E
:1030800011F481E044C00E94AD12E5E9F7E0A7E940
:10309000B7E0C0E083E090819130B9F44285538578
:1030A000648575854C215D216E217F21452B462B42
:1030B000472B59F08C9316861786108A118A108236
:1030C000C286D386E486F586C1E090819230A1F471
:1030D00042855385648575854C155D056E057F05B4
:1030E00059F48C9316861786108A118A10821286DC
:1030F000138614861586C1E0BB969B9698E0E13452
:10310000F90749F60E94AF12C11105C082E00E9482
:103110007D148FEF01C081E0CF91FF90EF90DF90A1
:10312000CF9008950F931F93E0915308F0915408A6
:1031300005851685278530890623172328233923FB
:10314000011511052105310511F1DC01CB01818B40
:10315000928BA38BB48B21E027830090430804C09B
:10316000B695A795979587950A94D2F780FF03C0E7
:103170000E946C1C04C080E090E00E943D1CE09125
:103180005308F09154080189128923893489C901AF
:10319000B8011F910F9108959091520891111DC08F
:1031A00090913C089F3F31F090913F089F3F21F064
:1031B000E2E003C0E0E001C0E1E0F0E09F01220FA7
:1031C000331FE20FF31FE45CF74F82838083618338
:1031D00081E080935208CF01089580E090E0089547
:1031E00028E08C33920729F08F53984021F481E036
:1031F000089580E008958FEF08950E94F0188F3FA2
:1032000011F481E002C0823021F40E947D148FEF1E
:103210000895992787FD9095FC01EE0FFF1F8E0FF3
:103220009F1FFC01E45CF74F82810895EF92FF92AB
:103230000F931F93CF93DF931F92CDB7DEB70E94FA
:10324000F0188F3F11F481E002C0823021F40E9417
:103250007D148FEF41C089830E94AD128981E82ED1
:10326000FF24E7FCF0948701000F111FF801EE0D19
:10327000FF1DE45CF74F9281911116C0E091530855
:10328000F0915408978192609783992787FD9095D4
:10329000A92FB92F818B928BA38BB48B0E94AF1275
:1032A00080E090E00E943D1C0E0D1F1DD801A45C23
:1032B000B74F12968C911297815012968C93129759
:1032C000E0915308F091540811968C91838781E026
:1032D00084830E94AF1281E00F90DF91CF911F9104
:1032E0000F91FF90EF9008950F931F93CF93DF936B
:1032F0001F92CDB7DEB70E94F0188F3F11F481E026
:1033000002C0823021F40E947D148FEF44C0482F08
:10331000552747FD50959A01220F331F240F351F63
:103320008901045C174FF80122819081291794F5D7
:1033300089830E94AD12F80192819F5F9283E09190
:103340005308F09154081482E5E9F7E08981992740
:1033500087FD9095A92FB92F23E03081323099F461
:103360004285538564857585481759076A077B0729
:1033700051F4228316861786108A118A10821286CB
:10338000138614861586BB9638E0E134F30729F7D7
:103390000E94AF1281E00F90DF91CF911F910F91AA
:1033A00008950E94F0188F3F11F481E002C082302E
:1033B00021F40E947D148FEF0895992787FD909541
:1033C000FC01EE0FFF1F8E0F9F1FFC01E45CF74F07
:1033D0008FEF808382838183809152088150809314
:1033E000520881E00895E0914808F09149088081F1
:1033F0000895E0914808F0914908309721F0038042
:10340000F481E02DFACF0895AF92BF92CF92DF9270
:10341000EF92FF920F931F93CF93DF93E0918C076E
:10342000F0918D07309709F494C0009148081091ED
:1034300049080115110509F44CC0D8014BE2582F79
:103440005403900111242257384F79019AE0E90E74
:10345000F11C6901C4E0CC0ED11C5901DBE0AD0EBA
:10346000B11C2C9130E0429FB001439F700D11249C
:103470006257784FEB019C81992329F05B85E70126
:103480009881591740F1E6019881992369F0429F8C
:10349000B001439F700D11246257784FEB015A859C
:1034A000E50198815917B8F0429FB001439F700D14
:1034B00011249B012257384FE9012A85E7019881A1
:1034C000291748F013960D90BC91A02D109749F63E
:1034D00002C0A0E0B0E08083C381D481D0938D0787
:1034E000C0938C07A017B107B1F4109749F0B483CB
:1034F000A383128211821296FC93EE93119706C059
:103500001482138212821182FA83E983F0934908AC
:10351000E09348081EC0AC17BD0779F011968D9155
:103520009C91129792838183B483A3831196CD914A
:10353000DC911297FC83EB8308C0148213821196EE
:103540008D919C911297928381831296FC93EE93B6
:103550001197DF91CF911F910F91FF90EF90DF9026
:10356000CF90BF90AF900895CF93DF93E09148083C
:10357000F0914908309709F444C0992787FD909548
:10358000208130E02817390781F4A381B481B093FA
:103590004908A093480812961C921E92119718C0D1
:1035A0000380F481E02D309761F1208130E028170D
:1035B0003907B1F7C181D281838194819C838B8348
:1035C000A381B481109721F01296DC93CE931197CA
:1035D000A0918C07B0918D07109739F4F0938D0767
:1035E000E0938C07148213820AC0B483A3831296DB
:1035F000FC93EE931197F0938D07E0938C07128262
:103600001182DF91CF910895EF92FF920F931F9354
:10361000CF93DF93EC014B815C8169817A818D814D
:103620009E810E94D2262F81222371F04B815C81E2
:10363000E12CF12C00E010E020E030E0BC01CE01F4
:103640000E94C2131F820CC0E8812BE2E202F0014B
:103650001124E257F84F21852330B9F491838083F8
:10366000E8818BE2E802F0011124E257F84F8589E6
:103670009689A789B08D892B8A2B8B2B41F482E008
:10368000818788810E94041A02C08FEF01C081E007
:10369000DF91CF911F910F91FF90EF9008951F93AD
:1036A000CF93DF93CDB7DEB728970FB6F894DEBF80
:1036B0000FBECDBF29833A834B835C836D837E83AA
:1036C0008F8398870E94AD120E94FC23182FCE0191
:1036D00001960E94611F6330710598F0E0915308D4
:1036E000F0915408212F30E0620F731FCB01A0E04E
:1036F000B0E0858B968BA78BB08F0E94AF1281E0D4
:1037000001C08FEF28960FB6F894DEBF0FBECDBF75
:10371000DF91CF911F9108950E94A526E091530853
:10372000F091540885818111F7CF0895CF930E94BD
:103730009F160E94AD12E0915308F091540881E069
:1037400090E092A781A785830E94FC23C82F883F21
:1037500080F40E9496232C2F30E02F5F3F4F90E0A3
:103760002817390734F482E08C0F809338070E94C1
:103770009A230E94AF120E948C1B81E0CF91089582
:10378000E0915308F091540880850E94B41AE091AA
:103790005308F091540884E081870E94961B81E0D1
:1037A0000895CF93DF93EC010E949F16209711F4A8
:1037B000C1E0D0E00E94AD12E0915308F0915408AE
:1037C00081E08583D2A7C1A70E94FC23C82F883F30
:1037D00080F40E9496232C2F30E02F5F3F4F90E023
:1037E0002817390734F482E08C0F809338070E9441
:1037F0009A230E94AF120E948C1B81E0DF91CF912F
:103800000895EF92FF920F931F93CF938C010E9424
:10381000AD12E0915308F091540881E085830E9435
:10382000FC23C82FE0915308F0915408E82EF12CA6
:10383000C701800F911FA0E0B0E0858B968BA78B0E
:10384000B08FC83F78F40E9496239FEFE91AF90AD7
:1038500090E0E816F90634F482E08C0F8093380784
:103860000E949A230E94AF120E948C1B81E0CF918C
:103870001F910F91FF90EF900895CF93DF93EC018C
:103880000E94AD12E0915308F091540821E0258385
:10389000CE01A0E0B0E0858B968BA78BB08F0E9405
:1038A000FC23C82F883F80F40E9496232C2F30E001
:1038B0002F5F3F4F90E02817390734F482E08C0FD8
:1038C000809338070E949A230E94AF120E948C1B9B
:1038D00081E0DF91CF910895CF930E94AD12E091E6
:1038E0005308F091540881E0858386830E94FC236D
:1038F000C82F883F80F40E9496232C2F30E02F5F42
:103900003F4F90E02817390734F482E08C0F809302
:1039100038070E949A230E94AF120E948C1B81E0FC
:10392000CF9108951F93CF93DF93CDB7DEB728973C
:103930000FB6F894DEBF0FBECDBF29833A834B8309
:103940005C836D837E838F8398870E949F160E947D
:10395000AD12E0915308F091540881E0858381E035
:1039600090E092A781A70E94FC23182FCE01019618
:103970000E94611FE0915308F0915408DC01CB01D3
:10398000810F911DA11DB11D858B968BA78BB08FCB
:10399000183F80F40E949623212F30E02F5F3F4F85
:1039A00090E02817390734F482E0810F80933807BC
:1039B0000E949A230E94AF120E948C1B81E02896DD
:1039C0000FB6F894DEBF0FBECDBFDF91CF911F9130
:1039D00008958F929F92AF92BF92CF92DF92EF9213
:1039E000FF920F931F93CF93DF93CDB7DEB760970E
:1039F0000FB6F894DEBF0FBECDBF29873A874B873D
:103A00005C876D877E878F87988BCE0101960E9499
:103A1000451D89809A80AB80BC80CD80DE80EF80A0
:103A2000F88409851A852B853C854D855E856F85D3
:103A30007889CE0109960E94A21D8F3F61F02985E9
:103A40003A854B855C856D857E858F8598890E943A
:103A5000921C81E001C08FEF60960FB6F894DEBF34
:103A60000FBECDBFDF91CF911F910F91FF90EF90CF
:103A7000DF90CF90BF90AF909F908F900895E0918E
:103A80005308F0915408808508950F931F93CF93A6
:103A9000DF93EC011C821D821E821F8280914A08E6
:103AA00090914B08A0914C08B0914D088883998360
:103AB000AA83BB8380914E0890914F08A091500833
:103AC000B09151088C839D83AE83BF830E94FC23F9
:103AD000A82FB0E023EB36EE4EE050E00E94EC2938
:103AE0000C811D812E813F81DC01CB01800F911F54
:103AF000A21FB31F8C839D83AE83BF838C819D8166
:103B0000AE81BF8181152AEC92072AE9A2072BE337
:103B1000B20798F09A5CAA49BB438C839D83AE831D
:103B2000BF8388819981AA81BB810196A11DB11DA6
:103B300088839983AA83BB83E1CFDF91CF911F91C3
:103B40000F9108958F929F92AF92BF92CF92DF9282
:103B5000EF92FF920F931F93CF93DF93CDB7DEB712
:103B600060970FB6F894DEBF0FBECDBFFC0109838E
:103B70001A832B833C834D835E836F83788789868A
:103B80009A86AB86BC86CD86DE86EF86F88A09816A
:103B90001A812B813C814D815E816F817885C9843A
:103BA000DA84EB84FC848D859E85AF85B8890C15FD
:103BB0001D052E053F05F0F1C016D106E206F306FD
:103BC00091F4481759076A077B07A0F1481B590B66
:103BD0006A0B7B0B44835583668377831082118243
:103BE0001282138225C0481759076A077B0780F4A1
:103BF00001501109210931090C191D092E093F092C
:103C0000008311832283338356536546744C08C066
:103C10000C191D092E093F09008311832283338368
:103C2000481B590B6A0B7B0B448355836683778350
:103C300081E001C08FEF60960FB6F894DEBF0FBE33
:103C4000CDBFDF91CF911F910F91FF90EF90DF904B
:103C5000CF90BF90AF909F908F900895FC014481CA
:103C600055816681778141158AEC58078AE9680792
:103C70008BE3780798F05A5C6A497B434483558309
:103C80006683778380819181A281B3810196A11D92
:103C9000B11D80839183A283B383E1CF08958F9276
:103CA0009F92AF92BF92CF92DF92EF92FF920F93CB
:103CB0001F93CF93DF93CDB7DEB760970FB6F8941D
:103CC000DEBF0FBECDBF09831A832B833C834D8398
:103CD0005E836F83788789869A86AB86BC86CD861D
:103CE000DE86EF86F88A09851A852B853C85498111
:103CF0005A816B817C81400F511F621F731FFC0131
:103D000040835183628373830D851E852F85388997
:103D10004D815E816F817885400F511F621F731F37
:103D200044835583668377830E942E1E81E06096CC
:103D30000FB6F894DEBF0FBECDBFDF91CF911F91BC
:103D40000F91FF90EF90DF90CF90BF90AF909F903A
:103D50008F900895EAE4F8E060837183828393830F
:103D6000248335834683578308952F923F924F9241
:103D70005F926F927F928F929F92AF92BF92CF92FB
:103D8000DF92EF92FF920F931F93FC01C080D180CE
:103D9000E280F380C114D104E104F104E1F18481F3
:103DA0009581A681B78122E4C216D104E104F10411
:103DB000F0F51C012D01612C712C4301E0E08E2FE8
:103DC00090E0A0E0B0E08C159D05AE05BF0588F43D
:103DD0009101A201B301C40136534546544C6F4FC3
:103DE0007F4F8F4F9F4F19012A013B014C01EF5F1D
:103DF000E6CF83EBA82E96EEB92E2EE0C22ED12C64
:103E0000E12CF12C00E010E09101A201B301C4010A
:103E10000E94532A0AC0648175818681978123EBB1
:103E200036EE4EE050E00E942F2AC90102C080E029
:103E300090E01F910F91FF90EF90DF90CF90BF9097
:103E4000AF909F908F907F906F905F904F903F903A
:103E50002F900895CF92DF92EF92FF92CF93DF934E
:103E6000CDB7DEB728970FB6F894DEBF0FBECDBF33
:103E70006B017C012AE0F694E794D794C7942A95C5
:103E8000D1F7C982DA82EB82FC829B01AC013370EC
:103E90004427552763EB76EE8EE090E00E94F729E9
:103EA0002C2D3A814B815C8128960FB6F894DEBFA9
:103EB0000FBECDBFDF91CF91FF90EF90DF90CF90FD
:103EC00008952F923F924F925F926F927F928F92BE
:103ED0009F92AF92BF92CF92DF92EF92FF920F9399
:103EE0001F93FC01C080D180E280F380C114D10413
:103EF000E104F104B9F184819581A681B7811C01A7
:103F00002D01612C712C4301E0E08E2F90E0A0E0A8
:103F1000B0E08C159D05AE05BF0588F49101A201A6
:103F2000B301C40136534546544C6F4F7F4F8F4FFA
:103F30009F4F19012A013B014C01EF5FE6CF83EB54
:103F4000A82E96EEB92E2EE0C22ED12CE12CF12C0B
:103F500000E010E09101A201B301C4010E94532AC4
:103F6000CA010BC0648175818681978123EB36EE8F
:103F70004EE050E00E942F2ACA01B9011F910F9113
:103F8000FF90EF90DF90CF90BF90AF909F908F9079
:103F90007F906F905F904F903F902F900895C2E078
:103FA000D1E00E949F160E949623843028F4D0937B
:103FB00047080E94A52608C08AE090E00E94AE2231
:103FC000C09347080E9499268091B306853519F061
:103FD00088E00E94201580917E41853511F388E0AC
:103FE0000E942015DECF2F923F924F925F926F92E8
:103FF0007F928F929F92AF92BF92CF92DF92EF9279
:10400000FF920F931F93CF93DF9300D01F92CDB7F2
:10401000DEB70E94CA220E94AF120E94E8220E94CC
:10402000F0221C018AEF0E949A23A0913807B0E089
:1040300023EB36EE4EE050E00E94EC2900914E0852
:1040400010914F0820915008309151086B017C016C
:10405000C00ED11EE21EF31EC701B60123EB36EEE1
:104060004EE050E00E942F2A26013701461A570AD7
:10407000680A790AD301C20100914A0810914B08DD
:1040800020914C0830914D0843EB842E46EE942E3F
:104090004EE0A42EB12C680179014FEFC41AD40A66
:1040A000E40AF40A81155AEC95075AE9A5075BE37F
:1040B000B507C8F02C013D012AEC521A2AE9620A20
:1040C0002BE3720AC301B201A50194010E942F2AB9
:1040D000A3019201261B370B480B590BDA01C901CA
:1040E00097018601D8CF80934E0890934F08A093F4
:1040F0005008B093510800934A0810934B0820933E
:104100004C0830934D08E0915308F0915408858194
:10411000882339F18185843021F18781823029F02B
:10412000882341F08681811102C085E001C083E0CF
:10413000818714C083E081871782168285899689DA
:10414000A789B08D892B8A2B8B2B41F4818D928D81
:10415000A38DB48D858B968BA78BB08F80850E94A5
:10416000B41AE0915308F091540885A196A1A7A133
:10417000B0A5892B8A2B8B2B09F444C020852223E0
:1041800009F440C081858430E9F1858D968DA78D35
:10419000B0A14091380750E060E070E084179507C7
:1041A000A607B70768F4622F82E00E942B15E09102
:1041B0005308F0915408158E168E178E10A208C061
:1041C000841B950BA60BB70B858F968FA78FB0A37B
:1041D000E0915308F09154081085858D968DA78D38
:1041E000B0A1892B8A2B8B2B69F4612F83E00E946D
:1041F0002B15E0915308F091540883E08187812FBB
:104200000E94B41A87E997E09B838A8300E61AEE3E
:1042100019822AEFC22ED12CE12CF12C812C912C69
:1042200054018394EA81FB81319780818F3F09F4A7
:1042300004C1EA81FB8134971082882309F467C0A6
:10424000EA81FB818081843009F461C04484558413
:10425000668477846091380770E080E090E04616CD
:1042600057066806790648F0461A570A680A790A16
:10427000448655866686778606C0EA81FB81148669
:10428000158616861786EA81FB81408851886288E8
:104290007388461657066806790648F0461A570A84
:1042A000680A790A408A518A628A738A1EC0EA8142
:1042B000FB81208D318D428D538D621773078407EA
:1042C000950758F429013A01461A570A680A790AEB
:1042D000408A518A628A738A08C00E942F2AEA8122
:1042E000FB81608B718B828B938BEA81FB81808950
:1042F0009189A289B389892B8A2B8B2B41F4808DDC
:10430000918DA28DB38D808B918BA28BB38BEA8123
:10431000FB818081833009F090C084859585A685D6
:10432000B785892B8A2B8B2B09F074C0DF0112977C
:104330008C919F01235031098823A9F0F9018081D4
:10434000882389F0B501A4010090430804C0440FFC
:10435000551F661F771F0A94D2F7EA81FB814087B9
:104360005187628773871C92F9011082EA81FB8171
:10437000A0A1B1A1A130B10519F5848D958DA68DAF
:10438000B78D848B958BA68BB78B92E0492E40829C
:1043900080899189A289B38984879587A687B78701
:1043A000808D918DA28DB38D892B8A2B8B2B21F43F
:1043B000C486D586E686F78689810E94041A2AC0BB
:1043C000EA81FB81448D558D668D778D448B558BAD
:1043D000668B778B408C518C628C738C1197A30108
:1043E00092010E94EC296487758786879787608B86
:1043F000718B828B938B45284628472821F4C486ED
:10440000D586E686F78644244394512CEA81FB81C5
:1044100051A240A2EA81FB8184859585A685B78556
:104420000097A105B10549F0A80160E070E084178C
:104430009507A607B70708F48C01F981FF5FF98398
:104440002A813B81255D3F4F3B832A83F43009F06D
:10445000E9CE0E94F319F82E3BE28302F001112409
:10446000E257F84F228520935508F0934508E093D2
:1044700044088823F9F085A196A1A7A1B0A5892BAE
:104480008A2B8B2B99F0858D968DA78DB0A18A3FB5
:104490009105A105B10550F4A80160E070E0841712
:1044A0009507A607B707E8F48C011BC00B3F110561
:1044B000C0F012C004301105A0F0C80103978A3F74
:1044C000910538F48C018230910558F402E010E037
:1044D00008C00D3F110519F00AEF10E002C007EF08
:1044E00010E020934608F0935408E093530800939B
:1044F00038070E94FC23282F30E02F5F3F4F201702
:10450000310740F00E94FC23082F10E00E5F1F4F80
:1045100000933807F11010924708802F0E949A23C9
:104520006CED75E0C1010E9402230E941F270F90CD
:104530000F900F90DF91CF911F910F91FF90EF900F
:10454000DF90CF90BF90AF909F908F907F906F90B3
:104550005F904F903F902F900C942A27000000000E
:10456000000000000000000000000000000000004B
:1045700000000000019791F708951092210108951D
:1045800089E0809321018DE89CE390932901809339
:104590002801089510922501109224010895CF93C7
:1045A000DF9300D0CDB7DEB7809124019091250133
:1045B0009A83898389819A810F900F90DF91CF919F
:1045C000089510928100089581E0809381000895FC
:1045D00083B5816083BD1092850010928400089598
:1045E000CF93DF9300D0CDB7DEB780918400909158
:1045F00085009A83898389819A810F900F90DF913A
:10460000CF910895CF92DF92EF92FF92CF93DF93F5
:10461000EC01CC0FDD1FC9378FEFD80710F0C0E0D9
:10462000D0E06B01E12CF12CCC0EDD1EE11CF11C65
:1046300081E0C816D104E806F10440F081E0E81AF0
:10464000F1080E94F022C817D907D8F30E94F0227F
:104650008C159D05D8F3DF91CF91FF90EF90DF90FF
:10466000CF9008951092B100E0E7F0E080818D7F57
:10467000808380818E7F808308958093B200089527
:10468000E0E7F0E080818360808383E08093B10085
:10469000089583B5826083BD1092B20010923607F0
:1046A000109238070895CF93DF938EEF80933807E9
:1046B00080E28093B600809138078093B30083E056
:1046C00087BB92E09093B0008093B10093B5926065
:1046D00093BD87BB84BD83B5826083BD109280008B
:1046E00081E080938100109285001092840083B550
:1046F000826083BD83B5816083BD10922001C4E2D6
:10470000D1E01982188283B5826083BD83B5816050
:1047100083BD0E944923198218820E9440230E946F
:10472000C02210923607DF91CF9108958091B30097
:104730008F5F089581508093B3000895811102C066
:10474000109271008FEF0895811106C010929500AC
:104750001092940081E008958FEF0895811105C0B3
:104760008091940090919500089580E090E00895E4
:10477000811105C082E08093710081E008958FEF80
:104780000895811135C0CB010197059710F460930E
:1047900037071092900088E0809391005093990021
:1047A0004093980030933507209334078091370762
:1047B000813021F480919100816011C0823021F418
:1047C0008091910082600BC0833021F48091910030
:1047D000836005C0843031F48091910084608093BF
:1047E000910008C0853031F4809191008560F7CF49
:1047F0008FEF089581E008958091B20008951F928F
:104800000F920FB60F92112460E08AE00E942B15E0
:10481000FFCF0F920FB60F921F922F923F924F929F
:104820005F926F927F928F929F92AF92BF92CF9240
:10483000DF92EF92FF920F931F932F933F934F932B
:104840005F936F937F938F939F93AF93BF93CF9318
:10485000DF93EF93FF93A0915308B09154080DB6E6
:104860000D920EB60D921F92A091EA05B091EB0544
:104870001E90BEBFADBF08951F920F920FB60F924C
:1048800011240BB60F922F933F934F935F936F9327
:104890007F938F939F93AF93BF93EF93FF93E09199
:1048A0003407F0913507309711F0099504C060E0A6
:1048B0008AE00E942B15FF91EF91BF91AF919F91DC
:1048C0008F917F916F915F914F913F912F910F90B9
:1048D0000BBE0F900FBE0F901F9018951F920F9256
:1048E0000FB60F9211240F900FBE0F901F901895C6
:1048F00004B603FE02C080E101C080E004B602FEFF
:1049000006C094B79B7F94BF04B600FE846004B6D3
:1049100001FE05C094B79D7F94BF82600895811108
:104920000CC004B600FE04C094B79E7F94BF01C0C3
:1049300081E09091B000911181E00895811102C051
:10494000E89A39C0813011F4E99A0895823011F45F
:10495000EA9A31C0833021F480916B00816029C0D4
:10496000843021F480916B00826023C0853021F473
:1049700080916B0084601DC0863021F480916B00B3
:10498000886017C0873021F480916B00806111C06E
:10499000883021F480916B0080620BC0893021F453
:1049A00080916B00806405C08A3039F480916B007F
:1049B000806880936B0081E008958FEF08958111E6
:1049C00002C0E89839C0813011F4E9980895823026
:1049D00011F4E99831C0833021F480916B008E7F0F
:1049E00029C0843021F480916B008D7F23C08530F5
:1049F00021F480916B008B7F1DC0863021F4809163
:104A00006B00877F17C0873021F480916B008F7E09
:104A100011C0883021F480916B008F7D0BC08930EC
:104A200021F480916B008F7B05C08A3039F480912E
:104A30006B008F7780936B0081E008958FEF08956E
:104A4000811126C05093730840937208611104C00D
:104A5000809169008C7F3DC0613049F4809169008C
:104A60008D7F8093690080916900816032C06230DF
:104A700049F48091690082608093690080916900A7
:104A80008E7F27C0633039F580916900836021C033
:104A9000813049F55093710840937008611104C04A
:104AA00080916900837F15C0613049F4809169006D
:104AB000877F809369008091690084600AC06230BA
:104AC00061F4809169008860809369008091690039
:104AD0008B7F8093690081E008956330E1F78091D6
:104AE00069008C60F6CF823031F5509375084093A1
:104AF0007408611104C0809169008F7CEACF613035
:104B000049F4809169008F7D8093690080916900EC
:104B10008061DFCF623049F48091690080628093C8
:104B20006900809169008F7ED4CF6330A1F68091B7
:104B300069008063CECF8350883050F48091680044
:104B40008160809368005093770840937608C3CFC4
:104B50008FEF08951F920F920FB60F9211240BB68C
:104B60000F922F933F934F935F936F937F938F9306
:104B70009F93AF93BF93EF93FF93E0917608F091EB
:104B80007708309711F0099504C060E08AE00E9430
:104B90002B15FF91EF91BF91AF919F918F917F91D5
:104BA0006F915F914F913F912F910F900BBE0F909E
:104BB0000FBE0F901F9018951F920F920FB60F9275
:104BC00011240BB60F922F933F934F935F936F93E4
:104BD0007F938F939F93AF93BF93EF93FF93E09156
:104BE0007208F0917308309711F0099504C060E0E5
:104BF0008AE00E942B15FF91EF91BF91AF919F9199
:104C00008F917F916F915F914F913F912F910F9075
:104C10000BBE0F900FBE0F901F9018951F920F9212
:104C20000FB60F9211240BB60F922F933F934F9311
:104C30005F936F937F938F939F93AF93BF93EF9304
:104C4000FF93E0917008F0917108309711F0099589
:104C500004C060E08AE00E942B15FF91EF91BF91A4
:104C6000AF919F918F917F916F915F914F913F9104
:104C70002F910F900BBE0F900FBE0F901F901895A5
:104C80001F920F920FB60F9211240BB60F922F9313
:104C90003F934F935F936F937F938F939F93AF93C4
:104CA000BF93EF93FF93E0917408F09175083097EC
:104CB00011F0099504C060E08AE00E942B15FF9175
:104CC000EF91BF91AF919F918F917F916F915F9184
:104CD0004F913F912F910F900BBE0F900FBE0F90F1
:104CE0001F9018950E94AD12A89584B7877F84BF46
:104CF000E0E6F0E080818861808310820C94AF123E
:104D00000E94AD12A89584B7877F84BFE0E6F0E0EB
:104D10008081886180838DE080830C94AF1204B61B
:104D200003FE02C08FEF089581E00895A8950895CD
:104D3000089583B7817F866083BF83B7816083BF17
:104D4000889583B78E7F83BF089583B7817F83BFA4
:104D500083B7816083BF889583B78E7F83BF0895B3
:104D6000FC01768365830895EF92FF920F931F9362
:104D7000CF93DF938C017B01EA014032510518F497
:104D800081E10E9420152197CE0DDF1DF801D2830D
:104D9000C183F482E382DF91CF911F910F91FF9045
:104DA000EF90089525E5FA012083FB013297908367
:104DB000319680833397118210823297118210824C
:104DC00032971182108232971182108232971182AB
:104DD000108232971182108232971182108232979C
:104DE00011821082329711821082329711821082C2
:104DF000329711821082329711821082329711827B
:104E0000108232971182108232971182108232976B
:104E100011821082CB018497FC01118210820895C7
:104E200085E580937E41EEEFF1E4F093EB05E093AE
:104E3000EA0588E794E190838093FF41089588E72D
:104E400094E19093FE418093FF4108950E94532383
:104E50000C94AF12A0914408B0914508CD91CDBFFC
:104E6000DD91DEBFFF91EF91DF91CF91BF91AF91C7
:104E70009F918F917F916F915F914F913F912F9172
:104E80001F910F91FF90EF90DF90CF90BF90AF9068
:104E90009F908F907F906F905F904F903F902F905A
:104EA0001F900F900FBE0F9018950E94580E80E132
:104EB00090E00E94CE110E94B41280E090E00E9427
:104EC000651181E090E00E94651182E090E00E940F
:104ED000651183E090E00E94651120E030E0A901B7
:104EE00060E070E0CB010E94AA1E0E94B7070E94FA
:104EF000DB030E94811380E090E008956F927F921F
:104F00008F929F92AF92BF92CF92DF92EF92FF92D9
:104F10000F931F93CF93DF93CDB7DEB72C970FB6C8
:104F2000F894DEBF0FBECDBF6C015B017A01FC01BE
:104F300017821682838181FF0EC1CE0101964C013A
:104F4000F6010381F50103FD159103FF11915F0146
:104F5000112309F4FCC0153249F403FD159103FF38
:104F600011915F01153211F020E01BC0B601812FB5
:104F700090E00E947E2B37017301E2CF112309F4E8
:104F8000E6C0612F70E081E595E02C870E941F2B21
:104F90002C85892B49F0F50103FD159103FF119133
:104FA0005F0127FFEBCF09C0133229F01C3609F04F
:104FB000D5C02068F0CF20E1EECF022F112309F4F5
:104FC000C6C0612F70E08AE495E02C870E941F2BF9
:104FD0002C85892B41F03701F4E06F0E711CB6016E
:104FE0008FE390E011C0133639F0133781F0133599
:104FF00019F5022F01600BC0370182E0680E711CA9
:10500000B601F701808191810E947E2BB5CF3701D7
:10501000F2E06F0E711CF701E080F180F70100FDF6
:10502000859100FF81917F01882309F4A5CFB60106
:1050300090E00E947E2BF2CF143611F0193629F53C
:10504000370127FF09C0F4E06F0E711CF701608182
:105050007181828193810AC0F2E06F0E711CF701A9
:1050600060817181882777FD8095982F022F0F7EB0
:1050700097FF08C090958095709561957F4F8F4FF1
:105080009F4F00642AE030E033C0103799F040F4BD
:105090001835B1F01F3609F05AC028E030E014C0CE
:1050A000153719F0183741F052C0022F0F7E2AE051
:1050B00030E00AC0022F0061046220E130E004C049
:1050C000022F046020E132E0370107FF09C0F4E05D
:1050D0006F0E711CF701608171818281938108C01C
:1050E000F2E06F0E711CF7016081718180E090E049
:1050F000A4010E94302C182F181906FF05C0B60114
:105100008DE290E00E947E2B04FF15C0FE01E10FAE
:10511000F11D8081803379F0B60180E390E00E9438
:105120007E2B02FF08C00072802F90E0B601885AE3
:105130009F4F0E947E2B1150F401E10FF11D8081E1
:10514000B60190E00E947E2B1111F5CF15CFF6012C
:105150008681978105C08FEF9FEF02C0022F31CF6C
:105160002C960FB6F894DEBF0FBECDBFDF91CF9166
:105170001F910F91FF90EF90DF90CF90BF90AF9075
:105180009F908F907F906F9008950CD0EBC0E3D0EC
:1051900040F0DAD030F021F45F3F19F0CCC051116B
:1051A00015C1CFC0F0D098F39923C9F35523B1F3BB
:1051B000951B550BBB27AA2762177307840738F086
:1051C0009F5F5F4F220F331F441FAA1FA9F333D0E5
:1051D0000E2E3AF0E0E830D091505040E695001C99
:1051E000CAF729D0FE2F27D0660F771F881FBB1F55
:1051F000261737074807AB07B0E809F0BB0B802D2F
:10520000BF01FF2793585F4F2AF09E3F510568F07A
:1052100092C0DCC05F3FECF3983EDCF38695779557
:105220006795B795F7959F5FC9F7880F911D96957C
:10523000879597F90895E1E0660F771F881FBB1FD8
:10524000621773078407BA0720F0621B730B840B85
:10525000BA0BEE1F88F7E095089504D06894B11159
:10526000B5C0089598D088F09F5790F0B92F99272E
:10527000B751A0F0D1F0660F771F881F991F1AF061
:10528000BA95C9F712C0B13081F09FD0B1E008954E
:105290009CC0672F782F8827B85F39F0B93FCCF3CF
:1052A000869577956795B395D9F73EF49095809557
:1052B000709561957F4F8F4F9F4F0895E89409C077
:1052C00097FB3EF490958095709561957F4F8F4F39
:1052D0009F4F9923A9F0F92F96E9BB279395F6954F
:1052E000879577956795B795F111F8CFFAF4BB0FCD
:1052F00011F460FF1BC06F5F7F4F8F4F9F4F16C031
:10530000882311F096E911C0772321F09EE8872FBA
:10531000762F05C0662371F096E8862F70E060E076
:105320002AF09A95660F771F881FDAF7880F9695EF
:10533000879597F9089597F99F6780E870E060E096
:1053400008959FEF80EC089500240A94161617061E
:1053500018060906089500240A9412161306140666
:1053600005060895092E0394000C11F4882352F0C9
:10537000BB0F40F4BF2B11F460FF04C06F5F7F4F81
:105380008F4F9F4F089557FD9058440F551F59F068
:105390005F3F71F04795880F97FB991F61F09F3F22
:1053A00079F087950895121613061406551FF2CF4B
:1053B0004695F1DF08C0161617061806991FF1CF9B
:1053C00086957105610508940895E894BB276627C2
:1053D0007727CB0197F908950E94B62AA59F900DD3
:1053E000B49F900DA49F800D911D11240895DB01A1
:1053F0008F939F930E94EC29BF91AF91A29F800D44
:10540000911DA39F900DB29F900D11240895AA1B8A
:10541000BB1B51E107C0AA1FBB1FA617B70710F09F
:10542000A61BB70B881F991F5A95A9F780959095D1
:10543000BC01CD01089597FB072E16F4009407D008
:1054400077FD09D00E94072A07FC05D03EF490950D
:1054500081959F4F0895709561957F4F0895A1E2C2
:105460001A2EAA1BBB1BFD010DC0AA1FBB1FEE1FDE
:10547000FF1FA217B307E407F50720F0A21BB30B29
:10548000E40BF50B661F771F881F991F1A9469F7A5
:1054900060957095809590959B01AC01BD01CF0101
:1054A0000895689401C0E8948F929F92CF93DF9300
:1054B0000E945F2ADF91CF919F908F90089588245A
:1054C0009924F401E401B0E49F93AA279A158B0470
:1054D0009C04ED05FE05CF05D007A10798F4AD2F7C
:1054E000DC2FCF2FFE2FE92D982C892E982F872F78
:1054F000762F652F542F432F322F2227B85031F7A4
:10550000BF9127C01B2EBF91BB27220F331F441F03
:10551000551F661F771F881F991F881C991CEE1F37
:10552000FF1FCC1FDD1FAA1FBB1F8A149B04EC05A5
:10553000FD05CE05DF05A007B10748F08A189B08D6
:10554000EC09FD09CE09DF09A00BB10B21601A940B
:10555000E1F62EF49401AF01BE01CD01000C0895D7
:10556000EE0FFF1F0590F491E02D0994A29FB0016A
:10557000B39FC001A39F700D811D1124911DB29F87
:10558000700D811D1124911D08958F929F92AF92ED
:10559000BF92CF92DF92EF92FF92CF93DF93EC0115
:1055A000688179818A819B816115710581059105E9
:1055B00021F464E279ED8BE597E02DE133EF41E0F2
:1055C00050E00E94FC2D49015A019B01AC01A7EA61
:1055D000B1E40E94EC296B017C01ACEEB4EFA501B3
:1055E00094010E94F72DDC01CB018C0D9D1DAE1D99
:1055F000BF1DB7FF03C00197A109B04888839983F5
:10560000AA83BB839F77DF91CF91FF90EF90DF90CC
:10561000CF90BF90AF909F908F9008950C94C52A23
:1056200080E092E00C94C52AA0E0B0E080930002F4
:1056300090930102A0930202B09303020895FC012B
:105640000590061621F00020D9F7C0010895319782
:10565000CF010895FB01DC0102C001900D92415081
:105660005040D8F708950F931F93CF93DF9300977F
:1056700031F46115710519F480E090E03AC08B01B6
:10568000EC016EE070E081E090E00E94A42CFC014F
:10569000009791F380E883830115110571F013875A
:1056A000028781E883838091780890917908892B1B
:1056B00021F4F0937908E09378082097C9F0D18716
:1056C000C08783818260838380917A0890917B0870
:1056D000892B71F4F0937B08E0937A0880917C0821
:1056E00090917D08892B21F4F0937D08E0937C084C
:1056F000CF01DF91CF911F910F9108950F931F93C9
:10570000CF93DF93FB01238121FD03C08FEF9FEF38
:1057100028C022FF16C04681578124813581421757
:10572000530744F4A081B1819D012F5F3F4F318326
:1057300020838C93268137812F5F3F4F37832683C9
:1057400010C0EB01092F182F0084F185E02D099579
:10575000892BE1F68E819F8101969F838E83812F15
:10576000902FDF91CF911F910F910895CF93DF93E9
:10577000CDB7DEB7AE014B5F5F4FFA01619171911A
:10578000AF0180917A0890917B080E947E27DF917B
:10579000CF91089560917A0870917B080C947E2BCC
:1057A0000F931F93CF93DF93E0917A08F0917B08DA
:1057B000238121FF1BC08C01D0E0C0E0F801819162
:1057C0008F0160917A0870917B08DB011896ED914A
:1057D000FC911997882331F00995892B79F3DFEF34
:1057E000CFEFECCF8AE00995892B19F08FEF9FEF6F
:1057F00002C08D2F9C2FDF91CF911F910F910895A3
:105800000F931F93CF93DF93CDB7DEB72E970FB6CD
:10581000F894DEBF0FBECDBF0D891E8986E08C8354
:105820001A8309838FEF9FE79E838D83AE01475EC6
:105830005F4F6F89788DCE0101960E947E272F8160
:105840003885F801E20FF31F10822E960FB6F894F8
:10585000DEBF0FBECDBFDF91CF911F910F91089595
:10586000FA01AA27283051F1203181F1E8946F9391
:105870006E7F6E5F7F4F8F4F9F4FAF4FB1E03ED037
:10588000B4E03CD0670F781F891F9A1FA11D680FD5
:10589000791F8A1F911DA11D6A0F711D811D911D08
:1058A000A11D20D009F468943F912AE0269F11247D
:1058B0003019305D3193DEF6CF010895462F4770E1
:1058C000405D4193B3E00FD0C9F7F6CF462F4F703C
:1058D000405D4A3318F0495D31FD4052419302D09A
:1058E000A9F7EACFB4E0A695979587957795679540
:1058F000BA95C9F700976105710508959B01AC0140
:105900000A2E06945795479537952795BA95C9F766
:10591000620F731F841F951FA01D0895F999FECF74
:1059200092BD81BDF89A992780B50895262FF999DF
:10593000FECF1FBA92BD81BD20BD0FB6F894FA9A72
:10594000F99A0FBE019608950F931F93CF93DF939B
:10595000869F8001879F100D969F100D1124C8010E
:105960000E94C02CEC01009729F0A80160E070E0D3
:105970000E94ED2DCE01DF91CF911F910F910895DF
:10598000CF93DF938230910510F482E090E0E091B4
:105990008008F091810820E030E0C0E0D0E030974E
:1059A00011F14081518148175907C0F04817590734
:1059B00061F482819381209719F09B838A832BC0A5
:1059C000909381088093800826C02115310519F035
:1059D0004217530718F49A01BE01DF01EF0102805C
:1059E000F381E02DDCCF2115310509F1281B390B9E
:1059F0002430310590F412968D919C911397611586
:105A0000710521F0FB019383828304C09093810888
:105A100080938008FD01329644C0FD01E20FF31F20
:105A200081939193225031092D933C933AC0209158
:105A30007E0830917F08232B41F42091060230919B
:105A4000070230937F0820937E0820910402309152
:105A500005022115310541F42DB73EB740910802EA
:105A600050910902241B350BE0917E08F0917F08CC
:105A7000E217F307A0F42E1B3F0B2817390778F025
:105A8000AC014E5F5F4F2417350748F04E0F5F1F84
:105A900050937F0840937E088193919302C0E0E089
:105AA000F0E0CF01DF91CF9108950F931F93CF9333
:105AB000DF93009709F48CC0FC01329713821282A5
:105AC00000918008109181080115110581F4208151
:105AD0003181820F931F20917E0830917F08281713
